{
	"contracts/RegisterUsers.sol": {
		"RegisterUsers": {
			"abi": [
				{
					"inputs": [],
					"stateMutability": "nonpayable",
					"type": "constructor"
				},
				{
					"inputs": [
						{
							"internalType": "address",
							"name": "owner",
							"type": "address"
						}
					],
					"name": "OwnableInvalidOwner",
					"type": "error"
				},
				{
					"inputs": [
						{
							"internalType": "address",
							"name": "account",
							"type": "address"
						}
					],
					"name": "OwnableUnauthorizedAccount",
					"type": "error"
				},
				{
					"anonymous": false,
					"inputs": [
						{
							"indexed": true,
							"internalType": "address",
							"name": "agent",
							"type": "address"
						}
					],
					"name": "AgentAdded",
					"type": "event"
				},
				{
					"anonymous": false,
					"inputs": [
						{
							"indexed": true,
							"internalType": "address",
							"name": "agent",
							"type": "address"
						}
					],
					"name": "AgentRemoved",
					"type": "event"
				},
				{
					"anonymous": false,
					"inputs": [
						{
							"indexed": true,
							"internalType": "uint256",
							"name": "communityId",
							"type": "uint256"
						},
						{
							"indexed": false,
							"internalType": "string",
							"name": "name",
							"type": "string"
						},
						{
							"indexed": false,
							"internalType": "address",
							"name": "creator",
							"type": "address"
						}
					],
					"name": "CommunityCreated",
					"type": "event"
				},
				{
					"anonymous": false,
					"inputs": [
						{
							"indexed": true,
							"internalType": "uint256",
							"name": "communityId",
							"type": "uint256"
						},
						{
							"indexed": false,
							"internalType": "address",
							"name": "member",
							"type": "address"
						}
					],
					"name": "MemberAdded",
					"type": "event"
				},
				{
					"anonymous": false,
					"inputs": [
						{
							"indexed": true,
							"internalType": "address",
							"name": "previousOwner",
							"type": "address"
						},
						{
							"indexed": true,
							"internalType": "address",
							"name": "newOwner",
							"type": "address"
						}
					],
					"name": "OwnershipTransferred",
					"type": "event"
				},
				{
					"anonymous": false,
					"inputs": [
						{
							"indexed": true,
							"internalType": "address",
							"name": "user",
							"type": "address"
						},
						{
							"indexed": false,
							"internalType": "bool",
							"name": "isEntity",
							"type": "bool"
						}
					],
					"name": "UserRegistered",
					"type": "event"
				},
				{
					"anonymous": false,
					"inputs": [
						{
							"indexed": true,
							"internalType": "address",
							"name": "user",
							"type": "address"
						},
						{
							"indexed": false,
							"internalType": "bool",
							"name": "isEntity",
							"type": "bool"
						}
					],
					"name": "UserRemoved",
					"type": "event"
				},
				{
					"inputs": [
						{
							"internalType": "address",
							"name": "_agent",
							"type": "address"
						}
					],
					"name": "addAgent",
					"outputs": [],
					"stateMutability": "nonpayable",
					"type": "function"
				},
				{
					"inputs": [
						{
							"internalType": "uint256",
							"name": "_communityId",
							"type": "uint256"
						},
						{
							"internalType": "address",
							"name": "_member",
							"type": "address"
						}
					],
					"name": "addMember",
					"outputs": [],
					"stateMutability": "nonpayable",
					"type": "function"
				},
				{
					"inputs": [
						{
							"internalType": "string",
							"name": "_name",
							"type": "string"
						},
						{
							"internalType": "string",
							"name": "_description",
							"type": "string"
						}
					],
					"name": "createCommunity",
					"outputs": [],
					"stateMutability": "nonpayable",
					"type": "function"
				},
				{
					"inputs": [],
					"name": "getAgents",
					"outputs": [
						{
							"internalType": "address[]",
							"name": "",
							"type": "address[]"
						}
					],
					"stateMutability": "view",
					"type": "function"
				},
				{
					"inputs": [
						{
							"internalType": "uint256",
							"name": "_communityId",
							"type": "uint256"
						}
					],
					"name": "getCommunity",
					"outputs": [
						{
							"components": [
								{
									"internalType": "string",
									"name": "name",
									"type": "string"
								},
								{
									"internalType": "string",
									"name": "description",
									"type": "string"
								},
								{
									"internalType": "address",
									"name": "creator",
									"type": "address"
								},
								{
									"internalType": "uint256",
									"name": "createdAt",
									"type": "uint256"
								},
								{
									"internalType": "address[]",
									"name": "members",
									"type": "address[]"
								}
							],
							"internalType": "struct RegisterUsers.Community",
							"name": "",
							"type": "tuple"
						}
					],
					"stateMutability": "view",
					"type": "function"
				},
				{
					"inputs": [
						{
							"internalType": "address",
							"name": "_address",
							"type": "address"
						}
					],
					"name": "isAgent",
					"outputs": [
						{
							"internalType": "bool",
							"name": "",
							"type": "bool"
						}
					],
					"stateMutability": "view",
					"type": "function"
				},
				{
					"inputs": [
						{
							"internalType": "address",
							"name": "_address",
							"type": "address"
						}
					],
					"name": "isRegisteredEntity",
					"outputs": [
						{
							"internalType": "bool",
							"name": "",
							"type": "bool"
						}
					],
					"stateMutability": "view",
					"type": "function"
				},
				{
					"inputs": [
						{
							"internalType": "address",
							"name": "_address",
							"type": "address"
						}
					],
					"name": "isRegisteredUser",
					"outputs": [
						{
							"internalType": "bool",
							"name": "",
							"type": "bool"
						}
					],
					"stateMutability": "view",
					"type": "function"
				},
				{
					"inputs": [],
					"name": "owner",
					"outputs": [
						{
							"internalType": "address",
							"name": "",
							"type": "address"
						}
					],
					"stateMutability": "view",
					"type": "function"
				},
				{
					"inputs": [
						{
							"internalType": "address",
							"name": "_entity",
							"type": "address"
						}
					],
					"name": "registerEntity",
					"outputs": [],
					"stateMutability": "nonpayable",
					"type": "function"
				},
				{
					"inputs": [
						{
							"internalType": "address",
							"name": "_user",
							"type": "address"
						}
					],
					"name": "registerUser",
					"outputs": [],
					"stateMutability": "nonpayable",
					"type": "function"
				},
				{
					"inputs": [
						{
							"internalType": "address",
							"name": "_agent",
							"type": "address"
						}
					],
					"name": "removeAgent",
					"outputs": [],
					"stateMutability": "nonpayable",
					"type": "function"
				},
				{
					"inputs": [
						{
							"internalType": "address",
							"name": "_entity",
							"type": "address"
						}
					],
					"name": "removeEntity",
					"outputs": [],
					"stateMutability": "nonpayable",
					"type": "function"
				},
				{
					"inputs": [
						{
							"internalType": "address",
							"name": "_user",
							"type": "address"
						}
					],
					"name": "removeUser",
					"outputs": [],
					"stateMutability": "nonpayable",
					"type": "function"
				},
				{
					"inputs": [],
					"name": "renounceOwnership",
					"outputs": [],
					"stateMutability": "nonpayable",
					"type": "function"
				},
				{
					"inputs": [
						{
							"internalType": "address",
							"name": "newOwner",
							"type": "address"
						}
					],
					"name": "transferOwnership",
					"outputs": [],
					"stateMutability": "nonpayable",
					"type": "function"
				}
			],
			"devdoc": {
				"errors": {
					"OwnableInvalidOwner(address)": [
						{
							"details": "The owner is not a valid owner account. (eg. `address(0)`)"
						}
					],
					"OwnableUnauthorizedAccount(address)": [
						{
							"details": "The caller account is not authorized to perform an operation."
						}
					]
				},
				"kind": "dev",
				"methods": {
					"addAgent(address)": {
						"details": "Adds a new agent",
						"params": {
							"_agent": "Address of the agent to add - pet vets"
						}
					},
					"addMember(uint256,address)": {
						"details": "Adds a member to a community",
						"params": {
							"_communityId": "ID of the community",
							"_member": "Address of the member to add"
						}
					},
					"constructor": {
						"details": "Constructor initializes the contract with the deployer as owner"
					},
					"createCommunity(string,string)": {
						"details": "Creates a new community",
						"params": {
							"_description": "Description of the community",
							"_name": "Name of the community"
						}
					},
					"getAgents()": {
						"details": "Returns a list of all agents"
					},
					"getCommunity(uint256)": {
						"details": "Retrieves community information",
						"params": {
							"_communityId": "ID of the community"
						}
					},
					"isAgent(address)": {
						"details": "Checks if an address is an agent",
						"params": {
							"_address": "Address to check"
						}
					},
					"isRegisteredEntity(address)": {
						"details": "Checks if an address is a registered entity",
						"params": {
							"_address": "Address to check"
						}
					},
					"isRegisteredUser(address)": {
						"details": "Checks if an address is a registered user",
						"params": {
							"_address": "Address to check"
						}
					},
					"owner()": {
						"details": "Returns the address of the current owner."
					},
					"registerEntity(address)": {
						"details": "Registers an entity",
						"params": {
							"_entity": "Address of the entity to register"
						}
					},
					"registerUser(address)": {
						"details": "Registers a normal user",
						"params": {
							"_user": "Address of the user to register"
						}
					},
					"removeAgent(address)": {
						"details": "Removes an agent",
						"params": {
							"_agent": "Address of the agent to remove"
						}
					},
					"removeEntity(address)": {
						"details": "Removes an entity",
						"params": {
							"_entity": "Address of the entity to remove"
						}
					},
					"removeUser(address)": {
						"details": "Removes a normal user",
						"params": {
							"_user": "Address of the user to remove"
						}
					},
					"renounceOwnership()": {
						"details": "Leaves the contract without owner. It will not be possible to call `onlyOwner` functions. Can only be called by the current owner. NOTE: Renouncing ownership will leave the contract without an owner, thereby disabling any functionality that is only available to the owner."
					},
					"transferOwnership(address)": {
						"details": "Transfers ownership of the contract to a new account (`newOwner`). Can only be called by the current owner."
					}
				},
				"version": 1
			},
			"evm": {
				"assembly": "    /* \"contracts/RegisterUsers.sol\":113:7143  contract RegisterUsers is Ownable {... */\n  mstore(0x40, 0x80)\n    /* \"contracts/RegisterUsers.sol\":228:229  0 */\n  0x00\n    /* \"contracts/RegisterUsers.sol\":191:229  uint256 private communityIdCounter = 0 */\n  0x01\n  sstore\n    /* \"contracts/RegisterUsers.sol\":1479:1515  constructor() Ownable(msg.sender) {} */\n  callvalue\n  dup1\n  iszero\n  tag_1\n  jumpi\n  0x00\n  dup1\n  revert\ntag_1:\n  pop\n    /* \"contracts/RegisterUsers.sol\":1501:1511  msg.sender */\n  caller\n    /* \"@openzeppelin/contracts/access/Ownable.sol\":1297:1298  0 */\n  0x00\n    /* \"@openzeppelin/contracts/access/Ownable.sol\":1273:1299  initialOwner == address(0) */\n  0xffffffffffffffffffffffffffffffffffffffff\n  and\n    /* \"@openzeppelin/contracts/access/Ownable.sol\":1273:1285  initialOwner */\n  dup2\n    /* \"@openzeppelin/contracts/access/Ownable.sol\":1273:1299  initialOwner == address(0) */\n  0xffffffffffffffffffffffffffffffffffffffff\n  and\n  sub\n    /* \"@openzeppelin/contracts/access/Ownable.sol\":1269:1364  if (initialOwner == address(0)) {... */\n  tag_5\n  jumpi\n    /* \"@openzeppelin/contracts/access/Ownable.sol\":1350:1351  0 */\n  0x00\n    /* \"@openzeppelin/contracts/access/Ownable.sol\":1322:1353  OwnableInvalidOwner(address(0)) */\n  mload(0x40)\n  0x1e4fbdf700000000000000000000000000000000000000000000000000000000\n  dup2\n  mstore\n  0x04\n  add\n  tag_6\n  swap2\n  swap1\n  tag_7\n  jump\t// in\ntag_6:\n  mload(0x40)\n  dup1\n  swap2\n  sub\n  swap1\n  revert\n    /* \"@openzeppelin/contracts/access/Ownable.sol\":1269:1364  if (initialOwner == address(0)) {... */\ntag_5:\n    /* \"@openzeppelin/contracts/access/Ownable.sol\":1373:1405  _transferOwnership(initialOwner) */\n  tag_8\n    /* \"@openzeppelin/contracts/access/Ownable.sol\":1392:1404  initialOwner */\n  dup2\n    /* \"@openzeppelin/contracts/access/Ownable.sol\":1373:1391  _transferOwnership */\n  shl(0x20, tag_9)\n    /* \"@openzeppelin/contracts/access/Ownable.sol\":1373:1405  _transferOwnership(initialOwner) */\n  0x20\n  shr\n  jump\t// in\ntag_8:\n    /* \"@openzeppelin/contracts/access/Ownable.sol\":1225:1412  constructor(address initialOwner) {... */\n  pop\n    /* \"contracts/RegisterUsers.sol\":113:7143  contract RegisterUsers is Ownable {... */\n  jump(tag_11)\n    /* \"@openzeppelin/contracts/access/Ownable.sol\":2912:3099  function _transferOwnership(address newOwner) internal virtual {... */\ntag_9:\n    /* \"@openzeppelin/contracts/access/Ownable.sol\":2985:3001  address oldOwner */\n  0x00\n    /* \"@openzeppelin/contracts/access/Ownable.sol\":3004:3010  _owner */\n  dup1\n  0x00\n  swap1\n  sload\n  swap1\n  0x0100\n  exp\n  swap1\n  div\n  0xffffffffffffffffffffffffffffffffffffffff\n  and\n    /* \"@openzeppelin/contracts/access/Ownable.sol\":2985:3010  address oldOwner = _owner */\n  swap1\n  pop\n    /* \"@openzeppelin/contracts/access/Ownable.sol\":3029:3037  newOwner */\n  dup2\n    /* \"@openzeppelin/contracts/access/Ownable.sol\":3020:3026  _owner */\n  0x00\n  dup1\n    /* \"@openzeppelin/contracts/access/Ownable.sol\":3020:3037  _owner = newOwner */\n  0x0100\n  exp\n  dup2\n  sload\n  dup2\n  0xffffffffffffffffffffffffffffffffffffffff\n  mul\n  not\n  and\n  swap1\n  dup4\n  0xffffffffffffffffffffffffffffffffffffffff\n  and\n  mul\n  or\n  swap1\n  sstore\n  pop\n    /* \"@openzeppelin/contracts/access/Ownable.sol\":3083:3091  newOwner */\n  dup2\n    /* \"@openzeppelin/contracts/access/Ownable.sol\":3052:3092  OwnershipTransferred(oldOwner, newOwner) */\n  0xffffffffffffffffffffffffffffffffffffffff\n  and\n    /* \"@openzeppelin/contracts/access/Ownable.sol\":3073:3081  oldOwner */\n  dup2\n    /* \"@openzeppelin/contracts/access/Ownable.sol\":3052:3092  OwnershipTransferred(oldOwner, newOwner) */\n  0xffffffffffffffffffffffffffffffffffffffff\n  and\n  0x8be0079c531659141344cd1fd0a4f28419497f9722a3daafe3b4186f6b6457e0\n  mload(0x40)\n  mload(0x40)\n  dup1\n  swap2\n  sub\n  swap1\n  log3\n    /* \"@openzeppelin/contracts/access/Ownable.sol\":2975:3099  {... */\n  pop\n    /* \"@openzeppelin/contracts/access/Ownable.sol\":2912:3099  function _transferOwnership(address newOwner) internal virtual {... */\n  pop\n  jump\t// out\n    /* \"#utility.yul\":7:133   */\ntag_13:\n    /* \"#utility.yul\":44:51   */\n  0x00\n    /* \"#utility.yul\":84:126   */\n  0xffffffffffffffffffffffffffffffffffffffff\n    /* \"#utility.yul\":77:82   */\n  dup3\n    /* \"#utility.yul\":73:127   */\n  and\n    /* \"#utility.yul\":62:127   */\n  swap1\n  pop\n    /* \"#utility.yul\":7:133   */\n  swap2\n  swap1\n  pop\n  jump\t// out\n    /* \"#utility.yul\":139:235   */\ntag_14:\n    /* \"#utility.yul\":176:183   */\n  0x00\n    /* \"#utility.yul\":205:229   */\n  tag_19\n    /* \"#utility.yul\":223:228   */\n  dup3\n    /* \"#utility.yul\":205:229   */\n  tag_13\n  jump\t// in\ntag_19:\n    /* \"#utility.yul\":194:229   */\n  swap1\n  pop\n    /* \"#utility.yul\":139:235   */\n  swap2\n  swap1\n  pop\n  jump\t// out\n    /* \"#utility.yul\":241:359   */\ntag_15:\n    /* \"#utility.yul\":328:352   */\n  tag_21\n    /* \"#utility.yul\":346:351   */\n  dup2\n    /* \"#utility.yul\":328:352   */\n  tag_14\n  jump\t// in\ntag_21:\n    /* \"#utility.yul\":323:326   */\n  dup3\n    /* \"#utility.yul\":316:353   */\n  mstore\n    /* \"#utility.yul\":241:359   */\n  pop\n  pop\n  jump\t// out\n    /* \"#utility.yul\":365:587   */\ntag_7:\n    /* \"#utility.yul\":458:462   */\n  0x00\n    /* \"#utility.yul\":496:498   */\n  0x20\n    /* \"#utility.yul\":485:494   */\n  dup3\n    /* \"#utility.yul\":481:499   */\n  add\n    /* \"#utility.yul\":473:499   */\n  swap1\n  pop\n    /* \"#utility.yul\":509:580   */\n  tag_23\n    /* \"#utility.yul\":577:578   */\n  0x00\n    /* \"#utility.yul\":566:575   */\n  dup4\n    /* \"#utility.yul\":562:579   */\n  add\n    /* \"#utility.yul\":553:559   */\n  dup5\n    /* \"#utility.yul\":509:580   */\n  tag_15\n  jump\t// in\ntag_23:\n    /* \"#utility.yul\":365:587   */\n  swap3\n  swap2\n  pop\n  pop\n  jump\t// out\n    /* \"contracts/RegisterUsers.sol\":113:7143  contract RegisterUsers is Ownable {... */\ntag_11:\n  dataSize(sub_0)\n  dup1\n  dataOffset(sub_0)\n  0x00\n  codecopy\n  0x00\n  return\nstop\n\nsub_0: assembly {\n        /* \"contracts/RegisterUsers.sol\":113:7143  contract RegisterUsers is Ownable {... */\n      mstore(0x40, 0x80)\n      callvalue\n      dup1\n      iszero\n      tag_1\n      jumpi\n      0x00\n      dup1\n      revert\n    tag_1:\n      pop\n      jumpi(tag_2, lt(calldatasize, 0x04))\n      shr(0xe0, calldataload(0x00))\n      dup1\n      0x8da5cb5b\n      gt\n      tag_19\n      jumpi\n      dup1\n      0xdd182996\n      gt\n      tag_20\n      jumpi\n      dup1\n      0xdd182996\n      eq\n      tag_15\n      jumpi\n      dup1\n      0xeac3fda4\n      eq\n      tag_16\n      jumpi\n      dup1\n      0xebb99431\n      eq\n      tag_17\n      jumpi\n      dup1\n      0xf2fde38b\n      eq\n      tag_18\n      jumpi\n      jump(tag_2)\n    tag_20:\n      dup1\n      0x8da5cb5b\n      eq\n      tag_11\n      jumpi\n      dup1\n      0x97a6278e\n      eq\n      tag_12\n      jumpi\n      dup1\n      0x98575188\n      eq\n      tag_13\n      jumpi\n      dup1\n      0xdaf60b71\n      eq\n      tag_14\n      jumpi\n      jump(tag_2)\n    tag_19:\n      dup1\n      0x370603f8\n      gt\n      tag_21\n      jumpi\n      dup1\n      0x370603f8\n      eq\n      tag_7\n      jumpi\n      dup1\n      0x715018a6\n      eq\n      tag_8\n      jumpi\n      dup1\n      0x74d0a676\n      eq\n      tag_9\n      jumpi\n      dup1\n      0x84e79842\n      eq\n      tag_10\n      jumpi\n      jump(tag_2)\n    tag_21:\n      dup1\n      0x03b28c33\n      eq\n      tag_3\n      jumpi\n      dup1\n      0x1f5bdf5d\n      eq\n      tag_4\n      jumpi\n      dup1\n      0x1ffbb064\n      eq\n      tag_5\n      jumpi\n      dup1\n      0x2199d5cd\n      eq\n      tag_6\n      jumpi\n    tag_2:\n      0x00\n      dup1\n      revert\n        /* \"contracts/RegisterUsers.sol\":3332:4093  function createCommunity(string calldata _name, string calldata _description) external {... */\n    tag_3:\n      tag_22\n      0x04\n      dup1\n      calldatasize\n      sub\n      dup2\n      add\n      swap1\n      tag_23\n      swap2\n      swap1\n      tag_24\n      jump\t// in\n    tag_23:\n      tag_25\n      jump\t// in\n    tag_22:\n      stop\n        /* \"contracts/RegisterUsers.sol\":6562:6684  function isRegisteredUser(address _address) external view returns (bool) {... */\n    tag_4:\n      tag_26\n      0x04\n      dup1\n      calldatasize\n      sub\n      dup2\n      add\n      swap1\n      tag_27\n      swap2\n      swap1\n      tag_28\n      jump\t// in\n    tag_27:\n      tag_29\n      jump\t// in\n    tag_26:\n      mload(0x40)\n      tag_30\n      swap2\n      swap1\n      tag_31\n      jump\t// in\n    tag_30:\n      mload(0x40)\n      dup1\n      swap2\n      sub\n      swap1\n      return\n        /* \"contracts/RegisterUsers.sol\":7036:7140  function isAgent(address _address) external view returns (bool) {... */\n    tag_5:\n      tag_32\n      0x04\n      dup1\n      calldatasize\n      sub\n      dup2\n      add\n      swap1\n      tag_33\n      swap2\n      swap1\n      tag_28\n      jump\t// in\n    tag_33:\n      tag_34\n      jump\t// in\n    tag_32:\n      mload(0x40)\n      tag_35\n      swap2\n      swap1\n      tag_31\n      jump\t// in\n    tag_35:\n      mload(0x40)\n      dup1\n      swap2\n      sub\n      swap1\n      return\n        /* \"contracts/RegisterUsers.sol\":2294:2672  function registerUser(address _user) external onlyAgent {... */\n    tag_6:\n      tag_36\n      0x04\n      dup1\n      calldatasize\n      sub\n      dup2\n      add\n      swap1\n      tag_37\n      swap2\n      swap1\n      tag_28\n      jump\t// in\n    tag_37:\n      tag_38\n      jump\t// in\n    tag_36:\n      stop\n        /* \"contracts/RegisterUsers.sol\":4818:5032  function getCommunity(uint256 _communityId) external view returns (Community memory) {... */\n    tag_7:\n      tag_39\n      0x04\n      dup1\n      calldatasize\n      sub\n      dup2\n      add\n      swap1\n      tag_40\n      swap2\n      swap1\n      tag_41\n      jump\t// in\n    tag_40:\n      tag_42\n      jump\t// in\n    tag_39:\n      mload(0x40)\n      tag_43\n      swap2\n      swap1\n      tag_44\n      jump\t// in\n    tag_43:\n      mload(0x40)\n      dup1\n      swap2\n      sub\n      swap1\n      return\n        /* \"@openzeppelin/contracts/access/Ownable.sol\":2293:2394  function renounceOwnership() public virtual onlyOwner {... */\n    tag_8:\n      tag_45\n      tag_46\n      jump\t// in\n    tag_45:\n      stop\n        /* \"contracts/RegisterUsers.sol\":4263:4705  function addMember(uint256 _communityId, address _member) external {... */\n    tag_9:\n      tag_47\n      0x04\n      dup1\n      calldatasize\n      sub\n      dup2\n      add\n      swap1\n      tag_48\n      swap2\n      swap1\n      tag_49\n      jump\t// in\n    tag_48:\n      tag_50\n      jump\t// in\n    tag_47:\n      stop\n        /* \"contracts/RegisterUsers.sol\":1627:1891  function addAgent(address _agent) external onlyOwner {... */\n    tag_10:\n      tag_51\n      0x04\n      dup1\n      calldatasize\n      sub\n      dup2\n      add\n      swap1\n      tag_52\n      swap2\n      swap1\n      tag_28\n      jump\t// in\n    tag_52:\n      tag_53\n      jump\t// in\n    tag_51:\n      stop\n        /* \"@openzeppelin/contracts/access/Ownable.sol\":1638:1723  function owner() public view virtual returns (address) {... */\n    tag_11:\n      tag_54\n      tag_55\n      jump\t// in\n    tag_54:\n      mload(0x40)\n      tag_56\n      swap2\n      swap1\n      tag_57\n      jump\t// in\n    tag_56:\n      mload(0x40)\n      dup1\n      swap2\n      sub\n      swap1\n      return\n        /* \"contracts/RegisterUsers.sol\":1994:2184  function removeAgent(address _agent) external onlyOwner {... */\n    tag_12:\n      tag_58\n      0x04\n      dup1\n      calldatasize\n      sub\n      dup2\n      add\n      swap1\n      tag_59\n      swap2\n      swap1\n      tag_28\n      jump\t// in\n    tag_59:\n      tag_60\n      jump\t// in\n    tag_58:\n      stop\n        /* \"contracts/RegisterUsers.sol\":5139:5421  function removeUser(address _user) external onlyAgent {... */\n    tag_13:\n      tag_61\n      0x04\n      dup1\n      calldatasize\n      sub\n      dup2\n      add\n      swap1\n      tag_62\n      swap2\n      swap1\n      tag_28\n      jump\t// in\n    tag_62:\n      tag_63\n      jump\t// in\n    tag_61:\n      stop\n        /* \"contracts/RegisterUsers.sol\":6802:6929  function isRegisteredEntity(address _address) external view returns (bool) {... */\n    tag_14:\n      tag_64\n      0x04\n      dup1\n      calldatasize\n      sub\n      dup2\n      add\n      swap1\n      tag_65\n      swap2\n      swap1\n      tag_28\n      jump\t// in\n    tag_65:\n      tag_66\n      jump\t// in\n    tag_64:\n      mload(0x40)\n      tag_67\n      swap2\n      swap1\n      tag_31\n      jump\t// in\n    tag_67:\n      mload(0x40)\n      dup1\n      swap2\n      sub\n      swap1\n      return\n        /* \"contracts/RegisterUsers.sol\":6145:6446  function removeEntity(address _entity) external onlyAgent {... */\n    tag_15:\n      tag_68\n      0x04\n      dup1\n      calldatasize\n      sub\n      dup2\n      add\n      swap1\n      tag_69\n      swap2\n      swap1\n      tag_28\n      jump\t// in\n    tag_69:\n      tag_70\n      jump\t// in\n    tag_68:\n      stop\n        /* \"contracts/RegisterUsers.sol\":5484:6039  function getAgents() external view returns (address[] memory) {... */\n    tag_16:\n      tag_71\n      tag_72\n      jump\t// in\n    tag_71:\n      mload(0x40)\n      tag_73\n      swap2\n      swap1\n      tag_74\n      jump\t// in\n    tag_73:\n      mload(0x40)\n      dup1\n      swap2\n      sub\n      swap1\n      return\n        /* \"contracts/RegisterUsers.sol\":2782:3176  function registerEntity(address _entity) external onlyAgent {... */\n    tag_17:\n      tag_75\n      0x04\n      dup1\n      calldatasize\n      sub\n      dup2\n      add\n      swap1\n      tag_76\n      swap2\n      swap1\n      tag_28\n      jump\t// in\n    tag_76:\n      tag_77\n      jump\t// in\n    tag_75:\n      stop\n        /* \"@openzeppelin/contracts/access/Ownable.sol\":2543:2758  function transferOwnership(address newOwner) public virtual onlyOwner {... */\n    tag_18:\n      tag_78\n      0x04\n      dup1\n      calldatasize\n      sub\n      dup2\n      add\n      swap1\n      tag_79\n      swap2\n      swap1\n      tag_28\n      jump\t// in\n    tag_79:\n      tag_80\n      jump\t// in\n    tag_78:\n      stop\n        /* \"contracts/RegisterUsers.sol\":3332:4093  function createCommunity(string calldata _name, string calldata _description) external {... */\n    tag_25:\n        /* \"contracts/RegisterUsers.sol\":3459:3460  0 */\n      0x00\n        /* \"contracts/RegisterUsers.sol\":3443:3448  _name */\n      dup5\n      dup5\n        /* \"contracts/RegisterUsers.sol\":3437:3456  bytes(_name).length */\n      swap1\n      pop\n        /* \"contracts/RegisterUsers.sol\":3437:3460  bytes(_name).length > 0 */\n      gt\n        /* \"contracts/RegisterUsers.sol\":3429:3495  require(bytes(_name).length > 0, \"Community name cannot be empty\") */\n      tag_82\n      jumpi\n      mload(0x40)\n      0x08c379a000000000000000000000000000000000000000000000000000000000\n      dup2\n      mstore\n      0x04\n      add\n      tag_83\n      swap1\n      tag_84\n      jump\t// in\n    tag_83:\n      mload(0x40)\n      dup1\n      swap2\n      sub\n      swap1\n      revert\n    tag_82:\n        /* \"contracts/RegisterUsers.sol\":3542:3543  0 */\n      0x00\n        /* \"contracts/RegisterUsers.sol\":3519:3531  _description */\n      dup3\n      dup3\n        /* \"contracts/RegisterUsers.sol\":3513:3539  bytes(_description).length */\n      swap1\n      pop\n        /* \"contracts/RegisterUsers.sol\":3513:3543  bytes(_description).length > 0 */\n      gt\n        /* \"contracts/RegisterUsers.sol\":3505:3585  require(bytes(_description).length > 0, \"Community description cannot be empty\") */\n      tag_85\n      jumpi\n      mload(0x40)\n      0x08c379a000000000000000000000000000000000000000000000000000000000\n      dup2\n      mstore\n      0x04\n      add\n      tag_86\n      swap1\n      tag_87\n      jump\t// in\n    tag_86:\n      mload(0x40)\n      dup1\n      swap2\n      sub\n      swap1\n      revert\n    tag_85:\n        /* \"contracts/RegisterUsers.sol\":3603:3618  registeredUsers */\n      0x04\n        /* \"contracts/RegisterUsers.sol\":3603:3630  registeredUsers[msg.sender] */\n      0x00\n        /* \"contracts/RegisterUsers.sol\":3619:3629  msg.sender */\n      caller\n        /* \"contracts/RegisterUsers.sol\":3603:3630  registeredUsers[msg.sender] */\n      0xffffffffffffffffffffffffffffffffffffffff\n      and\n      0xffffffffffffffffffffffffffffffffffffffff\n      and\n      dup2\n      mstore\n      0x20\n      add\n      swap1\n      dup2\n      mstore\n      0x20\n      add\n      0x00\n      keccak256\n      0x00\n      swap1\n      sload\n      swap1\n      0x0100\n      exp\n      swap1\n      div\n      0xff\n      and\n        /* \"contracts/RegisterUsers.sol\":3603:3664  registeredUsers[msg.sender] || registeredEntities[msg.sender] */\n      dup1\n      tag_88\n      jumpi\n      pop\n        /* \"contracts/RegisterUsers.sol\":3634:3652  registeredEntities */\n      0x05\n        /* \"contracts/RegisterUsers.sol\":3634:3664  registeredEntities[msg.sender] */\n      0x00\n        /* \"contracts/RegisterUsers.sol\":3653:3663  msg.sender */\n      caller\n        /* \"contracts/RegisterUsers.sol\":3634:3664  registeredEntities[msg.sender] */\n      0xffffffffffffffffffffffffffffffffffffffff\n      and\n      0xffffffffffffffffffffffffffffffffffffffff\n      and\n      dup2\n      mstore\n      0x20\n      add\n      swap1\n      dup2\n      mstore\n      0x20\n      add\n      0x00\n      keccak256\n      0x00\n      swap1\n      sload\n      swap1\n      0x0100\n      exp\n      swap1\n      div\n      0xff\n      and\n        /* \"contracts/RegisterUsers.sol\":3603:3664  registeredUsers[msg.sender] || registeredEntities[msg.sender] */\n    tag_88:\n        /* \"contracts/RegisterUsers.sol\":3595:3725  require(registeredUsers[msg.sender] || registeredEntities[msg.sender], \"Only registered users or entities can create communities\") */\n      tag_89\n      jumpi\n      mload(0x40)\n      0x08c379a000000000000000000000000000000000000000000000000000000000\n      dup2\n      mstore\n      0x04\n      add\n      tag_90\n      swap1\n      tag_91\n      jump\t// in\n    tag_90:\n      mload(0x40)\n      dup1\n      swap2\n      sub\n      swap1\n      revert\n    tag_89:\n        /* \"contracts/RegisterUsers.sol\":3736:3755  uint256 communityId */\n      0x00\n        /* \"contracts/RegisterUsers.sol\":3758:3776  communityIdCounter */\n      0x01\n      0x00\n        /* \"contracts/RegisterUsers.sol\":3758:3778  communityIdCounter++ */\n      dup2\n      sload\n      dup1\n      swap3\n      swap2\n      swap1\n      tag_92\n      swap1\n      tag_93\n      jump\t// in\n    tag_92:\n      swap2\n      swap1\n      pop\n      sstore\n        /* \"contracts/RegisterUsers.sol\":3736:3778  uint256 communityId = communityIdCounter++ */\n      swap1\n      pop\n        /* \"contracts/RegisterUsers.sol\":3788:3818  Community storage newCommunity */\n      0x00\n        /* \"contracts/RegisterUsers.sol\":3821:3832  communities */\n      0x02\n        /* \"contracts/RegisterUsers.sol\":3821:3845  communities[communityId] */\n      0x00\n        /* \"contracts/RegisterUsers.sol\":3833:3844  communityId */\n      dup4\n        /* \"contracts/RegisterUsers.sol\":3821:3845  communities[communityId] */\n      dup2\n      mstore\n      0x20\n      add\n      swap1\n      dup2\n      mstore\n      0x20\n      add\n      0x00\n      keccak256\n        /* \"contracts/RegisterUsers.sol\":3788:3845  Community storage newCommunity = communities[communityId] */\n      swap1\n      pop\n        /* \"contracts/RegisterUsers.sol\":3875:3880  _name */\n      dup6\n      dup6\n        /* \"contracts/RegisterUsers.sol\":3855:3867  newCommunity */\n      dup3\n        /* \"contracts/RegisterUsers.sol\":3855:3872  newCommunity.name */\n      0x00\n      add\n        /* \"contracts/RegisterUsers.sol\":3855:3880  newCommunity.name = _name */\n      swap2\n      dup3\n      tag_94\n      swap3\n      swap2\n      swap1\n      tag_95\n      jump\t// in\n    tag_94:\n      pop\n        /* \"contracts/RegisterUsers.sol\":3917:3929  _description */\n      dup4\n      dup4\n        /* \"contracts/RegisterUsers.sol\":3890:3902  newCommunity */\n      dup3\n        /* \"contracts/RegisterUsers.sol\":3890:3914  newCommunity.description */\n      0x01\n      add\n        /* \"contracts/RegisterUsers.sol\":3890:3929  newCommunity.description = _description */\n      swap2\n      dup3\n      tag_96\n      swap3\n      swap2\n      swap1\n      tag_95\n      jump\t// in\n    tag_96:\n      pop\n        /* \"contracts/RegisterUsers.sol\":3962:3972  msg.sender */\n      caller\n        /* \"contracts/RegisterUsers.sol\":3939:3951  newCommunity */\n      dup2\n        /* \"contracts/RegisterUsers.sol\":3939:3959  newCommunity.creator */\n      0x02\n      add\n      0x00\n        /* \"contracts/RegisterUsers.sol\":3939:3972  newCommunity.creator = msg.sender */\n      0x0100\n      exp\n      dup2\n      sload\n      dup2\n      0xffffffffffffffffffffffffffffffffffffffff\n      mul\n      not\n      and\n      swap1\n      dup4\n      0xffffffffffffffffffffffffffffffffffffffff\n      and\n      mul\n      or\n      swap1\n      sstore\n      pop\n        /* \"contracts/RegisterUsers.sol\":4007:4022  block.timestamp */\n      timestamp\n        /* \"contracts/RegisterUsers.sol\":3982:3994  newCommunity */\n      dup2\n        /* \"contracts/RegisterUsers.sol\":3982:4004  newCommunity.createdAt */\n      0x03\n      add\n        /* \"contracts/RegisterUsers.sol\":3982:4022  newCommunity.createdAt = block.timestamp */\n      dup2\n      swap1\n      sstore\n      pop\n        /* \"contracts/RegisterUsers.sol\":4055:4066  communityId */\n      dup2\n        /* \"contracts/RegisterUsers.sol\":4038:4086  CommunityCreated(communityId, _name, msg.sender) */\n      0x4df3410150bc135fb5a7782051351442aaa4dc2b49b9180723c871b74e0a2201\n        /* \"contracts/RegisterUsers.sol\":4068:4073  _name */\n      dup8\n      dup8\n        /* \"contracts/RegisterUsers.sol\":4075:4085  msg.sender */\n      caller\n        /* \"contracts/RegisterUsers.sol\":4038:4086  CommunityCreated(communityId, _name, msg.sender) */\n      mload(0x40)\n      tag_97\n      swap4\n      swap3\n      swap2\n      swap1\n      tag_98\n      jump\t// in\n    tag_97:\n      mload(0x40)\n      dup1\n      swap2\n      sub\n      swap1\n      log2\n        /* \"contracts/RegisterUsers.sol\":3419:4093  {... */\n      pop\n      pop\n        /* \"contracts/RegisterUsers.sol\":3332:4093  function createCommunity(string calldata _name, string calldata _description) external {... */\n      pop\n      pop\n      pop\n      pop\n      jump\t// out\n        /* \"contracts/RegisterUsers.sol\":6562:6684  function isRegisteredUser(address _address) external view returns (bool) {... */\n    tag_29:\n        /* \"contracts/RegisterUsers.sol\":6629:6633  bool */\n      0x00\n        /* \"contracts/RegisterUsers.sol\":6652:6667  registeredUsers */\n      0x04\n        /* \"contracts/RegisterUsers.sol\":6652:6677  registeredUsers[_address] */\n      0x00\n        /* \"contracts/RegisterUsers.sol\":6668:6676  _address */\n      dup4\n        /* \"contracts/RegisterUsers.sol\":6652:6677  registeredUsers[_address] */\n      0xffffffffffffffffffffffffffffffffffffffff\n      and\n      0xffffffffffffffffffffffffffffffffffffffff\n      and\n      dup2\n      mstore\n      0x20\n      add\n      swap1\n      dup2\n      mstore\n      0x20\n      add\n      0x00\n      keccak256\n      0x00\n      swap1\n      sload\n      swap1\n      0x0100\n      exp\n      swap1\n      div\n      0xff\n      and\n        /* \"contracts/RegisterUsers.sol\":6645:6677  return registeredUsers[_address] */\n      swap1\n      pop\n        /* \"contracts/RegisterUsers.sol\":6562:6684  function isRegisteredUser(address _address) external view returns (bool) {... */\n      swap2\n      swap1\n      pop\n      jump\t// out\n        /* \"contracts/RegisterUsers.sol\":7036:7140  function isAgent(address _address) external view returns (bool) {... */\n    tag_34:\n        /* \"contracts/RegisterUsers.sol\":7094:7098  bool */\n      0x00\n        /* \"contracts/RegisterUsers.sol\":7117:7123  agents */\n      0x03\n        /* \"contracts/RegisterUsers.sol\":7117:7133  agents[_address] */\n      0x00\n        /* \"contracts/RegisterUsers.sol\":7124:7132  _address */\n      dup4\n        /* \"contracts/RegisterUsers.sol\":7117:7133  agents[_address] */\n      0xffffffffffffffffffffffffffffffffffffffff\n      and\n      0xffffffffffffffffffffffffffffffffffffffff\n      and\n      dup2\n      mstore\n      0x20\n      add\n      swap1\n      dup2\n      mstore\n      0x20\n      add\n      0x00\n      keccak256\n      0x00\n      swap1\n      sload\n      swap1\n      0x0100\n      exp\n      swap1\n      div\n      0xff\n      and\n        /* \"contracts/RegisterUsers.sol\":7110:7133  return agents[_address] */\n      swap1\n      pop\n        /* \"contracts/RegisterUsers.sol\":7036:7140  function isAgent(address _address) external view returns (bool) {... */\n      swap2\n      swap1\n      pop\n      jump\t// out\n        /* \"contracts/RegisterUsers.sol\":2294:2672  function registerUser(address _user) external onlyAgent {... */\n    tag_38:\n        /* \"contracts/RegisterUsers.sol\":1305:1311  agents */\n      0x03\n        /* \"contracts/RegisterUsers.sol\":1305:1323  agents[msg.sender] */\n      0x00\n        /* \"contracts/RegisterUsers.sol\":1312:1322  msg.sender */\n      caller\n        /* \"contracts/RegisterUsers.sol\":1305:1323  agents[msg.sender] */\n      0xffffffffffffffffffffffffffffffffffffffff\n      and\n      0xffffffffffffffffffffffffffffffffffffffff\n      and\n      dup2\n      mstore\n      0x20\n      add\n      swap1\n      dup2\n      mstore\n      0x20\n      add\n      0x00\n      keccak256\n      0x00\n      swap1\n      sload\n      swap1\n      0x0100\n      exp\n      swap1\n      div\n      0xff\n      and\n        /* \"contracts/RegisterUsers.sol\":1297:1363  require(agents[msg.sender], \"Only agents can perform this action\") */\n      tag_102\n      jumpi\n      mload(0x40)\n      0x08c379a000000000000000000000000000000000000000000000000000000000\n      dup2\n      mstore\n      0x04\n      add\n      tag_103\n      swap1\n      tag_104\n      jump\t// in\n    tag_103:\n      mload(0x40)\n      dup1\n      swap2\n      sub\n      swap1\n      revert\n    tag_102:\n        /* \"contracts/RegisterUsers.sol\":2385:2386  0 */\n      0x00\n        /* \"contracts/RegisterUsers.sol\":2368:2387  _user != address(0) */\n      0xffffffffffffffffffffffffffffffffffffffff\n      and\n        /* \"contracts/RegisterUsers.sol\":2368:2373  _user */\n      dup2\n        /* \"contracts/RegisterUsers.sol\":2368:2387  _user != address(0) */\n      0xffffffffffffffffffffffffffffffffffffffff\n      and\n      sub\n        /* \"contracts/RegisterUsers.sol\":2360:2420  require(_user != address(0), \"Cannot register zero address\") */\n      tag_106\n      jumpi\n      mload(0x40)\n      0x08c379a000000000000000000000000000000000000000000000000000000000\n      dup2\n      mstore\n      0x04\n      add\n      tag_107\n      swap1\n      tag_108\n      jump\t// in\n    tag_107:\n      mload(0x40)\n      dup1\n      swap2\n      sub\n      swap1\n      revert\n    tag_106:\n        /* \"contracts/RegisterUsers.sol\":2439:2454  registeredUsers */\n      0x04\n        /* \"contracts/RegisterUsers.sol\":2439:2461  registeredUsers[_user] */\n      0x00\n        /* \"contracts/RegisterUsers.sol\":2455:2460  _user */\n      dup3\n        /* \"contracts/RegisterUsers.sol\":2439:2461  registeredUsers[_user] */\n      0xffffffffffffffffffffffffffffffffffffffff\n      and\n      0xffffffffffffffffffffffffffffffffffffffff\n      and\n      dup2\n      mstore\n      0x20\n      add\n      swap1\n      dup2\n      mstore\n      0x20\n      add\n      0x00\n      keccak256\n      0x00\n      swap1\n      sload\n      swap1\n      0x0100\n      exp\n      swap1\n      div\n      0xff\n      and\n        /* \"contracts/RegisterUsers.sol\":2438:2461  !registeredUsers[_user] */\n      iszero\n        /* \"contracts/RegisterUsers.sol\":2430:2489  require(!registeredUsers[_user], \"User already registered\") */\n      tag_109\n      jumpi\n      mload(0x40)\n      0x08c379a000000000000000000000000000000000000000000000000000000000\n      dup2\n      mstore\n      0x04\n      add\n      tag_110\n      swap1\n      tag_111\n      jump\t// in\n    tag_110:\n      mload(0x40)\n      dup1\n      swap2\n      sub\n      swap1\n      revert\n    tag_109:\n        /* \"contracts/RegisterUsers.sol\":2508:2526  registeredEntities */\n      0x05\n        /* \"contracts/RegisterUsers.sol\":2508:2533  registeredEntities[_user] */\n      0x00\n        /* \"contracts/RegisterUsers.sol\":2527:2532  _user */\n      dup3\n        /* \"contracts/RegisterUsers.sol\":2508:2533  registeredEntities[_user] */\n      0xffffffffffffffffffffffffffffffffffffffff\n      and\n      0xffffffffffffffffffffffffffffffffffffffff\n      and\n      dup2\n      mstore\n      0x20\n      add\n      swap1\n      dup2\n      mstore\n      0x20\n      add\n      0x00\n      keccak256\n      0x00\n      swap1\n      sload\n      swap1\n      0x0100\n      exp\n      swap1\n      div\n      0xff\n      and\n        /* \"contracts/RegisterUsers.sol\":2507:2533  !registeredEntities[_user] */\n      iszero\n        /* \"contracts/RegisterUsers.sol\":2499:2574  require(!registeredEntities[_user], \"Address already registered as entity\") */\n      tag_112\n      jumpi\n      mload(0x40)\n      0x08c379a000000000000000000000000000000000000000000000000000000000\n      dup2\n      mstore\n      0x04\n      add\n      tag_113\n      swap1\n      tag_114\n      jump\t// in\n    tag_113:\n      mload(0x40)\n      dup1\n      swap2\n      sub\n      swap1\n      revert\n    tag_112:\n        /* \"contracts/RegisterUsers.sol\":2618:2622  true */\n      0x01\n        /* \"contracts/RegisterUsers.sol\":2593:2608  registeredUsers */\n      0x04\n        /* \"contracts/RegisterUsers.sol\":2593:2615  registeredUsers[_user] */\n      0x00\n        /* \"contracts/RegisterUsers.sol\":2609:2614  _user */\n      dup4\n        /* \"contracts/RegisterUsers.sol\":2593:2615  registeredUsers[_user] */\n      0xffffffffffffffffffffffffffffffffffffffff\n      and\n      0xffffffffffffffffffffffffffffffffffffffff\n      and\n      dup2\n      mstore\n      0x20\n      add\n      swap1\n      dup2\n      mstore\n      0x20\n      add\n      0x00\n      keccak256\n      0x00\n        /* \"contracts/RegisterUsers.sol\":2593:2622  registeredUsers[_user] = true */\n      0x0100\n      exp\n      dup2\n      sload\n      dup2\n      0xff\n      mul\n      not\n      and\n      swap1\n      dup4\n      iszero\n      iszero\n      mul\n      or\n      swap1\n      sstore\n      pop\n        /* \"contracts/RegisterUsers.sol\":2652:2657  _user */\n      dup1\n        /* \"contracts/RegisterUsers.sol\":2637:2665  UserRegistered(_user, false) */\n      0xffffffffffffffffffffffffffffffffffffffff\n      and\n      0x28a24a60e275c9be5babc23ecefd3240b1fcd56ef4d3fe4818437200b55ae5ff\n        /* \"contracts/RegisterUsers.sol\":2659:2664  false */\n      0x00\n        /* \"contracts/RegisterUsers.sol\":2637:2665  UserRegistered(_user, false) */\n      mload(0x40)\n      tag_115\n      swap2\n      swap1\n      tag_31\n      jump\t// in\n    tag_115:\n      mload(0x40)\n      dup1\n      swap2\n      sub\n      swap1\n      log2\n        /* \"contracts/RegisterUsers.sol\":2294:2672  function registerUser(address _user) external onlyAgent {... */\n      pop\n      jump\t// out\n        /* \"contracts/RegisterUsers.sol\":4818:5032  function getCommunity(uint256 _communityId) external view returns (Community memory) {... */\n    tag_42:\n        /* \"contracts/RegisterUsers.sol\":4885:4901  Community memory */\n      tag_116\n      tag_117\n      jump\t// in\n    tag_116:\n        /* \"contracts/RegisterUsers.sol\":4936:4954  communityIdCounter */\n      sload(0x01)\n        /* \"contracts/RegisterUsers.sol\":4921:4933  _communityId */\n      dup3\n        /* \"contracts/RegisterUsers.sol\":4921:4954  _communityId < communityIdCounter */\n      lt\n        /* \"contracts/RegisterUsers.sol\":4913:4983  require(_communityId < communityIdCounter, \"Community does not exist\") */\n      tag_119\n      jumpi\n      mload(0x40)\n      0x08c379a000000000000000000000000000000000000000000000000000000000\n      dup2\n      mstore\n      0x04\n      add\n      tag_120\n      swap1\n      tag_121\n      jump\t// in\n    tag_120:\n      mload(0x40)\n      dup1\n      swap2\n      sub\n      swap1\n      revert\n    tag_119:\n        /* \"contracts/RegisterUsers.sol\":5000:5011  communities */\n      0x02\n        /* \"contracts/RegisterUsers.sol\":5000:5025  communities[_communityId] */\n      0x00\n        /* \"contracts/RegisterUsers.sol\":5012:5024  _communityId */\n      dup4\n        /* \"contracts/RegisterUsers.sol\":5000:5025  communities[_communityId] */\n      dup2\n      mstore\n      0x20\n      add\n      swap1\n      dup2\n      mstore\n      0x20\n      add\n      0x00\n      keccak256\n        /* \"contracts/RegisterUsers.sol\":4993:5025  return communities[_communityId] */\n      mload(0x40)\n      dup1\n      0xa0\n      add\n      0x40\n      mstore\n      swap1\n      dup2\n      0x00\n      dup3\n      add\n      dup1\n      sload\n      tag_122\n      swap1\n      tag_123\n      jump\t// in\n    tag_122:\n      dup1\n      0x1f\n      add\n      0x20\n      dup1\n      swap2\n      div\n      mul\n      0x20\n      add\n      mload(0x40)\n      swap1\n      dup2\n      add\n      0x40\n      mstore\n      dup1\n      swap3\n      swap2\n      swap1\n      dup2\n      dup2\n      mstore\n      0x20\n      add\n      dup3\n      dup1\n      sload\n      tag_124\n      swap1\n      tag_123\n      jump\t// in\n    tag_124:\n      dup1\n      iszero\n      tag_125\n      jumpi\n      dup1\n      0x1f\n      lt\n      tag_126\n      jumpi\n      0x0100\n      dup1\n      dup4\n      sload\n      div\n      mul\n      dup4\n      mstore\n      swap2\n      0x20\n      add\n      swap2\n      jump(tag_125)\n    tag_126:\n      dup3\n      add\n      swap2\n      swap1\n      0x00\n      mstore\n      keccak256(0x00, 0x20)\n      swap1\n    tag_127:\n      dup2\n      sload\n      dup2\n      mstore\n      swap1\n      0x01\n      add\n      swap1\n      0x20\n      add\n      dup1\n      dup4\n      gt\n      tag_127\n      jumpi\n      dup3\n      swap1\n      sub\n      0x1f\n      and\n      dup3\n      add\n      swap2\n    tag_125:\n      pop\n      pop\n      pop\n      pop\n      pop\n      dup2\n      mstore\n      0x20\n      add\n      0x01\n      dup3\n      add\n      dup1\n      sload\n      tag_128\n      swap1\n      tag_123\n      jump\t// in\n    tag_128:\n      dup1\n      0x1f\n      add\n      0x20\n      dup1\n      swap2\n      div\n      mul\n      0x20\n      add\n      mload(0x40)\n      swap1\n      dup2\n      add\n      0x40\n      mstore\n      dup1\n      swap3\n      swap2\n      swap1\n      dup2\n      dup2\n      mstore\n      0x20\n      add\n      dup3\n      dup1\n      sload\n      tag_129\n      swap1\n      tag_123\n      jump\t// in\n    tag_129:\n      dup1\n      iszero\n      tag_130\n      jumpi\n      dup1\n      0x1f\n      lt\n      tag_131\n      jumpi\n      0x0100\n      dup1\n      dup4\n      sload\n      div\n      mul\n      dup4\n      mstore\n      swap2\n      0x20\n      add\n      swap2\n      jump(tag_130)\n    tag_131:\n      dup3\n      add\n      swap2\n      swap1\n      0x00\n      mstore\n      keccak256(0x00, 0x20)\n      swap1\n    tag_132:\n      dup2\n      sload\n      dup2\n      mstore\n      swap1\n      0x01\n      add\n      swap1\n      0x20\n      add\n      dup1\n      dup4\n      gt\n      tag_132\n      jumpi\n      dup3\n      swap1\n      sub\n      0x1f\n      and\n      dup3\n      add\n      swap2\n    tag_130:\n      pop\n      pop\n      pop\n      pop\n      pop\n      dup2\n      mstore\n      0x20\n      add\n      0x02\n      dup3\n      add\n      0x00\n      swap1\n      sload\n      swap1\n      0x0100\n      exp\n      swap1\n      div\n      0xffffffffffffffffffffffffffffffffffffffff\n      and\n      0xffffffffffffffffffffffffffffffffffffffff\n      and\n      0xffffffffffffffffffffffffffffffffffffffff\n      and\n      dup2\n      mstore\n      0x20\n      add\n      0x03\n      dup3\n      add\n      sload\n      dup2\n      mstore\n      0x20\n      add\n      0x04\n      dup3\n      add\n      dup1\n      sload\n      dup1\n      0x20\n      mul\n      0x20\n      add\n      mload(0x40)\n      swap1\n      dup2\n      add\n      0x40\n      mstore\n      dup1\n      swap3\n      swap2\n      swap1\n      dup2\n      dup2\n      mstore\n      0x20\n      add\n      dup3\n      dup1\n      sload\n      dup1\n      iszero\n      tag_133\n      jumpi\n      0x20\n      mul\n      dup3\n      add\n      swap2\n      swap1\n      0x00\n      mstore\n      keccak256(0x00, 0x20)\n      swap1\n    tag_134:\n      dup2\n      0x00\n      swap1\n      sload\n      swap1\n      0x0100\n      exp\n      swap1\n      div\n      0xffffffffffffffffffffffffffffffffffffffff\n      and\n      0xffffffffffffffffffffffffffffffffffffffff\n      and\n      dup2\n      mstore\n      0x20\n      add\n      swap1\n      0x01\n      add\n      swap1\n      dup1\n      dup4\n      gt\n      tag_134\n      jumpi\n    tag_133:\n      pop\n      pop\n      pop\n      pop\n      pop\n      dup2\n      mstore\n      pop\n      pop\n      swap1\n      pop\n        /* \"contracts/RegisterUsers.sol\":4818:5032  function getCommunity(uint256 _communityId) external view returns (Community memory) {... */\n      swap2\n      swap1\n      pop\n      jump\t// out\n        /* \"@openzeppelin/contracts/access/Ownable.sol\":2293:2394  function renounceOwnership() public virtual onlyOwner {... */\n    tag_46:\n        /* \"@openzeppelin/contracts/access/Ownable.sol\":1531:1544  _checkOwner() */\n      tag_136\n        /* \"@openzeppelin/contracts/access/Ownable.sol\":1531:1542  _checkOwner */\n      tag_137\n        /* \"@openzeppelin/contracts/access/Ownable.sol\":1531:1544  _checkOwner() */\n      jump\t// in\n    tag_136:\n        /* \"@openzeppelin/contracts/access/Ownable.sol\":2357:2387  _transferOwnership(address(0)) */\n      tag_139\n        /* \"@openzeppelin/contracts/access/Ownable.sol\":2384:2385  0 */\n      0x00\n        /* \"@openzeppelin/contracts/access/Ownable.sol\":2357:2375  _transferOwnership */\n      tag_140\n        /* \"@openzeppelin/contracts/access/Ownable.sol\":2357:2387  _transferOwnership(address(0)) */\n      jump\t// in\n    tag_139:\n        /* \"@openzeppelin/contracts/access/Ownable.sol\":2293:2394  function renounceOwnership() public virtual onlyOwner {... */\n      jump\t// out\n        /* \"contracts/RegisterUsers.sol\":4263:4705  function addMember(uint256 _communityId, address _member) external {... */\n    tag_50:\n        /* \"contracts/RegisterUsers.sol\":4363:4381  communityIdCounter */\n      sload(0x01)\n        /* \"contracts/RegisterUsers.sol\":4348:4360  _communityId */\n      dup3\n        /* \"contracts/RegisterUsers.sol\":4348:4381  _communityId < communityIdCounter */\n      lt\n        /* \"contracts/RegisterUsers.sol\":4340:4410  require(_communityId < communityIdCounter, \"Community does not exist\") */\n      tag_142\n      jumpi\n      mload(0x40)\n      0x08c379a000000000000000000000000000000000000000000000000000000000\n      dup2\n      mstore\n      0x04\n      add\n      tag_143\n      swap1\n      tag_121\n      jump\t// in\n    tag_143:\n      mload(0x40)\n      dup1\n      swap2\n      sub\n      swap1\n      revert\n    tag_142:\n        /* \"contracts/RegisterUsers.sol\":4442:4453  communities */\n      0x02\n        /* \"contracts/RegisterUsers.sol\":4442:4467  communities[_communityId] */\n      0x00\n        /* \"contracts/RegisterUsers.sol\":4454:4466  _communityId */\n      dup4\n        /* \"contracts/RegisterUsers.sol\":4442:4467  communities[_communityId] */\n      dup2\n      mstore\n      0x20\n      add\n      swap1\n      dup2\n      mstore\n      0x20\n      add\n      0x00\n      keccak256\n        /* \"contracts/RegisterUsers.sol\":4442:4475  communities[_communityId].creator */\n      0x02\n      add\n      0x00\n      swap1\n      sload\n      swap1\n      0x0100\n      exp\n      swap1\n      div\n      0xffffffffffffffffffffffffffffffffffffffff\n      and\n        /* \"contracts/RegisterUsers.sol\":4428:4475  msg.sender == communities[_communityId].creator */\n      0xffffffffffffffffffffffffffffffffffffffff\n      and\n        /* \"contracts/RegisterUsers.sol\":4428:4438  msg.sender */\n      caller\n        /* \"contracts/RegisterUsers.sol\":4428:4475  msg.sender == communities[_communityId].creator */\n      0xffffffffffffffffffffffffffffffffffffffff\n      and\n      eq\n        /* \"contracts/RegisterUsers.sol\":4420:4512  require(msg.sender == communities[_communityId].creator, \"Only the creator can add members\") */\n      tag_144\n      jumpi\n      mload(0x40)\n      0x08c379a000000000000000000000000000000000000000000000000000000000\n      dup2\n      mstore\n      0x04\n      add\n      tag_145\n      swap1\n      tag_146\n      jump\t// in\n    tag_145:\n      mload(0x40)\n      dup1\n      swap2\n      sub\n      swap1\n      revert\n    tag_144:\n        /* \"contracts/RegisterUsers.sol\":4530:4545  registeredUsers */\n      0x04\n        /* \"contracts/RegisterUsers.sol\":4530:4554  registeredUsers[_member] */\n      0x00\n        /* \"contracts/RegisterUsers.sol\":4546:4553  _member */\n      dup3\n        /* \"contracts/RegisterUsers.sol\":4530:4554  registeredUsers[_member] */\n      0xffffffffffffffffffffffffffffffffffffffff\n      and\n      0xffffffffffffffffffffffffffffffffffffffff\n      and\n      dup2\n      mstore\n      0x20\n      add\n      swap1\n      dup2\n      mstore\n      0x20\n      add\n      0x00\n      keccak256\n      0x00\n      swap1\n      sload\n      swap1\n      0x0100\n      exp\n      swap1\n      div\n      0xff\n      and\n        /* \"contracts/RegisterUsers.sol\":4522:4591  require(registeredUsers[_member], \"Member must be a registered user\") */\n      tag_147\n      jumpi\n      mload(0x40)\n      0x08c379a000000000000000000000000000000000000000000000000000000000\n      dup2\n      mstore\n      0x04\n      add\n      tag_148\n      swap1\n      tag_149\n      jump\t// in\n    tag_148:\n      mload(0x40)\n      dup1\n      swap2\n      sub\n      swap1\n      revert\n    tag_147:\n        /* \"contracts/RegisterUsers.sol\":4602:4613  communities */\n      0x02\n        /* \"contracts/RegisterUsers.sol\":4602:4627  communities[_communityId] */\n      0x00\n        /* \"contracts/RegisterUsers.sol\":4614:4626  _communityId */\n      dup4\n        /* \"contracts/RegisterUsers.sol\":4602:4627  communities[_communityId] */\n      dup2\n      mstore\n      0x20\n      add\n      swap1\n      dup2\n      mstore\n      0x20\n      add\n      0x00\n      keccak256\n        /* \"contracts/RegisterUsers.sol\":4602:4635  communities[_communityId].members */\n      0x04\n      add\n        /* \"contracts/RegisterUsers.sol\":4641:4648  _member */\n      dup2\n        /* \"contracts/RegisterUsers.sol\":4602:4649  communities[_communityId].members.push(_member) */\n      swap1\n      dup1\n      0x01\n      dup2\n      sload\n      add\n      dup1\n      dup3\n      sstore\n      dup1\n      swap2\n      pop\n      pop\n      0x01\n      swap1\n      sub\n      swap1\n      0x00\n      mstore\n      keccak256(0x00, 0x20)\n      add\n      0x00\n      swap1\n      swap2\n      swap1\n      swap2\n      swap1\n      swap2\n      0x0100\n      exp\n      dup2\n      sload\n      dup2\n      0xffffffffffffffffffffffffffffffffffffffff\n      mul\n      not\n      and\n      swap1\n      dup4\n      0xffffffffffffffffffffffffffffffffffffffff\n      and\n      mul\n      or\n      swap1\n      sstore\n      pop\n        /* \"contracts/RegisterUsers.sol\":4676:4688  _communityId */\n      dup2\n        /* \"contracts/RegisterUsers.sol\":4664:4698  MemberAdded(_communityId, _member) */\n      0xf328ac0f8bcae00933fe87ba0aa2d0d505c1df94bc9c1aa05b8441c28b74032c\n        /* \"contracts/RegisterUsers.sol\":4690:4697  _member */\n      dup3\n        /* \"contracts/RegisterUsers.sol\":4664:4698  MemberAdded(_communityId, _member) */\n      mload(0x40)\n      tag_151\n      swap2\n      swap1\n      tag_57\n      jump\t// in\n    tag_151:\n      mload(0x40)\n      dup1\n      swap2\n      sub\n      swap1\n      log2\n        /* \"contracts/RegisterUsers.sol\":4263:4705  function addMember(uint256 _communityId, address _member) external {... */\n      pop\n      pop\n      jump\t// out\n        /* \"contracts/RegisterUsers.sol\":1627:1891  function addAgent(address _agent) external onlyOwner {... */\n    tag_53:\n        /* \"@openzeppelin/contracts/access/Ownable.sol\":1531:1544  _checkOwner() */\n      tag_153\n        /* \"@openzeppelin/contracts/access/Ownable.sol\":1531:1542  _checkOwner */\n      tag_137\n        /* \"@openzeppelin/contracts/access/Ownable.sol\":1531:1544  _checkOwner() */\n      jump\t// in\n    tag_153:\n        /* \"contracts/RegisterUsers.sol\":1716:1717  0 */\n      0x00\n        /* \"contracts/RegisterUsers.sol\":1698:1718  _agent != address(0) */\n      0xffffffffffffffffffffffffffffffffffffffff\n      and\n        /* \"contracts/RegisterUsers.sol\":1698:1704  _agent */\n      dup2\n        /* \"contracts/RegisterUsers.sol\":1698:1718  _agent != address(0) */\n      0xffffffffffffffffffffffffffffffffffffffff\n      and\n      sub\n        /* \"contracts/RegisterUsers.sol\":1690:1755  require(_agent != address(0), \"Cannot add zero address as agent\") */\n      tag_155\n      jumpi\n      mload(0x40)\n      0x08c379a000000000000000000000000000000000000000000000000000000000\n      dup2\n      mstore\n      0x04\n      add\n      tag_156\n      swap1\n      tag_157\n      jump\t// in\n    tag_156:\n      mload(0x40)\n      dup1\n      swap2\n      sub\n      swap1\n      revert\n    tag_155:\n        /* \"contracts/RegisterUsers.sol\":1774:1780  agents */\n      0x03\n        /* \"contracts/RegisterUsers.sol\":1774:1788  agents[_agent] */\n      0x00\n        /* \"contracts/RegisterUsers.sol\":1781:1787  _agent */\n      dup3\n        /* \"contracts/RegisterUsers.sol\":1774:1788  agents[_agent] */\n      0xffffffffffffffffffffffffffffffffffffffff\n      and\n      0xffffffffffffffffffffffffffffffffffffffff\n      and\n      dup2\n      mstore\n      0x20\n      add\n      swap1\n      dup2\n      mstore\n      0x20\n      add\n      0x00\n      keccak256\n      0x00\n      swap1\n      sload\n      swap1\n      0x0100\n      exp\n      swap1\n      div\n      0xff\n      and\n        /* \"contracts/RegisterUsers.sol\":1773:1788  !agents[_agent] */\n      iszero\n        /* \"contracts/RegisterUsers.sol\":1765:1820  require(!agents[_agent], \"Address is already an agent\") */\n      tag_158\n      jumpi\n      mload(0x40)\n      0x08c379a000000000000000000000000000000000000000000000000000000000\n      dup2\n      mstore\n      0x04\n      add\n      tag_159\n      swap1\n      tag_160\n      jump\t// in\n    tag_159:\n      mload(0x40)\n      dup1\n      swap2\n      sub\n      swap1\n      revert\n    tag_158:\n        /* \"contracts/RegisterUsers.sol\":1847:1851  true */\n      0x01\n        /* \"contracts/RegisterUsers.sol\":1830:1836  agents */\n      0x03\n        /* \"contracts/RegisterUsers.sol\":1830:1844  agents[_agent] */\n      0x00\n        /* \"contracts/RegisterUsers.sol\":1837:1843  _agent */\n      dup4\n        /* \"contracts/RegisterUsers.sol\":1830:1844  agents[_agent] */\n      0xffffffffffffffffffffffffffffffffffffffff\n      and\n      0xffffffffffffffffffffffffffffffffffffffff\n      and\n      dup2\n      mstore\n      0x20\n      add\n      swap1\n      dup2\n      mstore\n      0x20\n      add\n      0x00\n      keccak256\n      0x00\n        /* \"contracts/RegisterUsers.sol\":1830:1851  agents[_agent] = true */\n      0x0100\n      exp\n      dup2\n      sload\n      dup2\n      0xff\n      mul\n      not\n      and\n      swap1\n      dup4\n      iszero\n      iszero\n      mul\n      or\n      swap1\n      sstore\n      pop\n        /* \"contracts/RegisterUsers.sol\":1877:1883  _agent */\n      dup1\n        /* \"contracts/RegisterUsers.sol\":1866:1884  AgentAdded(_agent) */\n      0xffffffffffffffffffffffffffffffffffffffff\n      and\n      0xf68e73cec97f2d70aa641fb26e87a4383686e2efacb648f2165aeb02ac562ec5\n      mload(0x40)\n      mload(0x40)\n      dup1\n      swap2\n      sub\n      swap1\n      log2\n        /* \"contracts/RegisterUsers.sol\":1627:1891  function addAgent(address _agent) external onlyOwner {... */\n      pop\n      jump\t// out\n        /* \"@openzeppelin/contracts/access/Ownable.sol\":1638:1723  function owner() public view virtual returns (address) {... */\n    tag_55:\n        /* \"@openzeppelin/contracts/access/Ownable.sol\":1684:1691  address */\n      0x00\n        /* \"@openzeppelin/contracts/access/Ownable.sol\":1710:1716  _owner */\n      dup1\n      0x00\n      swap1\n      sload\n      swap1\n      0x0100\n      exp\n      swap1\n      div\n      0xffffffffffffffffffffffffffffffffffffffff\n      and\n        /* \"@openzeppelin/contracts/access/Ownable.sol\":1703:1716  return _owner */\n      swap1\n      pop\n        /* \"@openzeppelin/contracts/access/Ownable.sol\":1638:1723  function owner() public view virtual returns (address) {... */\n      swap1\n      jump\t// out\n        /* \"contracts/RegisterUsers.sol\":1994:2184  function removeAgent(address _agent) external onlyOwner {... */\n    tag_60:\n        /* \"@openzeppelin/contracts/access/Ownable.sol\":1531:1544  _checkOwner() */\n      tag_163\n        /* \"@openzeppelin/contracts/access/Ownable.sol\":1531:1542  _checkOwner */\n      tag_137\n        /* \"@openzeppelin/contracts/access/Ownable.sol\":1531:1544  _checkOwner() */\n      jump\t// in\n    tag_163:\n        /* \"contracts/RegisterUsers.sol\":2068:2074  agents */\n      0x03\n        /* \"contracts/RegisterUsers.sol\":2068:2082  agents[_agent] */\n      0x00\n        /* \"contracts/RegisterUsers.sol\":2075:2081  _agent */\n      dup3\n        /* \"contracts/RegisterUsers.sol\":2068:2082  agents[_agent] */\n      0xffffffffffffffffffffffffffffffffffffffff\n      and\n      0xffffffffffffffffffffffffffffffffffffffff\n      and\n      dup2\n      mstore\n      0x20\n      add\n      swap1\n      dup2\n      mstore\n      0x20\n      add\n      0x00\n      keccak256\n      0x00\n      swap1\n      sload\n      swap1\n      0x0100\n      exp\n      swap1\n      div\n      0xff\n      and\n        /* \"contracts/RegisterUsers.sol\":2060:2110  require(agents[_agent], \"Address is not an agent\") */\n      tag_165\n      jumpi\n      mload(0x40)\n      0x08c379a000000000000000000000000000000000000000000000000000000000\n      dup2\n      mstore\n      0x04\n      add\n      tag_166\n      swap1\n      tag_167\n      jump\t// in\n    tag_166:\n      mload(0x40)\n      dup1\n      swap2\n      sub\n      swap1\n      revert\n    tag_165:\n        /* \"contracts/RegisterUsers.sol\":2137:2142  false */\n      0x00\n        /* \"contracts/RegisterUsers.sol\":2120:2126  agents */\n      0x03\n        /* \"contracts/RegisterUsers.sol\":2120:2134  agents[_agent] */\n      0x00\n        /* \"contracts/RegisterUsers.sol\":2127:2133  _agent */\n      dup4\n        /* \"contracts/RegisterUsers.sol\":2120:2134  agents[_agent] */\n      0xffffffffffffffffffffffffffffffffffffffff\n      and\n      0xffffffffffffffffffffffffffffffffffffffff\n      and\n      dup2\n      mstore\n      0x20\n      add\n      swap1\n      dup2\n      mstore\n      0x20\n      add\n      0x00\n      keccak256\n      0x00\n        /* \"contracts/RegisterUsers.sol\":2120:2142  agents[_agent] = false */\n      0x0100\n      exp\n      dup2\n      sload\n      dup2\n      0xff\n      mul\n      not\n      and\n      swap1\n      dup4\n      iszero\n      iszero\n      mul\n      or\n      swap1\n      sstore\n      pop\n        /* \"contracts/RegisterUsers.sol\":2170:2176  _agent */\n      dup1\n        /* \"contracts/RegisterUsers.sol\":2157:2177  AgentRemoved(_agent) */\n      0xffffffffffffffffffffffffffffffffffffffff\n      and\n      0xed9c8ad8d5a0a66898ea49d2956929c93ae2e8bd50281b2ed897c5d1a6737e0b\n      mload(0x40)\n      mload(0x40)\n      dup1\n      swap2\n      sub\n      swap1\n      log2\n        /* \"contracts/RegisterUsers.sol\":1994:2184  function removeAgent(address _agent) external onlyOwner {... */\n      pop\n      jump\t// out\n        /* \"contracts/RegisterUsers.sol\":5139:5421  function removeUser(address _user) external onlyAgent {... */\n    tag_63:\n        /* \"contracts/RegisterUsers.sol\":1305:1311  agents */\n      0x03\n        /* \"contracts/RegisterUsers.sol\":1305:1323  agents[msg.sender] */\n      0x00\n        /* \"contracts/RegisterUsers.sol\":1312:1322  msg.sender */\n      caller\n        /* \"contracts/RegisterUsers.sol\":1305:1323  agents[msg.sender] */\n      0xffffffffffffffffffffffffffffffffffffffff\n      and\n      0xffffffffffffffffffffffffffffffffffffffff\n      and\n      dup2\n      mstore\n      0x20\n      add\n      swap1\n      dup2\n      mstore\n      0x20\n      add\n      0x00\n      keccak256\n      0x00\n      swap1\n      sload\n      swap1\n      0x0100\n      exp\n      swap1\n      div\n      0xff\n      and\n        /* \"contracts/RegisterUsers.sol\":1297:1363  require(agents[msg.sender], \"Only agents can perform this action\") */\n      tag_169\n      jumpi\n      mload(0x40)\n      0x08c379a000000000000000000000000000000000000000000000000000000000\n      dup2\n      mstore\n      0x04\n      add\n      tag_170\n      swap1\n      tag_104\n      jump\t// in\n    tag_170:\n      mload(0x40)\n      dup1\n      swap2\n      sub\n      swap1\n      revert\n    tag_169:\n        /* \"contracts/RegisterUsers.sol\":5228:5229  0 */\n      0x00\n        /* \"contracts/RegisterUsers.sol\":5211:5230  _user != address(0) */\n      0xffffffffffffffffffffffffffffffffffffffff\n      and\n        /* \"contracts/RegisterUsers.sol\":5211:5216  _user */\n      dup2\n        /* \"contracts/RegisterUsers.sol\":5211:5230  _user != address(0) */\n      0xffffffffffffffffffffffffffffffffffffffff\n      and\n      sub\n        /* \"contracts/RegisterUsers.sol\":5203:5261  require(_user != address(0), \"Cannot remove zero address\") */\n      tag_172\n      jumpi\n      mload(0x40)\n      0x08c379a000000000000000000000000000000000000000000000000000000000\n      dup2\n      mstore\n      0x04\n      add\n      tag_173\n      swap1\n      tag_174\n      jump\t// in\n    tag_173:\n      mload(0x40)\n      dup1\n      swap2\n      sub\n      swap1\n      revert\n    tag_172:\n        /* \"contracts/RegisterUsers.sol\":5279:5294  registeredUsers */\n      0x04\n        /* \"contracts/RegisterUsers.sol\":5279:5301  registeredUsers[_user] */\n      0x00\n        /* \"contracts/RegisterUsers.sol\":5295:5300  _user */\n      dup3\n        /* \"contracts/RegisterUsers.sol\":5279:5301  registeredUsers[_user] */\n      0xffffffffffffffffffffffffffffffffffffffff\n      and\n      0xffffffffffffffffffffffffffffffffffffffff\n      and\n      dup2\n      mstore\n      0x20\n      add\n      swap1\n      dup2\n      mstore\n      0x20\n      add\n      0x00\n      keccak256\n      0x00\n      swap1\n      sload\n      swap1\n      0x0100\n      exp\n      swap1\n      div\n      0xff\n      and\n        /* \"contracts/RegisterUsers.sol\":5271:5325  require(registeredUsers[_user], \"User not registered\") */\n      tag_175\n      jumpi\n      mload(0x40)\n      0x08c379a000000000000000000000000000000000000000000000000000000000\n      dup2\n      mstore\n      0x04\n      add\n      tag_176\n      swap1\n      tag_177\n      jump\t// in\n    tag_176:\n      mload(0x40)\n      dup1\n      swap2\n      sub\n      swap1\n      revert\n    tag_175:\n        /* \"contracts/RegisterUsers.sol\":5369:5374  false */\n      0x00\n        /* \"contracts/RegisterUsers.sol\":5344:5359  registeredUsers */\n      0x04\n        /* \"contracts/RegisterUsers.sol\":5344:5366  registeredUsers[_user] */\n      0x00\n        /* \"contracts/RegisterUsers.sol\":5360:5365  _user */\n      dup4\n        /* \"contracts/RegisterUsers.sol\":5344:5366  registeredUsers[_user] */\n      0xffffffffffffffffffffffffffffffffffffffff\n      and\n      0xffffffffffffffffffffffffffffffffffffffff\n      and\n      dup2\n      mstore\n      0x20\n      add\n      swap1\n      dup2\n      mstore\n      0x20\n      add\n      0x00\n      keccak256\n      0x00\n        /* \"contracts/RegisterUsers.sol\":5344:5374  registeredUsers[_user] = false */\n      0x0100\n      exp\n      dup2\n      sload\n      dup2\n      0xff\n      mul\n      not\n      and\n      swap1\n      dup4\n      iszero\n      iszero\n      mul\n      or\n      swap1\n      sstore\n      pop\n        /* \"contracts/RegisterUsers.sol\":5401:5406  _user */\n      dup1\n        /* \"contracts/RegisterUsers.sol\":5389:5414  UserRemoved(_user, false) */\n      0xffffffffffffffffffffffffffffffffffffffff\n      and\n      0x57ffeda2cca1356c20c3f388d439e7ee49a825f846a911f8981726bea201188f\n        /* \"contracts/RegisterUsers.sol\":5408:5413  false */\n      0x00\n        /* \"contracts/RegisterUsers.sol\":5389:5414  UserRemoved(_user, false) */\n      mload(0x40)\n      tag_178\n      swap2\n      swap1\n      tag_31\n      jump\t// in\n    tag_178:\n      mload(0x40)\n      dup1\n      swap2\n      sub\n      swap1\n      log2\n        /* \"contracts/RegisterUsers.sol\":5139:5421  function removeUser(address _user) external onlyAgent {... */\n      pop\n      jump\t// out\n        /* \"contracts/RegisterUsers.sol\":6802:6929  function isRegisteredEntity(address _address) external view returns (bool) {... */\n    tag_66:\n        /* \"contracts/RegisterUsers.sol\":6871:6875  bool */\n      0x00\n        /* \"contracts/RegisterUsers.sol\":6894:6912  registeredEntities */\n      0x05\n        /* \"contracts/RegisterUsers.sol\":6894:6922  registeredEntities[_address] */\n      0x00\n        /* \"contracts/RegisterUsers.sol\":6913:6921  _address */\n      dup4\n        /* \"contracts/RegisterUsers.sol\":6894:6922  registeredEntities[_address] */\n      0xffffffffffffffffffffffffffffffffffffffff\n      and\n      0xffffffffffffffffffffffffffffffffffffffff\n      and\n      dup2\n      mstore\n      0x20\n      add\n      swap1\n      dup2\n      mstore\n      0x20\n      add\n      0x00\n      keccak256\n      0x00\n      swap1\n      sload\n      swap1\n      0x0100\n      exp\n      swap1\n      div\n      0xff\n      and\n        /* \"contracts/RegisterUsers.sol\":6887:6922  return registeredEntities[_address] */\n      swap1\n      pop\n        /* \"contracts/RegisterUsers.sol\":6802:6929  function isRegisteredEntity(address _address) external view returns (bool) {... */\n      swap2\n      swap1\n      pop\n      jump\t// out\n        /* \"contracts/RegisterUsers.sol\":6145:6446  function removeEntity(address _entity) external onlyAgent {... */\n    tag_70:\n        /* \"contracts/RegisterUsers.sol\":1305:1311  agents */\n      0x03\n        /* \"contracts/RegisterUsers.sol\":1305:1323  agents[msg.sender] */\n      0x00\n        /* \"contracts/RegisterUsers.sol\":1312:1322  msg.sender */\n      caller\n        /* \"contracts/RegisterUsers.sol\":1305:1323  agents[msg.sender] */\n      0xffffffffffffffffffffffffffffffffffffffff\n      and\n      0xffffffffffffffffffffffffffffffffffffffff\n      and\n      dup2\n      mstore\n      0x20\n      add\n      swap1\n      dup2\n      mstore\n      0x20\n      add\n      0x00\n      keccak256\n      0x00\n      swap1\n      sload\n      swap1\n      0x0100\n      exp\n      swap1\n      div\n      0xff\n      and\n        /* \"contracts/RegisterUsers.sol\":1297:1363  require(agents[msg.sender], \"Only agents can perform this action\") */\n      tag_181\n      jumpi\n      mload(0x40)\n      0x08c379a000000000000000000000000000000000000000000000000000000000\n      dup2\n      mstore\n      0x04\n      add\n      tag_182\n      swap1\n      tag_104\n      jump\t// in\n    tag_182:\n      mload(0x40)\n      dup1\n      swap2\n      sub\n      swap1\n      revert\n    tag_181:\n        /* \"contracts/RegisterUsers.sol\":6240:6241  0 */\n      0x00\n        /* \"contracts/RegisterUsers.sol\":6221:6242  _entity != address(0) */\n      0xffffffffffffffffffffffffffffffffffffffff\n      and\n        /* \"contracts/RegisterUsers.sol\":6221:6228  _entity */\n      dup2\n        /* \"contracts/RegisterUsers.sol\":6221:6242  _entity != address(0) */\n      0xffffffffffffffffffffffffffffffffffffffff\n      and\n      sub\n        /* \"contracts/RegisterUsers.sol\":6213:6273  require(_entity != address(0), \"Cannot remove zero address\") */\n      tag_184\n      jumpi\n      mload(0x40)\n      0x08c379a000000000000000000000000000000000000000000000000000000000\n      dup2\n      mstore\n      0x04\n      add\n      tag_185\n      swap1\n      tag_174\n      jump\t// in\n    tag_185:\n      mload(0x40)\n      dup1\n      swap2\n      sub\n      swap1\n      revert\n    tag_184:\n        /* \"contracts/RegisterUsers.sol\":6291:6309  registeredEntities */\n      0x05\n        /* \"contracts/RegisterUsers.sol\":6291:6318  registeredEntities[_entity] */\n      0x00\n        /* \"contracts/RegisterUsers.sol\":6310:6317  _entity */\n      dup3\n        /* \"contracts/RegisterUsers.sol\":6291:6318  registeredEntities[_entity] */\n      0xffffffffffffffffffffffffffffffffffffffff\n      and\n      0xffffffffffffffffffffffffffffffffffffffff\n      and\n      dup2\n      mstore\n      0x20\n      add\n      swap1\n      dup2\n      mstore\n      0x20\n      add\n      0x00\n      keccak256\n      0x00\n      swap1\n      sload\n      swap1\n      0x0100\n      exp\n      swap1\n      div\n      0xff\n      and\n        /* \"contracts/RegisterUsers.sol\":6283:6344  require(registeredEntities[_entity], \"Entity not registered\") */\n      tag_186\n      jumpi\n      mload(0x40)\n      0x08c379a000000000000000000000000000000000000000000000000000000000\n      dup2\n      mstore\n      0x04\n      add\n      tag_187\n      swap1\n      tag_188\n      jump\t// in\n    tag_187:\n      mload(0x40)\n      dup1\n      swap2\n      sub\n      swap1\n      revert\n    tag_186:\n        /* \"contracts/RegisterUsers.sol\":6393:6398  false */\n      0x00\n        /* \"contracts/RegisterUsers.sol\":6363:6381  registeredEntities */\n      0x05\n        /* \"contracts/RegisterUsers.sol\":6363:6390  registeredEntities[_entity] */\n      0x00\n        /* \"contracts/RegisterUsers.sol\":6382:6389  _entity */\n      dup4\n        /* \"contracts/RegisterUsers.sol\":6363:6390  registeredEntities[_entity] */\n      0xffffffffffffffffffffffffffffffffffffffff\n      and\n      0xffffffffffffffffffffffffffffffffffffffff\n      and\n      dup2\n      mstore\n      0x20\n      add\n      swap1\n      dup2\n      mstore\n      0x20\n      add\n      0x00\n      keccak256\n      0x00\n        /* \"contracts/RegisterUsers.sol\":6363:6398  registeredEntities[_entity] = false */\n      0x0100\n      exp\n      dup2\n      sload\n      dup2\n      0xff\n      mul\n      not\n      and\n      swap1\n      dup4\n      iszero\n      iszero\n      mul\n      or\n      swap1\n      sstore\n      pop\n        /* \"contracts/RegisterUsers.sol\":6425:6432  _entity */\n      dup1\n        /* \"contracts/RegisterUsers.sol\":6413:6439  UserRemoved(_entity, true) */\n      0xffffffffffffffffffffffffffffffffffffffff\n      and\n      0x57ffeda2cca1356c20c3f388d439e7ee49a825f846a911f8981726bea201188f\n        /* \"contracts/RegisterUsers.sol\":6434:6438  true */\n      0x01\n        /* \"contracts/RegisterUsers.sol\":6413:6439  UserRemoved(_entity, true) */\n      mload(0x40)\n      tag_189\n      swap2\n      swap1\n      tag_31\n      jump\t// in\n    tag_189:\n      mload(0x40)\n      dup1\n      swap2\n      sub\n      swap1\n      log2\n        /* \"contracts/RegisterUsers.sol\":6145:6446  function removeEntity(address _entity) external onlyAgent {... */\n      pop\n      jump\t// out\n        /* \"contracts/RegisterUsers.sol\":5484:6039  function getAgents() external view returns (address[] memory) {... */\n    tag_72:\n        /* \"contracts/RegisterUsers.sol\":5528:5544  address[] memory */\n      0x60\n        /* \"contracts/RegisterUsers.sol\":5556:5574  uint256 agentCount */\n      0x00\n        /* \"contracts/RegisterUsers.sol\":5593:5602  uint256 i */\n      dup1\n        /* \"contracts/RegisterUsers.sol\":5588:5733  for (uint256 i = 0; i < block.number; i++) {... */\n    tag_191:\n        /* \"contracts/RegisterUsers.sol\":5612:5624  block.number */\n      number\n        /* \"contracts/RegisterUsers.sol\":5608:5609  i */\n      dup2\n        /* \"contracts/RegisterUsers.sol\":5608:5624  i < block.number */\n      lt\n        /* \"contracts/RegisterUsers.sol\":5588:5733  for (uint256 i = 0; i < block.number; i++) {... */\n      iszero\n      tag_192\n      jumpi\n        /* \"contracts/RegisterUsers.sol\":5649:5655  agents */\n      0x03\n        /* \"contracts/RegisterUsers.sol\":5649:5676  agents[address(uint160(i))] */\n      0x00\n        /* \"contracts/RegisterUsers.sol\":5672:5673  i */\n      dup3\n        /* \"contracts/RegisterUsers.sol\":5649:5676  agents[address(uint160(i))] */\n      0xffffffffffffffffffffffffffffffffffffffff\n      and\n      0xffffffffffffffffffffffffffffffffffffffff\n      and\n      dup2\n      mstore\n      0x20\n      add\n      swap1\n      dup2\n      mstore\n      0x20\n      add\n      0x00\n      keccak256\n      0x00\n      swap1\n      sload\n      swap1\n      0x0100\n      exp\n      swap1\n      div\n      0xff\n      and\n        /* \"contracts/RegisterUsers.sol\":5645:5723  if (agents[address(uint160(i))]) {... */\n      iszero\n      tag_194\n      jumpi\n        /* \"contracts/RegisterUsers.sol\":5696:5708  agentCount++ */\n      dup2\n      dup1\n      tag_195\n      swap1\n      tag_93\n      jump\t// in\n    tag_195:\n      swap3\n      pop\n      pop\n        /* \"contracts/RegisterUsers.sol\":5645:5723  if (agents[address(uint160(i))]) {... */\n    tag_194:\n        /* \"contracts/RegisterUsers.sol\":5626:5629  i++ */\n      dup1\n      dup1\n      0x01\n      add\n      swap2\n      pop\n      pop\n        /* \"contracts/RegisterUsers.sol\":5588:5733  for (uint256 i = 0; i < block.number; i++) {... */\n      jump(tag_191)\n    tag_192:\n      pop\n        /* \"contracts/RegisterUsers.sol\":5743:5769  address[] memory agentList */\n      0x00\n        /* \"contracts/RegisterUsers.sol\":5786:5796  agentCount */\n      dup2\n        /* \"contracts/RegisterUsers.sol\":5772:5797  new address[](agentCount) */\n      0xffffffffffffffff\n      dup2\n      gt\n      iszero\n      tag_196\n      jumpi\n      tag_197\n      tag_198\n      jump\t// in\n    tag_197:\n    tag_196:\n      mload(0x40)\n      swap1\n      dup1\n      dup3\n      mstore\n      dup1\n      0x20\n      mul\n      0x20\n      add\n      dup3\n      add\n      0x40\n      mstore\n      dup1\n      iszero\n      tag_199\n      jumpi\n      dup2\n      0x20\n      add\n      0x20\n      dup3\n      mul\n      dup1\n      calldatasize\n      dup4\n      calldatacopy\n      dup1\n      dup3\n      add\n      swap2\n      pop\n      pop\n      swap1\n      pop\n    tag_199:\n      pop\n        /* \"contracts/RegisterUsers.sol\":5743:5797  address[] memory agentList = new address[](agentCount) */\n      swap1\n      pop\n        /* \"contracts/RegisterUsers.sol\":5807:5820  uint256 index */\n      0x00\n        /* \"contracts/RegisterUsers.sol\":5839:5848  uint256 i */\n      dup1\n        /* \"contracts/RegisterUsers.sol\":5834:6007  for (uint256 i = 0; i < block.number; i++) {... */\n    tag_200:\n        /* \"contracts/RegisterUsers.sol\":5858:5870  block.number */\n      number\n        /* \"contracts/RegisterUsers.sol\":5854:5855  i */\n      dup2\n        /* \"contracts/RegisterUsers.sol\":5854:5870  i < block.number */\n      lt\n        /* \"contracts/RegisterUsers.sol\":5834:6007  for (uint256 i = 0; i < block.number; i++) {... */\n      iszero\n      tag_201\n      jumpi\n        /* \"contracts/RegisterUsers.sol\":5895:5901  agents */\n      0x03\n        /* \"contracts/RegisterUsers.sol\":5895:5922  agents[address(uint160(i))] */\n      0x00\n        /* \"contracts/RegisterUsers.sol\":5918:5919  i */\n      dup3\n        /* \"contracts/RegisterUsers.sol\":5895:5922  agents[address(uint160(i))] */\n      0xffffffffffffffffffffffffffffffffffffffff\n      and\n      0xffffffffffffffffffffffffffffffffffffffff\n      and\n      dup2\n      mstore\n      0x20\n      add\n      swap1\n      dup2\n      mstore\n      0x20\n      add\n      0x00\n      keccak256\n      0x00\n      swap1\n      sload\n      swap1\n      0x0100\n      exp\n      swap1\n      div\n      0xff\n      and\n        /* \"contracts/RegisterUsers.sol\":5891:5997  if (agents[address(uint160(i))]) {... */\n      iszero\n      tag_203\n      jumpi\n        /* \"contracts/RegisterUsers.sol\":5979:5980  i */\n      dup1\n        /* \"contracts/RegisterUsers.sol\":5942:5951  agentList */\n      dup4\n        /* \"contracts/RegisterUsers.sol\":5952:5959  index++ */\n      dup4\n      dup1\n      tag_204\n      swap1\n      tag_93\n      jump\t// in\n    tag_204:\n      swap5\n      pop\n        /* \"contracts/RegisterUsers.sol\":5942:5960  agentList[index++] */\n      dup2\n      mload\n      dup2\n      lt\n      tag_205\n      jumpi\n      tag_206\n      tag_207\n      jump\t// in\n    tag_206:\n    tag_205:\n      0x20\n      mul\n      0x20\n      add\n      add\n        /* \"contracts/RegisterUsers.sol\":5942:5982  agentList[index++] = address(uint160(i)) */\n      swap1\n      0xffffffffffffffffffffffffffffffffffffffff\n      and\n      swap1\n      dup2\n      0xffffffffffffffffffffffffffffffffffffffff\n      and\n      dup2\n      mstore\n      pop\n      pop\n        /* \"contracts/RegisterUsers.sol\":5891:5997  if (agents[address(uint160(i))]) {... */\n    tag_203:\n        /* \"contracts/RegisterUsers.sol\":5872:5875  i++ */\n      dup1\n      dup1\n      0x01\n      add\n      swap2\n      pop\n      pop\n        /* \"contracts/RegisterUsers.sol\":5834:6007  for (uint256 i = 0; i < block.number; i++) {... */\n      jump(tag_200)\n    tag_201:\n      pop\n        /* \"contracts/RegisterUsers.sol\":6023:6032  agentList */\n      dup2\n        /* \"contracts/RegisterUsers.sol\":6016:6032  return agentList */\n      swap4\n      pop\n      pop\n      pop\n      pop\n        /* \"contracts/RegisterUsers.sol\":5484:6039  function getAgents() external view returns (address[] memory) {... */\n      swap1\n      jump\t// out\n        /* \"contracts/RegisterUsers.sol\":2782:3176  function registerEntity(address _entity) external onlyAgent {... */\n    tag_77:\n        /* \"contracts/RegisterUsers.sol\":1305:1311  agents */\n      0x03\n        /* \"contracts/RegisterUsers.sol\":1305:1323  agents[msg.sender] */\n      0x00\n        /* \"contracts/RegisterUsers.sol\":1312:1322  msg.sender */\n      caller\n        /* \"contracts/RegisterUsers.sol\":1305:1323  agents[msg.sender] */\n      0xffffffffffffffffffffffffffffffffffffffff\n      and\n      0xffffffffffffffffffffffffffffffffffffffff\n      and\n      dup2\n      mstore\n      0x20\n      add\n      swap1\n      dup2\n      mstore\n      0x20\n      add\n      0x00\n      keccak256\n      0x00\n      swap1\n      sload\n      swap1\n      0x0100\n      exp\n      swap1\n      div\n      0xff\n      and\n        /* \"contracts/RegisterUsers.sol\":1297:1363  require(agents[msg.sender], \"Only agents can perform this action\") */\n      tag_209\n      jumpi\n      mload(0x40)\n      0x08c379a000000000000000000000000000000000000000000000000000000000\n      dup2\n      mstore\n      0x04\n      add\n      tag_210\n      swap1\n      tag_104\n      jump\t// in\n    tag_210:\n      mload(0x40)\n      dup1\n      swap2\n      sub\n      swap1\n      revert\n    tag_209:\n        /* \"contracts/RegisterUsers.sol\":2879:2880  0 */\n      0x00\n        /* \"contracts/RegisterUsers.sol\":2860:2881  _entity != address(0) */\n      0xffffffffffffffffffffffffffffffffffffffff\n      and\n        /* \"contracts/RegisterUsers.sol\":2860:2867  _entity */\n      dup2\n        /* \"contracts/RegisterUsers.sol\":2860:2881  _entity != address(0) */\n      0xffffffffffffffffffffffffffffffffffffffff\n      and\n      sub\n        /* \"contracts/RegisterUsers.sol\":2852:2914  require(_entity != address(0), \"Cannot register zero address\") */\n      tag_212\n      jumpi\n      mload(0x40)\n      0x08c379a000000000000000000000000000000000000000000000000000000000\n      dup2\n      mstore\n      0x04\n      add\n      tag_213\n      swap1\n      tag_108\n      jump\t// in\n    tag_213:\n      mload(0x40)\n      dup1\n      swap2\n      sub\n      swap1\n      revert\n    tag_212:\n        /* \"contracts/RegisterUsers.sol\":2933:2951  registeredEntities */\n      0x05\n        /* \"contracts/RegisterUsers.sol\":2933:2960  registeredEntities[_entity] */\n      0x00\n        /* \"contracts/RegisterUsers.sol\":2952:2959  _entity */\n      dup3\n        /* \"contracts/RegisterUsers.sol\":2933:2960  registeredEntities[_entity] */\n      0xffffffffffffffffffffffffffffffffffffffff\n      and\n      0xffffffffffffffffffffffffffffffffffffffff\n      and\n      dup2\n      mstore\n      0x20\n      add\n      swap1\n      dup2\n      mstore\n      0x20\n      add\n      0x00\n      keccak256\n      0x00\n      swap1\n      sload\n      swap1\n      0x0100\n      exp\n      swap1\n      div\n      0xff\n      and\n        /* \"contracts/RegisterUsers.sol\":2932:2960  !registeredEntities[_entity] */\n      iszero\n        /* \"contracts/RegisterUsers.sol\":2924:2990  require(!registeredEntities[_entity], \"Entity already registered\") */\n      tag_214\n      jumpi\n      mload(0x40)\n      0x08c379a000000000000000000000000000000000000000000000000000000000\n      dup2\n      mstore\n      0x04\n      add\n      tag_215\n      swap1\n      tag_216\n      jump\t// in\n    tag_215:\n      mload(0x40)\n      dup1\n      swap2\n      sub\n      swap1\n      revert\n    tag_214:\n        /* \"contracts/RegisterUsers.sol\":3009:3024  registeredUsers */\n      0x04\n        /* \"contracts/RegisterUsers.sol\":3009:3033  registeredUsers[_entity] */\n      0x00\n        /* \"contracts/RegisterUsers.sol\":3025:3032  _entity */\n      dup3\n        /* \"contracts/RegisterUsers.sol\":3009:3033  registeredUsers[_entity] */\n      0xffffffffffffffffffffffffffffffffffffffff\n      and\n      0xffffffffffffffffffffffffffffffffffffffff\n      and\n      dup2\n      mstore\n      0x20\n      add\n      swap1\n      dup2\n      mstore\n      0x20\n      add\n      0x00\n      keccak256\n      0x00\n      swap1\n      sload\n      swap1\n      0x0100\n      exp\n      swap1\n      div\n      0xff\n      and\n        /* \"contracts/RegisterUsers.sol\":3008:3033  !registeredUsers[_entity] */\n      iszero\n        /* \"contracts/RegisterUsers.sol\":3000:3072  require(!registeredUsers[_entity], \"Address already registered as user\") */\n      tag_217\n      jumpi\n      mload(0x40)\n      0x08c379a000000000000000000000000000000000000000000000000000000000\n      dup2\n      mstore\n      0x04\n      add\n      tag_218\n      swap1\n      tag_219\n      jump\t// in\n    tag_218:\n      mload(0x40)\n      dup1\n      swap2\n      sub\n      swap1\n      revert\n    tag_217:\n        /* \"contracts/RegisterUsers.sol\":3121:3125  true */\n      0x01\n        /* \"contracts/RegisterUsers.sol\":3091:3109  registeredEntities */\n      0x05\n        /* \"contracts/RegisterUsers.sol\":3091:3118  registeredEntities[_entity] */\n      0x00\n        /* \"contracts/RegisterUsers.sol\":3110:3117  _entity */\n      dup4\n        /* \"contracts/RegisterUsers.sol\":3091:3118  registeredEntities[_entity] */\n      0xffffffffffffffffffffffffffffffffffffffff\n      and\n      0xffffffffffffffffffffffffffffffffffffffff\n      and\n      dup2\n      mstore\n      0x20\n      add\n      swap1\n      dup2\n      mstore\n      0x20\n      add\n      0x00\n      keccak256\n      0x00\n        /* \"contracts/RegisterUsers.sol\":3091:3125  registeredEntities[_entity] = true */\n      0x0100\n      exp\n      dup2\n      sload\n      dup2\n      0xff\n      mul\n      not\n      and\n      swap1\n      dup4\n      iszero\n      iszero\n      mul\n      or\n      swap1\n      sstore\n      pop\n        /* \"contracts/RegisterUsers.sol\":3155:3162  _entity */\n      dup1\n        /* \"contracts/RegisterUsers.sol\":3140:3169  UserRegistered(_entity, true) */\n      0xffffffffffffffffffffffffffffffffffffffff\n      and\n      0x28a24a60e275c9be5babc23ecefd3240b1fcd56ef4d3fe4818437200b55ae5ff\n        /* \"contracts/RegisterUsers.sol\":3164:3168  true */\n      0x01\n        /* \"contracts/RegisterUsers.sol\":3140:3169  UserRegistered(_entity, true) */\n      mload(0x40)\n      tag_220\n      swap2\n      swap1\n      tag_31\n      jump\t// in\n    tag_220:\n      mload(0x40)\n      dup1\n      swap2\n      sub\n      swap1\n      log2\n        /* \"contracts/RegisterUsers.sol\":2782:3176  function registerEntity(address _entity) external onlyAgent {... */\n      pop\n      jump\t// out\n        /* \"@openzeppelin/contracts/access/Ownable.sol\":2543:2758  function transferOwnership(address newOwner) public virtual onlyOwner {... */\n    tag_80:\n        /* \"@openzeppelin/contracts/access/Ownable.sol\":1531:1544  _checkOwner() */\n      tag_222\n        /* \"@openzeppelin/contracts/access/Ownable.sol\":1531:1542  _checkOwner */\n      tag_137\n        /* \"@openzeppelin/contracts/access/Ownable.sol\":1531:1544  _checkOwner() */\n      jump\t// in\n    tag_222:\n        /* \"@openzeppelin/contracts/access/Ownable.sol\":2647:2648  0 */\n      0x00\n        /* \"@openzeppelin/contracts/access/Ownable.sol\":2627:2649  newOwner == address(0) */\n      0xffffffffffffffffffffffffffffffffffffffff\n      and\n        /* \"@openzeppelin/contracts/access/Ownable.sol\":2627:2635  newOwner */\n      dup2\n        /* \"@openzeppelin/contracts/access/Ownable.sol\":2627:2649  newOwner == address(0) */\n      0xffffffffffffffffffffffffffffffffffffffff\n      and\n      sub\n        /* \"@openzeppelin/contracts/access/Ownable.sol\":2623:2714  if (newOwner == address(0)) {... */\n      tag_224\n      jumpi\n        /* \"@openzeppelin/contracts/access/Ownable.sol\":2700:2701  0 */\n      0x00\n        /* \"@openzeppelin/contracts/access/Ownable.sol\":2672:2703  OwnableInvalidOwner(address(0)) */\n      mload(0x40)\n      0x1e4fbdf700000000000000000000000000000000000000000000000000000000\n      dup2\n      mstore\n      0x04\n      add\n      tag_225\n      swap2\n      swap1\n      tag_57\n      jump\t// in\n    tag_225:\n      mload(0x40)\n      dup1\n      swap2\n      sub\n      swap1\n      revert\n        /* \"@openzeppelin/contracts/access/Ownable.sol\":2623:2714  if (newOwner == address(0)) {... */\n    tag_224:\n        /* \"@openzeppelin/contracts/access/Ownable.sol\":2723:2751  _transferOwnership(newOwner) */\n      tag_226\n        /* \"@openzeppelin/contracts/access/Ownable.sol\":2742:2750  newOwner */\n      dup2\n        /* \"@openzeppelin/contracts/access/Ownable.sol\":2723:2741  _transferOwnership */\n      tag_140\n        /* \"@openzeppelin/contracts/access/Ownable.sol\":2723:2751  _transferOwnership(newOwner) */\n      jump\t// in\n    tag_226:\n        /* \"@openzeppelin/contracts/access/Ownable.sol\":2543:2758  function transferOwnership(address newOwner) public virtual onlyOwner {... */\n      pop\n      jump\t// out\n        /* \"@openzeppelin/contracts/access/Ownable.sol\":1796:1958  function _checkOwner() internal view virtual {... */\n    tag_137:\n        /* \"@openzeppelin/contracts/access/Ownable.sol\":1866:1878  _msgSender() */\n      tag_228\n        /* \"@openzeppelin/contracts/access/Ownable.sol\":1866:1876  _msgSender */\n      tag_229\n        /* \"@openzeppelin/contracts/access/Ownable.sol\":1866:1878  _msgSender() */\n      jump\t// in\n    tag_228:\n        /* \"@openzeppelin/contracts/access/Ownable.sol\":1855:1878  owner() != _msgSender() */\n      0xffffffffffffffffffffffffffffffffffffffff\n      and\n        /* \"@openzeppelin/contracts/access/Ownable.sol\":1855:1862  owner() */\n      tag_230\n        /* \"@openzeppelin/contracts/access/Ownable.sol\":1855:1860  owner */\n      tag_55\n        /* \"@openzeppelin/contracts/access/Ownable.sol\":1855:1862  owner() */\n      jump\t// in\n    tag_230:\n        /* \"@openzeppelin/contracts/access/Ownable.sol\":1855:1878  owner() != _msgSender() */\n      0xffffffffffffffffffffffffffffffffffffffff\n      and\n      eq\n        /* \"@openzeppelin/contracts/access/Ownable.sol\":1851:1952  if (owner() != _msgSender()) {... */\n      tag_231\n      jumpi\n        /* \"@openzeppelin/contracts/access/Ownable.sol\":1928:1940  _msgSender() */\n      tag_232\n        /* \"@openzeppelin/contracts/access/Ownable.sol\":1928:1938  _msgSender */\n      tag_229\n        /* \"@openzeppelin/contracts/access/Ownable.sol\":1928:1940  _msgSender() */\n      jump\t// in\n    tag_232:\n        /* \"@openzeppelin/contracts/access/Ownable.sol\":1901:1941  OwnableUnauthorizedAccount(_msgSender()) */\n      mload(0x40)\n      0x118cdaa700000000000000000000000000000000000000000000000000000000\n      dup2\n      mstore\n      0x04\n      add\n      tag_233\n      swap2\n      swap1\n      tag_57\n      jump\t// in\n    tag_233:\n      mload(0x40)\n      dup1\n      swap2\n      sub\n      swap1\n      revert\n        /* \"@openzeppelin/contracts/access/Ownable.sol\":1851:1952  if (owner() != _msgSender()) {... */\n    tag_231:\n        /* \"@openzeppelin/contracts/access/Ownable.sol\":1796:1958  function _checkOwner() internal view virtual {... */\n      jump\t// out\n        /* \"@openzeppelin/contracts/access/Ownable.sol\":2912:3099  function _transferOwnership(address newOwner) internal virtual {... */\n    tag_140:\n        /* \"@openzeppelin/contracts/access/Ownable.sol\":2985:3001  address oldOwner */\n      0x00\n        /* \"@openzeppelin/contracts/access/Ownable.sol\":3004:3010  _owner */\n      dup1\n      0x00\n      swap1\n      sload\n      swap1\n      0x0100\n      exp\n      swap1\n      div\n      0xffffffffffffffffffffffffffffffffffffffff\n      and\n        /* \"@openzeppelin/contracts/access/Ownable.sol\":2985:3010  address oldOwner = _owner */\n      swap1\n      pop\n        /* \"@openzeppelin/contracts/access/Ownable.sol\":3029:3037  newOwner */\n      dup2\n        /* \"@openzeppelin/contracts/access/Ownable.sol\":3020:3026  _owner */\n      0x00\n      dup1\n        /* \"@openzeppelin/contracts/access/Ownable.sol\":3020:3037  _owner = newOwner */\n      0x0100\n      exp\n      dup2\n      sload\n      dup2\n      0xffffffffffffffffffffffffffffffffffffffff\n      mul\n      not\n      and\n      swap1\n      dup4\n      0xffffffffffffffffffffffffffffffffffffffff\n      and\n      mul\n      or\n      swap1\n      sstore\n      pop\n        /* \"@openzeppelin/contracts/access/Ownable.sol\":3083:3091  newOwner */\n      dup2\n        /* \"@openzeppelin/contracts/access/Ownable.sol\":3052:3092  OwnershipTransferred(oldOwner, newOwner) */\n      0xffffffffffffffffffffffffffffffffffffffff\n      and\n        /* \"@openzeppelin/contracts/access/Ownable.sol\":3073:3081  oldOwner */\n      dup2\n        /* \"@openzeppelin/contracts/access/Ownable.sol\":3052:3092  OwnershipTransferred(oldOwner, newOwner) */\n      0xffffffffffffffffffffffffffffffffffffffff\n      and\n      0x8be0079c531659141344cd1fd0a4f28419497f9722a3daafe3b4186f6b6457e0\n      mload(0x40)\n      mload(0x40)\n      dup1\n      swap2\n      sub\n      swap1\n      log3\n        /* \"@openzeppelin/contracts/access/Ownable.sol\":2975:3099  {... */\n      pop\n        /* \"@openzeppelin/contracts/access/Ownable.sol\":2912:3099  function _transferOwnership(address newOwner) internal virtual {... */\n      pop\n      jump\t// out\n        /* \"@openzeppelin/contracts/utils/Context.sol\":656:752  function _msgSender() internal view virtual returns (address) {... */\n    tag_229:\n        /* \"@openzeppelin/contracts/utils/Context.sol\":709:716  address */\n      0x00\n        /* \"@openzeppelin/contracts/utils/Context.sol\":735:745  msg.sender */\n      caller\n        /* \"@openzeppelin/contracts/utils/Context.sol\":728:745  return msg.sender */\n      swap1\n      pop\n        /* \"@openzeppelin/contracts/utils/Context.sol\":656:752  function _msgSender() internal view virtual returns (address) {... */\n      swap1\n      jump\t// out\n    tag_117:\n      mload(0x40)\n      dup1\n      0xa0\n      add\n      0x40\n      mstore\n      dup1\n      0x60\n      dup2\n      mstore\n      0x20\n      add\n      0x60\n      dup2\n      mstore\n      0x20\n      add\n      and(0xffffffffffffffffffffffffffffffffffffffff, 0x00)\n      dup2\n      mstore\n      0x20\n      add\n      0x00\n      dup2\n      mstore\n      0x20\n      add\n      0x60\n      dup2\n      mstore\n      pop\n      swap1\n      jump\t// out\n        /* \"#utility.yul\":88:205   */\n    tag_237:\n        /* \"#utility.yul\":197:198   */\n      0x00\n        /* \"#utility.yul\":194:195   */\n      dup1\n        /* \"#utility.yul\":187:199   */\n      revert\n        /* \"#utility.yul\":211:328   */\n    tag_238:\n        /* \"#utility.yul\":320:321   */\n      0x00\n        /* \"#utility.yul\":317:318   */\n      dup1\n        /* \"#utility.yul\":310:322   */\n      revert\n        /* \"#utility.yul\":334:451   */\n    tag_239:\n        /* \"#utility.yul\":443:444   */\n      0x00\n        /* \"#utility.yul\":440:441   */\n      dup1\n        /* \"#utility.yul\":433:445   */\n      revert\n        /* \"#utility.yul\":457:574   */\n    tag_240:\n        /* \"#utility.yul\":566:567   */\n      0x00\n        /* \"#utility.yul\":563:564   */\n      dup1\n        /* \"#utility.yul\":556:568   */\n      revert\n        /* \"#utility.yul\":580:697   */\n    tag_241:\n        /* \"#utility.yul\":689:690   */\n      0x00\n        /* \"#utility.yul\":686:687   */\n      dup1\n        /* \"#utility.yul\":679:691   */\n      revert\n        /* \"#utility.yul\":717:1270   */\n    tag_242:\n        /* \"#utility.yul\":775:783   */\n      0x00\n        /* \"#utility.yul\":785:791   */\n      dup1\n        /* \"#utility.yul\":835:838   */\n      dup4\n        /* \"#utility.yul\":828:832   */\n      0x1f\n        /* \"#utility.yul\":820:826   */\n      dup5\n        /* \"#utility.yul\":816:833   */\n      add\n        /* \"#utility.yul\":812:839   */\n      slt\n        /* \"#utility.yul\":802:924   */\n      tag_334\n      jumpi\n        /* \"#utility.yul\":843:922   */\n      tag_335\n      tag_239\n      jump\t// in\n    tag_335:\n        /* \"#utility.yul\":802:924   */\n    tag_334:\n        /* \"#utility.yul\":956:962   */\n      dup3\n        /* \"#utility.yul\":943:963   */\n      calldataload\n        /* \"#utility.yul\":933:963   */\n      swap1\n      pop\n        /* \"#utility.yul\":986:1004   */\n      0xffffffffffffffff\n        /* \"#utility.yul\":978:984   */\n      dup2\n        /* \"#utility.yul\":975:1005   */\n      gt\n        /* \"#utility.yul\":972:1089   */\n      iszero\n      tag_336\n      jumpi\n        /* \"#utility.yul\":1008:1087   */\n      tag_337\n      tag_240\n      jump\t// in\n    tag_337:\n        /* \"#utility.yul\":972:1089   */\n    tag_336:\n        /* \"#utility.yul\":1122:1126   */\n      0x20\n        /* \"#utility.yul\":1114:1120   */\n      dup4\n        /* \"#utility.yul\":1110:1127   */\n      add\n        /* \"#utility.yul\":1098:1127   */\n      swap2\n      pop\n        /* \"#utility.yul\":1176:1179   */\n      dup4\n        /* \"#utility.yul\":1168:1172   */\n      0x01\n        /* \"#utility.yul\":1160:1166   */\n      dup3\n        /* \"#utility.yul\":1156:1173   */\n      mul\n        /* \"#utility.yul\":1146:1154   */\n      dup4\n        /* \"#utility.yul\":1142:1174   */\n      add\n        /* \"#utility.yul\":1139:1180   */\n      gt\n        /* \"#utility.yul\":1136:1264   */\n      iszero\n      tag_338\n      jumpi\n        /* \"#utility.yul\":1183:1262   */\n      tag_339\n      tag_241\n      jump\t// in\n    tag_339:\n        /* \"#utility.yul\":1136:1264   */\n    tag_338:\n        /* \"#utility.yul\":717:1270   */\n      swap3\n      pop\n      swap3\n      swap1\n      pop\n      jump\t// out\n        /* \"#utility.yul\":1276:2150   */\n    tag_24:\n        /* \"#utility.yul\":1368:1374   */\n      0x00\n        /* \"#utility.yul\":1376:1382   */\n      dup1\n        /* \"#utility.yul\":1384:1390   */\n      0x00\n        /* \"#utility.yul\":1392:1398   */\n      dup1\n        /* \"#utility.yul\":1441:1443   */\n      0x40\n        /* \"#utility.yul\":1429:1438   */\n      dup6\n        /* \"#utility.yul\":1420:1427   */\n      dup8\n        /* \"#utility.yul\":1416:1439   */\n      sub\n        /* \"#utility.yul\":1412:1444   */\n      slt\n        /* \"#utility.yul\":1409:1528   */\n      iszero\n      tag_341\n      jumpi\n        /* \"#utility.yul\":1447:1526   */\n      tag_342\n      tag_237\n      jump\t// in\n    tag_342:\n        /* \"#utility.yul\":1409:1528   */\n    tag_341:\n        /* \"#utility.yul\":1595:1596   */\n      0x00\n        /* \"#utility.yul\":1584:1593   */\n      dup6\n        /* \"#utility.yul\":1580:1597   */\n      add\n        /* \"#utility.yul\":1567:1598   */\n      calldataload\n        /* \"#utility.yul\":1625:1643   */\n      0xffffffffffffffff\n        /* \"#utility.yul\":1617:1623   */\n      dup2\n        /* \"#utility.yul\":1614:1644   */\n      gt\n        /* \"#utility.yul\":1611:1728   */\n      iszero\n      tag_343\n      jumpi\n        /* \"#utility.yul\":1647:1726   */\n      tag_344\n      tag_238\n      jump\t// in\n    tag_344:\n        /* \"#utility.yul\":1611:1728   */\n    tag_343:\n        /* \"#utility.yul\":1760:1825   */\n      tag_345\n        /* \"#utility.yul\":1817:1824   */\n      dup8\n        /* \"#utility.yul\":1808:1814   */\n      dup3\n        /* \"#utility.yul\":1797:1806   */\n      dup9\n        /* \"#utility.yul\":1793:1815   */\n      add\n        /* \"#utility.yul\":1760:1825   */\n      tag_242\n      jump\t// in\n    tag_345:\n        /* \"#utility.yul\":1742:1825   */\n      swap5\n      pop\n      swap5\n      pop\n        /* \"#utility.yul\":1538:1835   */\n      pop\n        /* \"#utility.yul\":1902:1904   */\n      0x20\n        /* \"#utility.yul\":1891:1900   */\n      dup6\n        /* \"#utility.yul\":1887:1905   */\n      add\n        /* \"#utility.yul\":1874:1906   */\n      calldataload\n        /* \"#utility.yul\":1933:1951   */\n      0xffffffffffffffff\n        /* \"#utility.yul\":1925:1931   */\n      dup2\n        /* \"#utility.yul\":1922:1952   */\n      gt\n        /* \"#utility.yul\":1919:2036   */\n      iszero\n      tag_346\n      jumpi\n        /* \"#utility.yul\":1955:2034   */\n      tag_347\n      tag_238\n      jump\t// in\n    tag_347:\n        /* \"#utility.yul\":1919:2036   */\n    tag_346:\n        /* \"#utility.yul\":2068:2133   */\n      tag_348\n        /* \"#utility.yul\":2125:2132   */\n      dup8\n        /* \"#utility.yul\":2116:2122   */\n      dup3\n        /* \"#utility.yul\":2105:2114   */\n      dup9\n        /* \"#utility.yul\":2101:2123   */\n      add\n        /* \"#utility.yul\":2068:2133   */\n      tag_242\n      jump\t// in\n    tag_348:\n        /* \"#utility.yul\":2050:2133   */\n      swap3\n      pop\n      swap3\n      pop\n        /* \"#utility.yul\":1845:2143   */\n      pop\n        /* \"#utility.yul\":1276:2150   */\n      swap3\n      swap6\n      swap2\n      swap5\n      pop\n      swap3\n      pop\n      jump\t// out\n        /* \"#utility.yul\":2156:2282   */\n    tag_243:\n        /* \"#utility.yul\":2193:2200   */\n      0x00\n        /* \"#utility.yul\":2233:2275   */\n      0xffffffffffffffffffffffffffffffffffffffff\n        /* \"#utility.yul\":2226:2231   */\n      dup3\n        /* \"#utility.yul\":2222:2276   */\n      and\n        /* \"#utility.yul\":2211:2276   */\n      swap1\n      pop\n        /* \"#utility.yul\":2156:2282   */\n      swap2\n      swap1\n      pop\n      jump\t// out\n        /* \"#utility.yul\":2288:2384   */\n    tag_244:\n        /* \"#utility.yul\":2325:2332   */\n      0x00\n        /* \"#utility.yul\":2354:2378   */\n      tag_351\n        /* \"#utility.yul\":2372:2377   */\n      dup3\n        /* \"#utility.yul\":2354:2378   */\n      tag_243\n      jump\t// in\n    tag_351:\n        /* \"#utility.yul\":2343:2378   */\n      swap1\n      pop\n        /* \"#utility.yul\":2288:2384   */\n      swap2\n      swap1\n      pop\n      jump\t// out\n        /* \"#utility.yul\":2390:2512   */\n    tag_245:\n        /* \"#utility.yul\":2463:2487   */\n      tag_353\n        /* \"#utility.yul\":2481:2486   */\n      dup2\n        /* \"#utility.yul\":2463:2487   */\n      tag_244\n      jump\t// in\n    tag_353:\n        /* \"#utility.yul\":2456:2461   */\n      dup2\n        /* \"#utility.yul\":2453:2488   */\n      eq\n        /* \"#utility.yul\":2443:2506   */\n      tag_354\n      jumpi\n        /* \"#utility.yul\":2502:2503   */\n      0x00\n        /* \"#utility.yul\":2499:2500   */\n      dup1\n        /* \"#utility.yul\":2492:2504   */\n      revert\n        /* \"#utility.yul\":2443:2506   */\n    tag_354:\n        /* \"#utility.yul\":2390:2512   */\n      pop\n      jump\t// out\n        /* \"#utility.yul\":2518:2657   */\n    tag_246:\n        /* \"#utility.yul\":2564:2569   */\n      0x00\n        /* \"#utility.yul\":2602:2608   */\n      dup2\n        /* \"#utility.yul\":2589:2609   */\n      calldataload\n        /* \"#utility.yul\":2580:2609   */\n      swap1\n      pop\n        /* \"#utility.yul\":2618:2651   */\n      tag_356\n        /* \"#utility.yul\":2645:2650   */\n      dup2\n        /* \"#utility.yul\":2618:2651   */\n      tag_245\n      jump\t// in\n    tag_356:\n        /* \"#utility.yul\":2518:2657   */\n      swap3\n      swap2\n      pop\n      pop\n      jump\t// out\n        /* \"#utility.yul\":2663:2992   */\n    tag_28:\n        /* \"#utility.yul\":2722:2728   */\n      0x00\n        /* \"#utility.yul\":2771:2773   */\n      0x20\n        /* \"#utility.yul\":2759:2768   */\n      dup3\n        /* \"#utility.yul\":2750:2757   */\n      dup5\n        /* \"#utility.yul\":2746:2769   */\n      sub\n        /* \"#utility.yul\":2742:2774   */\n      slt\n        /* \"#utility.yul\":2739:2858   */\n      iszero\n      tag_358\n      jumpi\n        /* \"#utility.yul\":2777:2856   */\n      tag_359\n      tag_237\n      jump\t// in\n    tag_359:\n        /* \"#utility.yul\":2739:2858   */\n    tag_358:\n        /* \"#utility.yul\":2897:2898   */\n      0x00\n        /* \"#utility.yul\":2922:2975   */\n      tag_360\n        /* \"#utility.yul\":2967:2974   */\n      dup5\n        /* \"#utility.yul\":2958:2964   */\n      dup3\n        /* \"#utility.yul\":2947:2956   */\n      dup6\n        /* \"#utility.yul\":2943:2965   */\n      add\n        /* \"#utility.yul\":2922:2975   */\n      tag_246\n      jump\t// in\n    tag_360:\n        /* \"#utility.yul\":2912:2975   */\n      swap2\n      pop\n        /* \"#utility.yul\":2868:2985   */\n      pop\n        /* \"#utility.yul\":2663:2992   */\n      swap3\n      swap2\n      pop\n      pop\n      jump\t// out\n        /* \"#utility.yul\":2998:3088   */\n    tag_247:\n        /* \"#utility.yul\":3032:3039   */\n      0x00\n        /* \"#utility.yul\":3075:3080   */\n      dup2\n        /* \"#utility.yul\":3068:3081   */\n      iszero\n        /* \"#utility.yul\":3061:3082   */\n      iszero\n        /* \"#utility.yul\":3050:3082   */\n      swap1\n      pop\n        /* \"#utility.yul\":2998:3088   */\n      swap2\n      swap1\n      pop\n      jump\t// out\n        /* \"#utility.yul\":3094:3203   */\n    tag_248:\n        /* \"#utility.yul\":3175:3196   */\n      tag_363\n        /* \"#utility.yul\":3190:3195   */\n      dup2\n        /* \"#utility.yul\":3175:3196   */\n      tag_247\n      jump\t// in\n    tag_363:\n        /* \"#utility.yul\":3170:3173   */\n      dup3\n        /* \"#utility.yul\":3163:3197   */\n      mstore\n        /* \"#utility.yul\":3094:3203   */\n      pop\n      pop\n      jump\t// out\n        /* \"#utility.yul\":3209:3419   */\n    tag_31:\n        /* \"#utility.yul\":3296:3300   */\n      0x00\n        /* \"#utility.yul\":3334:3336   */\n      0x20\n        /* \"#utility.yul\":3323:3332   */\n      dup3\n        /* \"#utility.yul\":3319:3337   */\n      add\n        /* \"#utility.yul\":3311:3337   */\n      swap1\n      pop\n        /* \"#utility.yul\":3347:3412   */\n      tag_365\n        /* \"#utility.yul\":3409:3410   */\n      0x00\n        /* \"#utility.yul\":3398:3407   */\n      dup4\n        /* \"#utility.yul\":3394:3411   */\n      add\n        /* \"#utility.yul\":3385:3391   */\n      dup5\n        /* \"#utility.yul\":3347:3412   */\n      tag_248\n      jump\t// in\n    tag_365:\n        /* \"#utility.yul\":3209:3419   */\n      swap3\n      swap2\n      pop\n      pop\n      jump\t// out\n        /* \"#utility.yul\":3425:3502   */\n    tag_249:\n        /* \"#utility.yul\":3462:3469   */\n      0x00\n        /* \"#utility.yul\":3491:3496   */\n      dup2\n        /* \"#utility.yul\":3480:3496   */\n      swap1\n      pop\n        /* \"#utility.yul\":3425:3502   */\n      swap2\n      swap1\n      pop\n      jump\t// out\n        /* \"#utility.yul\":3508:3630   */\n    tag_250:\n        /* \"#utility.yul\":3581:3605   */\n      tag_368\n        /* \"#utility.yul\":3599:3604   */\n      dup2\n        /* \"#utility.yul\":3581:3605   */\n      tag_249\n      jump\t// in\n    tag_368:\n        /* \"#utility.yul\":3574:3579   */\n      dup2\n        /* \"#utility.yul\":3571:3606   */\n      eq\n        /* \"#utility.yul\":3561:3624   */\n      tag_369\n      jumpi\n        /* \"#utility.yul\":3620:3621   */\n      0x00\n        /* \"#utility.yul\":3617:3618   */\n      dup1\n        /* \"#utility.yul\":3610:3622   */\n      revert\n        /* \"#utility.yul\":3561:3624   */\n    tag_369:\n        /* \"#utility.yul\":3508:3630   */\n      pop\n      jump\t// out\n        /* \"#utility.yul\":3636:3775   */\n    tag_251:\n        /* \"#utility.yul\":3682:3687   */\n      0x00\n        /* \"#utility.yul\":3720:3726   */\n      dup2\n        /* \"#utility.yul\":3707:3727   */\n      calldataload\n        /* \"#utility.yul\":3698:3727   */\n      swap1\n      pop\n        /* \"#utility.yul\":3736:3769   */\n      tag_371\n        /* \"#utility.yul\":3763:3768   */\n      dup2\n        /* \"#utility.yul\":3736:3769   */\n      tag_250\n      jump\t// in\n    tag_371:\n        /* \"#utility.yul\":3636:3775   */\n      swap3\n      swap2\n      pop\n      pop\n      jump\t// out\n        /* \"#utility.yul\":3781:4110   */\n    tag_41:\n        /* \"#utility.yul\":3840:3846   */\n      0x00\n        /* \"#utility.yul\":3889:3891   */\n      0x20\n        /* \"#utility.yul\":3877:3886   */\n      dup3\n        /* \"#utility.yul\":3868:3875   */\n      dup5\n        /* \"#utility.yul\":3864:3887   */\n      sub\n        /* \"#utility.yul\":3860:3892   */\n      slt\n        /* \"#utility.yul\":3857:3976   */\n      iszero\n      tag_373\n      jumpi\n        /* \"#utility.yul\":3895:3974   */\n      tag_374\n      tag_237\n      jump\t// in\n    tag_374:\n        /* \"#utility.yul\":3857:3976   */\n    tag_373:\n        /* \"#utility.yul\":4015:4016   */\n      0x00\n        /* \"#utility.yul\":4040:4093   */\n      tag_375\n        /* \"#utility.yul\":4085:4092   */\n      dup5\n        /* \"#utility.yul\":4076:4082   */\n      dup3\n        /* \"#utility.yul\":4065:4074   */\n      dup6\n        /* \"#utility.yul\":4061:4083   */\n      add\n        /* \"#utility.yul\":4040:4093   */\n      tag_251\n      jump\t// in\n    tag_375:\n        /* \"#utility.yul\":4030:4093   */\n      swap2\n      pop\n        /* \"#utility.yul\":3986:4103   */\n      pop\n        /* \"#utility.yul\":3781:4110   */\n      swap3\n      swap2\n      pop\n      pop\n      jump\t// out\n        /* \"#utility.yul\":4116:4215   */\n    tag_252:\n        /* \"#utility.yul\":4168:4174   */\n      0x00\n        /* \"#utility.yul\":4202:4207   */\n      dup2\n        /* \"#utility.yul\":4196:4208   */\n      mload\n        /* \"#utility.yul\":4186:4208   */\n      swap1\n      pop\n        /* \"#utility.yul\":4116:4215   */\n      swap2\n      swap1\n      pop\n      jump\t// out\n        /* \"#utility.yul\":4221:4380   */\n    tag_253:\n        /* \"#utility.yul\":4295:4306   */\n      0x00\n        /* \"#utility.yul\":4329:4335   */\n      dup3\n        /* \"#utility.yul\":4324:4327   */\n      dup3\n        /* \"#utility.yul\":4317:4336   */\n      mstore\n        /* \"#utility.yul\":4369:4373   */\n      0x20\n        /* \"#utility.yul\":4364:4367   */\n      dup3\n        /* \"#utility.yul\":4360:4374   */\n      add\n        /* \"#utility.yul\":4345:4374   */\n      swap1\n      pop\n        /* \"#utility.yul\":4221:4380   */\n      swap3\n      swap2\n      pop\n      pop\n      jump\t// out\n        /* \"#utility.yul\":4386:4525   */\n    tag_254:\n        /* \"#utility.yul\":4475:4481   */\n      dup3\n        /* \"#utility.yul\":4470:4473   */\n      dup2\n        /* \"#utility.yul\":4465:4468   */\n      dup4\n        /* \"#utility.yul\":4459:4482   */\n      mcopy\n        /* \"#utility.yul\":4516:4517   */\n      0x00\n        /* \"#utility.yul\":4507:4513   */\n      dup4\n        /* \"#utility.yul\":4502:4505   */\n      dup4\n        /* \"#utility.yul\":4498:4514   */\n      add\n        /* \"#utility.yul\":4491:4518   */\n      mstore\n        /* \"#utility.yul\":4386:4525   */\n      pop\n      pop\n      pop\n      jump\t// out\n        /* \"#utility.yul\":4531:4633   */\n    tag_255:\n        /* \"#utility.yul\":4572:4578   */\n      0x00\n        /* \"#utility.yul\":4623:4625   */\n      0x1f\n        /* \"#utility.yul\":4619:4626   */\n      not\n        /* \"#utility.yul\":4614:4616   */\n      0x1f\n        /* \"#utility.yul\":4607:4612   */\n      dup4\n        /* \"#utility.yul\":4603:4617   */\n      add\n        /* \"#utility.yul\":4599:4627   */\n      and\n        /* \"#utility.yul\":4589:4627   */\n      swap1\n      pop\n        /* \"#utility.yul\":4531:4633   */\n      swap2\n      swap1\n      pop\n      jump\t// out\n        /* \"#utility.yul\":4639:4996   */\n    tag_256:\n        /* \"#utility.yul\":4717:4720   */\n      0x00\n        /* \"#utility.yul\":4745:4784   */\n      tag_381\n        /* \"#utility.yul\":4778:4783   */\n      dup3\n        /* \"#utility.yul\":4745:4784   */\n      tag_252\n      jump\t// in\n    tag_381:\n        /* \"#utility.yul\":4800:4861   */\n      tag_382\n        /* \"#utility.yul\":4854:4860   */\n      dup2\n        /* \"#utility.yul\":4849:4852   */\n      dup6\n        /* \"#utility.yul\":4800:4861   */\n      tag_253\n      jump\t// in\n    tag_382:\n        /* \"#utility.yul\":4793:4861   */\n      swap4\n      pop\n        /* \"#utility.yul\":4870:4935   */\n      tag_383\n        /* \"#utility.yul\":4928:4934   */\n      dup2\n        /* \"#utility.yul\":4923:4926   */\n      dup6\n        /* \"#utility.yul\":4916:4920   */\n      0x20\n        /* \"#utility.yul\":4909:4914   */\n      dup7\n        /* \"#utility.yul\":4905:4921   */\n      add\n        /* \"#utility.yul\":4870:4935   */\n      tag_254\n      jump\t// in\n    tag_383:\n        /* \"#utility.yul\":4960:4989   */\n      tag_384\n        /* \"#utility.yul\":4982:4988   */\n      dup2\n        /* \"#utility.yul\":4960:4989   */\n      tag_255\n      jump\t// in\n    tag_384:\n        /* \"#utility.yul\":4955:4958   */\n      dup5\n        /* \"#utility.yul\":4951:4990   */\n      add\n        /* \"#utility.yul\":4944:4990   */\n      swap2\n      pop\n        /* \"#utility.yul\":4721:4996   */\n      pop\n        /* \"#utility.yul\":4639:4996   */\n      swap3\n      swap2\n      pop\n      pop\n      jump\t// out\n        /* \"#utility.yul\":5002:5110   */\n    tag_257:\n        /* \"#utility.yul\":5079:5103   */\n      tag_386\n        /* \"#utility.yul\":5097:5102   */\n      dup2\n        /* \"#utility.yul\":5079:5103   */\n      tag_244\n      jump\t// in\n    tag_386:\n        /* \"#utility.yul\":5074:5077   */\n      dup3\n        /* \"#utility.yul\":5067:5104   */\n      mstore\n        /* \"#utility.yul\":5002:5110   */\n      pop\n      pop\n      jump\t// out\n        /* \"#utility.yul\":5116:5224   */\n    tag_258:\n        /* \"#utility.yul\":5193:5217   */\n      tag_388\n        /* \"#utility.yul\":5211:5216   */\n      dup2\n        /* \"#utility.yul\":5193:5217   */\n      tag_249\n      jump\t// in\n    tag_388:\n        /* \"#utility.yul\":5188:5191   */\n      dup3\n        /* \"#utility.yul\":5181:5218   */\n      mstore\n        /* \"#utility.yul\":5116:5224   */\n      pop\n      pop\n      jump\t// out\n        /* \"#utility.yul\":5230:5344   */\n    tag_259:\n        /* \"#utility.yul\":5297:5303   */\n      0x00\n        /* \"#utility.yul\":5331:5336   */\n      dup2\n        /* \"#utility.yul\":5325:5337   */\n      mload\n        /* \"#utility.yul\":5315:5337   */\n      swap1\n      pop\n        /* \"#utility.yul\":5230:5344   */\n      swap2\n      swap1\n      pop\n      jump\t// out\n        /* \"#utility.yul\":5350:5524   */\n    tag_260:\n        /* \"#utility.yul\":5439:5450   */\n      0x00\n        /* \"#utility.yul\":5473:5479   */\n      dup3\n        /* \"#utility.yul\":5468:5471   */\n      dup3\n        /* \"#utility.yul\":5461:5480   */\n      mstore\n        /* \"#utility.yul\":5513:5517   */\n      0x20\n        /* \"#utility.yul\":5508:5511   */\n      dup3\n        /* \"#utility.yul\":5504:5518   */\n      add\n        /* \"#utility.yul\":5489:5518   */\n      swap1\n      pop\n        /* \"#utility.yul\":5350:5524   */\n      swap3\n      swap2\n      pop\n      pop\n      jump\t// out\n        /* \"#utility.yul\":5530:5662   */\n    tag_261:\n        /* \"#utility.yul\":5597:5601   */\n      0x00\n        /* \"#utility.yul\":5620:5623   */\n      dup2\n        /* \"#utility.yul\":5612:5623   */\n      swap1\n      pop\n        /* \"#utility.yul\":5650:5654   */\n      0x20\n        /* \"#utility.yul\":5645:5648   */\n      dup3\n        /* \"#utility.yul\":5641:5655   */\n      add\n        /* \"#utility.yul\":5633:5655   */\n      swap1\n      pop\n        /* \"#utility.yul\":5530:5662   */\n      swap2\n      swap1\n      pop\n      jump\t// out\n        /* \"#utility.yul\":5668:5847   */\n    tag_262:\n        /* \"#utility.yul\":5737:5747   */\n      0x00\n        /* \"#utility.yul\":5758:5804   */\n      tag_393\n        /* \"#utility.yul\":5800:5803   */\n      dup4\n        /* \"#utility.yul\":5792:5798   */\n      dup4\n        /* \"#utility.yul\":5758:5804   */\n      tag_257\n      jump\t// in\n    tag_393:\n        /* \"#utility.yul\":5836:5840   */\n      0x20\n        /* \"#utility.yul\":5831:5834   */\n      dup4\n        /* \"#utility.yul\":5827:5841   */\n      add\n        /* \"#utility.yul\":5813:5841   */\n      swap1\n      pop\n        /* \"#utility.yul\":5668:5847   */\n      swap3\n      swap2\n      pop\n      pop\n      jump\t// out\n        /* \"#utility.yul\":5853:5966   */\n    tag_263:\n        /* \"#utility.yul\":5923:5927   */\n      0x00\n        /* \"#utility.yul\":5955:5959   */\n      0x20\n        /* \"#utility.yul\":5950:5953   */\n      dup3\n        /* \"#utility.yul\":5946:5960   */\n      add\n        /* \"#utility.yul\":5938:5960   */\n      swap1\n      pop\n        /* \"#utility.yul\":5853:5966   */\n      swap2\n      swap1\n      pop\n      jump\t// out\n        /* \"#utility.yul\":6002:6714   */\n    tag_264:\n        /* \"#utility.yul\":6111:6114   */\n      0x00\n        /* \"#utility.yul\":6140:6194   */\n      tag_396\n        /* \"#utility.yul\":6188:6193   */\n      dup3\n        /* \"#utility.yul\":6140:6194   */\n      tag_259\n      jump\t// in\n    tag_396:\n        /* \"#utility.yul\":6210:6286   */\n      tag_397\n        /* \"#utility.yul\":6279:6285   */\n      dup2\n        /* \"#utility.yul\":6274:6277   */\n      dup6\n        /* \"#utility.yul\":6210:6286   */\n      tag_260\n      jump\t// in\n    tag_397:\n        /* \"#utility.yul\":6203:6286   */\n      swap4\n      pop\n        /* \"#utility.yul\":6310:6366   */\n      tag_398\n        /* \"#utility.yul\":6360:6365   */\n      dup4\n        /* \"#utility.yul\":6310:6366   */\n      tag_261\n      jump\t// in\n    tag_398:\n        /* \"#utility.yul\":6389:6396   */\n      dup1\n        /* \"#utility.yul\":6420:6421   */\n      0x00\n        /* \"#utility.yul\":6405:6689   */\n    tag_399:\n        /* \"#utility.yul\":6430:6436   */\n      dup4\n        /* \"#utility.yul\":6427:6428   */\n      dup2\n        /* \"#utility.yul\":6424:6437   */\n      lt\n        /* \"#utility.yul\":6405:6689   */\n      iszero\n      tag_401\n      jumpi\n        /* \"#utility.yul\":6506:6512   */\n      dup2\n        /* \"#utility.yul\":6500:6513   */\n      mload\n        /* \"#utility.yul\":6533:6596   */\n      tag_402\n        /* \"#utility.yul\":6592:6595   */\n      dup9\n        /* \"#utility.yul\":6577:6590   */\n      dup3\n        /* \"#utility.yul\":6533:6596   */\n      tag_262\n      jump\t// in\n    tag_402:\n        /* \"#utility.yul\":6526:6596   */\n      swap8\n      pop\n        /* \"#utility.yul\":6619:6679   */\n      tag_403\n        /* \"#utility.yul\":6672:6678   */\n      dup4\n        /* \"#utility.yul\":6619:6679   */\n      tag_263\n      jump\t// in\n    tag_403:\n        /* \"#utility.yul\":6609:6679   */\n      swap3\n      pop\n        /* \"#utility.yul\":6465:6689   */\n      pop\n        /* \"#utility.yul\":6452:6453   */\n      0x01\n        /* \"#utility.yul\":6449:6450   */\n      dup2\n        /* \"#utility.yul\":6445:6454   */\n      add\n        /* \"#utility.yul\":6440:6454   */\n      swap1\n      pop\n        /* \"#utility.yul\":6405:6689   */\n      jump(tag_399)\n    tag_401:\n        /* \"#utility.yul\":6409:6423   */\n      pop\n        /* \"#utility.yul\":6705:6708   */\n      dup6\n        /* \"#utility.yul\":6698:6708   */\n      swap4\n      pop\n        /* \"#utility.yul\":6116:6714   */\n      pop\n      pop\n      pop\n        /* \"#utility.yul\":6002:6714   */\n      swap3\n      swap2\n      pop\n      pop\n      jump\t// out\n        /* \"#utility.yul\":6792:8112   */\n    tag_265:\n        /* \"#utility.yul\":6913:6916   */\n      0x00\n        /* \"#utility.yul\":6949:6953   */\n      0xa0\n        /* \"#utility.yul\":6944:6947   */\n      dup4\n        /* \"#utility.yul\":6940:6954   */\n      add\n        /* \"#utility.yul\":7036:7040   */\n      0x00\n        /* \"#utility.yul\":7029:7034   */\n      dup4\n        /* \"#utility.yul\":7025:7041   */\n      add\n        /* \"#utility.yul\":7019:7042   */\n      mload\n        /* \"#utility.yul\":7089:7092   */\n      dup5\n        /* \"#utility.yul\":7083:7087   */\n      dup3\n        /* \"#utility.yul\":7079:7093   */\n      sub\n        /* \"#utility.yul\":7072:7076   */\n      0x00\n        /* \"#utility.yul\":7067:7070   */\n      dup7\n        /* \"#utility.yul\":7063:7077   */\n      add\n        /* \"#utility.yul\":7056:7094   */\n      mstore\n        /* \"#utility.yul\":7115:7188   */\n      tag_405\n        /* \"#utility.yul\":7183:7187   */\n      dup3\n        /* \"#utility.yul\":7169:7181   */\n      dup3\n        /* \"#utility.yul\":7115:7188   */\n      tag_256\n      jump\t// in\n    tag_405:\n        /* \"#utility.yul\":7107:7188   */\n      swap2\n      pop\n        /* \"#utility.yul\":6964:7199   */\n      pop\n        /* \"#utility.yul\":7288:7292   */\n      0x20\n        /* \"#utility.yul\":7281:7286   */\n      dup4\n        /* \"#utility.yul\":7277:7293   */\n      add\n        /* \"#utility.yul\":7271:7294   */\n      mload\n        /* \"#utility.yul\":7341:7344   */\n      dup5\n        /* \"#utility.yul\":7335:7339   */\n      dup3\n        /* \"#utility.yul\":7331:7345   */\n      sub\n        /* \"#utility.yul\":7324:7328   */\n      0x20\n        /* \"#utility.yul\":7319:7322   */\n      dup7\n        /* \"#utility.yul\":7315:7329   */\n      add\n        /* \"#utility.yul\":7308:7346   */\n      mstore\n        /* \"#utility.yul\":7367:7440   */\n      tag_406\n        /* \"#utility.yul\":7435:7439   */\n      dup3\n        /* \"#utility.yul\":7421:7433   */\n      dup3\n        /* \"#utility.yul\":7367:7440   */\n      tag_256\n      jump\t// in\n    tag_406:\n        /* \"#utility.yul\":7359:7440   */\n      swap2\n      pop\n        /* \"#utility.yul\":7209:7451   */\n      pop\n        /* \"#utility.yul\":7536:7540   */\n      0x40\n        /* \"#utility.yul\":7529:7534   */\n      dup4\n        /* \"#utility.yul\":7525:7541   */\n      add\n        /* \"#utility.yul\":7519:7542   */\n      mload\n        /* \"#utility.yul\":7555:7618   */\n      tag_407\n        /* \"#utility.yul\":7612:7616   */\n      0x40\n        /* \"#utility.yul\":7607:7610   */\n      dup7\n        /* \"#utility.yul\":7603:7617   */\n      add\n        /* \"#utility.yul\":7589:7601   */\n      dup3\n        /* \"#utility.yul\":7555:7618   */\n      tag_257\n      jump\t// in\n    tag_407:\n        /* \"#utility.yul\":7461:7628   */\n      pop\n        /* \"#utility.yul\":7715:7719   */\n      0x60\n        /* \"#utility.yul\":7708:7713   */\n      dup4\n        /* \"#utility.yul\":7704:7720   */\n      add\n        /* \"#utility.yul\":7698:7721   */\n      mload\n        /* \"#utility.yul\":7734:7797   */\n      tag_408\n        /* \"#utility.yul\":7791:7795   */\n      0x60\n        /* \"#utility.yul\":7786:7789   */\n      dup7\n        /* \"#utility.yul\":7782:7796   */\n      add\n        /* \"#utility.yul\":7768:7780   */\n      dup3\n        /* \"#utility.yul\":7734:7797   */\n      tag_258\n      jump\t// in\n    tag_408:\n        /* \"#utility.yul\":7638:7807   */\n      pop\n        /* \"#utility.yul\":7892:7896   */\n      0x80\n        /* \"#utility.yul\":7885:7890   */\n      dup4\n        /* \"#utility.yul\":7881:7897   */\n      add\n        /* \"#utility.yul\":7875:7898   */\n      mload\n        /* \"#utility.yul\":7945:7948   */\n      dup5\n        /* \"#utility.yul\":7939:7943   */\n      dup3\n        /* \"#utility.yul\":7935:7949   */\n      sub\n        /* \"#utility.yul\":7928:7932   */\n      0x80\n        /* \"#utility.yul\":7923:7926   */\n      dup7\n        /* \"#utility.yul\":7919:7933   */\n      add\n        /* \"#utility.yul\":7912:7950   */\n      mstore\n        /* \"#utility.yul\":7971:8074   */\n      tag_409\n        /* \"#utility.yul\":8069:8073   */\n      dup3\n        /* \"#utility.yul\":8055:8067   */\n      dup3\n        /* \"#utility.yul\":7971:8074   */\n      tag_264\n      jump\t// in\n    tag_409:\n        /* \"#utility.yul\":7963:8074   */\n      swap2\n      pop\n        /* \"#utility.yul\":7817:8085   */\n      pop\n        /* \"#utility.yul\":8102:8106   */\n      dup1\n        /* \"#utility.yul\":8095:8106   */\n      swap2\n      pop\n        /* \"#utility.yul\":6918:8112   */\n      pop\n        /* \"#utility.yul\":6792:8112   */\n      swap3\n      swap2\n      pop\n      pop\n      jump\t// out\n        /* \"#utility.yul\":8118:8495   */\n    tag_44:\n        /* \"#utility.yul\":8263:8267   */\n      0x00\n        /* \"#utility.yul\":8301:8303   */\n      0x20\n        /* \"#utility.yul\":8290:8299   */\n      dup3\n        /* \"#utility.yul\":8286:8304   */\n      add\n        /* \"#utility.yul\":8278:8304   */\n      swap1\n      pop\n        /* \"#utility.yul\":8350:8359   */\n      dup2\n        /* \"#utility.yul\":8344:8348   */\n      dup2\n        /* \"#utility.yul\":8340:8360   */\n      sub\n        /* \"#utility.yul\":8336:8337   */\n      0x00\n        /* \"#utility.yul\":8325:8334   */\n      dup4\n        /* \"#utility.yul\":8321:8338   */\n      add\n        /* \"#utility.yul\":8314:8361   */\n      mstore\n        /* \"#utility.yul\":8378:8488   */\n      tag_411\n        /* \"#utility.yul\":8483:8487   */\n      dup2\n        /* \"#utility.yul\":8474:8480   */\n      dup5\n        /* \"#utility.yul\":8378:8488   */\n      tag_265\n      jump\t// in\n    tag_411:\n        /* \"#utility.yul\":8370:8488   */\n      swap1\n      pop\n        /* \"#utility.yul\":8118:8495   */\n      swap3\n      swap2\n      pop\n      pop\n      jump\t// out\n        /* \"#utility.yul\":8501:8975   */\n    tag_49:\n        /* \"#utility.yul\":8569:8575   */\n      0x00\n        /* \"#utility.yul\":8577:8583   */\n      dup1\n        /* \"#utility.yul\":8626:8628   */\n      0x40\n        /* \"#utility.yul\":8614:8623   */\n      dup4\n        /* \"#utility.yul\":8605:8612   */\n      dup6\n        /* \"#utility.yul\":8601:8624   */\n      sub\n        /* \"#utility.yul\":8597:8629   */\n      slt\n        /* \"#utility.yul\":8594:8713   */\n      iszero\n      tag_413\n      jumpi\n        /* \"#utility.yul\":8632:8711   */\n      tag_414\n      tag_237\n      jump\t// in\n    tag_414:\n        /* \"#utility.yul\":8594:8713   */\n    tag_413:\n        /* \"#utility.yul\":8752:8753   */\n      0x00\n        /* \"#utility.yul\":8777:8830   */\n      tag_415\n        /* \"#utility.yul\":8822:8829   */\n      dup6\n        /* \"#utility.yul\":8813:8819   */\n      dup3\n        /* \"#utility.yul\":8802:8811   */\n      dup7\n        /* \"#utility.yul\":8798:8820   */\n      add\n        /* \"#utility.yul\":8777:8830   */\n      tag_251\n      jump\t// in\n    tag_415:\n        /* \"#utility.yul\":8767:8830   */\n      swap3\n      pop\n        /* \"#utility.yul\":8723:8840   */\n      pop\n        /* \"#utility.yul\":8879:8881   */\n      0x20\n        /* \"#utility.yul\":8905:8958   */\n      tag_416\n        /* \"#utility.yul\":8950:8957   */\n      dup6\n        /* \"#utility.yul\":8941:8947   */\n      dup3\n        /* \"#utility.yul\":8930:8939   */\n      dup7\n        /* \"#utility.yul\":8926:8948   */\n      add\n        /* \"#utility.yul\":8905:8958   */\n      tag_246\n      jump\t// in\n    tag_416:\n        /* \"#utility.yul\":8895:8958   */\n      swap2\n      pop\n        /* \"#utility.yul\":8850:8968   */\n      pop\n        /* \"#utility.yul\":8501:8975   */\n      swap3\n      pop\n      swap3\n      swap1\n      pop\n      jump\t// out\n        /* \"#utility.yul\":8981:9099   */\n    tag_266:\n        /* \"#utility.yul\":9068:9092   */\n      tag_418\n        /* \"#utility.yul\":9086:9091   */\n      dup2\n        /* \"#utility.yul\":9068:9092   */\n      tag_244\n      jump\t// in\n    tag_418:\n        /* \"#utility.yul\":9063:9066   */\n      dup3\n        /* \"#utility.yul\":9056:9093   */\n      mstore\n        /* \"#utility.yul\":8981:9099   */\n      pop\n      pop\n      jump\t// out\n        /* \"#utility.yul\":9105:9327   */\n    tag_57:\n        /* \"#utility.yul\":9198:9202   */\n      0x00\n        /* \"#utility.yul\":9236:9238   */\n      0x20\n        /* \"#utility.yul\":9225:9234   */\n      dup3\n        /* \"#utility.yul\":9221:9239   */\n      add\n        /* \"#utility.yul\":9213:9239   */\n      swap1\n      pop\n        /* \"#utility.yul\":9249:9320   */\n      tag_420\n        /* \"#utility.yul\":9317:9318   */\n      0x00\n        /* \"#utility.yul\":9306:9315   */\n      dup4\n        /* \"#utility.yul\":9302:9319   */\n      add\n        /* \"#utility.yul\":9293:9299   */\n      dup5\n        /* \"#utility.yul\":9249:9320   */\n      tag_266\n      jump\t// in\n    tag_420:\n        /* \"#utility.yul\":9105:9327   */\n      swap3\n      swap2\n      pop\n      pop\n      jump\t// out\n        /* \"#utility.yul\":9333:9517   */\n    tag_267:\n        /* \"#utility.yul\":9432:9443   */\n      0x00\n        /* \"#utility.yul\":9466:9472   */\n      dup3\n        /* \"#utility.yul\":9461:9464   */\n      dup3\n        /* \"#utility.yul\":9454:9473   */\n      mstore\n        /* \"#utility.yul\":9506:9510   */\n      0x20\n        /* \"#utility.yul\":9501:9504   */\n      dup3\n        /* \"#utility.yul\":9497:9511   */\n      add\n        /* \"#utility.yul\":9482:9511   */\n      swap1\n      pop\n        /* \"#utility.yul\":9333:9517   */\n      swap3\n      swap2\n      pop\n      pop\n      jump\t// out\n        /* \"#utility.yul\":9553:10285   */\n    tag_268:\n        /* \"#utility.yul\":9672:9675   */\n      0x00\n        /* \"#utility.yul\":9701:9755   */\n      tag_423\n        /* \"#utility.yul\":9749:9754   */\n      dup3\n        /* \"#utility.yul\":9701:9755   */\n      tag_259\n      jump\t// in\n    tag_423:\n        /* \"#utility.yul\":9771:9857   */\n      tag_424\n        /* \"#utility.yul\":9850:9856   */\n      dup2\n        /* \"#utility.yul\":9845:9848   */\n      dup6\n        /* \"#utility.yul\":9771:9857   */\n      tag_267\n      jump\t// in\n    tag_424:\n        /* \"#utility.yul\":9764:9857   */\n      swap4\n      pop\n        /* \"#utility.yul\":9881:9937   */\n      tag_425\n        /* \"#utility.yul\":9931:9936   */\n      dup4\n        /* \"#utility.yul\":9881:9937   */\n      tag_261\n      jump\t// in\n    tag_425:\n        /* \"#utility.yul\":9960:9967   */\n      dup1\n        /* \"#utility.yul\":9991:9992   */\n      0x00\n        /* \"#utility.yul\":9976:10260   */\n    tag_426:\n        /* \"#utility.yul\":10001:10007   */\n      dup4\n        /* \"#utility.yul\":9998:9999   */\n      dup2\n        /* \"#utility.yul\":9995:10008   */\n      lt\n        /* \"#utility.yul\":9976:10260   */\n      iszero\n      tag_428\n      jumpi\n        /* \"#utility.yul\":10077:10083   */\n      dup2\n        /* \"#utility.yul\":10071:10084   */\n      mload\n        /* \"#utility.yul\":10104:10167   */\n      tag_429\n        /* \"#utility.yul\":10163:10166   */\n      dup9\n        /* \"#utility.yul\":10148:10161   */\n      dup3\n        /* \"#utility.yul\":10104:10167   */\n      tag_262\n      jump\t// in\n    tag_429:\n        /* \"#utility.yul\":10097:10167   */\n      swap8\n      pop\n        /* \"#utility.yul\":10190:10250   */\n      tag_430\n        /* \"#utility.yul\":10243:10249   */\n      dup4\n        /* \"#utility.yul\":10190:10250   */\n      tag_263\n      jump\t// in\n    tag_430:\n        /* \"#utility.yul\":10180:10250   */\n      swap3\n      pop\n        /* \"#utility.yul\":10036:10260   */\n      pop\n        /* \"#utility.yul\":10023:10024   */\n      0x01\n        /* \"#utility.yul\":10020:10021   */\n      dup2\n        /* \"#utility.yul\":10016:10025   */\n      add\n        /* \"#utility.yul\":10011:10025   */\n      swap1\n      pop\n        /* \"#utility.yul\":9976:10260   */\n      jump(tag_426)\n    tag_428:\n        /* \"#utility.yul\":9980:9994   */\n      pop\n        /* \"#utility.yul\":10276:10279   */\n      dup6\n        /* \"#utility.yul\":10269:10279   */\n      swap4\n      pop\n        /* \"#utility.yul\":9677:10285   */\n      pop\n      pop\n      pop\n        /* \"#utility.yul\":9553:10285   */\n      swap3\n      swap2\n      pop\n      pop\n      jump\t// out\n        /* \"#utility.yul\":10291:10664   */\n    tag_74:\n        /* \"#utility.yul\":10434:10438   */\n      0x00\n        /* \"#utility.yul\":10472:10474   */\n      0x20\n        /* \"#utility.yul\":10461:10470   */\n      dup3\n        /* \"#utility.yul\":10457:10475   */\n      add\n        /* \"#utility.yul\":10449:10475   */\n      swap1\n      pop\n        /* \"#utility.yul\":10521:10530   */\n      dup2\n        /* \"#utility.yul\":10515:10519   */\n      dup2\n        /* \"#utility.yul\":10511:10531   */\n      sub\n        /* \"#utility.yul\":10507:10508   */\n      0x00\n        /* \"#utility.yul\":10496:10505   */\n      dup4\n        /* \"#utility.yul\":10492:10509   */\n      add\n        /* \"#utility.yul\":10485:10532   */\n      mstore\n        /* \"#utility.yul\":10549:10657   */\n      tag_432\n        /* \"#utility.yul\":10652:10656   */\n      dup2\n        /* \"#utility.yul\":10643:10649   */\n      dup5\n        /* \"#utility.yul\":10549:10657   */\n      tag_268\n      jump\t// in\n    tag_432:\n        /* \"#utility.yul\":10541:10657   */\n      swap1\n      pop\n        /* \"#utility.yul\":10291:10664   */\n      swap3\n      swap2\n      pop\n      pop\n      jump\t// out\n        /* \"#utility.yul\":10670:10839   */\n    tag_269:\n        /* \"#utility.yul\":10754:10765   */\n      0x00\n        /* \"#utility.yul\":10788:10794   */\n      dup3\n        /* \"#utility.yul\":10783:10786   */\n      dup3\n        /* \"#utility.yul\":10776:10795   */\n      mstore\n        /* \"#utility.yul\":10828:10832   */\n      0x20\n        /* \"#utility.yul\":10823:10826   */\n      dup3\n        /* \"#utility.yul\":10819:10833   */\n      add\n        /* \"#utility.yul\":10804:10833   */\n      swap1\n      pop\n        /* \"#utility.yul\":10670:10839   */\n      swap3\n      swap2\n      pop\n      pop\n      jump\t// out\n        /* \"#utility.yul\":10845:11025   */\n    tag_270:\n        /* \"#utility.yul\":10985:11017   */\n      0x436f6d6d756e697479206e616d652063616e6e6f7420626520656d7074790000\n        /* \"#utility.yul\":10981:10982   */\n      0x00\n        /* \"#utility.yul\":10973:10979   */\n      dup3\n        /* \"#utility.yul\":10969:10983   */\n      add\n        /* \"#utility.yul\":10962:11018   */\n      mstore\n        /* \"#utility.yul\":10845:11025   */\n      pop\n      jump\t// out\n        /* \"#utility.yul\":11031:11397   */\n    tag_271:\n        /* \"#utility.yul\":11173:11176   */\n      0x00\n        /* \"#utility.yul\":11194:11261   */\n      tag_436\n        /* \"#utility.yul\":11258:11260   */\n      0x1e\n        /* \"#utility.yul\":11253:11256   */\n      dup4\n        /* \"#utility.yul\":11194:11261   */\n      tag_269\n      jump\t// in\n    tag_436:\n        /* \"#utility.yul\":11187:11261   */\n      swap2\n      pop\n        /* \"#utility.yul\":11270:11363   */\n      tag_437\n        /* \"#utility.yul\":11359:11362   */\n      dup3\n        /* \"#utility.yul\":11270:11363   */\n      tag_270\n      jump\t// in\n    tag_437:\n        /* \"#utility.yul\":11388:11390   */\n      0x20\n        /* \"#utility.yul\":11383:11386   */\n      dup3\n        /* \"#utility.yul\":11379:11391   */\n      add\n        /* \"#utility.yul\":11372:11391   */\n      swap1\n      pop\n        /* \"#utility.yul\":11031:11397   */\n      swap2\n      swap1\n      pop\n      jump\t// out\n        /* \"#utility.yul\":11403:11822   */\n    tag_84:\n        /* \"#utility.yul\":11569:11573   */\n      0x00\n        /* \"#utility.yul\":11607:11609   */\n      0x20\n        /* \"#utility.yul\":11596:11605   */\n      dup3\n        /* \"#utility.yul\":11592:11610   */\n      add\n        /* \"#utility.yul\":11584:11610   */\n      swap1\n      pop\n        /* \"#utility.yul\":11656:11665   */\n      dup2\n        /* \"#utility.yul\":11650:11654   */\n      dup2\n        /* \"#utility.yul\":11646:11666   */\n      sub\n        /* \"#utility.yul\":11642:11643   */\n      0x00\n        /* \"#utility.yul\":11631:11640   */\n      dup4\n        /* \"#utility.yul\":11627:11644   */\n      add\n        /* \"#utility.yul\":11620:11667   */\n      mstore\n        /* \"#utility.yul\":11684:11815   */\n      tag_439\n        /* \"#utility.yul\":11810:11814   */\n      dup2\n        /* \"#utility.yul\":11684:11815   */\n      tag_271\n      jump\t// in\n    tag_439:\n        /* \"#utility.yul\":11676:11815   */\n      swap1\n      pop\n        /* \"#utility.yul\":11403:11822   */\n      swap2\n      swap1\n      pop\n      jump\t// out\n        /* \"#utility.yul\":11828:12052   */\n    tag_272:\n        /* \"#utility.yul\":11968:12002   */\n      0x436f6d6d756e697479206465736372697074696f6e2063616e6e6f7420626520\n        /* \"#utility.yul\":11964:11965   */\n      0x00\n        /* \"#utility.yul\":11956:11962   */\n      dup3\n        /* \"#utility.yul\":11952:11966   */\n      add\n        /* \"#utility.yul\":11945:12003   */\n      mstore\n        /* \"#utility.yul\":12037:12044   */\n      0x656d707479000000000000000000000000000000000000000000000000000000\n        /* \"#utility.yul\":12032:12034   */\n      0x20\n        /* \"#utility.yul\":12024:12030   */\n      dup3\n        /* \"#utility.yul\":12020:12035   */\n      add\n        /* \"#utility.yul\":12013:12045   */\n      mstore\n        /* \"#utility.yul\":11828:12052   */\n      pop\n      jump\t// out\n        /* \"#utility.yul\":12058:12424   */\n    tag_273:\n        /* \"#utility.yul\":12200:12203   */\n      0x00\n        /* \"#utility.yul\":12221:12288   */\n      tag_442\n        /* \"#utility.yul\":12285:12287   */\n      0x25\n        /* \"#utility.yul\":12280:12283   */\n      dup4\n        /* \"#utility.yul\":12221:12288   */\n      tag_269\n      jump\t// in\n    tag_442:\n        /* \"#utility.yul\":12214:12288   */\n      swap2\n      pop\n        /* \"#utility.yul\":12297:12390   */\n      tag_443\n        /* \"#utility.yul\":12386:12389   */\n      dup3\n        /* \"#utility.yul\":12297:12390   */\n      tag_272\n      jump\t// in\n    tag_443:\n        /* \"#utility.yul\":12415:12417   */\n      0x40\n        /* \"#utility.yul\":12410:12413   */\n      dup3\n        /* \"#utility.yul\":12406:12418   */\n      add\n        /* \"#utility.yul\":12399:12418   */\n      swap1\n      pop\n        /* \"#utility.yul\":12058:12424   */\n      swap2\n      swap1\n      pop\n      jump\t// out\n        /* \"#utility.yul\":12430:12849   */\n    tag_87:\n        /* \"#utility.yul\":12596:12600   */\n      0x00\n        /* \"#utility.yul\":12634:12636   */\n      0x20\n        /* \"#utility.yul\":12623:12632   */\n      dup3\n        /* \"#utility.yul\":12619:12637   */\n      add\n        /* \"#utility.yul\":12611:12637   */\n      swap1\n      pop\n        /* \"#utility.yul\":12683:12692   */\n      dup2\n        /* \"#utility.yul\":12677:12681   */\n      dup2\n        /* \"#utility.yul\":12673:12693   */\n      sub\n        /* \"#utility.yul\":12669:12670   */\n      0x00\n        /* \"#utility.yul\":12658:12667   */\n      dup4\n        /* \"#utility.yul\":12654:12671   */\n      add\n        /* \"#utility.yul\":12647:12694   */\n      mstore\n        /* \"#utility.yul\":12711:12842   */\n      tag_445\n        /* \"#utility.yul\":12837:12841   */\n      dup2\n        /* \"#utility.yul\":12711:12842   */\n      tag_273\n      jump\t// in\n    tag_445:\n        /* \"#utility.yul\":12703:12842   */\n      swap1\n      pop\n        /* \"#utility.yul\":12430:12849   */\n      swap2\n      swap1\n      pop\n      jump\t// out\n        /* \"#utility.yul\":12855:13098   */\n    tag_274:\n        /* \"#utility.yul\":12995:13029   */\n      0x4f6e6c792072656769737465726564207573657273206f7220656e7469746965\n        /* \"#utility.yul\":12991:12992   */\n      0x00\n        /* \"#utility.yul\":12983:12989   */\n      dup3\n        /* \"#utility.yul\":12979:12993   */\n      add\n        /* \"#utility.yul\":12972:13030   */\n      mstore\n        /* \"#utility.yul\":13064:13090   */\n      0x732063616e2063726561746520636f6d6d756e69746965730000000000000000\n        /* \"#utility.yul\":13059:13061   */\n      0x20\n        /* \"#utility.yul\":13051:13057   */\n      dup3\n        /* \"#utility.yul\":13047:13062   */\n      add\n        /* \"#utility.yul\":13040:13091   */\n      mstore\n        /* \"#utility.yul\":12855:13098   */\n      pop\n      jump\t// out\n        /* \"#utility.yul\":13104:13470   */\n    tag_275:\n        /* \"#utility.yul\":13246:13249   */\n      0x00\n        /* \"#utility.yul\":13267:13334   */\n      tag_448\n        /* \"#utility.yul\":13331:13333   */\n      0x38\n        /* \"#utility.yul\":13326:13329   */\n      dup4\n        /* \"#utility.yul\":13267:13334   */\n      tag_269\n      jump\t// in\n    tag_448:\n        /* \"#utility.yul\":13260:13334   */\n      swap2\n      pop\n        /* \"#utility.yul\":13343:13436   */\n      tag_449\n        /* \"#utility.yul\":13432:13435   */\n      dup3\n        /* \"#utility.yul\":13343:13436   */\n      tag_274\n      jump\t// in\n    tag_449:\n        /* \"#utility.yul\":13461:13463   */\n      0x40\n        /* \"#utility.yul\":13456:13459   */\n      dup3\n        /* \"#utility.yul\":13452:13464   */\n      add\n        /* \"#utility.yul\":13445:13464   */\n      swap1\n      pop\n        /* \"#utility.yul\":13104:13470   */\n      swap2\n      swap1\n      pop\n      jump\t// out\n        /* \"#utility.yul\":13476:13895   */\n    tag_91:\n        /* \"#utility.yul\":13642:13646   */\n      0x00\n        /* \"#utility.yul\":13680:13682   */\n      0x20\n        /* \"#utility.yul\":13669:13678   */\n      dup3\n        /* \"#utility.yul\":13665:13683   */\n      add\n        /* \"#utility.yul\":13657:13683   */\n      swap1\n      pop\n        /* \"#utility.yul\":13729:13738   */\n      dup2\n        /* \"#utility.yul\":13723:13727   */\n      dup2\n        /* \"#utility.yul\":13719:13739   */\n      sub\n        /* \"#utility.yul\":13715:13716   */\n      0x00\n        /* \"#utility.yul\":13704:13713   */\n      dup4\n        /* \"#utility.yul\":13700:13717   */\n      add\n        /* \"#utility.yul\":13693:13740   */\n      mstore\n        /* \"#utility.yul\":13757:13888   */\n      tag_451\n        /* \"#utility.yul\":13883:13887   */\n      dup2\n        /* \"#utility.yul\":13757:13888   */\n      tag_275\n      jump\t// in\n    tag_451:\n        /* \"#utility.yul\":13749:13888   */\n      swap1\n      pop\n        /* \"#utility.yul\":13476:13895   */\n      swap2\n      swap1\n      pop\n      jump\t// out\n        /* \"#utility.yul\":13901:14081   */\n    tag_276:\n        /* \"#utility.yul\":13949:14026   */\n      0x4e487b7100000000000000000000000000000000000000000000000000000000\n        /* \"#utility.yul\":13946:13947   */\n      0x00\n        /* \"#utility.yul\":13939:14027   */\n      mstore\n        /* \"#utility.yul\":14046:14050   */\n      0x11\n        /* \"#utility.yul\":14043:14044   */\n      0x04\n        /* \"#utility.yul\":14036:14051   */\n      mstore\n        /* \"#utility.yul\":14070:14074   */\n      0x24\n        /* \"#utility.yul\":14067:14068   */\n      0x00\n        /* \"#utility.yul\":14060:14075   */\n      revert\n        /* \"#utility.yul\":14087:14320   */\n    tag_93:\n        /* \"#utility.yul\":14126:14129   */\n      0x00\n        /* \"#utility.yul\":14149:14173   */\n      tag_454\n        /* \"#utility.yul\":14167:14172   */\n      dup3\n        /* \"#utility.yul\":14149:14173   */\n      tag_249\n      jump\t// in\n    tag_454:\n        /* \"#utility.yul\":14140:14173   */\n      swap2\n      pop\n        /* \"#utility.yul\":14195:14261   */\n      0xffffffffffffffffffffffffffffffffffffffffffffffffffffffffffffffff\n        /* \"#utility.yul\":14188:14193   */\n      dup3\n        /* \"#utility.yul\":14185:14262   */\n      sub\n        /* \"#utility.yul\":14182:14285   */\n      tag_455\n      jumpi\n        /* \"#utility.yul\":14265:14283   */\n      tag_456\n      tag_276\n      jump\t// in\n    tag_456:\n        /* \"#utility.yul\":14182:14285   */\n    tag_455:\n        /* \"#utility.yul\":14312:14313   */\n      0x01\n        /* \"#utility.yul\":14305:14310   */\n      dup3\n        /* \"#utility.yul\":14301:14314   */\n      add\n        /* \"#utility.yul\":14294:14314   */\n      swap1\n      pop\n        /* \"#utility.yul\":14087:14320   */\n      swap2\n      swap1\n      pop\n      jump\t// out\n        /* \"#utility.yul\":14326:14423   */\n    tag_277:\n        /* \"#utility.yul\":14385:14391   */\n      0x00\n        /* \"#utility.yul\":14413:14416   */\n      dup3\n        /* \"#utility.yul\":14403:14416   */\n      swap1\n      pop\n        /* \"#utility.yul\":14326:14423   */\n      swap3\n      swap2\n      pop\n      pop\n      jump\t// out\n        /* \"#utility.yul\":14429:14609   */\n    tag_198:\n        /* \"#utility.yul\":14477:14554   */\n      0x4e487b7100000000000000000000000000000000000000000000000000000000\n        /* \"#utility.yul\":14474:14475   */\n      0x00\n        /* \"#utility.yul\":14467:14555   */\n      mstore\n        /* \"#utility.yul\":14574:14578   */\n      0x41\n        /* \"#utility.yul\":14571:14572   */\n      0x04\n        /* \"#utility.yul\":14564:14579   */\n      mstore\n        /* \"#utility.yul\":14598:14602   */\n      0x24\n        /* \"#utility.yul\":14595:14596   */\n      0x00\n        /* \"#utility.yul\":14588:14603   */\n      revert\n        /* \"#utility.yul\":14615:14795   */\n    tag_278:\n        /* \"#utility.yul\":14663:14740   */\n      0x4e487b7100000000000000000000000000000000000000000000000000000000\n        /* \"#utility.yul\":14660:14661   */\n      0x00\n        /* \"#utility.yul\":14653:14741   */\n      mstore\n        /* \"#utility.yul\":14760:14764   */\n      0x22\n        /* \"#utility.yul\":14757:14758   */\n      0x04\n        /* \"#utility.yul\":14750:14765   */\n      mstore\n        /* \"#utility.yul\":14784:14788   */\n      0x24\n        /* \"#utility.yul\":14781:14782   */\n      0x00\n        /* \"#utility.yul\":14774:14789   */\n      revert\n        /* \"#utility.yul\":14801:15121   */\n    tag_123:\n        /* \"#utility.yul\":14845:14851   */\n      0x00\n        /* \"#utility.yul\":14882:14883   */\n      0x02\n        /* \"#utility.yul\":14876:14880   */\n      dup3\n        /* \"#utility.yul\":14872:14884   */\n      div\n        /* \"#utility.yul\":14862:14884   */\n      swap1\n      pop\n        /* \"#utility.yul\":14929:14930   */\n      0x01\n        /* \"#utility.yul\":14923:14927   */\n      dup3\n        /* \"#utility.yul\":14919:14931   */\n      and\n        /* \"#utility.yul\":14950:14968   */\n      dup1\n        /* \"#utility.yul\":14940:15021   */\n      tag_461\n      jumpi\n        /* \"#utility.yul\":15006:15010   */\n      0x7f\n        /* \"#utility.yul\":14998:15004   */\n      dup3\n        /* \"#utility.yul\":14994:15011   */\n      and\n        /* \"#utility.yul\":14984:15011   */\n      swap2\n      pop\n        /* \"#utility.yul\":14940:15021   */\n    tag_461:\n        /* \"#utility.yul\":15068:15070   */\n      0x20\n        /* \"#utility.yul\":15060:15066   */\n      dup3\n        /* \"#utility.yul\":15057:15071   */\n      lt\n        /* \"#utility.yul\":15037:15055   */\n      dup2\n        /* \"#utility.yul\":15034:15072   */\n      sub\n        /* \"#utility.yul\":15031:15115   */\n      tag_462\n      jumpi\n        /* \"#utility.yul\":15087:15105   */\n      tag_463\n      tag_278\n      jump\t// in\n    tag_463:\n        /* \"#utility.yul\":15031:15115   */\n    tag_462:\n        /* \"#utility.yul\":14852:15121   */\n      pop\n        /* \"#utility.yul\":14801:15121   */\n      swap2\n      swap1\n      pop\n      jump\t// out\n        /* \"#utility.yul\":15127:15268   */\n    tag_279:\n        /* \"#utility.yul\":15176:15180   */\n      0x00\n        /* \"#utility.yul\":15199:15202   */\n      dup2\n        /* \"#utility.yul\":15191:15202   */\n      swap1\n      pop\n        /* \"#utility.yul\":15222:15225   */\n      dup2\n        /* \"#utility.yul\":15219:15220   */\n      0x00\n        /* \"#utility.yul\":15212:15226   */\n      mstore\n        /* \"#utility.yul\":15256:15260   */\n      0x20\n        /* \"#utility.yul\":15253:15254   */\n      0x00\n        /* \"#utility.yul\":15243:15261   */\n      keccak256\n        /* \"#utility.yul\":15235:15261   */\n      swap1\n      pop\n        /* \"#utility.yul\":15127:15268   */\n      swap2\n      swap1\n      pop\n      jump\t// out\n        /* \"#utility.yul\":15274:15367   */\n    tag_280:\n        /* \"#utility.yul\":15311:15317   */\n      0x00\n        /* \"#utility.yul\":15358:15360   */\n      0x20\n        /* \"#utility.yul\":15353:15355   */\n      0x1f\n        /* \"#utility.yul\":15346:15351   */\n      dup4\n        /* \"#utility.yul\":15342:15356   */\n      add\n        /* \"#utility.yul\":15338:15361   */\n      div\n        /* \"#utility.yul\":15328:15361   */\n      swap1\n      pop\n        /* \"#utility.yul\":15274:15367   */\n      swap2\n      swap1\n      pop\n      jump\t// out\n        /* \"#utility.yul\":15373:15480   */\n    tag_281:\n        /* \"#utility.yul\":15417:15425   */\n      0x00\n        /* \"#utility.yul\":15467:15472   */\n      dup3\n        /* \"#utility.yul\":15461:15465   */\n      dup3\n        /* \"#utility.yul\":15457:15473   */\n      shl\n        /* \"#utility.yul\":15436:15473   */\n      swap1\n      pop\n        /* \"#utility.yul\":15373:15480   */\n      swap3\n      swap2\n      pop\n      pop\n      jump\t// out\n        /* \"#utility.yul\":15486:15879   */\n    tag_282:\n        /* \"#utility.yul\":15555:15561   */\n      0x00\n        /* \"#utility.yul\":15605:15606   */\n      0x08\n        /* \"#utility.yul\":15593:15603   */\n      dup4\n        /* \"#utility.yul\":15589:15607   */\n      mul\n        /* \"#utility.yul\":15628:15725   */\n      tag_468\n        /* \"#utility.yul\":15658:15724   */\n      0xffffffffffffffffffffffffffffffffffffffffffffffffffffffffffffffff\n        /* \"#utility.yul\":15647:15656   */\n      dup3\n        /* \"#utility.yul\":15628:15725   */\n      tag_281\n      jump\t// in\n    tag_468:\n        /* \"#utility.yul\":15746:15785   */\n      tag_469\n        /* \"#utility.yul\":15776:15784   */\n      dup7\n        /* \"#utility.yul\":15765:15774   */\n      dup4\n        /* \"#utility.yul\":15746:15785   */\n      tag_281\n      jump\t// in\n    tag_469:\n        /* \"#utility.yul\":15734:15785   */\n      swap6\n      pop\n        /* \"#utility.yul\":15818:15822   */\n      dup1\n        /* \"#utility.yul\":15814:15823   */\n      not\n        /* \"#utility.yul\":15807:15812   */\n      dup5\n        /* \"#utility.yul\":15803:15824   */\n      and\n        /* \"#utility.yul\":15794:15824   */\n      swap4\n      pop\n        /* \"#utility.yul\":15867:15871   */\n      dup1\n        /* \"#utility.yul\":15857:15865   */\n      dup7\n        /* \"#utility.yul\":15853:15872   */\n      and\n        /* \"#utility.yul\":15846:15851   */\n      dup5\n        /* \"#utility.yul\":15843:15873   */\n      or\n        /* \"#utility.yul\":15833:15873   */\n      swap3\n      pop\n        /* \"#utility.yul\":15562:15879   */\n      pop\n      pop\n        /* \"#utility.yul\":15486:15879   */\n      swap4\n      swap3\n      pop\n      pop\n      pop\n      jump\t// out\n        /* \"#utility.yul\":15885:15945   */\n    tag_283:\n        /* \"#utility.yul\":15913:15916   */\n      0x00\n        /* \"#utility.yul\":15934:15939   */\n      dup2\n        /* \"#utility.yul\":15927:15939   */\n      swap1\n      pop\n        /* \"#utility.yul\":15885:15945   */\n      swap2\n      swap1\n      pop\n      jump\t// out\n        /* \"#utility.yul\":15951:16093   */\n    tag_284:\n        /* \"#utility.yul\":16001:16010   */\n      0x00\n        /* \"#utility.yul\":16034:16087   */\n      tag_472\n        /* \"#utility.yul\":16052:16086   */\n      tag_473\n        /* \"#utility.yul\":16061:16085   */\n      tag_474\n        /* \"#utility.yul\":16079:16084   */\n      dup5\n        /* \"#utility.yul\":16061:16085   */\n      tag_249\n      jump\t// in\n    tag_474:\n        /* \"#utility.yul\":16052:16086   */\n      tag_283\n      jump\t// in\n    tag_473:\n        /* \"#utility.yul\":16034:16087   */\n      tag_249\n      jump\t// in\n    tag_472:\n        /* \"#utility.yul\":16021:16087   */\n      swap1\n      pop\n        /* \"#utility.yul\":15951:16093   */\n      swap2\n      swap1\n      pop\n      jump\t// out\n        /* \"#utility.yul\":16099:16174   */\n    tag_285:\n        /* \"#utility.yul\":16142:16145   */\n      0x00\n        /* \"#utility.yul\":16163:16168   */\n      dup2\n        /* \"#utility.yul\":16156:16168   */\n      swap1\n      pop\n        /* \"#utility.yul\":16099:16174   */\n      swap2\n      swap1\n      pop\n      jump\t// out\n        /* \"#utility.yul\":16180:16449   */\n    tag_286:\n        /* \"#utility.yul\":16290:16329   */\n      tag_477\n        /* \"#utility.yul\":16321:16328   */\n      dup4\n        /* \"#utility.yul\":16290:16329   */\n      tag_284\n      jump\t// in\n    tag_477:\n        /* \"#utility.yul\":16351:16442   */\n      tag_478\n        /* \"#utility.yul\":16400:16441   */\n      tag_479\n        /* \"#utility.yul\":16424:16440   */\n      dup3\n        /* \"#utility.yul\":16400:16441   */\n      tag_285\n      jump\t// in\n    tag_479:\n        /* \"#utility.yul\":16392:16398   */\n      dup5\n        /* \"#utility.yul\":16385:16389   */\n      dup5\n        /* \"#utility.yul\":16379:16390   */\n      sload\n        /* \"#utility.yul\":16351:16442   */\n      tag_282\n      jump\t// in\n    tag_478:\n        /* \"#utility.yul\":16345:16349   */\n      dup3\n        /* \"#utility.yul\":16338:16443   */\n      sstore\n        /* \"#utility.yul\":16256:16449   */\n      pop\n        /* \"#utility.yul\":16180:16449   */\n      pop\n      pop\n      pop\n      jump\t// out\n        /* \"#utility.yul\":16455:16528   */\n    tag_287:\n        /* \"#utility.yul\":16500:16503   */\n      0x00\n        /* \"#utility.yul\":16455:16528   */\n      swap1\n      jump\t// out\n        /* \"#utility.yul\":16534:16723   */\n    tag_288:\n        /* \"#utility.yul\":16611:16643   */\n      tag_482\n      tag_287\n      jump\t// in\n    tag_482:\n        /* \"#utility.yul\":16652:16717   */\n      tag_483\n        /* \"#utility.yul\":16710:16716   */\n      dup2\n        /* \"#utility.yul\":16702:16708   */\n      dup5\n        /* \"#utility.yul\":16696:16700   */\n      dup5\n        /* \"#utility.yul\":16652:16717   */\n      tag_286\n      jump\t// in\n    tag_483:\n        /* \"#utility.yul\":16587:16723   */\n      pop\n        /* \"#utility.yul\":16534:16723   */\n      pop\n      pop\n      jump\t// out\n        /* \"#utility.yul\":16729:16915   */\n    tag_289:\n        /* \"#utility.yul\":16789:16909   */\n    tag_485:\n        /* \"#utility.yul\":16806:16809   */\n      dup2\n        /* \"#utility.yul\":16799:16804   */\n      dup2\n        /* \"#utility.yul\":16796:16810   */\n      lt\n        /* \"#utility.yul\":16789:16909   */\n      iszero\n      tag_487\n      jumpi\n        /* \"#utility.yul\":16860:16899   */\n      tag_488\n        /* \"#utility.yul\":16897:16898   */\n      0x00\n        /* \"#utility.yul\":16890:16895   */\n      dup3\n        /* \"#utility.yul\":16860:16899   */\n      tag_288\n      jump\t// in\n    tag_488:\n        /* \"#utility.yul\":16833:16834   */\n      0x01\n        /* \"#utility.yul\":16826:16831   */\n      dup2\n        /* \"#utility.yul\":16822:16835   */\n      add\n        /* \"#utility.yul\":16813:16835   */\n      swap1\n      pop\n        /* \"#utility.yul\":16789:16909   */\n      jump(tag_485)\n    tag_487:\n        /* \"#utility.yul\":16729:16915   */\n      pop\n      pop\n      jump\t// out\n        /* \"#utility.yul\":16921:17464   */\n    tag_290:\n        /* \"#utility.yul\":17022:17024   */\n      0x1f\n        /* \"#utility.yul\":17017:17020   */\n      dup3\n        /* \"#utility.yul\":17014:17025   */\n      gt\n        /* \"#utility.yul\":17011:17457   */\n      iszero\n      tag_490\n      jumpi\n        /* \"#utility.yul\":17056:17094   */\n      tag_491\n        /* \"#utility.yul\":17088:17093   */\n      dup2\n        /* \"#utility.yul\":17056:17094   */\n      tag_279\n      jump\t// in\n    tag_491:\n        /* \"#utility.yul\":17140:17169   */\n      tag_492\n        /* \"#utility.yul\":17158:17168   */\n      dup5\n        /* \"#utility.yul\":17140:17169   */\n      tag_280\n      jump\t// in\n    tag_492:\n        /* \"#utility.yul\":17130:17138   */\n      dup2\n        /* \"#utility.yul\":17126:17170   */\n      add\n        /* \"#utility.yul\":17323:17325   */\n      0x20\n        /* \"#utility.yul\":17311:17321   */\n      dup6\n        /* \"#utility.yul\":17308:17326   */\n      lt\n        /* \"#utility.yul\":17305:17354   */\n      iszero\n      tag_493\n      jumpi\n        /* \"#utility.yul\":17344:17352   */\n      dup2\n        /* \"#utility.yul\":17329:17352   */\n      swap1\n      pop\n        /* \"#utility.yul\":17305:17354   */\n    tag_493:\n        /* \"#utility.yul\":17367:17447   */\n      tag_494\n        /* \"#utility.yul\":17423:17445   */\n      tag_495\n        /* \"#utility.yul\":17441:17444   */\n      dup6\n        /* \"#utility.yul\":17423:17445   */\n      tag_280\n      jump\t// in\n    tag_495:\n        /* \"#utility.yul\":17413:17421   */\n      dup4\n        /* \"#utility.yul\":17409:17446   */\n      add\n        /* \"#utility.yul\":17396:17407   */\n      dup3\n        /* \"#utility.yul\":17367:17447   */\n      tag_289\n      jump\t// in\n    tag_494:\n        /* \"#utility.yul\":17026:17457   */\n      pop\n      pop\n        /* \"#utility.yul\":17011:17457   */\n    tag_490:\n        /* \"#utility.yul\":16921:17464   */\n      pop\n      pop\n      pop\n      jump\t// out\n        /* \"#utility.yul\":17470:17587   */\n    tag_291:\n        /* \"#utility.yul\":17524:17532   */\n      0x00\n        /* \"#utility.yul\":17574:17579   */\n      dup3\n        /* \"#utility.yul\":17568:17572   */\n      dup3\n        /* \"#utility.yul\":17564:17580   */\n      shr\n        /* \"#utility.yul\":17543:17580   */\n      swap1\n      pop\n        /* \"#utility.yul\":17470:17587   */\n      swap3\n      swap2\n      pop\n      pop\n      jump\t// out\n        /* \"#utility.yul\":17593:17762   */\n    tag_292:\n        /* \"#utility.yul\":17637:17643   */\n      0x00\n        /* \"#utility.yul\":17670:17721   */\n      tag_498\n        /* \"#utility.yul\":17718:17719   */\n      0x00\n        /* \"#utility.yul\":17714:17720   */\n      not\n        /* \"#utility.yul\":17706:17711   */\n      dup5\n        /* \"#utility.yul\":17703:17704   */\n      0x08\n        /* \"#utility.yul\":17699:17712   */\n      mul\n        /* \"#utility.yul\":17670:17721   */\n      tag_291\n      jump\t// in\n    tag_498:\n        /* \"#utility.yul\":17666:17722   */\n      not\n        /* \"#utility.yul\":17751:17755   */\n      dup1\n        /* \"#utility.yul\":17745:17749   */\n      dup4\n        /* \"#utility.yul\":17741:17756   */\n      and\n        /* \"#utility.yul\":17731:17756   */\n      swap2\n      pop\n        /* \"#utility.yul\":17644:17762   */\n      pop\n        /* \"#utility.yul\":17593:17762   */\n      swap3\n      swap2\n      pop\n      pop\n      jump\t// out\n        /* \"#utility.yul\":17767:18062   */\n    tag_293:\n        /* \"#utility.yul\":17843:17847   */\n      0x00\n        /* \"#utility.yul\":17989:18018   */\n      tag_500\n        /* \"#utility.yul\":18014:18017   */\n      dup4\n        /* \"#utility.yul\":18008:18012   */\n      dup4\n        /* \"#utility.yul\":17989:18018   */\n      tag_292\n      jump\t// in\n    tag_500:\n        /* \"#utility.yul\":17981:18018   */\n      swap2\n      pop\n        /* \"#utility.yul\":18051:18054   */\n      dup3\n        /* \"#utility.yul\":18048:18049   */\n      0x02\n        /* \"#utility.yul\":18044:18055   */\n      mul\n        /* \"#utility.yul\":18038:18042   */\n      dup3\n        /* \"#utility.yul\":18035:18056   */\n      or\n        /* \"#utility.yul\":18027:18056   */\n      swap1\n      pop\n        /* \"#utility.yul\":17767:18062   */\n      swap3\n      swap2\n      pop\n      pop\n      jump\t// out\n        /* \"#utility.yul\":18067:19470   */\n    tag_95:\n        /* \"#utility.yul\":18191:18235   */\n      tag_502\n        /* \"#utility.yul\":18231:18234   */\n      dup4\n        /* \"#utility.yul\":18226:18229   */\n      dup4\n        /* \"#utility.yul\":18191:18235   */\n      tag_277\n      jump\t// in\n    tag_502:\n        /* \"#utility.yul\":18300:18318   */\n      0xffffffffffffffff\n        /* \"#utility.yul\":18292:18298   */\n      dup2\n        /* \"#utility.yul\":18289:18319   */\n      gt\n        /* \"#utility.yul\":18286:18342   */\n      iszero\n      tag_503\n      jumpi\n        /* \"#utility.yul\":18322:18340   */\n      tag_504\n      tag_198\n      jump\t// in\n    tag_504:\n        /* \"#utility.yul\":18286:18342   */\n    tag_503:\n        /* \"#utility.yul\":18366:18404   */\n      tag_505\n        /* \"#utility.yul\":18398:18402   */\n      dup3\n        /* \"#utility.yul\":18392:18403   */\n      sload\n        /* \"#utility.yul\":18366:18404   */\n      tag_123\n      jump\t// in\n    tag_505:\n        /* \"#utility.yul\":18451:18518   */\n      tag_506\n        /* \"#utility.yul\":18511:18517   */\n      dup3\n        /* \"#utility.yul\":18503:18509   */\n      dup3\n        /* \"#utility.yul\":18497:18501   */\n      dup6\n        /* \"#utility.yul\":18451:18518   */\n      tag_290\n      jump\t// in\n    tag_506:\n        /* \"#utility.yul\":18545:18546   */\n      0x00\n        /* \"#utility.yul\":18574:18576   */\n      0x1f\n        /* \"#utility.yul\":18566:18572   */\n      dup4\n        /* \"#utility.yul\":18563:18577   */\n      gt\n        /* \"#utility.yul\":18591:18592   */\n      0x01\n        /* \"#utility.yul\":18586:19218   */\n      dup2\n      eq\n      tag_508\n      jumpi\n        /* \"#utility.yul\":19262:19263   */\n      0x00\n        /* \"#utility.yul\":19279:19285   */\n      dup5\n        /* \"#utility.yul\":19276:19360   */\n      iszero\n      tag_509\n      jumpi\n        /* \"#utility.yul\":19335:19344   */\n      dup3\n        /* \"#utility.yul\":19330:19333   */\n      dup8\n        /* \"#utility.yul\":19326:19345   */\n      add\n        /* \"#utility.yul\":19313:19346   */\n      calldataload\n        /* \"#utility.yul\":19304:19346   */\n      swap1\n      pop\n        /* \"#utility.yul\":19276:19360   */\n    tag_509:\n        /* \"#utility.yul\":19386:19453   */\n      tag_510\n        /* \"#utility.yul\":19446:19452   */\n      dup6\n        /* \"#utility.yul\":19439:19444   */\n      dup3\n        /* \"#utility.yul\":19386:19453   */\n      tag_293\n      jump\t// in\n    tag_510:\n        /* \"#utility.yul\":19380:19384   */\n      dup7\n        /* \"#utility.yul\":19373:19454   */\n      sstore\n        /* \"#utility.yul\":19235:19464   */\n      pop\n        /* \"#utility.yul\":18556:19464   */\n      jump(tag_507)\n        /* \"#utility.yul\":18586:19218   */\n    tag_508:\n        /* \"#utility.yul\":18638:18642   */\n      0x1f\n        /* \"#utility.yul\":18634:18643   */\n      not\n        /* \"#utility.yul\":18626:18632   */\n      dup5\n        /* \"#utility.yul\":18622:18644   */\n      and\n        /* \"#utility.yul\":18672:18709   */\n      tag_511\n        /* \"#utility.yul\":18704:18708   */\n      dup7\n        /* \"#utility.yul\":18672:18709   */\n      tag_279\n      jump\t// in\n    tag_511:\n        /* \"#utility.yul\":18731:18732   */\n      0x00\n        /* \"#utility.yul\":18745:18960   */\n    tag_512:\n        /* \"#utility.yul\":18759:18766   */\n      dup3\n        /* \"#utility.yul\":18756:18757   */\n      dup2\n        /* \"#utility.yul\":18753:18767   */\n      lt\n        /* \"#utility.yul\":18745:18960   */\n      iszero\n      tag_514\n      jumpi\n        /* \"#utility.yul\":18845:18854   */\n      dup5\n        /* \"#utility.yul\":18840:18843   */\n      dup10\n        /* \"#utility.yul\":18836:18855   */\n      add\n        /* \"#utility.yul\":18823:18856   */\n      calldataload\n        /* \"#utility.yul\":18815:18821   */\n      dup3\n        /* \"#utility.yul\":18808:18857   */\n      sstore\n        /* \"#utility.yul\":18896:18897   */\n      0x01\n        /* \"#utility.yul\":18888:18894   */\n      dup3\n        /* \"#utility.yul\":18884:18898   */\n      add\n        /* \"#utility.yul\":18874:18898   */\n      swap2\n      pop\n        /* \"#utility.yul\":18943:18945   */\n      0x20\n        /* \"#utility.yul\":18932:18941   */\n      dup6\n        /* \"#utility.yul\":18928:18946   */\n      add\n        /* \"#utility.yul\":18915:18946   */\n      swap5\n      pop\n        /* \"#utility.yul\":18782:18786   */\n      0x20\n        /* \"#utility.yul\":18779:18780   */\n      dup2\n        /* \"#utility.yul\":18775:18787   */\n      add\n        /* \"#utility.yul\":18770:18787   */\n      swap1\n      pop\n        /* \"#utility.yul\":18745:18960   */\n      jump(tag_512)\n    tag_514:\n        /* \"#utility.yul\":18988:18994   */\n      dup7\n        /* \"#utility.yul\":18979:18986   */\n      dup4\n        /* \"#utility.yul\":18976:18995   */\n      lt\n        /* \"#utility.yul\":18973:19159   */\n      iszero\n      tag_515\n      jumpi\n        /* \"#utility.yul\":19053:19062   */\n      dup5\n        /* \"#utility.yul\":19048:19051   */\n      dup10\n        /* \"#utility.yul\":19044:19063   */\n      add\n        /* \"#utility.yul\":19031:19064   */\n      calldataload\n        /* \"#utility.yul\":19096:19144   */\n      tag_516\n        /* \"#utility.yul\":19138:19142   */\n      0x1f\n        /* \"#utility.yul\":19130:19136   */\n      dup10\n        /* \"#utility.yul\":19126:19143   */\n      and\n        /* \"#utility.yul\":19115:19124   */\n      dup3\n        /* \"#utility.yul\":19096:19144   */\n      tag_292\n      jump\t// in\n    tag_516:\n        /* \"#utility.yul\":19088:19094   */\n      dup4\n        /* \"#utility.yul\":19081:19145   */\n      sstore\n        /* \"#utility.yul\":18996:19159   */\n      pop\n        /* \"#utility.yul\":18973:19159   */\n    tag_515:\n        /* \"#utility.yul\":19205:19206   */\n      0x01\n        /* \"#utility.yul\":19201:19202   */\n      0x02\n        /* \"#utility.yul\":19193:19199   */\n      dup9\n        /* \"#utility.yul\":19189:19203   */\n      mul\n        /* \"#utility.yul\":19185:19207   */\n      add\n        /* \"#utility.yul\":19179:19183   */\n      dup9\n        /* \"#utility.yul\":19172:19208   */\n      sstore\n        /* \"#utility.yul\":18593:19218   */\n      pop\n      pop\n      pop\n        /* \"#utility.yul\":18556:19464   */\n    tag_507:\n      pop\n        /* \"#utility.yul\":18166:19470   */\n      pop\n      pop\n      pop\n        /* \"#utility.yul\":18067:19470   */\n      pop\n      pop\n      pop\n      jump\t// out\n        /* \"#utility.yul\":19476:19624   */\n    tag_294:\n        /* \"#utility.yul\":19574:19580   */\n      dup3\n        /* \"#utility.yul\":19569:19572   */\n      dup2\n        /* \"#utility.yul\":19564:19567   */\n      dup4\n        /* \"#utility.yul\":19551:19581   */\n      calldatacopy\n        /* \"#utility.yul\":19615:19616   */\n      0x00\n        /* \"#utility.yul\":19606:19612   */\n      dup4\n        /* \"#utility.yul\":19601:19604   */\n      dup4\n        /* \"#utility.yul\":19597:19613   */\n      add\n        /* \"#utility.yul\":19590:19617   */\n      mstore\n        /* \"#utility.yul\":19476:19624   */\n      pop\n      pop\n      pop\n      jump\t// out\n        /* \"#utility.yul\":19654:19971   */\n    tag_295:\n        /* \"#utility.yul\":19752:19755   */\n      0x00\n        /* \"#utility.yul\":19773:19844   */\n      tag_519\n        /* \"#utility.yul\":19837:19843   */\n      dup4\n        /* \"#utility.yul\":19832:19835   */\n      dup6\n        /* \"#utility.yul\":19773:19844   */\n      tag_269\n      jump\t// in\n    tag_519:\n        /* \"#utility.yul\":19766:19844   */\n      swap4\n      pop\n        /* \"#utility.yul\":19854:19910   */\n      tag_520\n        /* \"#utility.yul\":19903:19909   */\n      dup4\n        /* \"#utility.yul\":19898:19901   */\n      dup6\n        /* \"#utility.yul\":19891:19896   */\n      dup5\n        /* \"#utility.yul\":19854:19910   */\n      tag_294\n      jump\t// in\n    tag_520:\n        /* \"#utility.yul\":19935:19964   */\n      tag_521\n        /* \"#utility.yul\":19957:19963   */\n      dup4\n        /* \"#utility.yul\":19935:19964   */\n      tag_255\n      jump\t// in\n    tag_521:\n        /* \"#utility.yul\":19930:19933   */\n      dup5\n        /* \"#utility.yul\":19926:19965   */\n      add\n        /* \"#utility.yul\":19919:19965   */\n      swap1\n      pop\n        /* \"#utility.yul\":19654:19971   */\n      swap4\n      swap3\n      pop\n      pop\n      pop\n      jump\t// out\n        /* \"#utility.yul\":19977:20420   */\n    tag_98:\n        /* \"#utility.yul\":20128:20132   */\n      0x00\n        /* \"#utility.yul\":20166:20168   */\n      0x40\n        /* \"#utility.yul\":20155:20164   */\n      dup3\n        /* \"#utility.yul\":20151:20169   */\n      add\n        /* \"#utility.yul\":20143:20169   */\n      swap1\n      pop\n        /* \"#utility.yul\":20215:20224   */\n      dup2\n        /* \"#utility.yul\":20209:20213   */\n      dup2\n        /* \"#utility.yul\":20205:20225   */\n      sub\n        /* \"#utility.yul\":20201:20202   */\n      0x00\n        /* \"#utility.yul\":20190:20199   */\n      dup4\n        /* \"#utility.yul\":20186:20203   */\n      add\n        /* \"#utility.yul\":20179:20226   */\n      mstore\n        /* \"#utility.yul\":20243:20331   */\n      tag_523\n        /* \"#utility.yul\":20326:20330   */\n      dup2\n        /* \"#utility.yul\":20317:20323   */\n      dup6\n        /* \"#utility.yul\":20309:20315   */\n      dup8\n        /* \"#utility.yul\":20243:20331   */\n      tag_295\n      jump\t// in\n    tag_523:\n        /* \"#utility.yul\":20235:20331   */\n      swap1\n      pop\n        /* \"#utility.yul\":20341:20413   */\n      tag_524\n        /* \"#utility.yul\":20409:20411   */\n      0x20\n        /* \"#utility.yul\":20398:20407   */\n      dup4\n        /* \"#utility.yul\":20394:20412   */\n      add\n        /* \"#utility.yul\":20385:20391   */\n      dup5\n        /* \"#utility.yul\":20341:20413   */\n      tag_266\n      jump\t// in\n    tag_524:\n        /* \"#utility.yul\":19977:20420   */\n      swap5\n      swap4\n      pop\n      pop\n      pop\n      pop\n      jump\t// out\n        /* \"#utility.yul\":20426:20648   */\n    tag_296:\n        /* \"#utility.yul\":20566:20600   */\n      0x4f6e6c79206167656e74732063616e20706572666f726d207468697320616374\n        /* \"#utility.yul\":20562:20563   */\n      0x00\n        /* \"#utility.yul\":20554:20560   */\n      dup3\n        /* \"#utility.yul\":20550:20564   */\n      add\n        /* \"#utility.yul\":20543:20601   */\n      mstore\n        /* \"#utility.yul\":20635:20640   */\n      0x696f6e0000000000000000000000000000000000000000000000000000000000\n        /* \"#utility.yul\":20630:20632   */\n      0x20\n        /* \"#utility.yul\":20622:20628   */\n      dup3\n        /* \"#utility.yul\":20618:20633   */\n      add\n        /* \"#utility.yul\":20611:20641   */\n      mstore\n        /* \"#utility.yul\":20426:20648   */\n      pop\n      jump\t// out\n        /* \"#utility.yul\":20654:21020   */\n    tag_297:\n        /* \"#utility.yul\":20796:20799   */\n      0x00\n        /* \"#utility.yul\":20817:20884   */\n      tag_527\n        /* \"#utility.yul\":20881:20883   */\n      0x23\n        /* \"#utility.yul\":20876:20879   */\n      dup4\n        /* \"#utility.yul\":20817:20884   */\n      tag_269\n      jump\t// in\n    tag_527:\n        /* \"#utility.yul\":20810:20884   */\n      swap2\n      pop\n        /* \"#utility.yul\":20893:20986   */\n      tag_528\n        /* \"#utility.yul\":20982:20985   */\n      dup3\n        /* \"#utility.yul\":20893:20986   */\n      tag_296\n      jump\t// in\n    tag_528:\n        /* \"#utility.yul\":21011:21013   */\n      0x40\n        /* \"#utility.yul\":21006:21009   */\n      dup3\n        /* \"#utility.yul\":21002:21014   */\n      add\n        /* \"#utility.yul\":20995:21014   */\n      swap1\n      pop\n        /* \"#utility.yul\":20654:21020   */\n      swap2\n      swap1\n      pop\n      jump\t// out\n        /* \"#utility.yul\":21026:21445   */\n    tag_104:\n        /* \"#utility.yul\":21192:21196   */\n      0x00\n        /* \"#utility.yul\":21230:21232   */\n      0x20\n        /* \"#utility.yul\":21219:21228   */\n      dup3\n        /* \"#utility.yul\":21215:21233   */\n      add\n        /* \"#utility.yul\":21207:21233   */\n      swap1\n      pop\n        /* \"#utility.yul\":21279:21288   */\n      dup2\n        /* \"#utility.yul\":21273:21277   */\n      dup2\n        /* \"#utility.yul\":21269:21289   */\n      sub\n        /* \"#utility.yul\":21265:21266   */\n      0x00\n        /* \"#utility.yul\":21254:21263   */\n      dup4\n        /* \"#utility.yul\":21250:21267   */\n      add\n        /* \"#utility.yul\":21243:21290   */\n      mstore\n        /* \"#utility.yul\":21307:21438   */\n      tag_530\n        /* \"#utility.yul\":21433:21437   */\n      dup2\n        /* \"#utility.yul\":21307:21438   */\n      tag_297\n      jump\t// in\n    tag_530:\n        /* \"#utility.yul\":21299:21438   */\n      swap1\n      pop\n        /* \"#utility.yul\":21026:21445   */\n      swap2\n      swap1\n      pop\n      jump\t// out\n        /* \"#utility.yul\":21451:21629   */\n    tag_298:\n        /* \"#utility.yul\":21591:21621   */\n      0x43616e6e6f74207265676973746572207a65726f206164647265737300000000\n        /* \"#utility.yul\":21587:21588   */\n      0x00\n        /* \"#utility.yul\":21579:21585   */\n      dup3\n        /* \"#utility.yul\":21575:21589   */\n      add\n        /* \"#utility.yul\":21568:21622   */\n      mstore\n        /* \"#utility.yul\":21451:21629   */\n      pop\n      jump\t// out\n        /* \"#utility.yul\":21635:22001   */\n    tag_299:\n        /* \"#utility.yul\":21777:21780   */\n      0x00\n        /* \"#utility.yul\":21798:21865   */\n      tag_533\n        /* \"#utility.yul\":21862:21864   */\n      0x1c\n        /* \"#utility.yul\":21857:21860   */\n      dup4\n        /* \"#utility.yul\":21798:21865   */\n      tag_269\n      jump\t// in\n    tag_533:\n        /* \"#utility.yul\":21791:21865   */\n      swap2\n      pop\n        /* \"#utility.yul\":21874:21967   */\n      tag_534\n        /* \"#utility.yul\":21963:21966   */\n      dup3\n        /* \"#utility.yul\":21874:21967   */\n      tag_298\n      jump\t// in\n    tag_534:\n        /* \"#utility.yul\":21992:21994   */\n      0x20\n        /* \"#utility.yul\":21987:21990   */\n      dup3\n        /* \"#utility.yul\":21983:21995   */\n      add\n        /* \"#utility.yul\":21976:21995   */\n      swap1\n      pop\n        /* \"#utility.yul\":21635:22001   */\n      swap2\n      swap1\n      pop\n      jump\t// out\n        /* \"#utility.yul\":22007:22426   */\n    tag_108:\n        /* \"#utility.yul\":22173:22177   */\n      0x00\n        /* \"#utility.yul\":22211:22213   */\n      0x20\n        /* \"#utility.yul\":22200:22209   */\n      dup3\n        /* \"#utility.yul\":22196:22214   */\n      add\n        /* \"#utility.yul\":22188:22214   */\n      swap1\n      pop\n        /* \"#utility.yul\":22260:22269   */\n      dup2\n        /* \"#utility.yul\":22254:22258   */\n      dup2\n        /* \"#utility.yul\":22250:22270   */\n      sub\n        /* \"#utility.yul\":22246:22247   */\n      0x00\n        /* \"#utility.yul\":22235:22244   */\n      dup4\n        /* \"#utility.yul\":22231:22248   */\n      add\n        /* \"#utility.yul\":22224:22271   */\n      mstore\n        /* \"#utility.yul\":22288:22419   */\n      tag_536\n        /* \"#utility.yul\":22414:22418   */\n      dup2\n        /* \"#utility.yul\":22288:22419   */\n      tag_299\n      jump\t// in\n    tag_536:\n        /* \"#utility.yul\":22280:22419   */\n      swap1\n      pop\n        /* \"#utility.yul\":22007:22426   */\n      swap2\n      swap1\n      pop\n      jump\t// out\n        /* \"#utility.yul\":22432:22605   */\n    tag_300:\n        /* \"#utility.yul\":22572:22597   */\n      0x5573657220616c72656164792072656769737465726564000000000000000000\n        /* \"#utility.yul\":22568:22569   */\n      0x00\n        /* \"#utility.yul\":22560:22566   */\n      dup3\n        /* \"#utility.yul\":22556:22570   */\n      add\n        /* \"#utility.yul\":22549:22598   */\n      mstore\n        /* \"#utility.yul\":22432:22605   */\n      pop\n      jump\t// out\n        /* \"#utility.yul\":22611:22977   */\n    tag_301:\n        /* \"#utility.yul\":22753:22756   */\n      0x00\n        /* \"#utility.yul\":22774:22841   */\n      tag_539\n        /* \"#utility.yul\":22838:22840   */\n      0x17\n        /* \"#utility.yul\":22833:22836   */\n      dup4\n        /* \"#utility.yul\":22774:22841   */\n      tag_269\n      jump\t// in\n    tag_539:\n        /* \"#utility.yul\":22767:22841   */\n      swap2\n      pop\n        /* \"#utility.yul\":22850:22943   */\n      tag_540\n        /* \"#utility.yul\":22939:22942   */\n      dup3\n        /* \"#utility.yul\":22850:22943   */\n      tag_300\n      jump\t// in\n    tag_540:\n        /* \"#utility.yul\":22968:22970   */\n      0x20\n        /* \"#utility.yul\":22963:22966   */\n      dup3\n        /* \"#utility.yul\":22959:22971   */\n      add\n        /* \"#utility.yul\":22952:22971   */\n      swap1\n      pop\n        /* \"#utility.yul\":22611:22977   */\n      swap2\n      swap1\n      pop\n      jump\t// out\n        /* \"#utility.yul\":22983:23402   */\n    tag_111:\n        /* \"#utility.yul\":23149:23153   */\n      0x00\n        /* \"#utility.yul\":23187:23189   */\n      0x20\n        /* \"#utility.yul\":23176:23185   */\n      dup3\n        /* \"#utility.yul\":23172:23190   */\n      add\n        /* \"#utility.yul\":23164:23190   */\n      swap1\n      pop\n        /* \"#utility.yul\":23236:23245   */\n      dup2\n        /* \"#utility.yul\":23230:23234   */\n      dup2\n        /* \"#utility.yul\":23226:23246   */\n      sub\n        /* \"#utility.yul\":23222:23223   */\n      0x00\n        /* \"#utility.yul\":23211:23220   */\n      dup4\n        /* \"#utility.yul\":23207:23224   */\n      add\n        /* \"#utility.yul\":23200:23247   */\n      mstore\n        /* \"#utility.yul\":23264:23395   */\n      tag_542\n        /* \"#utility.yul\":23390:23394   */\n      dup2\n        /* \"#utility.yul\":23264:23395   */\n      tag_301\n      jump\t// in\n    tag_542:\n        /* \"#utility.yul\":23256:23395   */\n      swap1\n      pop\n        /* \"#utility.yul\":22983:23402   */\n      swap2\n      swap1\n      pop\n      jump\t// out\n        /* \"#utility.yul\":23408:23631   */\n    tag_302:\n        /* \"#utility.yul\":23548:23582   */\n      0x4164647265737320616c7265616479207265676973746572656420617320656e\n        /* \"#utility.yul\":23544:23545   */\n      0x00\n        /* \"#utility.yul\":23536:23542   */\n      dup3\n        /* \"#utility.yul\":23532:23546   */\n      add\n        /* \"#utility.yul\":23525:23583   */\n      mstore\n        /* \"#utility.yul\":23617:23623   */\n      0x7469747900000000000000000000000000000000000000000000000000000000\n        /* \"#utility.yul\":23612:23614   */\n      0x20\n        /* \"#utility.yul\":23604:23610   */\n      dup3\n        /* \"#utility.yul\":23600:23615   */\n      add\n        /* \"#utility.yul\":23593:23624   */\n      mstore\n        /* \"#utility.yul\":23408:23631   */\n      pop\n      jump\t// out\n        /* \"#utility.yul\":23637:24003   */\n    tag_303:\n        /* \"#utility.yul\":23779:23782   */\n      0x00\n        /* \"#utility.yul\":23800:23867   */\n      tag_545\n        /* \"#utility.yul\":23864:23866   */\n      0x24\n        /* \"#utility.yul\":23859:23862   */\n      dup4\n        /* \"#utility.yul\":23800:23867   */\n      tag_269\n      jump\t// in\n    tag_545:\n        /* \"#utility.yul\":23793:23867   */\n      swap2\n      pop\n        /* \"#utility.yul\":23876:23969   */\n      tag_546\n        /* \"#utility.yul\":23965:23968   */\n      dup3\n        /* \"#utility.yul\":23876:23969   */\n      tag_302\n      jump\t// in\n    tag_546:\n        /* \"#utility.yul\":23994:23996   */\n      0x40\n        /* \"#utility.yul\":23989:23992   */\n      dup3\n        /* \"#utility.yul\":23985:23997   */\n      add\n        /* \"#utility.yul\":23978:23997   */\n      swap1\n      pop\n        /* \"#utility.yul\":23637:24003   */\n      swap2\n      swap1\n      pop\n      jump\t// out\n        /* \"#utility.yul\":24009:24428   */\n    tag_114:\n        /* \"#utility.yul\":24175:24179   */\n      0x00\n        /* \"#utility.yul\":24213:24215   */\n      0x20\n        /* \"#utility.yul\":24202:24211   */\n      dup3\n        /* \"#utility.yul\":24198:24216   */\n      add\n        /* \"#utility.yul\":24190:24216   */\n      swap1\n      pop\n        /* \"#utility.yul\":24262:24271   */\n      dup2\n        /* \"#utility.yul\":24256:24260   */\n      dup2\n        /* \"#utility.yul\":24252:24272   */\n      sub\n        /* \"#utility.yul\":24248:24249   */\n      0x00\n        /* \"#utility.yul\":24237:24246   */\n      dup4\n        /* \"#utility.yul\":24233:24250   */\n      add\n        /* \"#utility.yul\":24226:24273   */\n      mstore\n        /* \"#utility.yul\":24290:24421   */\n      tag_548\n        /* \"#utility.yul\":24416:24420   */\n      dup2\n        /* \"#utility.yul\":24290:24421   */\n      tag_303\n      jump\t// in\n    tag_548:\n        /* \"#utility.yul\":24282:24421   */\n      swap1\n      pop\n        /* \"#utility.yul\":24009:24428   */\n      swap2\n      swap1\n      pop\n      jump\t// out\n        /* \"#utility.yul\":24434:24608   */\n    tag_304:\n        /* \"#utility.yul\":24574:24600   */\n      0x436f6d6d756e69747920646f6573206e6f742065786973740000000000000000\n        /* \"#utility.yul\":24570:24571   */\n      0x00\n        /* \"#utility.yul\":24562:24568   */\n      dup3\n        /* \"#utility.yul\":24558:24572   */\n      add\n        /* \"#utility.yul\":24551:24601   */\n      mstore\n        /* \"#utility.yul\":24434:24608   */\n      pop\n      jump\t// out\n        /* \"#utility.yul\":24614:24980   */\n    tag_305:\n        /* \"#utility.yul\":24756:24759   */\n      0x00\n        /* \"#utility.yul\":24777:24844   */\n      tag_551\n        /* \"#utility.yul\":24841:24843   */\n      0x18\n        /* \"#utility.yul\":24836:24839   */\n      dup4\n        /* \"#utility.yul\":24777:24844   */\n      tag_269\n      jump\t// in\n    tag_551:\n        /* \"#utility.yul\":24770:24844   */\n      swap2\n      pop\n        /* \"#utility.yul\":24853:24946   */\n      tag_552\n        /* \"#utility.yul\":24942:24945   */\n      dup3\n        /* \"#utility.yul\":24853:24946   */\n      tag_304\n      jump\t// in\n    tag_552:\n        /* \"#utility.yul\":24971:24973   */\n      0x20\n        /* \"#utility.yul\":24966:24969   */\n      dup3\n        /* \"#utility.yul\":24962:24974   */\n      add\n        /* \"#utility.yul\":24955:24974   */\n      swap1\n      pop\n        /* \"#utility.yul\":24614:24980   */\n      swap2\n      swap1\n      pop\n      jump\t// out\n        /* \"#utility.yul\":24986:25405   */\n    tag_121:\n        /* \"#utility.yul\":25152:25156   */\n      0x00\n        /* \"#utility.yul\":25190:25192   */\n      0x20\n        /* \"#utility.yul\":25179:25188   */\n      dup3\n        /* \"#utility.yul\":25175:25193   */\n      add\n        /* \"#utility.yul\":25167:25193   */\n      swap1\n      pop\n        /* \"#utility.yul\":25239:25248   */\n      dup2\n        /* \"#utility.yul\":25233:25237   */\n      dup2\n        /* \"#utility.yul\":25229:25249   */\n      sub\n        /* \"#utility.yul\":25225:25226   */\n      0x00\n        /* \"#utility.yul\":25214:25223   */\n      dup4\n        /* \"#utility.yul\":25210:25227   */\n      add\n        /* \"#utility.yul\":25203:25250   */\n      mstore\n        /* \"#utility.yul\":25267:25398   */\n      tag_554\n        /* \"#utility.yul\":25393:25397   */\n      dup2\n        /* \"#utility.yul\":25267:25398   */\n      tag_305\n      jump\t// in\n    tag_554:\n        /* \"#utility.yul\":25259:25398   */\n      swap1\n      pop\n        /* \"#utility.yul\":24986:25405   */\n      swap2\n      swap1\n      pop\n      jump\t// out\n        /* \"#utility.yul\":25411:25593   */\n    tag_306:\n        /* \"#utility.yul\":25551:25585   */\n      0x4f6e6c79207468652063726561746f722063616e20616464206d656d62657273\n        /* \"#utility.yul\":25547:25548   */\n      0x00\n        /* \"#utility.yul\":25539:25545   */\n      dup3\n        /* \"#utility.yul\":25535:25549   */\n      add\n        /* \"#utility.yul\":25528:25586   */\n      mstore\n        /* \"#utility.yul\":25411:25593   */\n      pop\n      jump\t// out\n        /* \"#utility.yul\":25599:25965   */\n    tag_307:\n        /* \"#utility.yul\":25741:25744   */\n      0x00\n        /* \"#utility.yul\":25762:25829   */\n      tag_557\n        /* \"#utility.yul\":25826:25828   */\n      0x20\n        /* \"#utility.yul\":25821:25824   */\n      dup4\n        /* \"#utility.yul\":25762:25829   */\n      tag_269\n      jump\t// in\n    tag_557:\n        /* \"#utility.yul\":25755:25829   */\n      swap2\n      pop\n        /* \"#utility.yul\":25838:25931   */\n      tag_558\n        /* \"#utility.yul\":25927:25930   */\n      dup3\n        /* \"#utility.yul\":25838:25931   */\n      tag_306\n      jump\t// in\n    tag_558:\n        /* \"#utility.yul\":25956:25958   */\n      0x20\n        /* \"#utility.yul\":25951:25954   */\n      dup3\n        /* \"#utility.yul\":25947:25959   */\n      add\n        /* \"#utility.yul\":25940:25959   */\n      swap1\n      pop\n        /* \"#utility.yul\":25599:25965   */\n      swap2\n      swap1\n      pop\n      jump\t// out\n        /* \"#utility.yul\":25971:26390   */\n    tag_146:\n        /* \"#utility.yul\":26137:26141   */\n      0x00\n        /* \"#utility.yul\":26175:26177   */\n      0x20\n        /* \"#utility.yul\":26164:26173   */\n      dup3\n        /* \"#utility.yul\":26160:26178   */\n      add\n        /* \"#utility.yul\":26152:26178   */\n      swap1\n      pop\n        /* \"#utility.yul\":26224:26233   */\n      dup2\n        /* \"#utility.yul\":26218:26222   */\n      dup2\n        /* \"#utility.yul\":26214:26234   */\n      sub\n        /* \"#utility.yul\":26210:26211   */\n      0x00\n        /* \"#utility.yul\":26199:26208   */\n      dup4\n        /* \"#utility.yul\":26195:26212   */\n      add\n        /* \"#utility.yul\":26188:26235   */\n      mstore\n        /* \"#utility.yul\":26252:26383   */\n      tag_560\n        /* \"#utility.yul\":26378:26382   */\n      dup2\n        /* \"#utility.yul\":26252:26383   */\n      tag_307\n      jump\t// in\n    tag_560:\n        /* \"#utility.yul\":26244:26383   */\n      swap1\n      pop\n        /* \"#utility.yul\":25971:26390   */\n      swap2\n      swap1\n      pop\n      jump\t// out\n        /* \"#utility.yul\":26396:26578   */\n    tag_308:\n        /* \"#utility.yul\":26536:26570   */\n      0x4d656d626572206d757374206265206120726567697374657265642075736572\n        /* \"#utility.yul\":26532:26533   */\n      0x00\n        /* \"#utility.yul\":26524:26530   */\n      dup3\n        /* \"#utility.yul\":26520:26534   */\n      add\n        /* \"#utility.yul\":26513:26571   */\n      mstore\n        /* \"#utility.yul\":26396:26578   */\n      pop\n      jump\t// out\n        /* \"#utility.yul\":26584:26950   */\n    tag_309:\n        /* \"#utility.yul\":26726:26729   */\n      0x00\n        /* \"#utility.yul\":26747:26814   */\n      tag_563\n        /* \"#utility.yul\":26811:26813   */\n      0x20\n        /* \"#utility.yul\":26806:26809   */\n      dup4\n        /* \"#utility.yul\":26747:26814   */\n      tag_269\n      jump\t// in\n    tag_563:\n        /* \"#utility.yul\":26740:26814   */\n      swap2\n      pop\n        /* \"#utility.yul\":26823:26916   */\n      tag_564\n        /* \"#utility.yul\":26912:26915   */\n      dup3\n        /* \"#utility.yul\":26823:26916   */\n      tag_308\n      jump\t// in\n    tag_564:\n        /* \"#utility.yul\":26941:26943   */\n      0x20\n        /* \"#utility.yul\":26936:26939   */\n      dup3\n        /* \"#utility.yul\":26932:26944   */\n      add\n        /* \"#utility.yul\":26925:26944   */\n      swap1\n      pop\n        /* \"#utility.yul\":26584:26950   */\n      swap2\n      swap1\n      pop\n      jump\t// out\n        /* \"#utility.yul\":26956:27375   */\n    tag_149:\n        /* \"#utility.yul\":27122:27126   */\n      0x00\n        /* \"#utility.yul\":27160:27162   */\n      0x20\n        /* \"#utility.yul\":27149:27158   */\n      dup3\n        /* \"#utility.yul\":27145:27163   */\n      add\n        /* \"#utility.yul\":27137:27163   */\n      swap1\n      pop\n        /* \"#utility.yul\":27209:27218   */\n      dup2\n        /* \"#utility.yul\":27203:27207   */\n      dup2\n        /* \"#utility.yul\":27199:27219   */\n      sub\n        /* \"#utility.yul\":27195:27196   */\n      0x00\n        /* \"#utility.yul\":27184:27193   */\n      dup4\n        /* \"#utility.yul\":27180:27197   */\n      add\n        /* \"#utility.yul\":27173:27220   */\n      mstore\n        /* \"#utility.yul\":27237:27368   */\n      tag_566\n        /* \"#utility.yul\":27363:27367   */\n      dup2\n        /* \"#utility.yul\":27237:27368   */\n      tag_309\n      jump\t// in\n    tag_566:\n        /* \"#utility.yul\":27229:27368   */\n      swap1\n      pop\n        /* \"#utility.yul\":26956:27375   */\n      swap2\n      swap1\n      pop\n      jump\t// out\n        /* \"#utility.yul\":27381:27563   */\n    tag_310:\n        /* \"#utility.yul\":27521:27555   */\n      0x43616e6e6f7420616464207a65726f2061646472657373206173206167656e74\n        /* \"#utility.yul\":27517:27518   */\n      0x00\n        /* \"#utility.yul\":27509:27515   */\n      dup3\n        /* \"#utility.yul\":27505:27519   */\n      add\n        /* \"#utility.yul\":27498:27556   */\n      mstore\n        /* \"#utility.yul\":27381:27563   */\n      pop\n      jump\t// out\n        /* \"#utility.yul\":27569:27935   */\n    tag_311:\n        /* \"#utility.yul\":27711:27714   */\n      0x00\n        /* \"#utility.yul\":27732:27799   */\n      tag_569\n        /* \"#utility.yul\":27796:27798   */\n      0x20\n        /* \"#utility.yul\":27791:27794   */\n      dup4\n        /* \"#utility.yul\":27732:27799   */\n      tag_269\n      jump\t// in\n    tag_569:\n        /* \"#utility.yul\":27725:27799   */\n      swap2\n      pop\n        /* \"#utility.yul\":27808:27901   */\n      tag_570\n        /* \"#utility.yul\":27897:27900   */\n      dup3\n        /* \"#utility.yul\":27808:27901   */\n      tag_310\n      jump\t// in\n    tag_570:\n        /* \"#utility.yul\":27926:27928   */\n      0x20\n        /* \"#utility.yul\":27921:27924   */\n      dup3\n        /* \"#utility.yul\":27917:27929   */\n      add\n        /* \"#utility.yul\":27910:27929   */\n      swap1\n      pop\n        /* \"#utility.yul\":27569:27935   */\n      swap2\n      swap1\n      pop\n      jump\t// out\n        /* \"#utility.yul\":27941:28360   */\n    tag_157:\n        /* \"#utility.yul\":28107:28111   */\n      0x00\n        /* \"#utility.yul\":28145:28147   */\n      0x20\n        /* \"#utility.yul\":28134:28143   */\n      dup3\n        /* \"#utility.yul\":28130:28148   */\n      add\n        /* \"#utility.yul\":28122:28148   */\n      swap1\n      pop\n        /* \"#utility.yul\":28194:28203   */\n      dup2\n        /* \"#utility.yul\":28188:28192   */\n      dup2\n        /* \"#utility.yul\":28184:28204   */\n      sub\n        /* \"#utility.yul\":28180:28181   */\n      0x00\n        /* \"#utility.yul\":28169:28178   */\n      dup4\n        /* \"#utility.yul\":28165:28182   */\n      add\n        /* \"#utility.yul\":28158:28205   */\n      mstore\n        /* \"#utility.yul\":28222:28353   */\n      tag_572\n        /* \"#utility.yul\":28348:28352   */\n      dup2\n        /* \"#utility.yul\":28222:28353   */\n      tag_311\n      jump\t// in\n    tag_572:\n        /* \"#utility.yul\":28214:28353   */\n      swap1\n      pop\n        /* \"#utility.yul\":27941:28360   */\n      swap2\n      swap1\n      pop\n      jump\t// out\n        /* \"#utility.yul\":28366:28543   */\n    tag_312:\n        /* \"#utility.yul\":28506:28535   */\n      0x4164647265737320697320616c726561647920616e206167656e740000000000\n        /* \"#utility.yul\":28502:28503   */\n      0x00\n        /* \"#utility.yul\":28494:28500   */\n      dup3\n        /* \"#utility.yul\":28490:28504   */\n      add\n        /* \"#utility.yul\":28483:28536   */\n      mstore\n        /* \"#utility.yul\":28366:28543   */\n      pop\n      jump\t// out\n        /* \"#utility.yul\":28549:28915   */\n    tag_313:\n        /* \"#utility.yul\":28691:28694   */\n      0x00\n        /* \"#utility.yul\":28712:28779   */\n      tag_575\n        /* \"#utility.yul\":28776:28778   */\n      0x1b\n        /* \"#utility.yul\":28771:28774   */\n      dup4\n        /* \"#utility.yul\":28712:28779   */\n      tag_269\n      jump\t// in\n    tag_575:\n        /* \"#utility.yul\":28705:28779   */\n      swap2\n      pop\n        /* \"#utility.yul\":28788:28881   */\n      tag_576\n        /* \"#utility.yul\":28877:28880   */\n      dup3\n        /* \"#utility.yul\":28788:28881   */\n      tag_312\n      jump\t// in\n    tag_576:\n        /* \"#utility.yul\":28906:28908   */\n      0x20\n        /* \"#utility.yul\":28901:28904   */\n      dup3\n        /* \"#utility.yul\":28897:28909   */\n      add\n        /* \"#utility.yul\":28890:28909   */\n      swap1\n      pop\n        /* \"#utility.yul\":28549:28915   */\n      swap2\n      swap1\n      pop\n      jump\t// out\n        /* \"#utility.yul\":28921:29340   */\n    tag_160:\n        /* \"#utility.yul\":29087:29091   */\n      0x00\n        /* \"#utility.yul\":29125:29127   */\n      0x20\n        /* \"#utility.yul\":29114:29123   */\n      dup3\n        /* \"#utility.yul\":29110:29128   */\n      add\n        /* \"#utility.yul\":29102:29128   */\n      swap1\n      pop\n        /* \"#utility.yul\":29174:29183   */\n      dup2\n        /* \"#utility.yul\":29168:29172   */\n      dup2\n        /* \"#utility.yul\":29164:29184   */\n      sub\n        /* \"#utility.yul\":29160:29161   */\n      0x00\n        /* \"#utility.yul\":29149:29158   */\n      dup4\n        /* \"#utility.yul\":29145:29162   */\n      add\n        /* \"#utility.yul\":29138:29185   */\n      mstore\n        /* \"#utility.yul\":29202:29333   */\n      tag_578\n        /* \"#utility.yul\":29328:29332   */\n      dup2\n        /* \"#utility.yul\":29202:29333   */\n      tag_313\n      jump\t// in\n    tag_578:\n        /* \"#utility.yul\":29194:29333   */\n      swap1\n      pop\n        /* \"#utility.yul\":28921:29340   */\n      swap2\n      swap1\n      pop\n      jump\t// out\n        /* \"#utility.yul\":29346:29519   */\n    tag_314:\n        /* \"#utility.yul\":29486:29511   */\n      0x41646472657373206973206e6f7420616e206167656e74000000000000000000\n        /* \"#utility.yul\":29482:29483   */\n      0x00\n        /* \"#utility.yul\":29474:29480   */\n      dup3\n        /* \"#utility.yul\":29470:29484   */\n      add\n        /* \"#utility.yul\":29463:29512   */\n      mstore\n        /* \"#utility.yul\":29346:29519   */\n      pop\n      jump\t// out\n        /* \"#utility.yul\":29525:29891   */\n    tag_315:\n        /* \"#utility.yul\":29667:29670   */\n      0x00\n        /* \"#utility.yul\":29688:29755   */\n      tag_581\n        /* \"#utility.yul\":29752:29754   */\n      0x17\n        /* \"#utility.yul\":29747:29750   */\n      dup4\n        /* \"#utility.yul\":29688:29755   */\n      tag_269\n      jump\t// in\n    tag_581:\n        /* \"#utility.yul\":29681:29755   */\n      swap2\n      pop\n        /* \"#utility.yul\":29764:29857   */\n      tag_582\n        /* \"#utility.yul\":29853:29856   */\n      dup3\n        /* \"#utility.yul\":29764:29857   */\n      tag_314\n      jump\t// in\n    tag_582:\n        /* \"#utility.yul\":29882:29884   */\n      0x20\n        /* \"#utility.yul\":29877:29880   */\n      dup3\n        /* \"#utility.yul\":29873:29885   */\n      add\n        /* \"#utility.yul\":29866:29885   */\n      swap1\n      pop\n        /* \"#utility.yul\":29525:29891   */\n      swap2\n      swap1\n      pop\n      jump\t// out\n        /* \"#utility.yul\":29897:30316   */\n    tag_167:\n        /* \"#utility.yul\":30063:30067   */\n      0x00\n        /* \"#utility.yul\":30101:30103   */\n      0x20\n        /* \"#utility.yul\":30090:30099   */\n      dup3\n        /* \"#utility.yul\":30086:30104   */\n      add\n        /* \"#utility.yul\":30078:30104   */\n      swap1\n      pop\n        /* \"#utility.yul\":30150:30159   */\n      dup2\n        /* \"#utility.yul\":30144:30148   */\n      dup2\n        /* \"#utility.yul\":30140:30160   */\n      sub\n        /* \"#utility.yul\":30136:30137   */\n      0x00\n        /* \"#utility.yul\":30125:30134   */\n      dup4\n        /* \"#utility.yul\":30121:30138   */\n      add\n        /* \"#utility.yul\":30114:30161   */\n      mstore\n        /* \"#utility.yul\":30178:30309   */\n      tag_584\n        /* \"#utility.yul\":30304:30308   */\n      dup2\n        /* \"#utility.yul\":30178:30309   */\n      tag_315\n      jump\t// in\n    tag_584:\n        /* \"#utility.yul\":30170:30309   */\n      swap1\n      pop\n        /* \"#utility.yul\":29897:30316   */\n      swap2\n      swap1\n      pop\n      jump\t// out\n        /* \"#utility.yul\":30322:30498   */\n    tag_316:\n        /* \"#utility.yul\":30462:30490   */\n      0x43616e6e6f742072656d6f7665207a65726f2061646472657373000000000000\n        /* \"#utility.yul\":30458:30459   */\n      0x00\n        /* \"#utility.yul\":30450:30456   */\n      dup3\n        /* \"#utility.yul\":30446:30460   */\n      add\n        /* \"#utility.yul\":30439:30491   */\n      mstore\n        /* \"#utility.yul\":30322:30498   */\n      pop\n      jump\t// out\n        /* \"#utility.yul\":30504:30870   */\n    tag_317:\n        /* \"#utility.yul\":30646:30649   */\n      0x00\n        /* \"#utility.yul\":30667:30734   */\n      tag_587\n        /* \"#utility.yul\":30731:30733   */\n      0x1a\n        /* \"#utility.yul\":30726:30729   */\n      dup4\n        /* \"#utility.yul\":30667:30734   */\n      tag_269\n      jump\t// in\n    tag_587:\n        /* \"#utility.yul\":30660:30734   */\n      swap2\n      pop\n        /* \"#utility.yul\":30743:30836   */\n      tag_588\n        /* \"#utility.yul\":30832:30835   */\n      dup3\n        /* \"#utility.yul\":30743:30836   */\n      tag_316\n      jump\t// in\n    tag_588:\n        /* \"#utility.yul\":30861:30863   */\n      0x20\n        /* \"#utility.yul\":30856:30859   */\n      dup3\n        /* \"#utility.yul\":30852:30864   */\n      add\n        /* \"#utility.yul\":30845:30864   */\n      swap1\n      pop\n        /* \"#utility.yul\":30504:30870   */\n      swap2\n      swap1\n      pop\n      jump\t// out\n        /* \"#utility.yul\":30876:31295   */\n    tag_174:\n        /* \"#utility.yul\":31042:31046   */\n      0x00\n        /* \"#utility.yul\":31080:31082   */\n      0x20\n        /* \"#utility.yul\":31069:31078   */\n      dup3\n        /* \"#utility.yul\":31065:31083   */\n      add\n        /* \"#utility.yul\":31057:31083   */\n      swap1\n      pop\n        /* \"#utility.yul\":31129:31138   */\n      dup2\n        /* \"#utility.yul\":31123:31127   */\n      dup2\n        /* \"#utility.yul\":31119:31139   */\n      sub\n        /* \"#utility.yul\":31115:31116   */\n      0x00\n        /* \"#utility.yul\":31104:31113   */\n      dup4\n        /* \"#utility.yul\":31100:31117   */\n      add\n        /* \"#utility.yul\":31093:31140   */\n      mstore\n        /* \"#utility.yul\":31157:31288   */\n      tag_590\n        /* \"#utility.yul\":31283:31287   */\n      dup2\n        /* \"#utility.yul\":31157:31288   */\n      tag_317\n      jump\t// in\n    tag_590:\n        /* \"#utility.yul\":31149:31288   */\n      swap1\n      pop\n        /* \"#utility.yul\":30876:31295   */\n      swap2\n      swap1\n      pop\n      jump\t// out\n        /* \"#utility.yul\":31301:31470   */\n    tag_318:\n        /* \"#utility.yul\":31441:31462   */\n      0x55736572206e6f74207265676973746572656400000000000000000000000000\n        /* \"#utility.yul\":31437:31438   */\n      0x00\n        /* \"#utility.yul\":31429:31435   */\n      dup3\n        /* \"#utility.yul\":31425:31439   */\n      add\n        /* \"#utility.yul\":31418:31463   */\n      mstore\n        /* \"#utility.yul\":31301:31470   */\n      pop\n      jump\t// out\n        /* \"#utility.yul\":31476:31842   */\n    tag_319:\n        /* \"#utility.yul\":31618:31621   */\n      0x00\n        /* \"#utility.yul\":31639:31706   */\n      tag_593\n        /* \"#utility.yul\":31703:31705   */\n      0x13\n        /* \"#utility.yul\":31698:31701   */\n      dup4\n        /* \"#utility.yul\":31639:31706   */\n      tag_269\n      jump\t// in\n    tag_593:\n        /* \"#utility.yul\":31632:31706   */\n      swap2\n      pop\n        /* \"#utility.yul\":31715:31808   */\n      tag_594\n        /* \"#utility.yul\":31804:31807   */\n      dup3\n        /* \"#utility.yul\":31715:31808   */\n      tag_318\n      jump\t// in\n    tag_594:\n        /* \"#utility.yul\":31833:31835   */\n      0x20\n        /* \"#utility.yul\":31828:31831   */\n      dup3\n        /* \"#utility.yul\":31824:31836   */\n      add\n        /* \"#utility.yul\":31817:31836   */\n      swap1\n      pop\n        /* \"#utility.yul\":31476:31842   */\n      swap2\n      swap1\n      pop\n      jump\t// out\n        /* \"#utility.yul\":31848:32267   */\n    tag_177:\n        /* \"#utility.yul\":32014:32018   */\n      0x00\n        /* \"#utility.yul\":32052:32054   */\n      0x20\n        /* \"#utility.yul\":32041:32050   */\n      dup3\n        /* \"#utility.yul\":32037:32055   */\n      add\n        /* \"#utility.yul\":32029:32055   */\n      swap1\n      pop\n        /* \"#utility.yul\":32101:32110   */\n      dup2\n        /* \"#utility.yul\":32095:32099   */\n      dup2\n        /* \"#utility.yul\":32091:32111   */\n      sub\n        /* \"#utility.yul\":32087:32088   */\n      0x00\n        /* \"#utility.yul\":32076:32085   */\n      dup4\n        /* \"#utility.yul\":32072:32089   */\n      add\n        /* \"#utility.yul\":32065:32112   */\n      mstore\n        /* \"#utility.yul\":32129:32260   */\n      tag_596\n        /* \"#utility.yul\":32255:32259   */\n      dup2\n        /* \"#utility.yul\":32129:32260   */\n      tag_319\n      jump\t// in\n    tag_596:\n        /* \"#utility.yul\":32121:32260   */\n      swap1\n      pop\n        /* \"#utility.yul\":31848:32267   */\n      swap2\n      swap1\n      pop\n      jump\t// out\n        /* \"#utility.yul\":32273:32444   */\n    tag_320:\n        /* \"#utility.yul\":32413:32436   */\n      0x456e74697479206e6f7420726567697374657265640000000000000000000000\n        /* \"#utility.yul\":32409:32410   */\n      0x00\n        /* \"#utility.yul\":32401:32407   */\n      dup3\n        /* \"#utility.yul\":32397:32411   */\n      add\n        /* \"#utility.yul\":32390:32437   */\n      mstore\n        /* \"#utility.yul\":32273:32444   */\n      pop\n      jump\t// out\n        /* \"#utility.yul\":32450:32816   */\n    tag_321:\n        /* \"#utility.yul\":32592:32595   */\n      0x00\n        /* \"#utility.yul\":32613:32680   */\n      tag_599\n        /* \"#utility.yul\":32677:32679   */\n      0x15\n        /* \"#utility.yul\":32672:32675   */\n      dup4\n        /* \"#utility.yul\":32613:32680   */\n      tag_269\n      jump\t// in\n    tag_599:\n        /* \"#utility.yul\":32606:32680   */\n      swap2\n      pop\n        /* \"#utility.yul\":32689:32782   */\n      tag_600\n        /* \"#utility.yul\":32778:32781   */\n      dup3\n        /* \"#utility.yul\":32689:32782   */\n      tag_320\n      jump\t// in\n    tag_600:\n        /* \"#utility.yul\":32807:32809   */\n      0x20\n        /* \"#utility.yul\":32802:32805   */\n      dup3\n        /* \"#utility.yul\":32798:32810   */\n      add\n        /* \"#utility.yul\":32791:32810   */\n      swap1\n      pop\n        /* \"#utility.yul\":32450:32816   */\n      swap2\n      swap1\n      pop\n      jump\t// out\n        /* \"#utility.yul\":32822:33241   */\n    tag_188:\n        /* \"#utility.yul\":32988:32992   */\n      0x00\n        /* \"#utility.yul\":33026:33028   */\n      0x20\n        /* \"#utility.yul\":33015:33024   */\n      dup3\n        /* \"#utility.yul\":33011:33029   */\n      add\n        /* \"#utility.yul\":33003:33029   */\n      swap1\n      pop\n        /* \"#utility.yul\":33075:33084   */\n      dup2\n        /* \"#utility.yul\":33069:33073   */\n      dup2\n        /* \"#utility.yul\":33065:33085   */\n      sub\n        /* \"#utility.yul\":33061:33062   */\n      0x00\n        /* \"#utility.yul\":33050:33059   */\n      dup4\n        /* \"#utility.yul\":33046:33063   */\n      add\n        /* \"#utility.yul\":33039:33086   */\n      mstore\n        /* \"#utility.yul\":33103:33234   */\n      tag_602\n        /* \"#utility.yul\":33229:33233   */\n      dup2\n        /* \"#utility.yul\":33103:33234   */\n      tag_321\n      jump\t// in\n    tag_602:\n        /* \"#utility.yul\":33095:33234   */\n      swap1\n      pop\n        /* \"#utility.yul\":32822:33241   */\n      swap2\n      swap1\n      pop\n      jump\t// out\n        /* \"#utility.yul\":33247:33427   */\n    tag_207:\n        /* \"#utility.yul\":33295:33372   */\n      0x4e487b7100000000000000000000000000000000000000000000000000000000\n        /* \"#utility.yul\":33292:33293   */\n      0x00\n        /* \"#utility.yul\":33285:33373   */\n      mstore\n        /* \"#utility.yul\":33392:33396   */\n      0x32\n        /* \"#utility.yul\":33389:33390   */\n      0x04\n        /* \"#utility.yul\":33382:33397   */\n      mstore\n        /* \"#utility.yul\":33416:33420   */\n      0x24\n        /* \"#utility.yul\":33413:33414   */\n      0x00\n        /* \"#utility.yul\":33406:33421   */\n      revert\n        /* \"#utility.yul\":33433:33608   */\n    tag_322:\n        /* \"#utility.yul\":33573:33600   */\n      0x456e7469747920616c7265616479207265676973746572656400000000000000\n        /* \"#utility.yul\":33569:33570   */\n      0x00\n        /* \"#utility.yul\":33561:33567   */\n      dup3\n        /* \"#utility.yul\":33557:33571   */\n      add\n        /* \"#utility.yul\":33550:33601   */\n      mstore\n        /* \"#utility.yul\":33433:33608   */\n      pop\n      jump\t// out\n        /* \"#utility.yul\":33614:33980   */\n    tag_323:\n        /* \"#utility.yul\":33756:33759   */\n      0x00\n        /* \"#utility.yul\":33777:33844   */\n      tag_606\n        /* \"#utility.yul\":33841:33843   */\n      0x19\n        /* \"#utility.yul\":33836:33839   */\n      dup4\n        /* \"#utility.yul\":33777:33844   */\n      tag_269\n      jump\t// in\n    tag_606:\n        /* \"#utility.yul\":33770:33844   */\n      swap2\n      pop\n        /* \"#utility.yul\":33853:33946   */\n      tag_607\n        /* \"#utility.yul\":33942:33945   */\n      dup3\n        /* \"#utility.yul\":33853:33946   */\n      tag_322\n      jump\t// in\n    tag_607:\n        /* \"#utility.yul\":33971:33973   */\n      0x20\n        /* \"#utility.yul\":33966:33969   */\n      dup3\n        /* \"#utility.yul\":33962:33974   */\n      add\n        /* \"#utility.yul\":33955:33974   */\n      swap1\n      pop\n        /* \"#utility.yul\":33614:33980   */\n      swap2\n      swap1\n      pop\n      jump\t// out\n        /* \"#utility.yul\":33986:34405   */\n    tag_216:\n        /* \"#utility.yul\":34152:34156   */\n      0x00\n        /* \"#utility.yul\":34190:34192   */\n      0x20\n        /* \"#utility.yul\":34179:34188   */\n      dup3\n        /* \"#utility.yul\":34175:34193   */\n      add\n        /* \"#utility.yul\":34167:34193   */\n      swap1\n      pop\n        /* \"#utility.yul\":34239:34248   */\n      dup2\n        /* \"#utility.yul\":34233:34237   */\n      dup2\n        /* \"#utility.yul\":34229:34249   */\n      sub\n        /* \"#utility.yul\":34225:34226   */\n      0x00\n        /* \"#utility.yul\":34214:34223   */\n      dup4\n        /* \"#utility.yul\":34210:34227   */\n      add\n        /* \"#utility.yul\":34203:34250   */\n      mstore\n        /* \"#utility.yul\":34267:34398   */\n      tag_609\n        /* \"#utility.yul\":34393:34397   */\n      dup2\n        /* \"#utility.yul\":34267:34398   */\n      tag_323\n      jump\t// in\n    tag_609:\n        /* \"#utility.yul\":34259:34398   */\n      swap1\n      pop\n        /* \"#utility.yul\":33986:34405   */\n      swap2\n      swap1\n      pop\n      jump\t// out\n        /* \"#utility.yul\":34411:34632   */\n    tag_324:\n        /* \"#utility.yul\":34551:34585   */\n      0x4164647265737320616c72656164792072656769737465726564206173207573\n        /* \"#utility.yul\":34547:34548   */\n      0x00\n        /* \"#utility.yul\":34539:34545   */\n      dup3\n        /* \"#utility.yul\":34535:34549   */\n      add\n        /* \"#utility.yul\":34528:34586   */\n      mstore\n        /* \"#utility.yul\":34620:34624   */\n      0x6572000000000000000000000000000000000000000000000000000000000000\n        /* \"#utility.yul\":34615:34617   */\n      0x20\n        /* \"#utility.yul\":34607:34613   */\n      dup3\n        /* \"#utility.yul\":34603:34618   */\n      add\n        /* \"#utility.yul\":34596:34625   */\n      mstore\n        /* \"#utility.yul\":34411:34632   */\n      pop\n      jump\t// out\n        /* \"#utility.yul\":34638:35004   */\n    tag_325:\n        /* \"#utility.yul\":34780:34783   */\n      0x00\n        /* \"#utility.yul\":34801:34868   */\n      tag_612\n        /* \"#utility.yul\":34865:34867   */\n      0x22\n        /* \"#utility.yul\":34860:34863   */\n      dup4\n        /* \"#utility.yul\":34801:34868   */\n      tag_269\n      jump\t// in\n    tag_612:\n        /* \"#utility.yul\":34794:34868   */\n      swap2\n      pop\n        /* \"#utility.yul\":34877:34970   */\n      tag_613\n        /* \"#utility.yul\":34966:34969   */\n      dup3\n        /* \"#utility.yul\":34877:34970   */\n      tag_324\n      jump\t// in\n    tag_613:\n        /* \"#utility.yul\":34995:34997   */\n      0x40\n        /* \"#utility.yul\":34990:34993   */\n      dup3\n        /* \"#utility.yul\":34986:34998   */\n      add\n        /* \"#utility.yul\":34979:34998   */\n      swap1\n      pop\n        /* \"#utility.yul\":34638:35004   */\n      swap2\n      swap1\n      pop\n      jump\t// out\n        /* \"#utility.yul\":35010:35429   */\n    tag_219:\n        /* \"#utility.yul\":35176:35180   */\n      0x00\n        /* \"#utility.yul\":35214:35216   */\n      0x20\n        /* \"#utility.yul\":35203:35212   */\n      dup3\n        /* \"#utility.yul\":35199:35217   */\n      add\n        /* \"#utility.yul\":35191:35217   */\n      swap1\n      pop\n        /* \"#utility.yul\":35263:35272   */\n      dup2\n        /* \"#utility.yul\":35257:35261   */\n      dup2\n        /* \"#utility.yul\":35253:35273   */\n      sub\n        /* \"#utility.yul\":35249:35250   */\n      0x00\n        /* \"#utility.yul\":35238:35247   */\n      dup4\n        /* \"#utility.yul\":35234:35251   */\n      add\n        /* \"#utility.yul\":35227:35274   */\n      mstore\n        /* \"#utility.yul\":35291:35422   */\n      tag_615\n        /* \"#utility.yul\":35417:35421   */\n      dup2\n        /* \"#utility.yul\":35291:35422   */\n      tag_325\n      jump\t// in\n    tag_615:\n        /* \"#utility.yul\":35283:35422   */\n      swap1\n      pop\n        /* \"#utility.yul\":35010:35429   */\n      swap2\n      swap1\n      pop\n      jump\t// out\n\n    auxdata: 0xa2646970667358221220c7279e0cb53c778f8d1c04b440f014f78376cff0dc4e10edd92f0be99e50d04664736f6c634300081a0033\n}\n",
				"bytecode": {
					"linkReferences": {},
					"object": "60806040525f600155348015610013575f80fd5b50335f73ffffffffffffffffffffffffffffffffffffffff168173ffffffffffffffffffffffffffffffffffffffff1603610085575f6040517f1e4fbdf700000000000000000000000000000000000000000000000000000000815260040161007c919061019a565b60405180910390fd5b6100948161009a60201b60201c565b506101b3565b5f805f9054906101000a900473ffffffffffffffffffffffffffffffffffffffff169050815f806101000a81548173ffffffffffffffffffffffffffffffffffffffff021916908373ffffffffffffffffffffffffffffffffffffffff1602179055508173ffffffffffffffffffffffffffffffffffffffff168173ffffffffffffffffffffffffffffffffffffffff167f8be0079c531659141344cd1fd0a4f28419497f9722a3daafe3b4186f6b6457e060405160405180910390a35050565b5f73ffffffffffffffffffffffffffffffffffffffff82169050919050565b5f6101848261015b565b9050919050565b6101948161017a565b82525050565b5f6020820190506101ad5f83018461018b565b92915050565b612c4d806101c05f395ff3fe608060405234801561000f575f80fd5b50600436106100fe575f3560e01c80638da5cb5b11610095578063dd18299611610064578063dd18299614610292578063eac3fda4146102ae578063ebb99431146102cc578063f2fde38b146102e8576100fe565b80638da5cb5b1461020c57806397a6278e1461022a5780639857518814610246578063daf60b7114610262576100fe565b8063370603f8116100d1578063370603f81461019a578063715018a6146101ca57806374d0a676146101d457806384e79842146101f0576100fe565b806303b28c33146101025780631f5bdf5d1461011e5780631ffbb0641461014e5780632199d5cd1461017e575b5f80fd5b61011c60048036038101906101179190611b93565b610304565b005b61013860048036038101906101339190611c6b565b61054b565b6040516101459190611cb0565b60405180910390f35b61016860048036038101906101639190611c6b565b61059d565b6040516101759190611cb0565b60405180910390f35b61019860048036038101906101939190611c6b565b6105ef565b005b6101b460048036038101906101af9190611cfc565b6108a0565b6040516101c19190611ede565b60405180910390f35b6101d2610b18565b005b6101ee60048036038101906101e99190611efe565b610b2b565b005b61020a60048036038101906102059190611c6b565b610d47565b005b610214610ee2565b6040516102219190611f4b565b60405180910390f35b610244600480360381019061023f9190611c6b565b610f09565b005b610260600480360381019061025b9190611c6b565b611034565b005b61027c60048036038101906102779190611c6b565b611259565b6040516102899190611cb0565b60405180910390f35b6102ac60048036038101906102a79190611c6b565b6112ab565b005b6102b66114d1565b6040516102c39190611fd0565b60405180910390f35b6102e660048036038101906102e19190611c6b565b611662565b005b61030260048036038101906102fd9190611c6b565b611914565b005b5f8484905011610349576040517f08c379a00000000000000000000000000000000000000000000000000000000081526004016103409061204a565b60405180910390fd5b5f828290501161038e576040517f08c379a0000000000000000000000000000000000000000000000000000000008152600401610385906120d8565b60405180910390fd5b60045f3373ffffffffffffffffffffffffffffffffffffffff1673ffffffffffffffffffffffffffffffffffffffff1681526020019081526020015f205f9054906101000a900460ff1680610429575060055f3373ffffffffffffffffffffffffffffffffffffffff1673ffffffffffffffffffffffffffffffffffffffff1681526020019081526020015f205f9054906101000a900460ff165b610468576040517f08c379a000000000000000000000000000000000000000000000000000000000815260040161045f90612166565b60405180910390fd5b5f60015f81548092919061047b906121b1565b9190505590505f60025f8381526020019081526020015f2090508585825f0191826104a7929190612429565b5083838260010191826104bb929190612429565b5033816002015f6101000a81548173ffffffffffffffffffffffffffffffffffffffff021916908373ffffffffffffffffffffffffffffffffffffffff160217905550428160030181905550817f4df3410150bc135fb5a7782051351442aaa4dc2b49b9180723c871b74e0a220187873360405161053b93929190612530565b60405180910390a2505050505050565b5f60045f8373ffffffffffffffffffffffffffffffffffffffff1673ffffffffffffffffffffffffffffffffffffffff1681526020019081526020015f205f9054906101000a900460ff169050919050565b5f60035f8373ffffffffffffffffffffffffffffffffffffffff1673ffffffffffffffffffffffffffffffffffffffff1681526020019081526020015f205f9054906101000a900460ff169050919050565b60035f3373ffffffffffffffffffffffffffffffffffffffff1673ffffffffffffffffffffffffffffffffffffffff1681526020019081526020015f205f9054906101000a900460ff16610678576040517f08c379a000000000000000000000000000000000000000000000000000000000815260040161066f906125d0565b60405180910390fd5b5f73ffffffffffffffffffffffffffffffffffffffff168173ffffffffffffffffffffffffffffffffffffffff16036106e6576040517f08c379a00000000000000000000000000000000000000000000000000000000081526004016106dd90612638565b60405180910390fd5b60045f8273ffffffffffffffffffffffffffffffffffffffff1673ffffffffffffffffffffffffffffffffffffffff1681526020019081526020015f205f9054906101000a900460ff1615610770576040517f08c379a0000000000000000000000000000000000000000000000000000000008152600401610767906126a0565b60405180910390fd5b60055f8273ffffffffffffffffffffffffffffffffffffffff1673ffffffffffffffffffffffffffffffffffffffff1681526020019081526020015f205f9054906101000a900460ff16156107fa576040517f08c379a00000000000000000000000000000000000000000000000000000000081526004016107f19061272e565b60405180910390fd5b600160045f8373ffffffffffffffffffffffffffffffffffffffff1673ffffffffffffffffffffffffffffffffffffffff1681526020019081526020015f205f6101000a81548160ff0219169083151502179055508073ffffffffffffffffffffffffffffffffffffffff167f28a24a60e275c9be5babc23ecefd3240b1fcd56ef4d3fe4818437200b55ae5ff5f6040516108959190611cb0565b60405180910390a250565b6108a8611ae7565b60015482106108ec576040517f08c379a00000000000000000000000000000000000000000000000000000000081526004016108e390612796565b60405180910390fd5b60025f8381526020019081526020015f206040518060a00160405290815f820180546109179061225c565b80601f01602080910402602001604051908101604052809291908181526020018280546109439061225c565b801561098e5780601f106109655761010080835404028352916020019161098e565b820191905f5260205f20905b81548152906001019060200180831161097157829003601f168201915b505050505081526020016001820180546109a79061225c565b80601f01602080910402602001604051908101604052809291908181526020018280546109d39061225c565b8015610a1e5780601f106109f557610100808354040283529160200191610a1e565b820191905f5260205f20905b815481529060010190602001808311610a0157829003601f168201915b50505050508152602001600282015f9054906101000a900473ffffffffffffffffffffffffffffffffffffffff1673ffffffffffffffffffffffffffffffffffffffff1673ffffffffffffffffffffffffffffffffffffffff1681526020016003820154815260200160048201805480602002602001604051908101604052809291908181526020018280548015610b0857602002820191905f5260205f20905b815f9054906101000a900473ffffffffffffffffffffffffffffffffffffffff1673ffffffffffffffffffffffffffffffffffffffff1681526020019060010190808311610abf575b5050505050815250509050919050565b610b20611998565b610b295f611a1f565b565b6001548210610b6f576040517f08c379a0000000000000000000000000000000000000000000000000000000008152600401610b6690612796565b60405180910390fd5b60025f8381526020019081526020015f206002015f9054906101000a900473ffffffffffffffffffffffffffffffffffffffff1673ffffffffffffffffffffffffffffffffffffffff163373ffffffffffffffffffffffffffffffffffffffff1614610c10576040517f08c379a0000000000000000000000000000000000000000000000000000000008152600401610c07906127fe565b60405180910390fd5b60045f8273ffffffffffffffffffffffffffffffffffffffff1673ffffffffffffffffffffffffffffffffffffffff1681526020019081526020015f205f9054906101000a900460ff16610c99576040517f08c379a0000000000000000000000000000000000000000000000000000000008152600401610c9090612866565b60405180910390fd5b60025f8381526020019081526020015f2060040181908060018154018082558091505060019003905f5260205f20015f9091909190916101000a81548173ffffffffffffffffffffffffffffffffffffffff021916908373ffffffffffffffffffffffffffffffffffffffff160217905550817ff328ac0f8bcae00933fe87ba0aa2d0d505c1df94bc9c1aa05b8441c28b74032c82604051610d3b9190611f4b565b60405180910390a25050565b610d4f611998565b5f73ffffffffffffffffffffffffffffffffffffffff168173ffffffffffffffffffffffffffffffffffffffff1603610dbd576040517f08c379a0000000000000000000000000000000000000000000000000000000008152600401610db4906128ce565b60405180910390fd5b60035f8273ffffffffffffffffffffffffffffffffffffffff1673ffffffffffffffffffffffffffffffffffffffff1681526020019081526020015f205f9054906101000a900460ff1615610e47576040517f08c379a0000000000000000000000000000000000000000000000000000000008152600401610e3e90612936565b60405180910390fd5b600160035f8373ffffffffffffffffffffffffffffffffffffffff1673ffffffffffffffffffffffffffffffffffffffff1681526020019081526020015f205f6101000a81548160ff0219169083151502179055508073ffffffffffffffffffffffffffffffffffffffff167ff68e73cec97f2d70aa641fb26e87a4383686e2efacb648f2165aeb02ac562ec560405160405180910390a250565b5f805f9054906101000a900473ffffffffffffffffffffffffffffffffffffffff16905090565b610f11611998565b60035f8273ffffffffffffffffffffffffffffffffffffffff1673ffffffffffffffffffffffffffffffffffffffff1681526020019081526020015f205f9054906101000a900460ff16610f9a576040517f08c379a0000000000000000000000000000000000000000000000000000000008152600401610f919061299e565b60405180910390fd5b5f60035f8373ffffffffffffffffffffffffffffffffffffffff1673ffffffffffffffffffffffffffffffffffffffff1681526020019081526020015f205f6101000a81548160ff0219169083151502179055508073ffffffffffffffffffffffffffffffffffffffff167fed9c8ad8d5a0a66898ea49d2956929c93ae2e8bd50281b2ed897c5d1a6737e0b60405160405180910390a250565b60035f3373ffffffffffffffffffffffffffffffffffffffff1673ffffffffffffffffffffffffffffffffffffffff1681526020019081526020015f205f9054906101000a900460ff166110bd576040517f08c379a00000000000000000000000000000000000000000000000000000000081526004016110b4906125d0565b60405180910390fd5b5f73ffffffffffffffffffffffffffffffffffffffff168173ffffffffffffffffffffffffffffffffffffffff160361112b576040517f08c379a000000000000000000000000000000000000000000000000000000000815260040161112290612a06565b60405180910390fd5b60045f8273ffffffffffffffffffffffffffffffffffffffff1673ffffffffffffffffffffffffffffffffffffffff1681526020019081526020015f205f9054906101000a900460ff166111b4576040517f08c379a00000000000000000000000000000000000000000000000000000000081526004016111ab90612a6e565b60405180910390fd5b5f60045f8373ffffffffffffffffffffffffffffffffffffffff1673ffffffffffffffffffffffffffffffffffffffff1681526020019081526020015f205f6101000a81548160ff0219169083151502179055508073ffffffffffffffffffffffffffffffffffffffff167f57ffeda2cca1356c20c3f388d439e7ee49a825f846a911f8981726bea201188f5f60405161124e9190611cb0565b60405180910390a250565b5f60055f8373ffffffffffffffffffffffffffffffffffffffff1673ffffffffffffffffffffffffffffffffffffffff1681526020019081526020015f205f9054906101000a900460ff169050919050565b60035f3373ffffffffffffffffffffffffffffffffffffffff1673ffffffffffffffffffffffffffffffffffffffff1681526020019081526020015f205f9054906101000a900460ff16611334576040517f08c379a000000000000000000000000000000000000000000000000000000000815260040161132b906125d0565b60405180910390fd5b5f73ffffffffffffffffffffffffffffffffffffffff168173ffffffffffffffffffffffffffffffffffffffff16036113a2576040517f08c379a000000000000000000000000000000000000000000000000000000000815260040161139990612a06565b60405180910390fd5b60055f8273ffffffffffffffffffffffffffffffffffffffff1673ffffffffffffffffffffffffffffffffffffffff1681526020019081526020015f205f9054906101000a900460ff1661142b576040517f08c379a000000000000000000000000000000000000000000000000000000000815260040161142290612ad6565b60405180910390fd5b5f60055f8373ffffffffffffffffffffffffffffffffffffffff1673ffffffffffffffffffffffffffffffffffffffff1681526020019081526020015f205f6101000a81548160ff0219169083151502179055508073ffffffffffffffffffffffffffffffffffffffff167f57ffeda2cca1356c20c3f388d439e7ee49a825f846a911f8981726bea201188f60016040516114c69190611cb0565b60405180910390a250565b60605f805b438110156115495760035f8273ffffffffffffffffffffffffffffffffffffffff1673ffffffffffffffffffffffffffffffffffffffff1681526020019081526020015f205f9054906101000a900460ff161561153c578180611538906121b1565b9250505b80806001019150506114d6565b505f8167ffffffffffffffff81111561156557611564612202565b5b6040519080825280602002602001820160405280156115935781602001602082028036833780820191505090505b5090505f805b438110156116585760035f8273ffffffffffffffffffffffffffffffffffffffff1673ffffffffffffffffffffffffffffffffffffffff1681526020019081526020015f205f9054906101000a900460ff161561164b57808383806115fd906121b1565b9450815181106116105761160f612af4565b5b602002602001019073ffffffffffffffffffffffffffffffffffffffff16908173ffffffffffffffffffffffffffffffffffffffff16815250505b8080600101915050611599565b5081935050505090565b60035f3373ffffffffffffffffffffffffffffffffffffffff1673ffffffffffffffffffffffffffffffffffffffff1681526020019081526020015f205f9054906101000a900460ff166116eb576040517f08c379a00000000000000000000000000000000000000000000000000000000081526004016116e2906125d0565b60405180910390fd5b5f73ffffffffffffffffffffffffffffffffffffffff168173ffffffffffffffffffffffffffffffffffffffff1603611759576040517f08c379a000000000000000000000000000000000000000000000000000000000815260040161175090612638565b60405180910390fd5b60055f8273ffffffffffffffffffffffffffffffffffffffff1673ffffffffffffffffffffffffffffffffffffffff1681526020019081526020015f205f9054906101000a900460ff16156117e3576040517f08c379a00000000000000000000000000000000000000000000000000000000081526004016117da90612b6b565b60405180910390fd5b60045f8273ffffffffffffffffffffffffffffffffffffffff1673ffffffffffffffffffffffffffffffffffffffff1681526020019081526020015f205f9054906101000a900460ff161561186d576040517f08c379a000000000000000000000000000000000000000000000000000000000815260040161186490612bf9565b60405180910390fd5b600160055f8373ffffffffffffffffffffffffffffffffffffffff1673ffffffffffffffffffffffffffffffffffffffff1681526020019081526020015f205f6101000a81548160ff0219169083151502179055508073ffffffffffffffffffffffffffffffffffffffff167f28a24a60e275c9be5babc23ecefd3240b1fcd56ef4d3fe4818437200b55ae5ff60016040516119099190611cb0565b60405180910390a250565b61191c611998565b5f73ffffffffffffffffffffffffffffffffffffffff168173ffffffffffffffffffffffffffffffffffffffff160361198c575f6040517f1e4fbdf70000000000000000000000000000000000000000000000000000000081526004016119839190611f4b565b60405180910390fd5b61199581611a1f565b50565b6119a0611ae0565b73ffffffffffffffffffffffffffffffffffffffff166119be610ee2565b73ffffffffffffffffffffffffffffffffffffffff1614611a1d576119e1611ae0565b6040517f118cdaa7000000000000000000000000000000000000000000000000000000008152600401611a149190611f4b565b60405180910390fd5b565b5f805f9054906101000a900473ffffffffffffffffffffffffffffffffffffffff169050815f806101000a81548173ffffffffffffffffffffffffffffffffffffffff021916908373ffffffffffffffffffffffffffffffffffffffff1602179055508173ffffffffffffffffffffffffffffffffffffffff168173ffffffffffffffffffffffffffffffffffffffff167f8be0079c531659141344cd1fd0a4f28419497f9722a3daafe3b4186f6b6457e060405160405180910390a35050565b5f33905090565b6040518060a0016040528060608152602001606081526020015f73ffffffffffffffffffffffffffffffffffffffff1681526020015f8152602001606081525090565b5f80fd5b5f80fd5b5f80fd5b5f80fd5b5f80fd5b5f8083601f840112611b5357611b52611b32565b5b8235905067ffffffffffffffff811115611b7057611b6f611b36565b5b602083019150836001820283011115611b8c57611b8b611b3a565b5b9250929050565b5f805f8060408587031215611bab57611baa611b2a565b5b5f85013567ffffffffffffffff811115611bc857611bc7611b2e565b5b611bd487828801611b3e565b9450945050602085013567ffffffffffffffff811115611bf757611bf6611b2e565b5b611c0387828801611b3e565b925092505092959194509250565b5f73ffffffffffffffffffffffffffffffffffffffff82169050919050565b5f611c3a82611c11565b9050919050565b611c4a81611c30565b8114611c54575f80fd5b50565b5f81359050611c6581611c41565b92915050565b5f60208284031215611c8057611c7f611b2a565b5b5f611c8d84828501611c57565b91505092915050565b5f8115159050919050565b611caa81611c96565b82525050565b5f602082019050611cc35f830184611ca1565b92915050565b5f819050919050565b611cdb81611cc9565b8114611ce5575f80fd5b50565b5f81359050611cf681611cd2565b92915050565b5f60208284031215611d1157611d10611b2a565b5b5f611d1e84828501611ce8565b91505092915050565b5f81519050919050565b5f82825260208201905092915050565b8281835e5f83830152505050565b5f601f19601f8301169050919050565b5f611d6982611d27565b611d738185611d31565b9350611d83818560208601611d41565b611d8c81611d4f565b840191505092915050565b611da081611c30565b82525050565b611daf81611cc9565b82525050565b5f81519050919050565b5f82825260208201905092915050565b5f819050602082019050919050565b5f611de98383611d97565b60208301905092915050565b5f602082019050919050565b5f611e0b82611db5565b611e158185611dbf565b9350611e2083611dcf565b805f5b83811015611e50578151611e378882611dde565b9750611e4283611df5565b925050600181019050611e23565b5085935050505092915050565b5f60a083015f8301518482035f860152611e778282611d5f565b91505060208301518482036020860152611e918282611d5f565b9150506040830151611ea66040860182611d97565b506060830151611eb96060860182611da6565b5060808301518482036080860152611ed18282611e01565b9150508091505092915050565b5f6020820190508181035f830152611ef68184611e5d565b905092915050565b5f8060408385031215611f1457611f13611b2a565b5b5f611f2185828601611ce8565b9250506020611f3285828601611c57565b9150509250929050565b611f4581611c30565b82525050565b5f602082019050611f5e5f830184611f3c565b92915050565b5f82825260208201905092915050565b5f611f7e82611db5565b611f888185611f64565b9350611f9383611dcf565b805f5b83811015611fc3578151611faa8882611dde565b9750611fb583611df5565b925050600181019050611f96565b5085935050505092915050565b5f6020820190508181035f830152611fe88184611f74565b905092915050565b5f82825260208201905092915050565b7f436f6d6d756e697479206e616d652063616e6e6f7420626520656d70747900005f82015250565b5f612034601e83611ff0565b915061203f82612000565b602082019050919050565b5f6020820190508181035f83015261206181612028565b9050919050565b7f436f6d6d756e697479206465736372697074696f6e2063616e6e6f74206265205f8201527f656d707479000000000000000000000000000000000000000000000000000000602082015250565b5f6120c2602583611ff0565b91506120cd82612068565b604082019050919050565b5f6020820190508181035f8301526120ef816120b6565b9050919050565b7f4f6e6c792072656769737465726564207573657273206f7220656e74697469655f8201527f732063616e2063726561746520636f6d6d756e69746965730000000000000000602082015250565b5f612150603883611ff0565b915061215b826120f6565b604082019050919050565b5f6020820190508181035f83015261217d81612144565b9050919050565b7f4e487b71000000000000000000000000000000000000000000000000000000005f52601160045260245ffd5b5f6121bb82611cc9565b91507fffffffffffffffffffffffffffffffffffffffffffffffffffffffffffffffff82036121ed576121ec612184565b5b600182019050919050565b5f82905092915050565b7f4e487b71000000000000000000000000000000000000000000000000000000005f52604160045260245ffd5b7f4e487b71000000000000000000000000000000000000000000000000000000005f52602260045260245ffd5b5f600282049050600182168061227357607f821691505b6020821081036122865761228561222f565b5b50919050565b5f819050815f5260205f209050919050565b5f6020601f8301049050919050565b5f82821b905092915050565b5f600883026122e87fffffffffffffffffffffffffffffffffffffffffffffffffffffffffffffffff826122ad565b6122f286836122ad565b95508019841693508086168417925050509392505050565b5f819050919050565b5f61232d61232861232384611cc9565b61230a565b611cc9565b9050919050565b5f819050919050565b61234683612313565b61235a61235282612334565b8484546122b9565b825550505050565b5f90565b61236e612362565b61237981848461233d565b505050565b5b8181101561239c576123915f82612366565b60018101905061237f565b5050565b601f8211156123e1576123b28161228c565b6123bb8461229e565b810160208510156123ca578190505b6123de6123d68561229e565b83018261237e565b50505b505050565b5f82821c905092915050565b5f6124015f19846008026123e6565b1980831691505092915050565b5f61241983836123f2565b9150826002028217905092915050565b61243383836121f8565b67ffffffffffffffff81111561244c5761244b612202565b5b612456825461225c565b6124618282856123a0565b5f601f83116001811461248e575f841561247c578287013590505b612486858261240e565b8655506124ed565b601f19841661249c8661228c565b5f5b828110156124c35784890135825560018201915060208501945060208101905061249e565b868310156124e057848901356124dc601f8916826123f2565b8355505b6001600288020188555050505b50505050505050565b828183375f83830152505050565b5f61250f8385611ff0565b935061251c8385846124f6565b61252583611d4f565b840190509392505050565b5f6040820190508181035f830152612549818587612504565b90506125586020830184611f3c565b949350505050565b7f4f6e6c79206167656e74732063616e20706572666f726d2074686973206163745f8201527f696f6e0000000000000000000000000000000000000000000000000000000000602082015250565b5f6125ba602383611ff0565b91506125c582612560565b604082019050919050565b5f6020820190508181035f8301526125e7816125ae565b9050919050565b7f43616e6e6f74207265676973746572207a65726f2061646472657373000000005f82015250565b5f612622601c83611ff0565b915061262d826125ee565b602082019050919050565b5f6020820190508181035f83015261264f81612616565b9050919050565b7f5573657220616c726561647920726567697374657265640000000000000000005f82015250565b5f61268a601783611ff0565b915061269582612656565b602082019050919050565b5f6020820190508181035f8301526126b78161267e565b9050919050565b7f4164647265737320616c7265616479207265676973746572656420617320656e5f8201527f7469747900000000000000000000000000000000000000000000000000000000602082015250565b5f612718602483611ff0565b9150612723826126be565b604082019050919050565b5f6020820190508181035f8301526127458161270c565b9050919050565b7f436f6d6d756e69747920646f6573206e6f7420657869737400000000000000005f82015250565b5f612780601883611ff0565b915061278b8261274c565b602082019050919050565b5f6020820190508181035f8301526127ad81612774565b9050919050565b7f4f6e6c79207468652063726561746f722063616e20616464206d656d626572735f82015250565b5f6127e8602083611ff0565b91506127f3826127b4565b602082019050919050565b5f6020820190508181035f830152612815816127dc565b9050919050565b7f4d656d626572206d7573742062652061207265676973746572656420757365725f82015250565b5f612850602083611ff0565b915061285b8261281c565b602082019050919050565b5f6020820190508181035f83015261287d81612844565b9050919050565b7f43616e6e6f7420616464207a65726f2061646472657373206173206167656e745f82015250565b5f6128b8602083611ff0565b91506128c382612884565b602082019050919050565b5f6020820190508181035f8301526128e5816128ac565b9050919050565b7f4164647265737320697320616c726561647920616e206167656e7400000000005f82015250565b5f612920601b83611ff0565b915061292b826128ec565b602082019050919050565b5f6020820190508181035f83015261294d81612914565b9050919050565b7f41646472657373206973206e6f7420616e206167656e740000000000000000005f82015250565b5f612988601783611ff0565b915061299382612954565b602082019050919050565b5f6020820190508181035f8301526129b58161297c565b9050919050565b7f43616e6e6f742072656d6f7665207a65726f20616464726573730000000000005f82015250565b5f6129f0601a83611ff0565b91506129fb826129bc565b602082019050919050565b5f6020820190508181035f830152612a1d816129e4565b9050919050565b7f55736572206e6f742072656769737465726564000000000000000000000000005f82015250565b5f612a58601383611ff0565b9150612a6382612a24565b602082019050919050565b5f6020820190508181035f830152612a8581612a4c565b9050919050565b7f456e74697479206e6f74207265676973746572656400000000000000000000005f82015250565b5f612ac0601583611ff0565b9150612acb82612a8c565b602082019050919050565b5f6020820190508181035f830152612aed81612ab4565b9050919050565b7f4e487b71000000000000000000000000000000000000000000000000000000005f52603260045260245ffd5b7f456e7469747920616c72656164792072656769737465726564000000000000005f82015250565b5f612b55601983611ff0565b9150612b6082612b21565b602082019050919050565b5f6020820190508181035f830152612b8281612b49565b9050919050565b7f4164647265737320616c726561647920726567697374657265642061732075735f8201527f6572000000000000000000000000000000000000000000000000000000000000602082015250565b5f612be3602283611ff0565b9150612bee82612b89565b604082019050919050565b5f6020820190508181035f830152612c1081612bd7565b905091905056fea2646970667358221220c7279e0cb53c778f8d1c04b440f014f78376cff0dc4e10edd92f0be99e50d04664736f6c634300081a0033",
					"opcodes": "PUSH1 0x80 PUSH1 0x40 MSTORE PUSH0 PUSH1 0x1 SSTORE CALLVALUE DUP1 ISZERO PUSH2 0x13 JUMPI PUSH0 DUP1 REVERT JUMPDEST POP CALLER PUSH0 PUSH20 0xFFFFFFFFFFFFFFFFFFFFFFFFFFFFFFFFFFFFFFFF AND DUP2 PUSH20 0xFFFFFFFFFFFFFFFFFFFFFFFFFFFFFFFFFFFFFFFF AND SUB PUSH2 0x85 JUMPI PUSH0 PUSH1 0x40 MLOAD PUSH32 0x1E4FBDF700000000000000000000000000000000000000000000000000000000 DUP2 MSTORE PUSH1 0x4 ADD PUSH2 0x7C SWAP2 SWAP1 PUSH2 0x19A JUMP JUMPDEST PUSH1 0x40 MLOAD DUP1 SWAP2 SUB SWAP1 REVERT JUMPDEST PUSH2 0x94 DUP2 PUSH2 0x9A PUSH1 0x20 SHL PUSH1 0x20 SHR JUMP JUMPDEST POP PUSH2 0x1B3 JUMP JUMPDEST PUSH0 DUP1 PUSH0 SWAP1 SLOAD SWAP1 PUSH2 0x100 EXP SWAP1 DIV PUSH20 0xFFFFFFFFFFFFFFFFFFFFFFFFFFFFFFFFFFFFFFFF AND SWAP1 POP DUP2 PUSH0 DUP1 PUSH2 0x100 EXP DUP2 SLOAD DUP2 PUSH20 0xFFFFFFFFFFFFFFFFFFFFFFFFFFFFFFFFFFFFFFFF MUL NOT AND SWAP1 DUP4 PUSH20 0xFFFFFFFFFFFFFFFFFFFFFFFFFFFFFFFFFFFFFFFF AND MUL OR SWAP1 SSTORE POP DUP2 PUSH20 0xFFFFFFFFFFFFFFFFFFFFFFFFFFFFFFFFFFFFFFFF AND DUP2 PUSH20 0xFFFFFFFFFFFFFFFFFFFFFFFFFFFFFFFFFFFFFFFF AND PUSH32 0x8BE0079C531659141344CD1FD0A4F28419497F9722A3DAAFE3B4186F6B6457E0 PUSH1 0x40 MLOAD PUSH1 0x40 MLOAD DUP1 SWAP2 SUB SWAP1 LOG3 POP POP JUMP JUMPDEST PUSH0 PUSH20 0xFFFFFFFFFFFFFFFFFFFFFFFFFFFFFFFFFFFFFFFF DUP3 AND SWAP1 POP SWAP2 SWAP1 POP JUMP JUMPDEST PUSH0 PUSH2 0x184 DUP3 PUSH2 0x15B JUMP JUMPDEST SWAP1 POP SWAP2 SWAP1 POP JUMP JUMPDEST PUSH2 0x194 DUP2 PUSH2 0x17A JUMP JUMPDEST DUP3 MSTORE POP POP JUMP JUMPDEST PUSH0 PUSH1 0x20 DUP3 ADD SWAP1 POP PUSH2 0x1AD PUSH0 DUP4 ADD DUP5 PUSH2 0x18B JUMP JUMPDEST SWAP3 SWAP2 POP POP JUMP JUMPDEST PUSH2 0x2C4D DUP1 PUSH2 0x1C0 PUSH0 CODECOPY PUSH0 RETURN INVALID PUSH1 0x80 PUSH1 0x40 MSTORE CALLVALUE DUP1 ISZERO PUSH2 0xF JUMPI PUSH0 DUP1 REVERT JUMPDEST POP PUSH1 0x4 CALLDATASIZE LT PUSH2 0xFE JUMPI PUSH0 CALLDATALOAD PUSH1 0xE0 SHR DUP1 PUSH4 0x8DA5CB5B GT PUSH2 0x95 JUMPI DUP1 PUSH4 0xDD182996 GT PUSH2 0x64 JUMPI DUP1 PUSH4 0xDD182996 EQ PUSH2 0x292 JUMPI DUP1 PUSH4 0xEAC3FDA4 EQ PUSH2 0x2AE JUMPI DUP1 PUSH4 0xEBB99431 EQ PUSH2 0x2CC JUMPI DUP1 PUSH4 0xF2FDE38B EQ PUSH2 0x2E8 JUMPI PUSH2 0xFE JUMP JUMPDEST DUP1 PUSH4 0x8DA5CB5B EQ PUSH2 0x20C JUMPI DUP1 PUSH4 0x97A6278E EQ PUSH2 0x22A JUMPI DUP1 PUSH4 0x98575188 EQ PUSH2 0x246 JUMPI DUP1 PUSH4 0xDAF60B71 EQ PUSH2 0x262 JUMPI PUSH2 0xFE JUMP JUMPDEST DUP1 PUSH4 0x370603F8 GT PUSH2 0xD1 JUMPI DUP1 PUSH4 0x370603F8 EQ PUSH2 0x19A JUMPI DUP1 PUSH4 0x715018A6 EQ PUSH2 0x1CA JUMPI DUP1 PUSH4 0x74D0A676 EQ PUSH2 0x1D4 JUMPI DUP1 PUSH4 0x84E79842 EQ PUSH2 0x1F0 JUMPI PUSH2 0xFE JUMP JUMPDEST DUP1 PUSH4 0x3B28C33 EQ PUSH2 0x102 JUMPI DUP1 PUSH4 0x1F5BDF5D EQ PUSH2 0x11E JUMPI DUP1 PUSH4 0x1FFBB064 EQ PUSH2 0x14E JUMPI DUP1 PUSH4 0x2199D5CD EQ PUSH2 0x17E JUMPI JUMPDEST PUSH0 DUP1 REVERT JUMPDEST PUSH2 0x11C PUSH1 0x4 DUP1 CALLDATASIZE SUB DUP2 ADD SWAP1 PUSH2 0x117 SWAP2 SWAP1 PUSH2 0x1B93 JUMP JUMPDEST PUSH2 0x304 JUMP JUMPDEST STOP JUMPDEST PUSH2 0x138 PUSH1 0x4 DUP1 CALLDATASIZE SUB DUP2 ADD SWAP1 PUSH2 0x133 SWAP2 SWAP1 PUSH2 0x1C6B JUMP JUMPDEST PUSH2 0x54B JUMP JUMPDEST PUSH1 0x40 MLOAD PUSH2 0x145 SWAP2 SWAP1 PUSH2 0x1CB0 JUMP JUMPDEST PUSH1 0x40 MLOAD DUP1 SWAP2 SUB SWAP1 RETURN JUMPDEST PUSH2 0x168 PUSH1 0x4 DUP1 CALLDATASIZE SUB DUP2 ADD SWAP1 PUSH2 0x163 SWAP2 SWAP1 PUSH2 0x1C6B JUMP JUMPDEST PUSH2 0x59D JUMP JUMPDEST PUSH1 0x40 MLOAD PUSH2 0x175 SWAP2 SWAP1 PUSH2 0x1CB0 JUMP JUMPDEST PUSH1 0x40 MLOAD DUP1 SWAP2 SUB SWAP1 RETURN JUMPDEST PUSH2 0x198 PUSH1 0x4 DUP1 CALLDATASIZE SUB DUP2 ADD SWAP1 PUSH2 0x193 SWAP2 SWAP1 PUSH2 0x1C6B JUMP JUMPDEST PUSH2 0x5EF JUMP JUMPDEST STOP JUMPDEST PUSH2 0x1B4 PUSH1 0x4 DUP1 CALLDATASIZE SUB DUP2 ADD SWAP1 PUSH2 0x1AF SWAP2 SWAP1 PUSH2 0x1CFC JUMP JUMPDEST PUSH2 0x8A0 JUMP JUMPDEST PUSH1 0x40 MLOAD PUSH2 0x1C1 SWAP2 SWAP1 PUSH2 0x1EDE JUMP JUMPDEST PUSH1 0x40 MLOAD DUP1 SWAP2 SUB SWAP1 RETURN JUMPDEST PUSH2 0x1D2 PUSH2 0xB18 JUMP JUMPDEST STOP JUMPDEST PUSH2 0x1EE PUSH1 0x4 DUP1 CALLDATASIZE SUB DUP2 ADD SWAP1 PUSH2 0x1E9 SWAP2 SWAP1 PUSH2 0x1EFE JUMP JUMPDEST PUSH2 0xB2B JUMP JUMPDEST STOP JUMPDEST PUSH2 0x20A PUSH1 0x4 DUP1 CALLDATASIZE SUB DUP2 ADD SWAP1 PUSH2 0x205 SWAP2 SWAP1 PUSH2 0x1C6B JUMP JUMPDEST PUSH2 0xD47 JUMP JUMPDEST STOP JUMPDEST PUSH2 0x214 PUSH2 0xEE2 JUMP JUMPDEST PUSH1 0x40 MLOAD PUSH2 0x221 SWAP2 SWAP1 PUSH2 0x1F4B JUMP JUMPDEST PUSH1 0x40 MLOAD DUP1 SWAP2 SUB SWAP1 RETURN JUMPDEST PUSH2 0x244 PUSH1 0x4 DUP1 CALLDATASIZE SUB DUP2 ADD SWAP1 PUSH2 0x23F SWAP2 SWAP1 PUSH2 0x1C6B JUMP JUMPDEST PUSH2 0xF09 JUMP JUMPDEST STOP JUMPDEST PUSH2 0x260 PUSH1 0x4 DUP1 CALLDATASIZE SUB DUP2 ADD SWAP1 PUSH2 0x25B SWAP2 SWAP1 PUSH2 0x1C6B JUMP JUMPDEST PUSH2 0x1034 JUMP JUMPDEST STOP JUMPDEST PUSH2 0x27C PUSH1 0x4 DUP1 CALLDATASIZE SUB DUP2 ADD SWAP1 PUSH2 0x277 SWAP2 SWAP1 PUSH2 0x1C6B JUMP JUMPDEST PUSH2 0x1259 JUMP JUMPDEST PUSH1 0x40 MLOAD PUSH2 0x289 SWAP2 SWAP1 PUSH2 0x1CB0 JUMP JUMPDEST PUSH1 0x40 MLOAD DUP1 SWAP2 SUB SWAP1 RETURN JUMPDEST PUSH2 0x2AC PUSH1 0x4 DUP1 CALLDATASIZE SUB DUP2 ADD SWAP1 PUSH2 0x2A7 SWAP2 SWAP1 PUSH2 0x1C6B JUMP JUMPDEST PUSH2 0x12AB JUMP JUMPDEST STOP JUMPDEST PUSH2 0x2B6 PUSH2 0x14D1 JUMP JUMPDEST PUSH1 0x40 MLOAD PUSH2 0x2C3 SWAP2 SWAP1 PUSH2 0x1FD0 JUMP JUMPDEST PUSH1 0x40 MLOAD DUP1 SWAP2 SUB SWAP1 RETURN JUMPDEST PUSH2 0x2E6 PUSH1 0x4 DUP1 CALLDATASIZE SUB DUP2 ADD SWAP1 PUSH2 0x2E1 SWAP2 SWAP1 PUSH2 0x1C6B JUMP JUMPDEST PUSH2 0x1662 JUMP JUMPDEST STOP JUMPDEST PUSH2 0x302 PUSH1 0x4 DUP1 CALLDATASIZE SUB DUP2 ADD SWAP1 PUSH2 0x2FD SWAP2 SWAP1 PUSH2 0x1C6B JUMP JUMPDEST PUSH2 0x1914 JUMP JUMPDEST STOP JUMPDEST PUSH0 DUP5 DUP5 SWAP1 POP GT PUSH2 0x349 JUMPI PUSH1 0x40 MLOAD PUSH32 0x8C379A000000000000000000000000000000000000000000000000000000000 DUP2 MSTORE PUSH1 0x4 ADD PUSH2 0x340 SWAP1 PUSH2 0x204A JUMP JUMPDEST PUSH1 0x40 MLOAD DUP1 SWAP2 SUB SWAP1 REVERT JUMPDEST PUSH0 DUP3 DUP3 SWAP1 POP GT PUSH2 0x38E JUMPI PUSH1 0x40 MLOAD PUSH32 0x8C379A000000000000000000000000000000000000000000000000000000000 DUP2 MSTORE PUSH1 0x4 ADD PUSH2 0x385 SWAP1 PUSH2 0x20D8 JUMP JUMPDEST PUSH1 0x40 MLOAD DUP1 SWAP2 SUB SWAP1 REVERT JUMPDEST PUSH1 0x4 PUSH0 CALLER PUSH20 0xFFFFFFFFFFFFFFFFFFFFFFFFFFFFFFFFFFFFFFFF AND PUSH20 0xFFFFFFFFFFFFFFFFFFFFFFFFFFFFFFFFFFFFFFFF AND DUP2 MSTORE PUSH1 0x20 ADD SWAP1 DUP2 MSTORE PUSH1 0x20 ADD PUSH0 KECCAK256 PUSH0 SWAP1 SLOAD SWAP1 PUSH2 0x100 EXP SWAP1 DIV PUSH1 0xFF AND DUP1 PUSH2 0x429 JUMPI POP PUSH1 0x5 PUSH0 CALLER PUSH20 0xFFFFFFFFFFFFFFFFFFFFFFFFFFFFFFFFFFFFFFFF AND PUSH20 0xFFFFFFFFFFFFFFFFFFFFFFFFFFFFFFFFFFFFFFFF AND DUP2 MSTORE PUSH1 0x20 ADD SWAP1 DUP2 MSTORE PUSH1 0x20 ADD PUSH0 KECCAK256 PUSH0 SWAP1 SLOAD SWAP1 PUSH2 0x100 EXP SWAP1 DIV PUSH1 0xFF AND JUMPDEST PUSH2 0x468 JUMPI PUSH1 0x40 MLOAD PUSH32 0x8C379A000000000000000000000000000000000000000000000000000000000 DUP2 MSTORE PUSH1 0x4 ADD PUSH2 0x45F SWAP1 PUSH2 0x2166 JUMP JUMPDEST PUSH1 0x40 MLOAD DUP1 SWAP2 SUB SWAP1 REVERT JUMPDEST PUSH0 PUSH1 0x1 PUSH0 DUP2 SLOAD DUP1 SWAP3 SWAP2 SWAP1 PUSH2 0x47B SWAP1 PUSH2 0x21B1 JUMP JUMPDEST SWAP2 SWAP1 POP SSTORE SWAP1 POP PUSH0 PUSH1 0x2 PUSH0 DUP4 DUP2 MSTORE PUSH1 0x20 ADD SWAP1 DUP2 MSTORE PUSH1 0x20 ADD PUSH0 KECCAK256 SWAP1 POP DUP6 DUP6 DUP3 PUSH0 ADD SWAP2 DUP3 PUSH2 0x4A7 SWAP3 SWAP2 SWAP1 PUSH2 0x2429 JUMP JUMPDEST POP DUP4 DUP4 DUP3 PUSH1 0x1 ADD SWAP2 DUP3 PUSH2 0x4BB SWAP3 SWAP2 SWAP1 PUSH2 0x2429 JUMP JUMPDEST POP CALLER DUP2 PUSH1 0x2 ADD PUSH0 PUSH2 0x100 EXP DUP2 SLOAD DUP2 PUSH20 0xFFFFFFFFFFFFFFFFFFFFFFFFFFFFFFFFFFFFFFFF MUL NOT AND SWAP1 DUP4 PUSH20 0xFFFFFFFFFFFFFFFFFFFFFFFFFFFFFFFFFFFFFFFF AND MUL OR SWAP1 SSTORE POP TIMESTAMP DUP2 PUSH1 0x3 ADD DUP2 SWAP1 SSTORE POP DUP2 PUSH32 0x4DF3410150BC135FB5A7782051351442AAA4DC2B49B9180723C871B74E0A2201 DUP8 DUP8 CALLER PUSH1 0x40 MLOAD PUSH2 0x53B SWAP4 SWAP3 SWAP2 SWAP1 PUSH2 0x2530 JUMP JUMPDEST PUSH1 0x40 MLOAD DUP1 SWAP2 SUB SWAP1 LOG2 POP POP POP POP POP POP JUMP JUMPDEST PUSH0 PUSH1 0x4 PUSH0 DUP4 PUSH20 0xFFFFFFFFFFFFFFFFFFFFFFFFFFFFFFFFFFFFFFFF AND PUSH20 0xFFFFFFFFFFFFFFFFFFFFFFFFFFFFFFFFFFFFFFFF AND DUP2 MSTORE PUSH1 0x20 ADD SWAP1 DUP2 MSTORE PUSH1 0x20 ADD PUSH0 KECCAK256 PUSH0 SWAP1 SLOAD SWAP1 PUSH2 0x100 EXP SWAP1 DIV PUSH1 0xFF AND SWAP1 POP SWAP2 SWAP1 POP JUMP JUMPDEST PUSH0 PUSH1 0x3 PUSH0 DUP4 PUSH20 0xFFFFFFFFFFFFFFFFFFFFFFFFFFFFFFFFFFFFFFFF AND PUSH20 0xFFFFFFFFFFFFFFFFFFFFFFFFFFFFFFFFFFFFFFFF AND DUP2 MSTORE PUSH1 0x20 ADD SWAP1 DUP2 MSTORE PUSH1 0x20 ADD PUSH0 KECCAK256 PUSH0 SWAP1 SLOAD SWAP1 PUSH2 0x100 EXP SWAP1 DIV PUSH1 0xFF AND SWAP1 POP SWAP2 SWAP1 POP JUMP JUMPDEST PUSH1 0x3 PUSH0 CALLER PUSH20 0xFFFFFFFFFFFFFFFFFFFFFFFFFFFFFFFFFFFFFFFF AND PUSH20 0xFFFFFFFFFFFFFFFFFFFFFFFFFFFFFFFFFFFFFFFF AND DUP2 MSTORE PUSH1 0x20 ADD SWAP1 DUP2 MSTORE PUSH1 0x20 ADD PUSH0 KECCAK256 PUSH0 SWAP1 SLOAD SWAP1 PUSH2 0x100 EXP SWAP1 DIV PUSH1 0xFF AND PUSH2 0x678 JUMPI PUSH1 0x40 MLOAD PUSH32 0x8C379A000000000000000000000000000000000000000000000000000000000 DUP2 MSTORE PUSH1 0x4 ADD PUSH2 0x66F SWAP1 PUSH2 0x25D0 JUMP JUMPDEST PUSH1 0x40 MLOAD DUP1 SWAP2 SUB SWAP1 REVERT JUMPDEST PUSH0 PUSH20 0xFFFFFFFFFFFFFFFFFFFFFFFFFFFFFFFFFFFFFFFF AND DUP2 PUSH20 0xFFFFFFFFFFFFFFFFFFFFFFFFFFFFFFFFFFFFFFFF AND SUB PUSH2 0x6E6 JUMPI PUSH1 0x40 MLOAD PUSH32 0x8C379A000000000000000000000000000000000000000000000000000000000 DUP2 MSTORE PUSH1 0x4 ADD PUSH2 0x6DD SWAP1 PUSH2 0x2638 JUMP JUMPDEST PUSH1 0x40 MLOAD DUP1 SWAP2 SUB SWAP1 REVERT JUMPDEST PUSH1 0x4 PUSH0 DUP3 PUSH20 0xFFFFFFFFFFFFFFFFFFFFFFFFFFFFFFFFFFFFFFFF AND PUSH20 0xFFFFFFFFFFFFFFFFFFFFFFFFFFFFFFFFFFFFFFFF AND DUP2 MSTORE PUSH1 0x20 ADD SWAP1 DUP2 MSTORE PUSH1 0x20 ADD PUSH0 KECCAK256 PUSH0 SWAP1 SLOAD SWAP1 PUSH2 0x100 EXP SWAP1 DIV PUSH1 0xFF AND ISZERO PUSH2 0x770 JUMPI PUSH1 0x40 MLOAD PUSH32 0x8C379A000000000000000000000000000000000000000000000000000000000 DUP2 MSTORE PUSH1 0x4 ADD PUSH2 0x767 SWAP1 PUSH2 0x26A0 JUMP JUMPDEST PUSH1 0x40 MLOAD DUP1 SWAP2 SUB SWAP1 REVERT JUMPDEST PUSH1 0x5 PUSH0 DUP3 PUSH20 0xFFFFFFFFFFFFFFFFFFFFFFFFFFFFFFFFFFFFFFFF AND PUSH20 0xFFFFFFFFFFFFFFFFFFFFFFFFFFFFFFFFFFFFFFFF AND DUP2 MSTORE PUSH1 0x20 ADD SWAP1 DUP2 MSTORE PUSH1 0x20 ADD PUSH0 KECCAK256 PUSH0 SWAP1 SLOAD SWAP1 PUSH2 0x100 EXP SWAP1 DIV PUSH1 0xFF AND ISZERO PUSH2 0x7FA JUMPI PUSH1 0x40 MLOAD PUSH32 0x8C379A000000000000000000000000000000000000000000000000000000000 DUP2 MSTORE PUSH1 0x4 ADD PUSH2 0x7F1 SWAP1 PUSH2 0x272E JUMP JUMPDEST PUSH1 0x40 MLOAD DUP1 SWAP2 SUB SWAP1 REVERT JUMPDEST PUSH1 0x1 PUSH1 0x4 PUSH0 DUP4 PUSH20 0xFFFFFFFFFFFFFFFFFFFFFFFFFFFFFFFFFFFFFFFF AND PUSH20 0xFFFFFFFFFFFFFFFFFFFFFFFFFFFFFFFFFFFFFFFF AND DUP2 MSTORE PUSH1 0x20 ADD SWAP1 DUP2 MSTORE PUSH1 0x20 ADD PUSH0 KECCAK256 PUSH0 PUSH2 0x100 EXP DUP2 SLOAD DUP2 PUSH1 0xFF MUL NOT AND SWAP1 DUP4 ISZERO ISZERO MUL OR SWAP1 SSTORE POP DUP1 PUSH20 0xFFFFFFFFFFFFFFFFFFFFFFFFFFFFFFFFFFFFFFFF AND PUSH32 0x28A24A60E275C9BE5BABC23ECEFD3240B1FCD56EF4D3FE4818437200B55AE5FF PUSH0 PUSH1 0x40 MLOAD PUSH2 0x895 SWAP2 SWAP1 PUSH2 0x1CB0 JUMP JUMPDEST PUSH1 0x40 MLOAD DUP1 SWAP2 SUB SWAP1 LOG2 POP JUMP JUMPDEST PUSH2 0x8A8 PUSH2 0x1AE7 JUMP JUMPDEST PUSH1 0x1 SLOAD DUP3 LT PUSH2 0x8EC JUMPI PUSH1 0x40 MLOAD PUSH32 0x8C379A000000000000000000000000000000000000000000000000000000000 DUP2 MSTORE PUSH1 0x4 ADD PUSH2 0x8E3 SWAP1 PUSH2 0x2796 JUMP JUMPDEST PUSH1 0x40 MLOAD DUP1 SWAP2 SUB SWAP1 REVERT JUMPDEST PUSH1 0x2 PUSH0 DUP4 DUP2 MSTORE PUSH1 0x20 ADD SWAP1 DUP2 MSTORE PUSH1 0x20 ADD PUSH0 KECCAK256 PUSH1 0x40 MLOAD DUP1 PUSH1 0xA0 ADD PUSH1 0x40 MSTORE SWAP1 DUP2 PUSH0 DUP3 ADD DUP1 SLOAD PUSH2 0x917 SWAP1 PUSH2 0x225C JUMP JUMPDEST DUP1 PUSH1 0x1F ADD PUSH1 0x20 DUP1 SWAP2 DIV MUL PUSH1 0x20 ADD PUSH1 0x40 MLOAD SWAP1 DUP2 ADD PUSH1 0x40 MSTORE DUP1 SWAP3 SWAP2 SWAP1 DUP2 DUP2 MSTORE PUSH1 0x20 ADD DUP3 DUP1 SLOAD PUSH2 0x943 SWAP1 PUSH2 0x225C JUMP JUMPDEST DUP1 ISZERO PUSH2 0x98E JUMPI DUP1 PUSH1 0x1F LT PUSH2 0x965 JUMPI PUSH2 0x100 DUP1 DUP4 SLOAD DIV MUL DUP4 MSTORE SWAP2 PUSH1 0x20 ADD SWAP2 PUSH2 0x98E JUMP JUMPDEST DUP3 ADD SWAP2 SWAP1 PUSH0 MSTORE PUSH1 0x20 PUSH0 KECCAK256 SWAP1 JUMPDEST DUP2 SLOAD DUP2 MSTORE SWAP1 PUSH1 0x1 ADD SWAP1 PUSH1 0x20 ADD DUP1 DUP4 GT PUSH2 0x971 JUMPI DUP3 SWAP1 SUB PUSH1 0x1F AND DUP3 ADD SWAP2 JUMPDEST POP POP POP POP POP DUP2 MSTORE PUSH1 0x20 ADD PUSH1 0x1 DUP3 ADD DUP1 SLOAD PUSH2 0x9A7 SWAP1 PUSH2 0x225C JUMP JUMPDEST DUP1 PUSH1 0x1F ADD PUSH1 0x20 DUP1 SWAP2 DIV MUL PUSH1 0x20 ADD PUSH1 0x40 MLOAD SWAP1 DUP2 ADD PUSH1 0x40 MSTORE DUP1 SWAP3 SWAP2 SWAP1 DUP2 DUP2 MSTORE PUSH1 0x20 ADD DUP3 DUP1 SLOAD PUSH2 0x9D3 SWAP1 PUSH2 0x225C JUMP JUMPDEST DUP1 ISZERO PUSH2 0xA1E JUMPI DUP1 PUSH1 0x1F LT PUSH2 0x9F5 JUMPI PUSH2 0x100 DUP1 DUP4 SLOAD DIV MUL DUP4 MSTORE SWAP2 PUSH1 0x20 ADD SWAP2 PUSH2 0xA1E JUMP JUMPDEST DUP3 ADD SWAP2 SWAP1 PUSH0 MSTORE PUSH1 0x20 PUSH0 KECCAK256 SWAP1 JUMPDEST DUP2 SLOAD DUP2 MSTORE SWAP1 PUSH1 0x1 ADD SWAP1 PUSH1 0x20 ADD DUP1 DUP4 GT PUSH2 0xA01 JUMPI DUP3 SWAP1 SUB PUSH1 0x1F AND DUP3 ADD SWAP2 JUMPDEST POP POP POP POP POP DUP2 MSTORE PUSH1 0x20 ADD PUSH1 0x2 DUP3 ADD PUSH0 SWAP1 SLOAD SWAP1 PUSH2 0x100 EXP SWAP1 DIV PUSH20 0xFFFFFFFFFFFFFFFFFFFFFFFFFFFFFFFFFFFFFFFF AND PUSH20 0xFFFFFFFFFFFFFFFFFFFFFFFFFFFFFFFFFFFFFFFF AND PUSH20 0xFFFFFFFFFFFFFFFFFFFFFFFFFFFFFFFFFFFFFFFF AND DUP2 MSTORE PUSH1 0x20 ADD PUSH1 0x3 DUP3 ADD SLOAD DUP2 MSTORE PUSH1 0x20 ADD PUSH1 0x4 DUP3 ADD DUP1 SLOAD DUP1 PUSH1 0x20 MUL PUSH1 0x20 ADD PUSH1 0x40 MLOAD SWAP1 DUP2 ADD PUSH1 0x40 MSTORE DUP1 SWAP3 SWAP2 SWAP1 DUP2 DUP2 MSTORE PUSH1 0x20 ADD DUP3 DUP1 SLOAD DUP1 ISZERO PUSH2 0xB08 JUMPI PUSH1 0x20 MUL DUP3 ADD SWAP2 SWAP1 PUSH0 MSTORE PUSH1 0x20 PUSH0 KECCAK256 SWAP1 JUMPDEST DUP2 PUSH0 SWAP1 SLOAD SWAP1 PUSH2 0x100 EXP SWAP1 DIV PUSH20 0xFFFFFFFFFFFFFFFFFFFFFFFFFFFFFFFFFFFFFFFF AND PUSH20 0xFFFFFFFFFFFFFFFFFFFFFFFFFFFFFFFFFFFFFFFF AND DUP2 MSTORE PUSH1 0x20 ADD SWAP1 PUSH1 0x1 ADD SWAP1 DUP1 DUP4 GT PUSH2 0xABF JUMPI JUMPDEST POP POP POP POP POP DUP2 MSTORE POP POP SWAP1 POP SWAP2 SWAP1 POP JUMP JUMPDEST PUSH2 0xB20 PUSH2 0x1998 JUMP JUMPDEST PUSH2 0xB29 PUSH0 PUSH2 0x1A1F JUMP JUMPDEST JUMP JUMPDEST PUSH1 0x1 SLOAD DUP3 LT PUSH2 0xB6F JUMPI PUSH1 0x40 MLOAD PUSH32 0x8C379A000000000000000000000000000000000000000000000000000000000 DUP2 MSTORE PUSH1 0x4 ADD PUSH2 0xB66 SWAP1 PUSH2 0x2796 JUMP JUMPDEST PUSH1 0x40 MLOAD DUP1 SWAP2 SUB SWAP1 REVERT JUMPDEST PUSH1 0x2 PUSH0 DUP4 DUP2 MSTORE PUSH1 0x20 ADD SWAP1 DUP2 MSTORE PUSH1 0x20 ADD PUSH0 KECCAK256 PUSH1 0x2 ADD PUSH0 SWAP1 SLOAD SWAP1 PUSH2 0x100 EXP SWAP1 DIV PUSH20 0xFFFFFFFFFFFFFFFFFFFFFFFFFFFFFFFFFFFFFFFF AND PUSH20 0xFFFFFFFFFFFFFFFFFFFFFFFFFFFFFFFFFFFFFFFF AND CALLER PUSH20 0xFFFFFFFFFFFFFFFFFFFFFFFFFFFFFFFFFFFFFFFF AND EQ PUSH2 0xC10 JUMPI PUSH1 0x40 MLOAD PUSH32 0x8C379A000000000000000000000000000000000000000000000000000000000 DUP2 MSTORE PUSH1 0x4 ADD PUSH2 0xC07 SWAP1 PUSH2 0x27FE JUMP JUMPDEST PUSH1 0x40 MLOAD DUP1 SWAP2 SUB SWAP1 REVERT JUMPDEST PUSH1 0x4 PUSH0 DUP3 PUSH20 0xFFFFFFFFFFFFFFFFFFFFFFFFFFFFFFFFFFFFFFFF AND PUSH20 0xFFFFFFFFFFFFFFFFFFFFFFFFFFFFFFFFFFFFFFFF AND DUP2 MSTORE PUSH1 0x20 ADD SWAP1 DUP2 MSTORE PUSH1 0x20 ADD PUSH0 KECCAK256 PUSH0 SWAP1 SLOAD SWAP1 PUSH2 0x100 EXP SWAP1 DIV PUSH1 0xFF AND PUSH2 0xC99 JUMPI PUSH1 0x40 MLOAD PUSH32 0x8C379A000000000000000000000000000000000000000000000000000000000 DUP2 MSTORE PUSH1 0x4 ADD PUSH2 0xC90 SWAP1 PUSH2 0x2866 JUMP JUMPDEST PUSH1 0x40 MLOAD DUP1 SWAP2 SUB SWAP1 REVERT JUMPDEST PUSH1 0x2 PUSH0 DUP4 DUP2 MSTORE PUSH1 0x20 ADD SWAP1 DUP2 MSTORE PUSH1 0x20 ADD PUSH0 KECCAK256 PUSH1 0x4 ADD DUP2 SWAP1 DUP1 PUSH1 0x1 DUP2 SLOAD ADD DUP1 DUP3 SSTORE DUP1 SWAP2 POP POP PUSH1 0x1 SWAP1 SUB SWAP1 PUSH0 MSTORE PUSH1 0x20 PUSH0 KECCAK256 ADD PUSH0 SWAP1 SWAP2 SWAP1 SWAP2 SWAP1 SWAP2 PUSH2 0x100 EXP DUP2 SLOAD DUP2 PUSH20 0xFFFFFFFFFFFFFFFFFFFFFFFFFFFFFFFFFFFFFFFF MUL NOT AND SWAP1 DUP4 PUSH20 0xFFFFFFFFFFFFFFFFFFFFFFFFFFFFFFFFFFFFFFFF AND MUL OR SWAP1 SSTORE POP DUP2 PUSH32 0xF328AC0F8BCAE00933FE87BA0AA2D0D505C1DF94BC9C1AA05B8441C28B74032C DUP3 PUSH1 0x40 MLOAD PUSH2 0xD3B SWAP2 SWAP1 PUSH2 0x1F4B JUMP JUMPDEST PUSH1 0x40 MLOAD DUP1 SWAP2 SUB SWAP1 LOG2 POP POP JUMP JUMPDEST PUSH2 0xD4F PUSH2 0x1998 JUMP JUMPDEST PUSH0 PUSH20 0xFFFFFFFFFFFFFFFFFFFFFFFFFFFFFFFFFFFFFFFF AND DUP2 PUSH20 0xFFFFFFFFFFFFFFFFFFFFFFFFFFFFFFFFFFFFFFFF AND SUB PUSH2 0xDBD JUMPI PUSH1 0x40 MLOAD PUSH32 0x8C379A000000000000000000000000000000000000000000000000000000000 DUP2 MSTORE PUSH1 0x4 ADD PUSH2 0xDB4 SWAP1 PUSH2 0x28CE JUMP JUMPDEST PUSH1 0x40 MLOAD DUP1 SWAP2 SUB SWAP1 REVERT JUMPDEST PUSH1 0x3 PUSH0 DUP3 PUSH20 0xFFFFFFFFFFFFFFFFFFFFFFFFFFFFFFFFFFFFFFFF AND PUSH20 0xFFFFFFFFFFFFFFFFFFFFFFFFFFFFFFFFFFFFFFFF AND DUP2 MSTORE PUSH1 0x20 ADD SWAP1 DUP2 MSTORE PUSH1 0x20 ADD PUSH0 KECCAK256 PUSH0 SWAP1 SLOAD SWAP1 PUSH2 0x100 EXP SWAP1 DIV PUSH1 0xFF AND ISZERO PUSH2 0xE47 JUMPI PUSH1 0x40 MLOAD PUSH32 0x8C379A000000000000000000000000000000000000000000000000000000000 DUP2 MSTORE PUSH1 0x4 ADD PUSH2 0xE3E SWAP1 PUSH2 0x2936 JUMP JUMPDEST PUSH1 0x40 MLOAD DUP1 SWAP2 SUB SWAP1 REVERT JUMPDEST PUSH1 0x1 PUSH1 0x3 PUSH0 DUP4 PUSH20 0xFFFFFFFFFFFFFFFFFFFFFFFFFFFFFFFFFFFFFFFF AND PUSH20 0xFFFFFFFFFFFFFFFFFFFFFFFFFFFFFFFFFFFFFFFF AND DUP2 MSTORE PUSH1 0x20 ADD SWAP1 DUP2 MSTORE PUSH1 0x20 ADD PUSH0 KECCAK256 PUSH0 PUSH2 0x100 EXP DUP2 SLOAD DUP2 PUSH1 0xFF MUL NOT AND SWAP1 DUP4 ISZERO ISZERO MUL OR SWAP1 SSTORE POP DUP1 PUSH20 0xFFFFFFFFFFFFFFFFFFFFFFFFFFFFFFFFFFFFFFFF AND PUSH32 0xF68E73CEC97F2D70AA641FB26E87A4383686E2EFACB648F2165AEB02AC562EC5 PUSH1 0x40 MLOAD PUSH1 0x40 MLOAD DUP1 SWAP2 SUB SWAP1 LOG2 POP JUMP JUMPDEST PUSH0 DUP1 PUSH0 SWAP1 SLOAD SWAP1 PUSH2 0x100 EXP SWAP1 DIV PUSH20 0xFFFFFFFFFFFFFFFFFFFFFFFFFFFFFFFFFFFFFFFF AND SWAP1 POP SWAP1 JUMP JUMPDEST PUSH2 0xF11 PUSH2 0x1998 JUMP JUMPDEST PUSH1 0x3 PUSH0 DUP3 PUSH20 0xFFFFFFFFFFFFFFFFFFFFFFFFFFFFFFFFFFFFFFFF AND PUSH20 0xFFFFFFFFFFFFFFFFFFFFFFFFFFFFFFFFFFFFFFFF AND DUP2 MSTORE PUSH1 0x20 ADD SWAP1 DUP2 MSTORE PUSH1 0x20 ADD PUSH0 KECCAK256 PUSH0 SWAP1 SLOAD SWAP1 PUSH2 0x100 EXP SWAP1 DIV PUSH1 0xFF AND PUSH2 0xF9A JUMPI PUSH1 0x40 MLOAD PUSH32 0x8C379A000000000000000000000000000000000000000000000000000000000 DUP2 MSTORE PUSH1 0x4 ADD PUSH2 0xF91 SWAP1 PUSH2 0x299E JUMP JUMPDEST PUSH1 0x40 MLOAD DUP1 SWAP2 SUB SWAP1 REVERT JUMPDEST PUSH0 PUSH1 0x3 PUSH0 DUP4 PUSH20 0xFFFFFFFFFFFFFFFFFFFFFFFFFFFFFFFFFFFFFFFF AND PUSH20 0xFFFFFFFFFFFFFFFFFFFFFFFFFFFFFFFFFFFFFFFF AND DUP2 MSTORE PUSH1 0x20 ADD SWAP1 DUP2 MSTORE PUSH1 0x20 ADD PUSH0 KECCAK256 PUSH0 PUSH2 0x100 EXP DUP2 SLOAD DUP2 PUSH1 0xFF MUL NOT AND SWAP1 DUP4 ISZERO ISZERO MUL OR SWAP1 SSTORE POP DUP1 PUSH20 0xFFFFFFFFFFFFFFFFFFFFFFFFFFFFFFFFFFFFFFFF AND PUSH32 0xED9C8AD8D5A0A66898EA49D2956929C93AE2E8BD50281B2ED897C5D1A6737E0B PUSH1 0x40 MLOAD PUSH1 0x40 MLOAD DUP1 SWAP2 SUB SWAP1 LOG2 POP JUMP JUMPDEST PUSH1 0x3 PUSH0 CALLER PUSH20 0xFFFFFFFFFFFFFFFFFFFFFFFFFFFFFFFFFFFFFFFF AND PUSH20 0xFFFFFFFFFFFFFFFFFFFFFFFFFFFFFFFFFFFFFFFF AND DUP2 MSTORE PUSH1 0x20 ADD SWAP1 DUP2 MSTORE PUSH1 0x20 ADD PUSH0 KECCAK256 PUSH0 SWAP1 SLOAD SWAP1 PUSH2 0x100 EXP SWAP1 DIV PUSH1 0xFF AND PUSH2 0x10BD JUMPI PUSH1 0x40 MLOAD PUSH32 0x8C379A000000000000000000000000000000000000000000000000000000000 DUP2 MSTORE PUSH1 0x4 ADD PUSH2 0x10B4 SWAP1 PUSH2 0x25D0 JUMP JUMPDEST PUSH1 0x40 MLOAD DUP1 SWAP2 SUB SWAP1 REVERT JUMPDEST PUSH0 PUSH20 0xFFFFFFFFFFFFFFFFFFFFFFFFFFFFFFFFFFFFFFFF AND DUP2 PUSH20 0xFFFFFFFFFFFFFFFFFFFFFFFFFFFFFFFFFFFFFFFF AND SUB PUSH2 0x112B JUMPI PUSH1 0x40 MLOAD PUSH32 0x8C379A000000000000000000000000000000000000000000000000000000000 DUP2 MSTORE PUSH1 0x4 ADD PUSH2 0x1122 SWAP1 PUSH2 0x2A06 JUMP JUMPDEST PUSH1 0x40 MLOAD DUP1 SWAP2 SUB SWAP1 REVERT JUMPDEST PUSH1 0x4 PUSH0 DUP3 PUSH20 0xFFFFFFFFFFFFFFFFFFFFFFFFFFFFFFFFFFFFFFFF AND PUSH20 0xFFFFFFFFFFFFFFFFFFFFFFFFFFFFFFFFFFFFFFFF AND DUP2 MSTORE PUSH1 0x20 ADD SWAP1 DUP2 MSTORE PUSH1 0x20 ADD PUSH0 KECCAK256 PUSH0 SWAP1 SLOAD SWAP1 PUSH2 0x100 EXP SWAP1 DIV PUSH1 0xFF AND PUSH2 0x11B4 JUMPI PUSH1 0x40 MLOAD PUSH32 0x8C379A000000000000000000000000000000000000000000000000000000000 DUP2 MSTORE PUSH1 0x4 ADD PUSH2 0x11AB SWAP1 PUSH2 0x2A6E JUMP JUMPDEST PUSH1 0x40 MLOAD DUP1 SWAP2 SUB SWAP1 REVERT JUMPDEST PUSH0 PUSH1 0x4 PUSH0 DUP4 PUSH20 0xFFFFFFFFFFFFFFFFFFFFFFFFFFFFFFFFFFFFFFFF AND PUSH20 0xFFFFFFFFFFFFFFFFFFFFFFFFFFFFFFFFFFFFFFFF AND DUP2 MSTORE PUSH1 0x20 ADD SWAP1 DUP2 MSTORE PUSH1 0x20 ADD PUSH0 KECCAK256 PUSH0 PUSH2 0x100 EXP DUP2 SLOAD DUP2 PUSH1 0xFF MUL NOT AND SWAP1 DUP4 ISZERO ISZERO MUL OR SWAP1 SSTORE POP DUP1 PUSH20 0xFFFFFFFFFFFFFFFFFFFFFFFFFFFFFFFFFFFFFFFF AND PUSH32 0x57FFEDA2CCA1356C20C3F388D439E7EE49A825F846A911F8981726BEA201188F PUSH0 PUSH1 0x40 MLOAD PUSH2 0x124E SWAP2 SWAP1 PUSH2 0x1CB0 JUMP JUMPDEST PUSH1 0x40 MLOAD DUP1 SWAP2 SUB SWAP1 LOG2 POP JUMP JUMPDEST PUSH0 PUSH1 0x5 PUSH0 DUP4 PUSH20 0xFFFFFFFFFFFFFFFFFFFFFFFFFFFFFFFFFFFFFFFF AND PUSH20 0xFFFFFFFFFFFFFFFFFFFFFFFFFFFFFFFFFFFFFFFF AND DUP2 MSTORE PUSH1 0x20 ADD SWAP1 DUP2 MSTORE PUSH1 0x20 ADD PUSH0 KECCAK256 PUSH0 SWAP1 SLOAD SWAP1 PUSH2 0x100 EXP SWAP1 DIV PUSH1 0xFF AND SWAP1 POP SWAP2 SWAP1 POP JUMP JUMPDEST PUSH1 0x3 PUSH0 CALLER PUSH20 0xFFFFFFFFFFFFFFFFFFFFFFFFFFFFFFFFFFFFFFFF AND PUSH20 0xFFFFFFFFFFFFFFFFFFFFFFFFFFFFFFFFFFFFFFFF AND DUP2 MSTORE PUSH1 0x20 ADD SWAP1 DUP2 MSTORE PUSH1 0x20 ADD PUSH0 KECCAK256 PUSH0 SWAP1 SLOAD SWAP1 PUSH2 0x100 EXP SWAP1 DIV PUSH1 0xFF AND PUSH2 0x1334 JUMPI PUSH1 0x40 MLOAD PUSH32 0x8C379A000000000000000000000000000000000000000000000000000000000 DUP2 MSTORE PUSH1 0x4 ADD PUSH2 0x132B SWAP1 PUSH2 0x25D0 JUMP JUMPDEST PUSH1 0x40 MLOAD DUP1 SWAP2 SUB SWAP1 REVERT JUMPDEST PUSH0 PUSH20 0xFFFFFFFFFFFFFFFFFFFFFFFFFFFFFFFFFFFFFFFF AND DUP2 PUSH20 0xFFFFFFFFFFFFFFFFFFFFFFFFFFFFFFFFFFFFFFFF AND SUB PUSH2 0x13A2 JUMPI PUSH1 0x40 MLOAD PUSH32 0x8C379A000000000000000000000000000000000000000000000000000000000 DUP2 MSTORE PUSH1 0x4 ADD PUSH2 0x1399 SWAP1 PUSH2 0x2A06 JUMP JUMPDEST PUSH1 0x40 MLOAD DUP1 SWAP2 SUB SWAP1 REVERT JUMPDEST PUSH1 0x5 PUSH0 DUP3 PUSH20 0xFFFFFFFFFFFFFFFFFFFFFFFFFFFFFFFFFFFFFFFF AND PUSH20 0xFFFFFFFFFFFFFFFFFFFFFFFFFFFFFFFFFFFFFFFF AND DUP2 MSTORE PUSH1 0x20 ADD SWAP1 DUP2 MSTORE PUSH1 0x20 ADD PUSH0 KECCAK256 PUSH0 SWAP1 SLOAD SWAP1 PUSH2 0x100 EXP SWAP1 DIV PUSH1 0xFF AND PUSH2 0x142B JUMPI PUSH1 0x40 MLOAD PUSH32 0x8C379A000000000000000000000000000000000000000000000000000000000 DUP2 MSTORE PUSH1 0x4 ADD PUSH2 0x1422 SWAP1 PUSH2 0x2AD6 JUMP JUMPDEST PUSH1 0x40 MLOAD DUP1 SWAP2 SUB SWAP1 REVERT JUMPDEST PUSH0 PUSH1 0x5 PUSH0 DUP4 PUSH20 0xFFFFFFFFFFFFFFFFFFFFFFFFFFFFFFFFFFFFFFFF AND PUSH20 0xFFFFFFFFFFFFFFFFFFFFFFFFFFFFFFFFFFFFFFFF AND DUP2 MSTORE PUSH1 0x20 ADD SWAP1 DUP2 MSTORE PUSH1 0x20 ADD PUSH0 KECCAK256 PUSH0 PUSH2 0x100 EXP DUP2 SLOAD DUP2 PUSH1 0xFF MUL NOT AND SWAP1 DUP4 ISZERO ISZERO MUL OR SWAP1 SSTORE POP DUP1 PUSH20 0xFFFFFFFFFFFFFFFFFFFFFFFFFFFFFFFFFFFFFFFF AND PUSH32 0x57FFEDA2CCA1356C20C3F388D439E7EE49A825F846A911F8981726BEA201188F PUSH1 0x1 PUSH1 0x40 MLOAD PUSH2 0x14C6 SWAP2 SWAP1 PUSH2 0x1CB0 JUMP JUMPDEST PUSH1 0x40 MLOAD DUP1 SWAP2 SUB SWAP1 LOG2 POP JUMP JUMPDEST PUSH1 0x60 PUSH0 DUP1 JUMPDEST NUMBER DUP2 LT ISZERO PUSH2 0x1549 JUMPI PUSH1 0x3 PUSH0 DUP3 PUSH20 0xFFFFFFFFFFFFFFFFFFFFFFFFFFFFFFFFFFFFFFFF AND PUSH20 0xFFFFFFFFFFFFFFFFFFFFFFFFFFFFFFFFFFFFFFFF AND DUP2 MSTORE PUSH1 0x20 ADD SWAP1 DUP2 MSTORE PUSH1 0x20 ADD PUSH0 KECCAK256 PUSH0 SWAP1 SLOAD SWAP1 PUSH2 0x100 EXP SWAP1 DIV PUSH1 0xFF AND ISZERO PUSH2 0x153C JUMPI DUP2 DUP1 PUSH2 0x1538 SWAP1 PUSH2 0x21B1 JUMP JUMPDEST SWAP3 POP POP JUMPDEST DUP1 DUP1 PUSH1 0x1 ADD SWAP2 POP POP PUSH2 0x14D6 JUMP JUMPDEST POP PUSH0 DUP2 PUSH8 0xFFFFFFFFFFFFFFFF DUP2 GT ISZERO PUSH2 0x1565 JUMPI PUSH2 0x1564 PUSH2 0x2202 JUMP JUMPDEST JUMPDEST PUSH1 0x40 MLOAD SWAP1 DUP1 DUP3 MSTORE DUP1 PUSH1 0x20 MUL PUSH1 0x20 ADD DUP3 ADD PUSH1 0x40 MSTORE DUP1 ISZERO PUSH2 0x1593 JUMPI DUP2 PUSH1 0x20 ADD PUSH1 0x20 DUP3 MUL DUP1 CALLDATASIZE DUP4 CALLDATACOPY DUP1 DUP3 ADD SWAP2 POP POP SWAP1 POP JUMPDEST POP SWAP1 POP PUSH0 DUP1 JUMPDEST NUMBER DUP2 LT ISZERO PUSH2 0x1658 JUMPI PUSH1 0x3 PUSH0 DUP3 PUSH20 0xFFFFFFFFFFFFFFFFFFFFFFFFFFFFFFFFFFFFFFFF AND PUSH20 0xFFFFFFFFFFFFFFFFFFFFFFFFFFFFFFFFFFFFFFFF AND DUP2 MSTORE PUSH1 0x20 ADD SWAP1 DUP2 MSTORE PUSH1 0x20 ADD PUSH0 KECCAK256 PUSH0 SWAP1 SLOAD SWAP1 PUSH2 0x100 EXP SWAP1 DIV PUSH1 0xFF AND ISZERO PUSH2 0x164B JUMPI DUP1 DUP4 DUP4 DUP1 PUSH2 0x15FD SWAP1 PUSH2 0x21B1 JUMP JUMPDEST SWAP5 POP DUP2 MLOAD DUP2 LT PUSH2 0x1610 JUMPI PUSH2 0x160F PUSH2 0x2AF4 JUMP JUMPDEST JUMPDEST PUSH1 0x20 MUL PUSH1 0x20 ADD ADD SWAP1 PUSH20 0xFFFFFFFFFFFFFFFFFFFFFFFFFFFFFFFFFFFFFFFF AND SWAP1 DUP2 PUSH20 0xFFFFFFFFFFFFFFFFFFFFFFFFFFFFFFFFFFFFFFFF AND DUP2 MSTORE POP POP JUMPDEST DUP1 DUP1 PUSH1 0x1 ADD SWAP2 POP POP PUSH2 0x1599 JUMP JUMPDEST POP DUP2 SWAP4 POP POP POP POP SWAP1 JUMP JUMPDEST PUSH1 0x3 PUSH0 CALLER PUSH20 0xFFFFFFFFFFFFFFFFFFFFFFFFFFFFFFFFFFFFFFFF AND PUSH20 0xFFFFFFFFFFFFFFFFFFFFFFFFFFFFFFFFFFFFFFFF AND DUP2 MSTORE PUSH1 0x20 ADD SWAP1 DUP2 MSTORE PUSH1 0x20 ADD PUSH0 KECCAK256 PUSH0 SWAP1 SLOAD SWAP1 PUSH2 0x100 EXP SWAP1 DIV PUSH1 0xFF AND PUSH2 0x16EB JUMPI PUSH1 0x40 MLOAD PUSH32 0x8C379A000000000000000000000000000000000000000000000000000000000 DUP2 MSTORE PUSH1 0x4 ADD PUSH2 0x16E2 SWAP1 PUSH2 0x25D0 JUMP JUMPDEST PUSH1 0x40 MLOAD DUP1 SWAP2 SUB SWAP1 REVERT JUMPDEST PUSH0 PUSH20 0xFFFFFFFFFFFFFFFFFFFFFFFFFFFFFFFFFFFFFFFF AND DUP2 PUSH20 0xFFFFFFFFFFFFFFFFFFFFFFFFFFFFFFFFFFFFFFFF AND SUB PUSH2 0x1759 JUMPI PUSH1 0x40 MLOAD PUSH32 0x8C379A000000000000000000000000000000000000000000000000000000000 DUP2 MSTORE PUSH1 0x4 ADD PUSH2 0x1750 SWAP1 PUSH2 0x2638 JUMP JUMPDEST PUSH1 0x40 MLOAD DUP1 SWAP2 SUB SWAP1 REVERT JUMPDEST PUSH1 0x5 PUSH0 DUP3 PUSH20 0xFFFFFFFFFFFFFFFFFFFFFFFFFFFFFFFFFFFFFFFF AND PUSH20 0xFFFFFFFFFFFFFFFFFFFFFFFFFFFFFFFFFFFFFFFF AND DUP2 MSTORE PUSH1 0x20 ADD SWAP1 DUP2 MSTORE PUSH1 0x20 ADD PUSH0 KECCAK256 PUSH0 SWAP1 SLOAD SWAP1 PUSH2 0x100 EXP SWAP1 DIV PUSH1 0xFF AND ISZERO PUSH2 0x17E3 JUMPI PUSH1 0x40 MLOAD PUSH32 0x8C379A000000000000000000000000000000000000000000000000000000000 DUP2 MSTORE PUSH1 0x4 ADD PUSH2 0x17DA SWAP1 PUSH2 0x2B6B JUMP JUMPDEST PUSH1 0x40 MLOAD DUP1 SWAP2 SUB SWAP1 REVERT JUMPDEST PUSH1 0x4 PUSH0 DUP3 PUSH20 0xFFFFFFFFFFFFFFFFFFFFFFFFFFFFFFFFFFFFFFFF AND PUSH20 0xFFFFFFFFFFFFFFFFFFFFFFFFFFFFFFFFFFFFFFFF AND DUP2 MSTORE PUSH1 0x20 ADD SWAP1 DUP2 MSTORE PUSH1 0x20 ADD PUSH0 KECCAK256 PUSH0 SWAP1 SLOAD SWAP1 PUSH2 0x100 EXP SWAP1 DIV PUSH1 0xFF AND ISZERO PUSH2 0x186D JUMPI PUSH1 0x40 MLOAD PUSH32 0x8C379A000000000000000000000000000000000000000000000000000000000 DUP2 MSTORE PUSH1 0x4 ADD PUSH2 0x1864 SWAP1 PUSH2 0x2BF9 JUMP JUMPDEST PUSH1 0x40 MLOAD DUP1 SWAP2 SUB SWAP1 REVERT JUMPDEST PUSH1 0x1 PUSH1 0x5 PUSH0 DUP4 PUSH20 0xFFFFFFFFFFFFFFFFFFFFFFFFFFFFFFFFFFFFFFFF AND PUSH20 0xFFFFFFFFFFFFFFFFFFFFFFFFFFFFFFFFFFFFFFFF AND DUP2 MSTORE PUSH1 0x20 ADD SWAP1 DUP2 MSTORE PUSH1 0x20 ADD PUSH0 KECCAK256 PUSH0 PUSH2 0x100 EXP DUP2 SLOAD DUP2 PUSH1 0xFF MUL NOT AND SWAP1 DUP4 ISZERO ISZERO MUL OR SWAP1 SSTORE POP DUP1 PUSH20 0xFFFFFFFFFFFFFFFFFFFFFFFFFFFFFFFFFFFFFFFF AND PUSH32 0x28A24A60E275C9BE5BABC23ECEFD3240B1FCD56EF4D3FE4818437200B55AE5FF PUSH1 0x1 PUSH1 0x40 MLOAD PUSH2 0x1909 SWAP2 SWAP1 PUSH2 0x1CB0 JUMP JUMPDEST PUSH1 0x40 MLOAD DUP1 SWAP2 SUB SWAP1 LOG2 POP JUMP JUMPDEST PUSH2 0x191C PUSH2 0x1998 JUMP JUMPDEST PUSH0 PUSH20 0xFFFFFFFFFFFFFFFFFFFFFFFFFFFFFFFFFFFFFFFF AND DUP2 PUSH20 0xFFFFFFFFFFFFFFFFFFFFFFFFFFFFFFFFFFFFFFFF AND SUB PUSH2 0x198C JUMPI PUSH0 PUSH1 0x40 MLOAD PUSH32 0x1E4FBDF700000000000000000000000000000000000000000000000000000000 DUP2 MSTORE PUSH1 0x4 ADD PUSH2 0x1983 SWAP2 SWAP1 PUSH2 0x1F4B JUMP JUMPDEST PUSH1 0x40 MLOAD DUP1 SWAP2 SUB SWAP1 REVERT JUMPDEST PUSH2 0x1995 DUP2 PUSH2 0x1A1F JUMP JUMPDEST POP JUMP JUMPDEST PUSH2 0x19A0 PUSH2 0x1AE0 JUMP JUMPDEST PUSH20 0xFFFFFFFFFFFFFFFFFFFFFFFFFFFFFFFFFFFFFFFF AND PUSH2 0x19BE PUSH2 0xEE2 JUMP JUMPDEST PUSH20 0xFFFFFFFFFFFFFFFFFFFFFFFFFFFFFFFFFFFFFFFF AND EQ PUSH2 0x1A1D JUMPI PUSH2 0x19E1 PUSH2 0x1AE0 JUMP JUMPDEST PUSH1 0x40 MLOAD PUSH32 0x118CDAA700000000000000000000000000000000000000000000000000000000 DUP2 MSTORE PUSH1 0x4 ADD PUSH2 0x1A14 SWAP2 SWAP1 PUSH2 0x1F4B JUMP JUMPDEST PUSH1 0x40 MLOAD DUP1 SWAP2 SUB SWAP1 REVERT JUMPDEST JUMP JUMPDEST PUSH0 DUP1 PUSH0 SWAP1 SLOAD SWAP1 PUSH2 0x100 EXP SWAP1 DIV PUSH20 0xFFFFFFFFFFFFFFFFFFFFFFFFFFFFFFFFFFFFFFFF AND SWAP1 POP DUP2 PUSH0 DUP1 PUSH2 0x100 EXP DUP2 SLOAD DUP2 PUSH20 0xFFFFFFFFFFFFFFFFFFFFFFFFFFFFFFFFFFFFFFFF MUL NOT AND SWAP1 DUP4 PUSH20 0xFFFFFFFFFFFFFFFFFFFFFFFFFFFFFFFFFFFFFFFF AND MUL OR SWAP1 SSTORE POP DUP2 PUSH20 0xFFFFFFFFFFFFFFFFFFFFFFFFFFFFFFFFFFFFFFFF AND DUP2 PUSH20 0xFFFFFFFFFFFFFFFFFFFFFFFFFFFFFFFFFFFFFFFF AND PUSH32 0x8BE0079C531659141344CD1FD0A4F28419497F9722A3DAAFE3B4186F6B6457E0 PUSH1 0x40 MLOAD PUSH1 0x40 MLOAD DUP1 SWAP2 SUB SWAP1 LOG3 POP POP JUMP JUMPDEST PUSH0 CALLER SWAP1 POP SWAP1 JUMP JUMPDEST PUSH1 0x40 MLOAD DUP1 PUSH1 0xA0 ADD PUSH1 0x40 MSTORE DUP1 PUSH1 0x60 DUP2 MSTORE PUSH1 0x20 ADD PUSH1 0x60 DUP2 MSTORE PUSH1 0x20 ADD PUSH0 PUSH20 0xFFFFFFFFFFFFFFFFFFFFFFFFFFFFFFFFFFFFFFFF AND DUP2 MSTORE PUSH1 0x20 ADD PUSH0 DUP2 MSTORE PUSH1 0x20 ADD PUSH1 0x60 DUP2 MSTORE POP SWAP1 JUMP JUMPDEST PUSH0 DUP1 REVERT JUMPDEST PUSH0 DUP1 REVERT JUMPDEST PUSH0 DUP1 REVERT JUMPDEST PUSH0 DUP1 REVERT JUMPDEST PUSH0 DUP1 REVERT JUMPDEST PUSH0 DUP1 DUP4 PUSH1 0x1F DUP5 ADD SLT PUSH2 0x1B53 JUMPI PUSH2 0x1B52 PUSH2 0x1B32 JUMP JUMPDEST JUMPDEST DUP3 CALLDATALOAD SWAP1 POP PUSH8 0xFFFFFFFFFFFFFFFF DUP2 GT ISZERO PUSH2 0x1B70 JUMPI PUSH2 0x1B6F PUSH2 0x1B36 JUMP JUMPDEST JUMPDEST PUSH1 0x20 DUP4 ADD SWAP2 POP DUP4 PUSH1 0x1 DUP3 MUL DUP4 ADD GT ISZERO PUSH2 0x1B8C JUMPI PUSH2 0x1B8B PUSH2 0x1B3A JUMP JUMPDEST JUMPDEST SWAP3 POP SWAP3 SWAP1 POP JUMP JUMPDEST PUSH0 DUP1 PUSH0 DUP1 PUSH1 0x40 DUP6 DUP8 SUB SLT ISZERO PUSH2 0x1BAB JUMPI PUSH2 0x1BAA PUSH2 0x1B2A JUMP JUMPDEST JUMPDEST PUSH0 DUP6 ADD CALLDATALOAD PUSH8 0xFFFFFFFFFFFFFFFF DUP2 GT ISZERO PUSH2 0x1BC8 JUMPI PUSH2 0x1BC7 PUSH2 0x1B2E JUMP JUMPDEST JUMPDEST PUSH2 0x1BD4 DUP8 DUP3 DUP9 ADD PUSH2 0x1B3E JUMP JUMPDEST SWAP5 POP SWAP5 POP POP PUSH1 0x20 DUP6 ADD CALLDATALOAD PUSH8 0xFFFFFFFFFFFFFFFF DUP2 GT ISZERO PUSH2 0x1BF7 JUMPI PUSH2 0x1BF6 PUSH2 0x1B2E JUMP JUMPDEST JUMPDEST PUSH2 0x1C03 DUP8 DUP3 DUP9 ADD PUSH2 0x1B3E JUMP JUMPDEST SWAP3 POP SWAP3 POP POP SWAP3 SWAP6 SWAP2 SWAP5 POP SWAP3 POP JUMP JUMPDEST PUSH0 PUSH20 0xFFFFFFFFFFFFFFFFFFFFFFFFFFFFFFFFFFFFFFFF DUP3 AND SWAP1 POP SWAP2 SWAP1 POP JUMP JUMPDEST PUSH0 PUSH2 0x1C3A DUP3 PUSH2 0x1C11 JUMP JUMPDEST SWAP1 POP SWAP2 SWAP1 POP JUMP JUMPDEST PUSH2 0x1C4A DUP2 PUSH2 0x1C30 JUMP JUMPDEST DUP2 EQ PUSH2 0x1C54 JUMPI PUSH0 DUP1 REVERT JUMPDEST POP JUMP JUMPDEST PUSH0 DUP2 CALLDATALOAD SWAP1 POP PUSH2 0x1C65 DUP2 PUSH2 0x1C41 JUMP JUMPDEST SWAP3 SWAP2 POP POP JUMP JUMPDEST PUSH0 PUSH1 0x20 DUP3 DUP5 SUB SLT ISZERO PUSH2 0x1C80 JUMPI PUSH2 0x1C7F PUSH2 0x1B2A JUMP JUMPDEST JUMPDEST PUSH0 PUSH2 0x1C8D DUP5 DUP3 DUP6 ADD PUSH2 0x1C57 JUMP JUMPDEST SWAP2 POP POP SWAP3 SWAP2 POP POP JUMP JUMPDEST PUSH0 DUP2 ISZERO ISZERO SWAP1 POP SWAP2 SWAP1 POP JUMP JUMPDEST PUSH2 0x1CAA DUP2 PUSH2 0x1C96 JUMP JUMPDEST DUP3 MSTORE POP POP JUMP JUMPDEST PUSH0 PUSH1 0x20 DUP3 ADD SWAP1 POP PUSH2 0x1CC3 PUSH0 DUP4 ADD DUP5 PUSH2 0x1CA1 JUMP JUMPDEST SWAP3 SWAP2 POP POP JUMP JUMPDEST PUSH0 DUP2 SWAP1 POP SWAP2 SWAP1 POP JUMP JUMPDEST PUSH2 0x1CDB DUP2 PUSH2 0x1CC9 JUMP JUMPDEST DUP2 EQ PUSH2 0x1CE5 JUMPI PUSH0 DUP1 REVERT JUMPDEST POP JUMP JUMPDEST PUSH0 DUP2 CALLDATALOAD SWAP1 POP PUSH2 0x1CF6 DUP2 PUSH2 0x1CD2 JUMP JUMPDEST SWAP3 SWAP2 POP POP JUMP JUMPDEST PUSH0 PUSH1 0x20 DUP3 DUP5 SUB SLT ISZERO PUSH2 0x1D11 JUMPI PUSH2 0x1D10 PUSH2 0x1B2A JUMP JUMPDEST JUMPDEST PUSH0 PUSH2 0x1D1E DUP5 DUP3 DUP6 ADD PUSH2 0x1CE8 JUMP JUMPDEST SWAP2 POP POP SWAP3 SWAP2 POP POP JUMP JUMPDEST PUSH0 DUP2 MLOAD SWAP1 POP SWAP2 SWAP1 POP JUMP JUMPDEST PUSH0 DUP3 DUP3 MSTORE PUSH1 0x20 DUP3 ADD SWAP1 POP SWAP3 SWAP2 POP POP JUMP JUMPDEST DUP3 DUP2 DUP4 MCOPY PUSH0 DUP4 DUP4 ADD MSTORE POP POP POP JUMP JUMPDEST PUSH0 PUSH1 0x1F NOT PUSH1 0x1F DUP4 ADD AND SWAP1 POP SWAP2 SWAP1 POP JUMP JUMPDEST PUSH0 PUSH2 0x1D69 DUP3 PUSH2 0x1D27 JUMP JUMPDEST PUSH2 0x1D73 DUP2 DUP6 PUSH2 0x1D31 JUMP JUMPDEST SWAP4 POP PUSH2 0x1D83 DUP2 DUP6 PUSH1 0x20 DUP7 ADD PUSH2 0x1D41 JUMP JUMPDEST PUSH2 0x1D8C DUP2 PUSH2 0x1D4F JUMP JUMPDEST DUP5 ADD SWAP2 POP POP SWAP3 SWAP2 POP POP JUMP JUMPDEST PUSH2 0x1DA0 DUP2 PUSH2 0x1C30 JUMP JUMPDEST DUP3 MSTORE POP POP JUMP JUMPDEST PUSH2 0x1DAF DUP2 PUSH2 0x1CC9 JUMP JUMPDEST DUP3 MSTORE POP POP JUMP JUMPDEST PUSH0 DUP2 MLOAD SWAP1 POP SWAP2 SWAP1 POP JUMP JUMPDEST PUSH0 DUP3 DUP3 MSTORE PUSH1 0x20 DUP3 ADD SWAP1 POP SWAP3 SWAP2 POP POP JUMP JUMPDEST PUSH0 DUP2 SWAP1 POP PUSH1 0x20 DUP3 ADD SWAP1 POP SWAP2 SWAP1 POP JUMP JUMPDEST PUSH0 PUSH2 0x1DE9 DUP4 DUP4 PUSH2 0x1D97 JUMP JUMPDEST PUSH1 0x20 DUP4 ADD SWAP1 POP SWAP3 SWAP2 POP POP JUMP JUMPDEST PUSH0 PUSH1 0x20 DUP3 ADD SWAP1 POP SWAP2 SWAP1 POP JUMP JUMPDEST PUSH0 PUSH2 0x1E0B DUP3 PUSH2 0x1DB5 JUMP JUMPDEST PUSH2 0x1E15 DUP2 DUP6 PUSH2 0x1DBF JUMP JUMPDEST SWAP4 POP PUSH2 0x1E20 DUP4 PUSH2 0x1DCF JUMP JUMPDEST DUP1 PUSH0 JUMPDEST DUP4 DUP2 LT ISZERO PUSH2 0x1E50 JUMPI DUP2 MLOAD PUSH2 0x1E37 DUP9 DUP3 PUSH2 0x1DDE JUMP JUMPDEST SWAP8 POP PUSH2 0x1E42 DUP4 PUSH2 0x1DF5 JUMP JUMPDEST SWAP3 POP POP PUSH1 0x1 DUP2 ADD SWAP1 POP PUSH2 0x1E23 JUMP JUMPDEST POP DUP6 SWAP4 POP POP POP POP SWAP3 SWAP2 POP POP JUMP JUMPDEST PUSH0 PUSH1 0xA0 DUP4 ADD PUSH0 DUP4 ADD MLOAD DUP5 DUP3 SUB PUSH0 DUP7 ADD MSTORE PUSH2 0x1E77 DUP3 DUP3 PUSH2 0x1D5F JUMP JUMPDEST SWAP2 POP POP PUSH1 0x20 DUP4 ADD MLOAD DUP5 DUP3 SUB PUSH1 0x20 DUP7 ADD MSTORE PUSH2 0x1E91 DUP3 DUP3 PUSH2 0x1D5F JUMP JUMPDEST SWAP2 POP POP PUSH1 0x40 DUP4 ADD MLOAD PUSH2 0x1EA6 PUSH1 0x40 DUP7 ADD DUP3 PUSH2 0x1D97 JUMP JUMPDEST POP PUSH1 0x60 DUP4 ADD MLOAD PUSH2 0x1EB9 PUSH1 0x60 DUP7 ADD DUP3 PUSH2 0x1DA6 JUMP JUMPDEST POP PUSH1 0x80 DUP4 ADD MLOAD DUP5 DUP3 SUB PUSH1 0x80 DUP7 ADD MSTORE PUSH2 0x1ED1 DUP3 DUP3 PUSH2 0x1E01 JUMP JUMPDEST SWAP2 POP POP DUP1 SWAP2 POP POP SWAP3 SWAP2 POP POP JUMP JUMPDEST PUSH0 PUSH1 0x20 DUP3 ADD SWAP1 POP DUP2 DUP2 SUB PUSH0 DUP4 ADD MSTORE PUSH2 0x1EF6 DUP2 DUP5 PUSH2 0x1E5D JUMP JUMPDEST SWAP1 POP SWAP3 SWAP2 POP POP JUMP JUMPDEST PUSH0 DUP1 PUSH1 0x40 DUP4 DUP6 SUB SLT ISZERO PUSH2 0x1F14 JUMPI PUSH2 0x1F13 PUSH2 0x1B2A JUMP JUMPDEST JUMPDEST PUSH0 PUSH2 0x1F21 DUP6 DUP3 DUP7 ADD PUSH2 0x1CE8 JUMP JUMPDEST SWAP3 POP POP PUSH1 0x20 PUSH2 0x1F32 DUP6 DUP3 DUP7 ADD PUSH2 0x1C57 JUMP JUMPDEST SWAP2 POP POP SWAP3 POP SWAP3 SWAP1 POP JUMP JUMPDEST PUSH2 0x1F45 DUP2 PUSH2 0x1C30 JUMP JUMPDEST DUP3 MSTORE POP POP JUMP JUMPDEST PUSH0 PUSH1 0x20 DUP3 ADD SWAP1 POP PUSH2 0x1F5E PUSH0 DUP4 ADD DUP5 PUSH2 0x1F3C JUMP JUMPDEST SWAP3 SWAP2 POP POP JUMP JUMPDEST PUSH0 DUP3 DUP3 MSTORE PUSH1 0x20 DUP3 ADD SWAP1 POP SWAP3 SWAP2 POP POP JUMP JUMPDEST PUSH0 PUSH2 0x1F7E DUP3 PUSH2 0x1DB5 JUMP JUMPDEST PUSH2 0x1F88 DUP2 DUP6 PUSH2 0x1F64 JUMP JUMPDEST SWAP4 POP PUSH2 0x1F93 DUP4 PUSH2 0x1DCF JUMP JUMPDEST DUP1 PUSH0 JUMPDEST DUP4 DUP2 LT ISZERO PUSH2 0x1FC3 JUMPI DUP2 MLOAD PUSH2 0x1FAA DUP9 DUP3 PUSH2 0x1DDE JUMP JUMPDEST SWAP8 POP PUSH2 0x1FB5 DUP4 PUSH2 0x1DF5 JUMP JUMPDEST SWAP3 POP POP PUSH1 0x1 DUP2 ADD SWAP1 POP PUSH2 0x1F96 JUMP JUMPDEST POP DUP6 SWAP4 POP POP POP POP SWAP3 SWAP2 POP POP JUMP JUMPDEST PUSH0 PUSH1 0x20 DUP3 ADD SWAP1 POP DUP2 DUP2 SUB PUSH0 DUP4 ADD MSTORE PUSH2 0x1FE8 DUP2 DUP5 PUSH2 0x1F74 JUMP JUMPDEST SWAP1 POP SWAP3 SWAP2 POP POP JUMP JUMPDEST PUSH0 DUP3 DUP3 MSTORE PUSH1 0x20 DUP3 ADD SWAP1 POP SWAP3 SWAP2 POP POP JUMP JUMPDEST PUSH32 0x436F6D6D756E697479206E616D652063616E6E6F7420626520656D7074790000 PUSH0 DUP3 ADD MSTORE POP JUMP JUMPDEST PUSH0 PUSH2 0x2034 PUSH1 0x1E DUP4 PUSH2 0x1FF0 JUMP JUMPDEST SWAP2 POP PUSH2 0x203F DUP3 PUSH2 0x2000 JUMP JUMPDEST PUSH1 0x20 DUP3 ADD SWAP1 POP SWAP2 SWAP1 POP JUMP JUMPDEST PUSH0 PUSH1 0x20 DUP3 ADD SWAP1 POP DUP2 DUP2 SUB PUSH0 DUP4 ADD MSTORE PUSH2 0x2061 DUP2 PUSH2 0x2028 JUMP JUMPDEST SWAP1 POP SWAP2 SWAP1 POP JUMP JUMPDEST PUSH32 0x436F6D6D756E697479206465736372697074696F6E2063616E6E6F7420626520 PUSH0 DUP3 ADD MSTORE PUSH32 0x656D707479000000000000000000000000000000000000000000000000000000 PUSH1 0x20 DUP3 ADD MSTORE POP JUMP JUMPDEST PUSH0 PUSH2 0x20C2 PUSH1 0x25 DUP4 PUSH2 0x1FF0 JUMP JUMPDEST SWAP2 POP PUSH2 0x20CD DUP3 PUSH2 0x2068 JUMP JUMPDEST PUSH1 0x40 DUP3 ADD SWAP1 POP SWAP2 SWAP1 POP JUMP JUMPDEST PUSH0 PUSH1 0x20 DUP3 ADD SWAP1 POP DUP2 DUP2 SUB PUSH0 DUP4 ADD MSTORE PUSH2 0x20EF DUP2 PUSH2 0x20B6 JUMP JUMPDEST SWAP1 POP SWAP2 SWAP1 POP JUMP JUMPDEST PUSH32 0x4F6E6C792072656769737465726564207573657273206F7220656E7469746965 PUSH0 DUP3 ADD MSTORE PUSH32 0x732063616E2063726561746520636F6D6D756E69746965730000000000000000 PUSH1 0x20 DUP3 ADD MSTORE POP JUMP JUMPDEST PUSH0 PUSH2 0x2150 PUSH1 0x38 DUP4 PUSH2 0x1FF0 JUMP JUMPDEST SWAP2 POP PUSH2 0x215B DUP3 PUSH2 0x20F6 JUMP JUMPDEST PUSH1 0x40 DUP3 ADD SWAP1 POP SWAP2 SWAP1 POP JUMP JUMPDEST PUSH0 PUSH1 0x20 DUP3 ADD SWAP1 POP DUP2 DUP2 SUB PUSH0 DUP4 ADD MSTORE PUSH2 0x217D DUP2 PUSH2 0x2144 JUMP JUMPDEST SWAP1 POP SWAP2 SWAP1 POP JUMP JUMPDEST PUSH32 0x4E487B7100000000000000000000000000000000000000000000000000000000 PUSH0 MSTORE PUSH1 0x11 PUSH1 0x4 MSTORE PUSH1 0x24 PUSH0 REVERT JUMPDEST PUSH0 PUSH2 0x21BB DUP3 PUSH2 0x1CC9 JUMP JUMPDEST SWAP2 POP PUSH32 0xFFFFFFFFFFFFFFFFFFFFFFFFFFFFFFFFFFFFFFFFFFFFFFFFFFFFFFFFFFFFFFFF DUP3 SUB PUSH2 0x21ED JUMPI PUSH2 0x21EC PUSH2 0x2184 JUMP JUMPDEST JUMPDEST PUSH1 0x1 DUP3 ADD SWAP1 POP SWAP2 SWAP1 POP JUMP JUMPDEST PUSH0 DUP3 SWAP1 POP SWAP3 SWAP2 POP POP JUMP JUMPDEST PUSH32 0x4E487B7100000000000000000000000000000000000000000000000000000000 PUSH0 MSTORE PUSH1 0x41 PUSH1 0x4 MSTORE PUSH1 0x24 PUSH0 REVERT JUMPDEST PUSH32 0x4E487B7100000000000000000000000000000000000000000000000000000000 PUSH0 MSTORE PUSH1 0x22 PUSH1 0x4 MSTORE PUSH1 0x24 PUSH0 REVERT JUMPDEST PUSH0 PUSH1 0x2 DUP3 DIV SWAP1 POP PUSH1 0x1 DUP3 AND DUP1 PUSH2 0x2273 JUMPI PUSH1 0x7F DUP3 AND SWAP2 POP JUMPDEST PUSH1 0x20 DUP3 LT DUP2 SUB PUSH2 0x2286 JUMPI PUSH2 0x2285 PUSH2 0x222F JUMP JUMPDEST JUMPDEST POP SWAP2 SWAP1 POP JUMP JUMPDEST PUSH0 DUP2 SWAP1 POP DUP2 PUSH0 MSTORE PUSH1 0x20 PUSH0 KECCAK256 SWAP1 POP SWAP2 SWAP1 POP JUMP JUMPDEST PUSH0 PUSH1 0x20 PUSH1 0x1F DUP4 ADD DIV SWAP1 POP SWAP2 SWAP1 POP JUMP JUMPDEST PUSH0 DUP3 DUP3 SHL SWAP1 POP SWAP3 SWAP2 POP POP JUMP JUMPDEST PUSH0 PUSH1 0x8 DUP4 MUL PUSH2 0x22E8 PUSH32 0xFFFFFFFFFFFFFFFFFFFFFFFFFFFFFFFFFFFFFFFFFFFFFFFFFFFFFFFFFFFFFFFF DUP3 PUSH2 0x22AD JUMP JUMPDEST PUSH2 0x22F2 DUP7 DUP4 PUSH2 0x22AD JUMP JUMPDEST SWAP6 POP DUP1 NOT DUP5 AND SWAP4 POP DUP1 DUP7 AND DUP5 OR SWAP3 POP POP POP SWAP4 SWAP3 POP POP POP JUMP JUMPDEST PUSH0 DUP2 SWAP1 POP SWAP2 SWAP1 POP JUMP JUMPDEST PUSH0 PUSH2 0x232D PUSH2 0x2328 PUSH2 0x2323 DUP5 PUSH2 0x1CC9 JUMP JUMPDEST PUSH2 0x230A JUMP JUMPDEST PUSH2 0x1CC9 JUMP JUMPDEST SWAP1 POP SWAP2 SWAP1 POP JUMP JUMPDEST PUSH0 DUP2 SWAP1 POP SWAP2 SWAP1 POP JUMP JUMPDEST PUSH2 0x2346 DUP4 PUSH2 0x2313 JUMP JUMPDEST PUSH2 0x235A PUSH2 0x2352 DUP3 PUSH2 0x2334 JUMP JUMPDEST DUP5 DUP5 SLOAD PUSH2 0x22B9 JUMP JUMPDEST DUP3 SSTORE POP POP POP POP JUMP JUMPDEST PUSH0 SWAP1 JUMP JUMPDEST PUSH2 0x236E PUSH2 0x2362 JUMP JUMPDEST PUSH2 0x2379 DUP2 DUP5 DUP5 PUSH2 0x233D JUMP JUMPDEST POP POP POP JUMP JUMPDEST JUMPDEST DUP2 DUP2 LT ISZERO PUSH2 0x239C JUMPI PUSH2 0x2391 PUSH0 DUP3 PUSH2 0x2366 JUMP JUMPDEST PUSH1 0x1 DUP2 ADD SWAP1 POP PUSH2 0x237F JUMP JUMPDEST POP POP JUMP JUMPDEST PUSH1 0x1F DUP3 GT ISZERO PUSH2 0x23E1 JUMPI PUSH2 0x23B2 DUP2 PUSH2 0x228C JUMP JUMPDEST PUSH2 0x23BB DUP5 PUSH2 0x229E JUMP JUMPDEST DUP2 ADD PUSH1 0x20 DUP6 LT ISZERO PUSH2 0x23CA JUMPI DUP2 SWAP1 POP JUMPDEST PUSH2 0x23DE PUSH2 0x23D6 DUP6 PUSH2 0x229E JUMP JUMPDEST DUP4 ADD DUP3 PUSH2 0x237E JUMP JUMPDEST POP POP JUMPDEST POP POP POP JUMP JUMPDEST PUSH0 DUP3 DUP3 SHR SWAP1 POP SWAP3 SWAP2 POP POP JUMP JUMPDEST PUSH0 PUSH2 0x2401 PUSH0 NOT DUP5 PUSH1 0x8 MUL PUSH2 0x23E6 JUMP JUMPDEST NOT DUP1 DUP4 AND SWAP2 POP POP SWAP3 SWAP2 POP POP JUMP JUMPDEST PUSH0 PUSH2 0x2419 DUP4 DUP4 PUSH2 0x23F2 JUMP JUMPDEST SWAP2 POP DUP3 PUSH1 0x2 MUL DUP3 OR SWAP1 POP SWAP3 SWAP2 POP POP JUMP JUMPDEST PUSH2 0x2433 DUP4 DUP4 PUSH2 0x21F8 JUMP JUMPDEST PUSH8 0xFFFFFFFFFFFFFFFF DUP2 GT ISZERO PUSH2 0x244C JUMPI PUSH2 0x244B PUSH2 0x2202 JUMP JUMPDEST JUMPDEST PUSH2 0x2456 DUP3 SLOAD PUSH2 0x225C JUMP JUMPDEST PUSH2 0x2461 DUP3 DUP3 DUP6 PUSH2 0x23A0 JUMP JUMPDEST PUSH0 PUSH1 0x1F DUP4 GT PUSH1 0x1 DUP2 EQ PUSH2 0x248E JUMPI PUSH0 DUP5 ISZERO PUSH2 0x247C JUMPI DUP3 DUP8 ADD CALLDATALOAD SWAP1 POP JUMPDEST PUSH2 0x2486 DUP6 DUP3 PUSH2 0x240E JUMP JUMPDEST DUP7 SSTORE POP PUSH2 0x24ED JUMP JUMPDEST PUSH1 0x1F NOT DUP5 AND PUSH2 0x249C DUP7 PUSH2 0x228C JUMP JUMPDEST PUSH0 JUMPDEST DUP3 DUP2 LT ISZERO PUSH2 0x24C3 JUMPI DUP5 DUP10 ADD CALLDATALOAD DUP3 SSTORE PUSH1 0x1 DUP3 ADD SWAP2 POP PUSH1 0x20 DUP6 ADD SWAP5 POP PUSH1 0x20 DUP2 ADD SWAP1 POP PUSH2 0x249E JUMP JUMPDEST DUP7 DUP4 LT ISZERO PUSH2 0x24E0 JUMPI DUP5 DUP10 ADD CALLDATALOAD PUSH2 0x24DC PUSH1 0x1F DUP10 AND DUP3 PUSH2 0x23F2 JUMP JUMPDEST DUP4 SSTORE POP JUMPDEST PUSH1 0x1 PUSH1 0x2 DUP9 MUL ADD DUP9 SSTORE POP POP POP JUMPDEST POP POP POP POP POP POP POP JUMP JUMPDEST DUP3 DUP2 DUP4 CALLDATACOPY PUSH0 DUP4 DUP4 ADD MSTORE POP POP POP JUMP JUMPDEST PUSH0 PUSH2 0x250F DUP4 DUP6 PUSH2 0x1FF0 JUMP JUMPDEST SWAP4 POP PUSH2 0x251C DUP4 DUP6 DUP5 PUSH2 0x24F6 JUMP JUMPDEST PUSH2 0x2525 DUP4 PUSH2 0x1D4F JUMP JUMPDEST DUP5 ADD SWAP1 POP SWAP4 SWAP3 POP POP POP JUMP JUMPDEST PUSH0 PUSH1 0x40 DUP3 ADD SWAP1 POP DUP2 DUP2 SUB PUSH0 DUP4 ADD MSTORE PUSH2 0x2549 DUP2 DUP6 DUP8 PUSH2 0x2504 JUMP JUMPDEST SWAP1 POP PUSH2 0x2558 PUSH1 0x20 DUP4 ADD DUP5 PUSH2 0x1F3C JUMP JUMPDEST SWAP5 SWAP4 POP POP POP POP JUMP JUMPDEST PUSH32 0x4F6E6C79206167656E74732063616E20706572666F726D207468697320616374 PUSH0 DUP3 ADD MSTORE PUSH32 0x696F6E0000000000000000000000000000000000000000000000000000000000 PUSH1 0x20 DUP3 ADD MSTORE POP JUMP JUMPDEST PUSH0 PUSH2 0x25BA PUSH1 0x23 DUP4 PUSH2 0x1FF0 JUMP JUMPDEST SWAP2 POP PUSH2 0x25C5 DUP3 PUSH2 0x2560 JUMP JUMPDEST PUSH1 0x40 DUP3 ADD SWAP1 POP SWAP2 SWAP1 POP JUMP JUMPDEST PUSH0 PUSH1 0x20 DUP3 ADD SWAP1 POP DUP2 DUP2 SUB PUSH0 DUP4 ADD MSTORE PUSH2 0x25E7 DUP2 PUSH2 0x25AE JUMP JUMPDEST SWAP1 POP SWAP2 SWAP1 POP JUMP JUMPDEST PUSH32 0x43616E6E6F74207265676973746572207A65726F206164647265737300000000 PUSH0 DUP3 ADD MSTORE POP JUMP JUMPDEST PUSH0 PUSH2 0x2622 PUSH1 0x1C DUP4 PUSH2 0x1FF0 JUMP JUMPDEST SWAP2 POP PUSH2 0x262D DUP3 PUSH2 0x25EE JUMP JUMPDEST PUSH1 0x20 DUP3 ADD SWAP1 POP SWAP2 SWAP1 POP JUMP JUMPDEST PUSH0 PUSH1 0x20 DUP3 ADD SWAP1 POP DUP2 DUP2 SUB PUSH0 DUP4 ADD MSTORE PUSH2 0x264F DUP2 PUSH2 0x2616 JUMP JUMPDEST SWAP1 POP SWAP2 SWAP1 POP JUMP JUMPDEST PUSH32 0x5573657220616C72656164792072656769737465726564000000000000000000 PUSH0 DUP3 ADD MSTORE POP JUMP JUMPDEST PUSH0 PUSH2 0x268A PUSH1 0x17 DUP4 PUSH2 0x1FF0 JUMP JUMPDEST SWAP2 POP PUSH2 0x2695 DUP3 PUSH2 0x2656 JUMP JUMPDEST PUSH1 0x20 DUP3 ADD SWAP1 POP SWAP2 SWAP1 POP JUMP JUMPDEST PUSH0 PUSH1 0x20 DUP3 ADD SWAP1 POP DUP2 DUP2 SUB PUSH0 DUP4 ADD MSTORE PUSH2 0x26B7 DUP2 PUSH2 0x267E JUMP JUMPDEST SWAP1 POP SWAP2 SWAP1 POP JUMP JUMPDEST PUSH32 0x4164647265737320616C7265616479207265676973746572656420617320656E PUSH0 DUP3 ADD MSTORE PUSH32 0x7469747900000000000000000000000000000000000000000000000000000000 PUSH1 0x20 DUP3 ADD MSTORE POP JUMP JUMPDEST PUSH0 PUSH2 0x2718 PUSH1 0x24 DUP4 PUSH2 0x1FF0 JUMP JUMPDEST SWAP2 POP PUSH2 0x2723 DUP3 PUSH2 0x26BE JUMP JUMPDEST PUSH1 0x40 DUP3 ADD SWAP1 POP SWAP2 SWAP1 POP JUMP JUMPDEST PUSH0 PUSH1 0x20 DUP3 ADD SWAP1 POP DUP2 DUP2 SUB PUSH0 DUP4 ADD MSTORE PUSH2 0x2745 DUP2 PUSH2 0x270C JUMP JUMPDEST SWAP1 POP SWAP2 SWAP1 POP JUMP JUMPDEST PUSH32 0x436F6D6D756E69747920646F6573206E6F742065786973740000000000000000 PUSH0 DUP3 ADD MSTORE POP JUMP JUMPDEST PUSH0 PUSH2 0x2780 PUSH1 0x18 DUP4 PUSH2 0x1FF0 JUMP JUMPDEST SWAP2 POP PUSH2 0x278B DUP3 PUSH2 0x274C JUMP JUMPDEST PUSH1 0x20 DUP3 ADD SWAP1 POP SWAP2 SWAP1 POP JUMP JUMPDEST PUSH0 PUSH1 0x20 DUP3 ADD SWAP1 POP DUP2 DUP2 SUB PUSH0 DUP4 ADD MSTORE PUSH2 0x27AD DUP2 PUSH2 0x2774 JUMP JUMPDEST SWAP1 POP SWAP2 SWAP1 POP JUMP JUMPDEST PUSH32 0x4F6E6C79207468652063726561746F722063616E20616464206D656D62657273 PUSH0 DUP3 ADD MSTORE POP JUMP JUMPDEST PUSH0 PUSH2 0x27E8 PUSH1 0x20 DUP4 PUSH2 0x1FF0 JUMP JUMPDEST SWAP2 POP PUSH2 0x27F3 DUP3 PUSH2 0x27B4 JUMP JUMPDEST PUSH1 0x20 DUP3 ADD SWAP1 POP SWAP2 SWAP1 POP JUMP JUMPDEST PUSH0 PUSH1 0x20 DUP3 ADD SWAP1 POP DUP2 DUP2 SUB PUSH0 DUP4 ADD MSTORE PUSH2 0x2815 DUP2 PUSH2 0x27DC JUMP JUMPDEST SWAP1 POP SWAP2 SWAP1 POP JUMP JUMPDEST PUSH32 0x4D656D626572206D757374206265206120726567697374657265642075736572 PUSH0 DUP3 ADD MSTORE POP JUMP JUMPDEST PUSH0 PUSH2 0x2850 PUSH1 0x20 DUP4 PUSH2 0x1FF0 JUMP JUMPDEST SWAP2 POP PUSH2 0x285B DUP3 PUSH2 0x281C JUMP JUMPDEST PUSH1 0x20 DUP3 ADD SWAP1 POP SWAP2 SWAP1 POP JUMP JUMPDEST PUSH0 PUSH1 0x20 DUP3 ADD SWAP1 POP DUP2 DUP2 SUB PUSH0 DUP4 ADD MSTORE PUSH2 0x287D DUP2 PUSH2 0x2844 JUMP JUMPDEST SWAP1 POP SWAP2 SWAP1 POP JUMP JUMPDEST PUSH32 0x43616E6E6F7420616464207A65726F2061646472657373206173206167656E74 PUSH0 DUP3 ADD MSTORE POP JUMP JUMPDEST PUSH0 PUSH2 0x28B8 PUSH1 0x20 DUP4 PUSH2 0x1FF0 JUMP JUMPDEST SWAP2 POP PUSH2 0x28C3 DUP3 PUSH2 0x2884 JUMP JUMPDEST PUSH1 0x20 DUP3 ADD SWAP1 POP SWAP2 SWAP1 POP JUMP JUMPDEST PUSH0 PUSH1 0x20 DUP3 ADD SWAP1 POP DUP2 DUP2 SUB PUSH0 DUP4 ADD MSTORE PUSH2 0x28E5 DUP2 PUSH2 0x28AC JUMP JUMPDEST SWAP1 POP SWAP2 SWAP1 POP JUMP JUMPDEST PUSH32 0x4164647265737320697320616C726561647920616E206167656E740000000000 PUSH0 DUP3 ADD MSTORE POP JUMP JUMPDEST PUSH0 PUSH2 0x2920 PUSH1 0x1B DUP4 PUSH2 0x1FF0 JUMP JUMPDEST SWAP2 POP PUSH2 0x292B DUP3 PUSH2 0x28EC JUMP JUMPDEST PUSH1 0x20 DUP3 ADD SWAP1 POP SWAP2 SWAP1 POP JUMP JUMPDEST PUSH0 PUSH1 0x20 DUP3 ADD SWAP1 POP DUP2 DUP2 SUB PUSH0 DUP4 ADD MSTORE PUSH2 0x294D DUP2 PUSH2 0x2914 JUMP JUMPDEST SWAP1 POP SWAP2 SWAP1 POP JUMP JUMPDEST PUSH32 0x41646472657373206973206E6F7420616E206167656E74000000000000000000 PUSH0 DUP3 ADD MSTORE POP JUMP JUMPDEST PUSH0 PUSH2 0x2988 PUSH1 0x17 DUP4 PUSH2 0x1FF0 JUMP JUMPDEST SWAP2 POP PUSH2 0x2993 DUP3 PUSH2 0x2954 JUMP JUMPDEST PUSH1 0x20 DUP3 ADD SWAP1 POP SWAP2 SWAP1 POP JUMP JUMPDEST PUSH0 PUSH1 0x20 DUP3 ADD SWAP1 POP DUP2 DUP2 SUB PUSH0 DUP4 ADD MSTORE PUSH2 0x29B5 DUP2 PUSH2 0x297C JUMP JUMPDEST SWAP1 POP SWAP2 SWAP1 POP JUMP JUMPDEST PUSH32 0x43616E6E6F742072656D6F7665207A65726F2061646472657373000000000000 PUSH0 DUP3 ADD MSTORE POP JUMP JUMPDEST PUSH0 PUSH2 0x29F0 PUSH1 0x1A DUP4 PUSH2 0x1FF0 JUMP JUMPDEST SWAP2 POP PUSH2 0x29FB DUP3 PUSH2 0x29BC JUMP JUMPDEST PUSH1 0x20 DUP3 ADD SWAP1 POP SWAP2 SWAP1 POP JUMP JUMPDEST PUSH0 PUSH1 0x20 DUP3 ADD SWAP1 POP DUP2 DUP2 SUB PUSH0 DUP4 ADD MSTORE PUSH2 0x2A1D DUP2 PUSH2 0x29E4 JUMP JUMPDEST SWAP1 POP SWAP2 SWAP1 POP JUMP JUMPDEST PUSH32 0x55736572206E6F74207265676973746572656400000000000000000000000000 PUSH0 DUP3 ADD MSTORE POP JUMP JUMPDEST PUSH0 PUSH2 0x2A58 PUSH1 0x13 DUP4 PUSH2 0x1FF0 JUMP JUMPDEST SWAP2 POP PUSH2 0x2A63 DUP3 PUSH2 0x2A24 JUMP JUMPDEST PUSH1 0x20 DUP3 ADD SWAP1 POP SWAP2 SWAP1 POP JUMP JUMPDEST PUSH0 PUSH1 0x20 DUP3 ADD SWAP1 POP DUP2 DUP2 SUB PUSH0 DUP4 ADD MSTORE PUSH2 0x2A85 DUP2 PUSH2 0x2A4C JUMP JUMPDEST SWAP1 POP SWAP2 SWAP1 POP JUMP JUMPDEST PUSH32 0x456E74697479206E6F7420726567697374657265640000000000000000000000 PUSH0 DUP3 ADD MSTORE POP JUMP JUMPDEST PUSH0 PUSH2 0x2AC0 PUSH1 0x15 DUP4 PUSH2 0x1FF0 JUMP JUMPDEST SWAP2 POP PUSH2 0x2ACB DUP3 PUSH2 0x2A8C JUMP JUMPDEST PUSH1 0x20 DUP3 ADD SWAP1 POP SWAP2 SWAP1 POP JUMP JUMPDEST PUSH0 PUSH1 0x20 DUP3 ADD SWAP1 POP DUP2 DUP2 SUB PUSH0 DUP4 ADD MSTORE PUSH2 0x2AED DUP2 PUSH2 0x2AB4 JUMP JUMPDEST SWAP1 POP SWAP2 SWAP1 POP JUMP JUMPDEST PUSH32 0x4E487B7100000000000000000000000000000000000000000000000000000000 PUSH0 MSTORE PUSH1 0x32 PUSH1 0x4 MSTORE PUSH1 0x24 PUSH0 REVERT JUMPDEST PUSH32 0x456E7469747920616C7265616479207265676973746572656400000000000000 PUSH0 DUP3 ADD MSTORE POP JUMP JUMPDEST PUSH0 PUSH2 0x2B55 PUSH1 0x19 DUP4 PUSH2 0x1FF0 JUMP JUMPDEST SWAP2 POP PUSH2 0x2B60 DUP3 PUSH2 0x2B21 JUMP JUMPDEST PUSH1 0x20 DUP3 ADD SWAP1 POP SWAP2 SWAP1 POP JUMP JUMPDEST PUSH0 PUSH1 0x20 DUP3 ADD SWAP1 POP DUP2 DUP2 SUB PUSH0 DUP4 ADD MSTORE PUSH2 0x2B82 DUP2 PUSH2 0x2B49 JUMP JUMPDEST SWAP1 POP SWAP2 SWAP1 POP JUMP JUMPDEST PUSH32 0x4164647265737320616C72656164792072656769737465726564206173207573 PUSH0 DUP3 ADD MSTORE PUSH32 0x6572000000000000000000000000000000000000000000000000000000000000 PUSH1 0x20 DUP3 ADD MSTORE POP JUMP JUMPDEST PUSH0 PUSH2 0x2BE3 PUSH1 0x22 DUP4 PUSH2 0x1FF0 JUMP JUMPDEST SWAP2 POP PUSH2 0x2BEE DUP3 PUSH2 0x2B89 JUMP JUMPDEST PUSH1 0x40 DUP3 ADD SWAP1 POP SWAP2 SWAP1 POP JUMP JUMPDEST PUSH0 PUSH1 0x20 DUP3 ADD SWAP1 POP DUP2 DUP2 SUB PUSH0 DUP4 ADD MSTORE PUSH2 0x2C10 DUP2 PUSH2 0x2BD7 JUMP JUMPDEST SWAP1 POP SWAP2 SWAP1 POP JUMP INVALID LOG2 PUSH5 0x6970667358 0x22 SLT KECCAK256 0xC7 0x27 SWAP15 0xC 0xB5 EXTCODECOPY PUSH24 0x8F8D1C04B440F014F78376CFF0DC4E10EDD92F0BE99E50D0 CHAINID PUSH5 0x736F6C6343 STOP ADDMOD BYTE STOP CALLER "
				},
				"gasEstimates": {
					"creation": {
						"codeDepositCost": "2268200",
						"executionCost": "infinite",
						"totalCost": "infinite"
					},
					"external": {
						"addAgent(address)": "infinite",
						"addMember(uint256,address)": "infinite",
						"createCommunity(string,string)": "infinite",
						"getAgents()": "infinite",
						"getCommunity(uint256)": "infinite",
						"isAgent(address)": "2938",
						"isRegisteredEntity(address)": "2959",
						"isRegisteredUser(address)": "2916",
						"owner()": "2538",
						"registerEntity(address)": "33206",
						"registerUser(address)": "33229",
						"removeAgent(address)": "infinite",
						"removeEntity(address)": "30915",
						"removeUser(address)": "30959",
						"renounceOwnership()": "infinite",
						"transferOwnership(address)": "infinite"
					}
				},
				"methodIdentifiers": {
					"addAgent(address)": "84e79842",
					"addMember(uint256,address)": "74d0a676",
					"createCommunity(string,string)": "03b28c33",
					"getAgents()": "eac3fda4",
					"getCommunity(uint256)": "370603f8",
					"isAgent(address)": "1ffbb064",
					"isRegisteredEntity(address)": "daf60b71",
					"isRegisteredUser(address)": "1f5bdf5d",
					"owner()": "8da5cb5b",
					"registerEntity(address)": "ebb99431",
					"registerUser(address)": "2199d5cd",
					"removeAgent(address)": "97a6278e",
					"removeEntity(address)": "dd182996",
					"removeUser(address)": "98575188",
					"renounceOwnership()": "715018a6",
					"transferOwnership(address)": "f2fde38b"
				}
			},
			"storageLayout": {
				"storage": [
					{
						"astId": 8,
						"contract": "contracts/RegisterUsers.sol:RegisterUsers",
						"label": "_owner",
						"offset": 0,
						"slot": "0",
						"type": "t_address"
					},
					{
						"astId": 185,
						"contract": "contracts/RegisterUsers.sol:RegisterUsers",
						"label": "communityIdCounter",
						"offset": 0,
						"slot": "1",
						"type": "t_uint256"
					},
					{
						"astId": 202,
						"contract": "contracts/RegisterUsers.sol:RegisterUsers",
						"label": "communities",
						"offset": 0,
						"slot": "2",
						"type": "t_mapping(t_uint256,t_struct(Community)197_storage)"
					},
					{
						"astId": 206,
						"contract": "contracts/RegisterUsers.sol:RegisterUsers",
						"label": "agents",
						"offset": 0,
						"slot": "3",
						"type": "t_mapping(t_address,t_bool)"
					},
					{
						"astId": 210,
						"contract": "contracts/RegisterUsers.sol:RegisterUsers",
						"label": "registeredUsers",
						"offset": 0,
						"slot": "4",
						"type": "t_mapping(t_address,t_bool)"
					},
					{
						"astId": 214,
						"contract": "contracts/RegisterUsers.sol:RegisterUsers",
						"label": "registeredEntities",
						"offset": 0,
						"slot": "5",
						"type": "t_mapping(t_address,t_bool)"
					}
				],
				"types": {
					"t_address": {
						"encoding": "inplace",
						"label": "address",
						"numberOfBytes": "20"
					},
					"t_array(t_address)dyn_storage": {
						"base": "t_address",
						"encoding": "dynamic_array",
						"label": "address[]",
						"numberOfBytes": "32"
					},
					"t_bool": {
						"encoding": "inplace",
						"label": "bool",
						"numberOfBytes": "1"
					},
					"t_mapping(t_address,t_bool)": {
						"encoding": "mapping",
						"key": "t_address",
						"label": "mapping(address => bool)",
						"numberOfBytes": "32",
						"value": "t_bool"
					},
					"t_mapping(t_uint256,t_struct(Community)197_storage)": {
						"encoding": "mapping",
						"key": "t_uint256",
						"label": "mapping(uint256 => struct RegisterUsers.Community)",
						"numberOfBytes": "32",
						"value": "t_struct(Community)197_storage"
					},
					"t_string_storage": {
						"encoding": "bytes",
						"label": "string",
						"numberOfBytes": "32"
					},
					"t_struct(Community)197_storage": {
						"encoding": "inplace",
						"label": "struct RegisterUsers.Community",
						"members": [
							{
								"astId": 187,
								"contract": "contracts/RegisterUsers.sol:RegisterUsers",
								"label": "name",
								"offset": 0,
								"slot": "0",
								"type": "t_string_storage"
							},
							{
								"astId": 189,
								"contract": "contracts/RegisterUsers.sol:RegisterUsers",
								"label": "description",
								"offset": 0,
								"slot": "1",
								"type": "t_string_storage"
							},
							{
								"astId": 191,
								"contract": "contracts/RegisterUsers.sol:RegisterUsers",
								"label": "creator",
								"offset": 0,
								"slot": "2",
								"type": "t_address"
							},
							{
								"astId": 193,
								"contract": "contracts/RegisterUsers.sol:RegisterUsers",
								"label": "createdAt",
								"offset": 0,
								"slot": "3",
								"type": "t_uint256"
							},
							{
								"astId": 196,
								"contract": "contracts/RegisterUsers.sol:RegisterUsers",
								"label": "members",
								"offset": 0,
								"slot": "4",
								"type": "t_array(t_address)dyn_storage"
							}
						],
						"numberOfBytes": "160"
					},
					"t_uint256": {
						"encoding": "inplace",
						"label": "uint256",
						"numberOfBytes": "32"
					}
				}
			},
			"userdoc": {
				"kind": "user",
				"methods": {},
				"version": 1
			}
		}
	}
}