{
  "address": "0xd4475C6409a6F7a3AC042aaBE53f8F455081610f",
  "abi": [
    {
      "inputs": [
        {
          "internalType": "address",
          "name": "_registerUsers",
          "type": "address"
        },
        {
          "internalType": "address",
          "name": "_tokenPawsForHopeToken",
          "type": "address"
        },
        {
          "internalType": "address",
          "name": "_USDCpaws",
          "type": "address"
        }
      ],
      "stateMutability": "nonpayable",
      "type": "constructor"
    },
    {
      "inputs": [
        {
          "internalType": "address",
          "name": "owner",
          "type": "address"
        }
      ],
      "name": "OwnableInvalidOwner",
      "type": "error"
    },
    {
      "inputs": [
        {
          "internalType": "address",
          "name": "account",
          "type": "address"
        }
      ],
      "name": "OwnableUnauthorizedAccount",
      "type": "error"
    },
    {
      "anonymous": false,
      "inputs": [
        {
          "indexed": true,
          "internalType": "address",
          "name": "agent",
          "type": "address"
        }
      ],
      "name": "AgentAdded",
      "type": "event"
    },
    {
      "anonymous": false,
      "inputs": [
        {
          "indexed": true,
          "internalType": "address",
          "name": "agent",
          "type": "address"
        }
      ],
      "name": "AgentRemoved",
      "type": "event"
    },
    {
      "anonymous": false,
      "inputs": [
        {
          "indexed": true,
          "internalType": "address",
          "name": "donor",
          "type": "address"
        },
        {
          "indexed": false,
          "internalType": "uint256",
          "name": "amount",
          "type": "uint256"
        },
        {
          "indexed": false,
          "internalType": "uint256",
          "name": "tokens",
          "type": "uint256"
        }
      ],
      "name": "DonationProcessed",
      "type": "event"
    },
    {
      "anonymous": false,
      "inputs": [
        {
          "indexed": true,
          "internalType": "address",
          "name": "donor",
          "type": "address"
        },
        {
          "indexed": false,
          "internalType": "uint256",
          "name": "amount",
          "type": "uint256"
        }
      ],
      "name": "DonationReceived",
      "type": "event"
    },
    {
      "anonymous": false,
      "inputs": [
        {
          "indexed": true,
          "internalType": "address",
          "name": "previousOwner",
          "type": "address"
        },
        {
          "indexed": true,
          "internalType": "address",
          "name": "newOwner",
          "type": "address"
        }
      ],
      "name": "OwnershipTransferred",
      "type": "event"
    },
    {
      "anonymous": false,
      "inputs": [
        {
          "indexed": true,
          "internalType": "uint256",
          "name": "postId",
          "type": "uint256"
        },
        {
          "indexed": true,
          "internalType": "address",
          "name": "beneficiary",
          "type": "address"
        },
        {
          "indexed": false,
          "internalType": "uint256",
          "name": "amount",
          "type": "uint256"
        }
      ],
      "name": "PostClosed",
      "type": "event"
    },
    {
      "anonymous": false,
      "inputs": [
        {
          "indexed": true,
          "internalType": "uint256",
          "name": "postId",
          "type": "uint256"
        },
        {
          "indexed": true,
          "internalType": "address",
          "name": "creator",
          "type": "address"
        },
        {
          "indexed": false,
          "internalType": "uint256",
          "name": "amount",
          "type": "uint256"
        }
      ],
      "name": "PostCreated",
      "type": "event"
    },
    {
      "inputs": [
        {
          "internalType": "address",
          "name": "_agent",
          "type": "address"
        }
      ],
      "name": "addAgent",
      "outputs": [],
      "stateMutability": "nonpayable",
      "type": "function"
    },
    {
      "inputs": [
        {
          "internalType": "uint256",
          "name": "_postId",
          "type": "uint256"
        },
        {
          "internalType": "address",
          "name": "_beneficiary",
          "type": "address"
        }
      ],
      "name": "closePost",
      "outputs": [],
      "stateMutability": "nonpayable",
      "type": "function"
    },
    {
      "inputs": [
        {
          "internalType": "uint256",
          "name": "_amount",
          "type": "uint256"
        },
        {
          "internalType": "string",
          "name": "_imgUrl",
          "type": "string"
        },
        {
          "internalType": "string",
          "name": "_petName",
          "type": "string"
        },
        {
          "internalType": "string",
          "name": "_description",
          "type": "string"
        },
        {
          "internalType": "string",
          "name": "_location",
          "type": "string"
        },
        {
          "internalType": "string",
          "name": "_contactInfo",
          "type": "string"
        }
      ],
      "name": "createPost",
      "outputs": [],
      "stateMutability": "nonpayable",
      "type": "function"
    },
    {
      "inputs": [],
      "name": "getAllPosts",
      "outputs": [
        {
          "components": [
            {
              "internalType": "address",
              "name": "creator",
              "type": "address"
            },
            {
              "internalType": "uint256",
              "name": "amount",
              "type": "uint256"
            },
            {
              "internalType": "string",
              "name": "imgUrl",
              "type": "string"
            },
            {
              "internalType": "string",
              "name": "petName",
              "type": "string"
            },
            {
              "internalType": "string",
              "name": "description",
              "type": "string"
            },
            {
              "internalType": "string",
              "name": "location",
              "type": "string"
            },
            {
              "internalType": "string",
              "name": "contactInfo",
              "type": "string"
            },
            {
              "internalType": "uint256",
              "name": "timestamp",
              "type": "uint256"
            },
            {
              "internalType": "bool",
              "name": "isOpen",
              "type": "bool"
            }
          ],
          "internalType": "struct FindPet.Post[]",
          "name": "",
          "type": "tuple[]"
        }
      ],
      "stateMutability": "view",
      "type": "function"
    },
    {
      "inputs": [
        {
          "internalType": "uint256",
          "name": "_postId",
          "type": "uint256"
        }
      ],
      "name": "getPost",
      "outputs": [
        {
          "internalType": "address",
          "name": "creator",
          "type": "address"
        },
        {
          "internalType": "uint256",
          "name": "amount",
          "type": "uint256"
        },
        {
          "internalType": "bool",
          "name": "isOpen",
          "type": "bool"
        }
      ],
      "stateMutability": "view",
      "type": "function"
    },
    {
      "inputs": [
        {
          "internalType": "address",
          "name": "_address",
          "type": "address"
        }
      ],
      "name": "isAgent",
      "outputs": [
        {
          "internalType": "bool",
          "name": "",
          "type": "bool"
        }
      ],
      "stateMutability": "view",
      "type": "function"
    },
    {
      "inputs": [],
      "name": "owner",
      "outputs": [
        {
          "internalType": "address",
          "name": "",
          "type": "address"
        }
      ],
      "stateMutability": "view",
      "type": "function"
    },
    {
      "inputs": [
        {
          "internalType": "uint256",
          "name": "",
          "type": "uint256"
        }
      ],
      "name": "posts",
      "outputs": [
        {
          "internalType": "address",
          "name": "creator",
          "type": "address"
        },
        {
          "internalType": "uint256",
          "name": "amount",
          "type": "uint256"
        },
        {
          "internalType": "string",
          "name": "imgUrl",
          "type": "string"
        },
        {
          "internalType": "string",
          "name": "petName",
          "type": "string"
        },
        {
          "internalType": "string",
          "name": "description",
          "type": "string"
        },
        {
          "internalType": "string",
          "name": "location",
          "type": "string"
        },
        {
          "internalType": "string",
          "name": "contactInfo",
          "type": "string"
        },
        {
          "internalType": "uint256",
          "name": "timestamp",
          "type": "uint256"
        },
        {
          "internalType": "bool",
          "name": "isOpen",
          "type": "bool"
        }
      ],
      "stateMutability": "view",
      "type": "function"
    },
    {
      "inputs": [],
      "name": "registerUsers",
      "outputs": [
        {
          "internalType": "contract RegisterUsers",
          "name": "",
          "type": "address"
        }
      ],
      "stateMutability": "view",
      "type": "function"
    },
    {
      "inputs": [
        {
          "internalType": "address",
          "name": "_agent",
          "type": "address"
        }
      ],
      "name": "removeAgent",
      "outputs": [],
      "stateMutability": "nonpayable",
      "type": "function"
    },
    {
      "inputs": [],
      "name": "renounceOwnership",
      "outputs": [],
      "stateMutability": "nonpayable",
      "type": "function"
    },
    {
      "inputs": [],
      "name": "tokenPawsForHopeToken",
      "outputs": [
        {
          "internalType": "contract PawsForHopeToken",
          "name": "",
          "type": "address"
        }
      ],
      "stateMutability": "view",
      "type": "function"
    },
    {
      "inputs": [
        {
          "internalType": "address",
          "name": "newOwner",
          "type": "address"
        }
      ],
      "name": "transferOwnership",
      "outputs": [],
      "stateMutability": "nonpayable",
      "type": "function"
    },
    {
      "inputs": [],
      "name": "usdc",
      "outputs": [
        {
          "internalType": "contract IERC20",
          "name": "",
          "type": "address"
        }
      ],
      "stateMutability": "view",
      "type": "function"
    }
  ],
  "transactionHash": "0x47594a2a236829a6211b4d3c87ccb6d571b244ae61e8a3b49f3bf54ba53b7b9b",
  "args": [
    "0xE104860e2caE646f2F2C96F4164a8459061cc988",
    "0x5091F028b9a4151EE9acDF255B3a55263508dEa3",
    "0x17896b08cabD2759cc2047a8e726845CbEE9a3fB"
  ],
  "numDeployments": 2,
  "solcInputHash": "6f4fcf22caf99c7c57c3a6335cd04135",
  "bytecode": "0x608060405260006001553480156200001657600080fd5b5060405162001d2738038062001d278339810160408190526200003991620001db565b33806200006157604051631e4fbdf760e01b8152600060048201526024015b60405180910390fd5b6200006c816200016e565b506001600160a01b038316620000c55760405162461bcd60e51b815260206004820152601d60248201527f496e76616c696420526567697374657255736572732061646472657373000000604482015260640162000058565b6001600160a01b0382166200012b5760405162461bcd60e51b815260206004820152602560248201527f496e76616c696420746f6b656e50617773466f72486f7065546f6b656e206164604482015264647265737360d81b606482015260840162000058565b600480546001600160a01b039485166001600160a01b03199182161790915560058054938516938216939093179092556006805491909316911617905562000225565b600080546001600160a01b038381166001600160a01b0319831681178455604051919092169283917f8be0079c531659141344cd1fd0a4f28419497f9722a3daafe3b4186f6b6457e09190a35050565b80516001600160a01b0381168114620001d657600080fd5b919050565b600080600060608486031215620001f157600080fd5b620001fc84620001be565b92506200020c60208501620001be565b91506200021c60408501620001be565b90509250925092565b611af280620002356000396000f3fe608060405234801561001057600080fd5b50600436106100ea5760003560e01c80635b6c497f1161008c5780638da5cb5b116100665780638da5cb5b1461022c578063972481fe1461023d57806397a6278e14610250578063f2fde38b1461026357600080fd5b80635b6c497f146101fe578063715018a61461021157806384e798421461021957600080fd5b806330561100116100c857806330561100146101715780633e413bee146101865780633ef02d13146101b157806340731c24146101c457600080fd5b80630b1e7f83146100ef5780631ffbb064146101205780632685ffcb1461015c575b600080fd5b6101026100fd3660046114c9565b610276565b60405161011799989796959493929190611528565b60405180910390f35b61014c61012e3660046115dc565b6001600160a01b031660009081526003602052604090205460ff1690565b6040519015158152602001610117565b61016f61016a3660046116a1565b610575565b005b610179610934565b604051610117919061177b565b600654610199906001600160a01b031681565b6040516001600160a01b039091168152602001610117565b600554610199906001600160a01b031681565b6101d76101d23660046114c9565b610d51565b604080516001600160a01b0390941684526020840192909252151590820152606001610117565b61016f61020c366004611894565b610dd9565b61016f611221565b61016f6102273660046115dc565b611235565b6000546001600160a01b0316610199565b600454610199906001600160a01b031681565b61016f61025e3660046115dc565b611348565b61016f6102713660046115dc565b611401565b60026020819052600091825260409091208054600182015492820180546001600160a01b039092169392916102aa906118c0565b80601f01602080910402602001604051908101604052809291908181526020018280546102d6906118c0565b80156103235780601f106102f857610100808354040283529160200191610323565b820191906000526020600020905b81548152906001019060200180831161030657829003601f168201915b505050505090806003018054610338906118c0565b80601f0160208091040260200160405190810160405280929190818152602001828054610364906118c0565b80156103b15780601f10610386576101008083540402835291602001916103b1565b820191906000526020600020905b81548152906001019060200180831161039457829003601f168201915b5050505050908060040180546103c6906118c0565b80601f01602080910402602001604051908101604052809291908181526020018280546103f2906118c0565b801561043f5780601f106104145761010080835404028352916020019161043f565b820191906000526020600020905b81548152906001019060200180831161042257829003601f168201915b505050505090806005018054610454906118c0565b80601f0160208091040260200160405190810160405280929190818152602001828054610480906118c0565b80156104cd5780601f106104a2576101008083540402835291602001916104cd565b820191906000526020600020905b8154815290600101906020018083116104b057829003601f168201915b5050505050908060060180546104e2906118c0565b80601f016020809104026020016040519081016040528092919081815260200182805461050e906118c0565b801561055b5780601f106105305761010080835404028352916020019161055b565b820191906000526020600020905b81548152906001019060200180831161053e57829003601f168201915b50505050600783015460089093015491929160ff16905089565b60048054604051631f5bdf5d60e01b815233928101929092526001600160a01b031690631f5bdf5d90602401602060405180830381865afa1580156105be573d6000803e3d6000fd5b505050506040513d601f19601f820116820180604052508101906105e291906118f4565b8061065557506004805460405163daf60b7160e01b815233928101929092526001600160a01b03169063daf60b7190602401602060405180830381865afa158015610631573d6000803e3d6000fd5b505050506040513d601f19601f8201168201806040525081019061065591906118f4565b6106b05760405162461bcd60e51b815260206004820152602160248201527f4d75737420626520726567697374657265642075736572206f7220656e7469746044820152607960f81b60648201526084015b60405180910390fd5b600086116107005760405162461bcd60e51b815260206004820152601d60248201527f416d6f756e74206d7573742062652067726561746572207468616e203000000060448201526064016106a7565b6006546040516323b872dd60e01b8152336004820152306024820152604481018890526001600160a01b03909116906323b872dd906064016020604051808303816000875af1158015610757573d6000803e3d6000fd5b505050506040513d601f19601f8201168201806040525081019061077b91906118f4565b6107c75760405162461bcd60e51b815260206004820152601460248201527f55534443207472616e73666572206661696c656400000000000000000000000060448201526064016106a7565b60018054600091826107d88361192c565b90915550604080516101208101825233815260208082018b81528284018b8152606084018b9052608084018a905260a0840189905260c084018890524260e0850152600161010085018190526000878152600294859052959095208451815473ffffffffffffffffffffffffffffffffffffffff19166001600160a01b03909116178155915194820194909455925193945090929082019061087a9082611994565b506060820151600382019061088f9082611994565b50608082015160048201906108a49082611994565b5060a082015160058201906108b99082611994565b5060c082015160068201906108ce9082611994565b5060e08201516007820155610100909101516008909101805460ff1916911515919091179055604051878152339082907f35e9d1576a3cf0faf0d7e6d6fd53fcfebe5a51f7043238e20ff4125e5df657739060200160405180910390a350505050505050565b6060600060015467ffffffffffffffff811115610953576109536115fe565b6040519080825280602002602001820160405280156109de57816020015b6109cb60405180610120016040528060006001600160a01b03168152602001600081526020016060815260200160608152602001606081526020016060815260200160608152602001600081526020016000151581525090565b8152602001906001900390816109715790505b50905060005b600154811015610d4b5760008181526002602081815260409283902083516101208101855281546001600160a01b0316815260018201549281019290925291820180549193840191610a35906118c0565b80601f0160208091040260200160405190810160405280929190818152602001828054610a61906118c0565b8015610aae5780601f10610a8357610100808354040283529160200191610aae565b820191906000526020600020905b815481529060010190602001808311610a9157829003601f168201915b50505050508152602001600382018054610ac7906118c0565b80601f0160208091040260200160405190810160405280929190818152602001828054610af3906118c0565b8015610b405780601f10610b1557610100808354040283529160200191610b40565b820191906000526020600020905b815481529060010190602001808311610b2357829003601f168201915b50505050508152602001600482018054610b59906118c0565b80601f0160208091040260200160405190810160405280929190818152602001828054610b85906118c0565b8015610bd25780601f10610ba757610100808354040283529160200191610bd2565b820191906000526020600020905b815481529060010190602001808311610bb557829003601f168201915b50505050508152602001600582018054610beb906118c0565b80601f0160208091040260200160405190810160405280929190818152602001828054610c17906118c0565b8015610c645780601f10610c3957610100808354040283529160200191610c64565b820191906000526020600020905b815481529060010190602001808311610c4757829003601f168201915b50505050508152602001600682018054610c7d906118c0565b80601f0160208091040260200160405190810160405280929190818152602001828054610ca9906118c0565b8015610cf65780601f10610ccb57610100808354040283529160200191610cf6565b820191906000526020600020905b815481529060010190602001808311610cd957829003601f168201915b50505091835250506007820154602082015260089091015460ff1615156040909101528251839083908110610d2d57610d2d611a54565b60200260200101819052508080610d439061192c565b9150506109e4565b50919050565b60008060006001548410610da75760405162461bcd60e51b815260206004820152601360248201527f506f737420646f6573206e6f742065786973740000000000000000000000000060448201526064016106a7565b5050506000908152600260205260409020805460018201546008909201546001600160a01b039091169260ff90911690565b6001548210610e2a5760405162461bcd60e51b815260206004820152601360248201527f506f737420646f6573206e6f742065786973740000000000000000000000000060448201526064016106a7565b6000828152600260205260409020600881015460ff16610e8c5760405162461bcd60e51b815260206004820152601660248201527f506f737420697320616c726561647920636c6f7365640000000000000000000060448201526064016106a7565b80546001600160a01b0316331480610eb357503360009081526003602052604090205460ff165b610f0b5760405162461bcd60e51b8152602060048201526024808201527f4f6e6c792063726561746f72206f72206167656e742063616e20636c6f7365206044820152631c1bdcdd60e21b60648201526084016106a7565b6001600160a01b038216610f615760405162461bcd60e51b815260206004820152601b60248201527f496e76616c69642062656e65666963696172792061646472657373000000000060448201526064016106a7565b60088101805460ff191690556001810154600090606490610f83906061611a6a565b610f8d9190611a87565b90506000818360010154610fa19190611aa9565b6006546040516323b872dd60e01b81523060048201526001600160a01b038781166024830152604482018690529293509116906323b872dd906064016020604051808303816000875af1158015610ffc573d6000803e3d6000fd5b505050506040513d601f19601f8201168201806040525081019061102091906118f4565b61106c5760405162461bcd60e51b815260206004820181905260248201527f42656e65666963696172792055534443207472616e73666572206661696c656460448201526064016106a7565b6006546001600160a01b03166323b872dd306110906000546001600160a01b031690565b6040517fffffffff0000000000000000000000000000000000000000000000000000000060e085901b1681526001600160a01b03928316600482015291166024820152604481018490526064016020604051808303816000875af11580156110fc573d6000803e3d6000fd5b505050506040513d601f19601f8201168201806040525081019061112091906118f4565b61116c5760405162461bcd60e51b815260206004820152601a60248201527f4f776e65722055534443207472616e73666572206661696c656400000000000060448201526064016106a7565b6005546040516340c10f1960e01b81526001600160a01b03868116600483015260326024830152909116906340c10f1990604401600060405180830381600087803b1580156111ba57600080fd5b505af11580156111ce573d6000803e3d6000fd5b50505050836001600160a01b0316857f8e6176efb8452374af8fe3c248fb188d55bdefdd985dfcbe1057dbf0a6af7511856001015460405161121291815260200190565b60405180910390a35050505050565b61122961143f565b611233600061146c565b565b61123d61143f565b6001600160a01b0381166112935760405162461bcd60e51b815260206004820181905260248201527f43616e6e6f7420616464207a65726f2061646472657373206173206167656e7460448201526064016106a7565b6001600160a01b03811660009081526003602052604090205460ff16156112fc5760405162461bcd60e51b815260206004820152601b60248201527f4164647265737320697320616c726561647920616e206167656e74000000000060448201526064016106a7565b6001600160a01b038116600081815260036020526040808220805460ff19166001179055517ff68e73cec97f2d70aa641fb26e87a4383686e2efacb648f2165aeb02ac562ec59190a250565b61135061143f565b6001600160a01b03811660009081526003602052604090205460ff166113b85760405162461bcd60e51b815260206004820152601760248201527f41646472657373206973206e6f7420616e206167656e7400000000000000000060448201526064016106a7565b6001600160a01b038116600081815260036020526040808220805460ff19169055517fed9c8ad8d5a0a66898ea49d2956929c93ae2e8bd50281b2ed897c5d1a6737e0b9190a250565b61140961143f565b6001600160a01b03811661143357604051631e4fbdf760e01b8152600060048201526024016106a7565b61143c8161146c565b50565b6000546001600160a01b031633146112335760405163118cdaa760e01b81523360048201526024016106a7565b600080546001600160a01b0383811673ffffffffffffffffffffffffffffffffffffffff19831681178455604051919092169283917f8be0079c531659141344cd1fd0a4f28419497f9722a3daafe3b4186f6b6457e09190a35050565b6000602082840312156114db57600080fd5b5035919050565b6000815180845260005b81811015611508576020818501810151868301820152016114ec565b506000602082860101526020601f19601f83011685010191505092915050565b60006101206001600160a01b038c1683528a60208401528060408401526115518184018b6114e2565b90508281036060840152611565818a6114e2565b9050828103608084015261157981896114e2565b905082810360a084015261158d81886114e2565b905082810360c08401526115a181876114e2565b60e0840195909552505090151561010090910152979650505050505050565b80356001600160a01b03811681146115d757600080fd5b919050565b6000602082840312156115ee57600080fd5b6115f7826115c0565b9392505050565b634e487b7160e01b600052604160045260246000fd5b600082601f83011261162557600080fd5b813567ffffffffffffffff80821115611640576116406115fe565b604051601f8301601f19908116603f01168101908282118183101715611668576116686115fe565b8160405283815286602085880101111561168157600080fd5b836020870160208301376000602085830101528094505050505092915050565b60008060008060008060c087890312156116ba57600080fd5b86359550602087013567ffffffffffffffff808211156116d957600080fd5b6116e58a838b01611614565b965060408901359150808211156116fb57600080fd5b6117078a838b01611614565b9550606089013591508082111561171d57600080fd5b6117298a838b01611614565b9450608089013591508082111561173f57600080fd5b61174b8a838b01611614565b935060a089013591508082111561176157600080fd5b5061176e89828a01611614565b9150509295509295509295565b60006020808301818452808551808352604092508286019150828160051b87010184880160005b8381101561188657888303603f19018552815180516001600160a01b0316845261012088820151898601528782015181898701526117e2828701826114e2565b915050606080830151868303828801526117fc83826114e2565b925050506080808301518683038288015261181783826114e2565b9250505060a0808301518683038288015261183283826114e2565b9250505060c0808301518683038288015261184d83826114e2565b9250505060e08083015181870152506101008083015192506118728187018415159052565b5095880195935050908601906001016117a2565b509098975050505050505050565b600080604083850312156118a757600080fd5b823591506118b7602084016115c0565b90509250929050565b600181811c908216806118d457607f821691505b602082108103610d4b57634e487b7160e01b600052602260045260246000fd5b60006020828403121561190657600080fd5b815180151581146115f757600080fd5b634e487b7160e01b600052601160045260246000fd5b60006001820161193e5761193e611916565b5060010190565b601f82111561198f57600081815260208120601f850160051c8101602086101561196c5750805b601f850160051c820191505b8181101561198b57828155600101611978565b5050505b505050565b815167ffffffffffffffff8111156119ae576119ae6115fe565b6119c2816119bc84546118c0565b84611945565b602080601f8311600181146119f757600084156119df5750858301515b600019600386901b1c1916600185901b17855561198b565b600085815260208120601f198616915b82811015611a2657888601518255948401946001909101908401611a07565b5085821015611a445787850151600019600388901b60f8161c191681555b5050505050600190811b01905550565b634e487b7160e01b600052603260045260246000fd5b8082028115828204841417611a8157611a81611916565b92915050565b600082611aa457634e487b7160e01b600052601260045260246000fd5b500490565b81810381811115611a8157611a8161191656fea2646970667358221220dd8416e1db606f52a11ad9b3b4ab32cdcf692da1911770552f939c44f12fe42964736f6c63430008140033",
  "devdoc": {
    "errors": {
      "OwnableInvalidOwner(address)": [
        {
          "details": "The owner is not a valid owner account. (eg. `address(0)`)"
        }
      ],
      "OwnableUnauthorizedAccount(address)": [
        {
          "details": "The caller account is not authorized to perform an operation."
        }
      ]
    },
    "kind": "dev",
    "methods": {
      "addAgent(address)": {
        "details": "Adds a new agent",
        "params": {
          "_agent": "Address of the agent to add"
        }
      },
      "closePost(uint256,address)": {
        "details": "Closes a post and distributes the reward",
        "params": {
          "_beneficiary": "Address to receive the reward",
          "_postId": "ID of the post to close"
        }
      },
      "createPost(uint256,string,string,string,string,string)": {
        "details": "Creates a new post with a reward amount",
        "params": {
          "_amount": "Amount of USDC for the reward"
        }
      },
      "getAllPosts()": {
        "details": "Returns all posts.",
        "returns": {
          "_0": "allPosts An array of Post structs containing all the posts."
        }
      },
      "getPost(uint256)": {
        "details": "Returns post information",
        "params": {
          "_postId": "ID of the post"
        }
      },
      "isAgent(address)": {
        "details": "Checks if an address is an agent",
        "params": {
          "_address": "Address to check"
        }
      },
      "owner()": {
        "details": "Returns the address of the current owner."
      },
      "removeAgent(address)": {
        "details": "Removes an agent",
        "params": {
          "_agent": "Address of the agent to remove"
        }
      },
      "renounceOwnership()": {
        "details": "Leaves the contract without owner. It will not be possible to call `onlyOwner` functions. Can only be called by the current owner. NOTE: Renouncing ownership will leave the contract without an owner, thereby disabling any functionality that is only available to the owner."
      },
      "transferOwnership(address)": {
        "details": "Transfers ownership of the contract to a new account (`newOwner`). Can only be called by the current owner."
      }
    },
    "version": 1
  },
  "userdoc": {
    "kind": "user",
    "methods": {},
    "version": 1
  },
  "storageLayout": {
    "storage": [
      {
        "astId": 8,
        "contract": "contracts/FindPet.sol:FindPet",
        "label": "_owner",
        "offset": 0,
        "slot": "0",
        "type": "t_address"
      },
      {
        "astId": 1548,
        "contract": "contracts/FindPet.sol:FindPet",
        "label": "postIdCounter",
        "offset": 0,
        "slot": "1",
        "type": "t_uint256"
      },
      {
        "astId": 1572,
        "contract": "contracts/FindPet.sol:FindPet",
        "label": "posts",
        "offset": 0,
        "slot": "2",
        "type": "t_mapping(t_uint256,t_struct(Post)1567_storage)"
      },
      {
        "astId": 1576,
        "contract": "contracts/FindPet.sol:FindPet",
        "label": "agents",
        "offset": 0,
        "slot": "3",
        "type": "t_mapping(t_address,t_bool)"
      },
      {
        "astId": 1595,
        "contract": "contracts/FindPet.sol:FindPet",
        "label": "registerUsers",
        "offset": 0,
        "slot": "4",
        "type": "t_contract(RegisterUsers)3447"
      },
      {
        "astId": 1598,
        "contract": "contracts/FindPet.sol:FindPet",
        "label": "tokenPawsForHopeToken",
        "offset": 0,
        "slot": "5",
        "type": "t_contract(PawsForHopeToken)2455"
      },
      {
        "astId": 1601,
        "contract": "contracts/FindPet.sol:FindPet",
        "label": "usdc",
        "offset": 0,
        "slot": "6",
        "type": "t_contract(IERC20)877"
      }
    ],
    "types": {
      "t_address": {
        "encoding": "inplace",
        "label": "address",
        "numberOfBytes": "20"
      },
      "t_bool": {
        "encoding": "inplace",
        "label": "bool",
        "numberOfBytes": "1"
      },
      "t_contract(IERC20)877": {
        "encoding": "inplace",
        "label": "contract IERC20",
        "numberOfBytes": "20"
      },
      "t_contract(PawsForHopeToken)2455": {
        "encoding": "inplace",
        "label": "contract PawsForHopeToken",
        "numberOfBytes": "20"
      },
      "t_contract(RegisterUsers)3447": {
        "encoding": "inplace",
        "label": "contract RegisterUsers",
        "numberOfBytes": "20"
      },
      "t_mapping(t_address,t_bool)": {
        "encoding": "mapping",
        "key": "t_address",
        "label": "mapping(address => bool)",
        "numberOfBytes": "32",
        "value": "t_bool"
      },
      "t_mapping(t_uint256,t_struct(Post)1567_storage)": {
        "encoding": "mapping",
        "key": "t_uint256",
        "label": "mapping(uint256 => struct FindPet.Post)",
        "numberOfBytes": "32",
        "value": "t_struct(Post)1567_storage"
      },
      "t_string_storage": {
        "encoding": "bytes",
        "label": "string",
        "numberOfBytes": "32"
      },
      "t_struct(Post)1567_storage": {
        "encoding": "inplace",
        "label": "struct FindPet.Post",
        "members": [
          {
            "astId": 1550,
            "contract": "contracts/FindPet.sol:FindPet",
            "label": "creator",
            "offset": 0,
            "slot": "0",
            "type": "t_address"
          },
          {
            "astId": 1552,
            "contract": "contracts/FindPet.sol:FindPet",
            "label": "amount",
            "offset": 0,
            "slot": "1",
            "type": "t_uint256"
          },
          {
            "astId": 1554,
            "contract": "contracts/FindPet.sol:FindPet",
            "label": "imgUrl",
            "offset": 0,
            "slot": "2",
            "type": "t_string_storage"
          },
          {
            "astId": 1556,
            "contract": "contracts/FindPet.sol:FindPet",
            "label": "petName",
            "offset": 0,
            "slot": "3",
            "type": "t_string_storage"
          },
          {
            "astId": 1558,
            "contract": "contracts/FindPet.sol:FindPet",
            "label": "description",
            "offset": 0,
            "slot": "4",
            "type": "t_string_storage"
          },
          {
            "astId": 1560,
            "contract": "contracts/FindPet.sol:FindPet",
            "label": "location",
            "offset": 0,
            "slot": "5",
            "type": "t_string_storage"
          },
          {
            "astId": 1562,
            "contract": "contracts/FindPet.sol:FindPet",
            "label": "contactInfo",
            "offset": 0,
            "slot": "6",
            "type": "t_string_storage"
          },
          {
            "astId": 1564,
            "contract": "contracts/FindPet.sol:FindPet",
            "label": "timestamp",
            "offset": 0,
            "slot": "7",
            "type": "t_uint256"
          },
          {
            "astId": 1566,
            "contract": "contracts/FindPet.sol:FindPet",
            "label": "isOpen",
            "offset": 0,
            "slot": "8",
            "type": "t_bool"
          }
        ],
        "numberOfBytes": "288"
      },
      "t_uint256": {
        "encoding": "inplace",
        "label": "uint256",
        "numberOfBytes": "32"
      }
    }
  }
}