{
  "address": "0x5091F028b9a4151EE9acDF255B3a55263508dEa3",
  "abi": [
    {
      "inputs": [],
      "stateMutability": "nonpayable",
      "type": "constructor"
    },
    {
      "inputs": [
        {
          "internalType": "address",
          "name": "spender",
          "type": "address"
        },
        {
          "internalType": "uint256",
          "name": "allowance",
          "type": "uint256"
        },
        {
          "internalType": "uint256",
          "name": "needed",
          "type": "uint256"
        }
      ],
      "name": "ERC20InsufficientAllowance",
      "type": "error"
    },
    {
      "inputs": [
        {
          "internalType": "address",
          "name": "sender",
          "type": "address"
        },
        {
          "internalType": "uint256",
          "name": "balance",
          "type": "uint256"
        },
        {
          "internalType": "uint256",
          "name": "needed",
          "type": "uint256"
        }
      ],
      "name": "ERC20InsufficientBalance",
      "type": "error"
    },
    {
      "inputs": [
        {
          "internalType": "address",
          "name": "approver",
          "type": "address"
        }
      ],
      "name": "ERC20InvalidApprover",
      "type": "error"
    },
    {
      "inputs": [
        {
          "internalType": "address",
          "name": "receiver",
          "type": "address"
        }
      ],
      "name": "ERC20InvalidReceiver",
      "type": "error"
    },
    {
      "inputs": [
        {
          "internalType": "address",
          "name": "sender",
          "type": "address"
        }
      ],
      "name": "ERC20InvalidSender",
      "type": "error"
    },
    {
      "inputs": [
        {
          "internalType": "address",
          "name": "spender",
          "type": "address"
        }
      ],
      "name": "ERC20InvalidSpender",
      "type": "error"
    },
    {
      "inputs": [
        {
          "internalType": "address",
          "name": "owner",
          "type": "address"
        }
      ],
      "name": "OwnableInvalidOwner",
      "type": "error"
    },
    {
      "inputs": [
        {
          "internalType": "address",
          "name": "account",
          "type": "address"
        }
      ],
      "name": "OwnableUnauthorizedAccount",
      "type": "error"
    },
    {
      "anonymous": false,
      "inputs": [
        {
          "indexed": true,
          "internalType": "address",
          "name": "account",
          "type": "address"
        },
        {
          "indexed": false,
          "internalType": "bool",
          "name": "frozen",
          "type": "bool"
        }
      ],
      "name": "AccountFrozen",
      "type": "event"
    },
    {
      "anonymous": false,
      "inputs": [
        {
          "indexed": true,
          "internalType": "address",
          "name": "agent",
          "type": "address"
        }
      ],
      "name": "AgentAdded",
      "type": "event"
    },
    {
      "anonymous": false,
      "inputs": [
        {
          "indexed": true,
          "internalType": "address",
          "name": "agent",
          "type": "address"
        }
      ],
      "name": "AgentRemoved",
      "type": "event"
    },
    {
      "anonymous": false,
      "inputs": [
        {
          "indexed": true,
          "internalType": "address",
          "name": "owner",
          "type": "address"
        },
        {
          "indexed": true,
          "internalType": "address",
          "name": "spender",
          "type": "address"
        },
        {
          "indexed": false,
          "internalType": "uint256",
          "name": "value",
          "type": "uint256"
        }
      ],
      "name": "Approval",
      "type": "event"
    },
    {
      "anonymous": false,
      "inputs": [
        {
          "indexed": true,
          "internalType": "address",
          "name": "from",
          "type": "address"
        },
        {
          "indexed": true,
          "internalType": "address",
          "name": "to",
          "type": "address"
        },
        {
          "indexed": false,
          "internalType": "uint256",
          "name": "value",
          "type": "uint256"
        }
      ],
      "name": "ForcedTransfer",
      "type": "event"
    },
    {
      "anonymous": false,
      "inputs": [
        {
          "indexed": false,
          "internalType": "bool",
          "name": "frozen",
          "type": "bool"
        }
      ],
      "name": "GlobalFreeze",
      "type": "event"
    },
    {
      "anonymous": false,
      "inputs": [
        {
          "indexed": true,
          "internalType": "address",
          "name": "previousOwner",
          "type": "address"
        },
        {
          "indexed": true,
          "internalType": "address",
          "name": "newOwner",
          "type": "address"
        }
      ],
      "name": "OwnershipTransferred",
      "type": "event"
    },
    {
      "anonymous": false,
      "inputs": [
        {
          "indexed": true,
          "internalType": "address",
          "name": "from",
          "type": "address"
        },
        {
          "indexed": false,
          "internalType": "uint256",
          "name": "value",
          "type": "uint256"
        }
      ],
      "name": "TokensRevoked",
      "type": "event"
    },
    {
      "anonymous": false,
      "inputs": [
        {
          "indexed": true,
          "internalType": "address",
          "name": "from",
          "type": "address"
        },
        {
          "indexed": true,
          "internalType": "address",
          "name": "to",
          "type": "address"
        },
        {
          "indexed": false,
          "internalType": "uint256",
          "name": "value",
          "type": "uint256"
        }
      ],
      "name": "Transfer",
      "type": "event"
    },
    {
      "inputs": [
        {
          "internalType": "address",
          "name": "_agent",
          "type": "address"
        }
      ],
      "name": "addAgent",
      "outputs": [],
      "stateMutability": "nonpayable",
      "type": "function"
    },
    {
      "inputs": [
        {
          "internalType": "address",
          "name": "owner",
          "type": "address"
        },
        {
          "internalType": "address",
          "name": "spender",
          "type": "address"
        }
      ],
      "name": "allowance",
      "outputs": [
        {
          "internalType": "uint256",
          "name": "",
          "type": "uint256"
        }
      ],
      "stateMutability": "view",
      "type": "function"
    },
    {
      "inputs": [
        {
          "internalType": "address",
          "name": "spender",
          "type": "address"
        },
        {
          "internalType": "uint256",
          "name": "value",
          "type": "uint256"
        }
      ],
      "name": "approve",
      "outputs": [
        {
          "internalType": "bool",
          "name": "",
          "type": "bool"
        }
      ],
      "stateMutability": "nonpayable",
      "type": "function"
    },
    {
      "inputs": [
        {
          "internalType": "address",
          "name": "account",
          "type": "address"
        }
      ],
      "name": "balanceOf",
      "outputs": [
        {
          "internalType": "uint256",
          "name": "",
          "type": "uint256"
        }
      ],
      "stateMutability": "view",
      "type": "function"
    },
    {
      "inputs": [
        {
          "internalType": "address",
          "name": "from",
          "type": "address"
        },
        {
          "internalType": "uint256",
          "name": "amount",
          "type": "uint256"
        }
      ],
      "name": "burn",
      "outputs": [],
      "stateMutability": "nonpayable",
      "type": "function"
    },
    {
      "inputs": [],
      "name": "decimals",
      "outputs": [
        {
          "internalType": "uint8",
          "name": "",
          "type": "uint8"
        }
      ],
      "stateMutability": "view",
      "type": "function"
    },
    {
      "inputs": [
        {
          "internalType": "address",
          "name": "from",
          "type": "address"
        },
        {
          "internalType": "address",
          "name": "to",
          "type": "address"
        },
        {
          "internalType": "uint256",
          "name": "amount",
          "type": "uint256"
        }
      ],
      "name": "forceTransfer",
      "outputs": [],
      "stateMutability": "nonpayable",
      "type": "function"
    },
    {
      "inputs": [
        {
          "internalType": "address",
          "name": "account",
          "type": "address"
        }
      ],
      "name": "freezeAccount",
      "outputs": [],
      "stateMutability": "nonpayable",
      "type": "function"
    },
    {
      "inputs": [],
      "name": "freezeGlobal",
      "outputs": [],
      "stateMutability": "nonpayable",
      "type": "function"
    },
    {
      "inputs": [
        {
          "internalType": "address",
          "name": "to",
          "type": "address"
        },
        {
          "internalType": "uint256",
          "name": "amount",
          "type": "uint256"
        }
      ],
      "name": "mint",
      "outputs": [],
      "stateMutability": "nonpayable",
      "type": "function"
    },
    {
      "inputs": [],
      "name": "name",
      "outputs": [
        {
          "internalType": "string",
          "name": "",
          "type": "string"
        }
      ],
      "stateMutability": "view",
      "type": "function"
    },
    {
      "inputs": [],
      "name": "owner",
      "outputs": [
        {
          "internalType": "address",
          "name": "",
          "type": "address"
        }
      ],
      "stateMutability": "view",
      "type": "function"
    },
    {
      "inputs": [],
      "name": "redeemAddressContract",
      "outputs": [
        {
          "internalType": "address",
          "name": "",
          "type": "address"
        }
      ],
      "stateMutability": "view",
      "type": "function"
    },
    {
      "inputs": [
        {
          "internalType": "address",
          "name": "_agent",
          "type": "address"
        }
      ],
      "name": "removeAgent",
      "outputs": [],
      "stateMutability": "nonpayable",
      "type": "function"
    },
    {
      "inputs": [],
      "name": "renounceOwnership",
      "outputs": [],
      "stateMutability": "nonpayable",
      "type": "function"
    },
    {
      "inputs": [
        {
          "internalType": "address",
          "name": "from",
          "type": "address"
        },
        {
          "internalType": "uint256",
          "name": "amount",
          "type": "uint256"
        }
      ],
      "name": "revokeTokens",
      "outputs": [],
      "stateMutability": "nonpayable",
      "type": "function"
    },
    {
      "inputs": [
        {
          "internalType": "address",
          "name": "_redeemAddress",
          "type": "address"
        }
      ],
      "name": "setRedeemAddressContract",
      "outputs": [],
      "stateMutability": "nonpayable",
      "type": "function"
    },
    {
      "inputs": [],
      "name": "symbol",
      "outputs": [
        {
          "internalType": "string",
          "name": "",
          "type": "string"
        }
      ],
      "stateMutability": "view",
      "type": "function"
    },
    {
      "inputs": [],
      "name": "totalSupply",
      "outputs": [
        {
          "internalType": "uint256",
          "name": "",
          "type": "uint256"
        }
      ],
      "stateMutability": "view",
      "type": "function"
    },
    {
      "inputs": [
        {
          "internalType": "address",
          "name": "to",
          "type": "address"
        },
        {
          "internalType": "uint256",
          "name": "amount",
          "type": "uint256"
        }
      ],
      "name": "transfer",
      "outputs": [
        {
          "internalType": "bool",
          "name": "",
          "type": "bool"
        }
      ],
      "stateMutability": "nonpayable",
      "type": "function"
    },
    {
      "inputs": [
        {
          "internalType": "address",
          "name": "from",
          "type": "address"
        },
        {
          "internalType": "address",
          "name": "to",
          "type": "address"
        },
        {
          "internalType": "uint256",
          "name": "amount",
          "type": "uint256"
        }
      ],
      "name": "transferFrom",
      "outputs": [
        {
          "internalType": "bool",
          "name": "",
          "type": "bool"
        }
      ],
      "stateMutability": "nonpayable",
      "type": "function"
    },
    {
      "inputs": [
        {
          "internalType": "address",
          "name": "newOwner",
          "type": "address"
        }
      ],
      "name": "transferOwnership",
      "outputs": [],
      "stateMutability": "nonpayable",
      "type": "function"
    },
    {
      "inputs": [
        {
          "internalType": "address",
          "name": "account",
          "type": "address"
        }
      ],
      "name": "unfreezeAccount",
      "outputs": [],
      "stateMutability": "nonpayable",
      "type": "function"
    },
    {
      "inputs": [],
      "name": "unfreezeGlobal",
      "outputs": [],
      "stateMutability": "nonpayable",
      "type": "function"
    }
  ],
  "transactionHash": "0x86d39d5f62330498caa321b34daedaa59f1822f6aa69b507503c094511a9c29c",
  "args": [],
  "numDeployments": 2,
  "solcInputHash": "6f4fcf22caf99c7c57c3a6335cd04135",
  "bytecode": "0x60806040523480156200001157600080fd5b50336040518060400160405280601381526020017f5061777320466f7220486f706520546f6b656e00000000000000000000000000815250604051806040016040528060048152602001631411921560e21b8152508160039081620000779190620001c1565b506004620000868282620001c1565b5050506001600160a01b038116620000b857604051631e4fbdf760e01b81526000600482015260240160405180910390fd5b620000c381620000ca565b506200028d565b600580546001600160a01b038381166001600160a01b0319831681179093556040519116919082907f8be0079c531659141344cd1fd0a4f28419497f9722a3daafe3b4186f6b6457e090600090a35050565b634e487b7160e01b600052604160045260246000fd5b600181811c908216806200014757607f821691505b6020821081036200016857634e487b7160e01b600052602260045260246000fd5b50919050565b601f821115620001bc57600081815260208120601f850160051c81016020861015620001975750805b601f850160051c820191505b81811015620001b857828155600101620001a3565b5050505b505050565b81516001600160401b03811115620001dd57620001dd6200011c565b620001f581620001ee845462000132565b846200016e565b602080601f8311600181146200022d5760008415620002145750858301515b600019600386901b1c1916600185901b178555620001b8565b600085815260208120601f198616915b828110156200025e578886015182559484019460019091019084016200023d565b50858210156200027d5787850151600019600388901b60f8161c191681555b5050505050600190811b01905550565b6114b5806200029d6000396000f3fe608060405234801561001057600080fd5b50600436106101985760003560e01c806384e79842116100e3578063a9059cbb1161008c578063dd62ed3e11610066578063dd62ed3e14610345578063f26c159f1461037e578063f2fde38b1461039157600080fd5b8063a9059cbb14610312578063ac5f1c9f14610325578063bf7ff0481461033d57600080fd5b806397a6278e116100bd57806397a6278e146102d95780639dc29fac146102ec578063a1f98b93146102ff57600080fd5b806384e79842146102995780638da5cb5b146102ac57806395d89b41146102d157600080fd5b806340c10f1911610145578063715018a61161011f578063715018a61461026b578063721a37d214610273578063788649ea1461028657600080fd5b806340c10f191461022757806349fc73191461023a57806370a082311461024257600080fd5b806323b872dd1161017657806323b872dd146101f0578063313ce5671461020357806333bebb771461021257600080fd5b806306fdde031461019d578063095ea7b3146101bb57806318160ddd146101de575b600080fd5b6101a56103a4565b6040516101b29190611306565b60405180910390f35b6101ce6101c9366004611370565b610436565b60405190151581526020016101b2565b6002545b6040519081526020016101b2565b6101ce6101fe36600461139a565b610450565b604051601281526020016101b2565b61022561022036600461139a565b6104e2565b005b610225610235366004611370565b6106c4565b6102256106d2565b6101e26102503660046113d6565b6001600160a01b031660009081526020819052604090205490565b610225610783565b610225610281366004611370565b610797565b6102256102943660046113d6565b610929565b6102256102a73660046113d6565b610aa8565b6005546001600160a01b03165b6040516001600160a01b0390911681526020016101b2565b6101a5610afc565b6102256102e73660046113d6565b610b0b565b6102256102fa366004611370565b610b5c565b61022561030d3660046113d6565b610bd1565b6101ce610320366004611370565b610c6e565b6008546102b99061010090046001600160a01b031681565b610225610cf9565b6101e26103533660046113f1565b6001600160a01b03918216600090815260016020908152604080832093909416825291909152205490565b61022561038c3660046113d6565b610d9f565b61022561039f3660046113d6565b610eb7565b6060600380546103b390611424565b80601f01602080910402602001604051908101604052809291908181526020018280546103df90611424565b801561042c5780601f106104015761010080835404028352916020019161042c565b820191906000526020600020905b81548152906001019060200180831161040f57829003601f168201915b5050505050905090565b600033610444818585610ef5565b60019150505b92915050565b6008546000906001600160a01b0384811661010090920416146104cf5760405162461bcd60e51b815260206004820152602c60248201527f5472616e736665727320617265206f6e6c7920616c6c6f77656420746f20726560448201526b6465656d206164647265737360a01b60648201526084015b60405180910390fd5b6104da848484610f07565b949350505050565b3360009081526006602052604090205460ff1661054d5760405162461bcd60e51b815260206004820152602360248201527f4f6e6c79206167656e74732063616e20706572666f726d20746869732061637460448201526234b7b760e91b60648201526084016104c6565b6001600160a01b0383166105a35760405162461bcd60e51b815260206004820152601a60248201527f5472616e736665722066726f6d207a65726f206164647265737300000000000060448201526064016104c6565b6001600160a01b0382166105f95760405162461bcd60e51b815260206004820152601860248201527f5472616e7366657220746f207a65726f2061646472657373000000000000000060448201526064016104c6565b80610619846001600160a01b031660009081526020819052604090205490565b10156106675760405162461bcd60e51b815260206004820152601460248201527f496e73756666696369656e742062616c616e636500000000000000000000000060448201526064016104c6565b610672838383610f2b565b816001600160a01b0316836001600160a01b03167f7b3ce50c216d2ccf9919c6b9f1bfb33f0350a33010f188750b4af38e00448138836040516106b791815260200190565b60405180910390a3505050565b6106ce8282610f8a565b5050565b3360009081526006602052604090205460ff1661073d5760405162461bcd60e51b815260206004820152602360248201527f4f6e6c79206167656e74732063616e20706572666f726d20746869732061637460448201526234b7b760e91b60648201526084016104c6565b6008805460ff191660019081179091556040519081527fee2c272f4a21f65428f2e80154e4e11f33a295b066693d03ac5f8a0f723723c5906020015b60405180910390a1565b61078b610fc0565b6107956000610fed565b565b3360009081526006602052604090205460ff166108025760405162461bcd60e51b815260206004820152602360248201527f4f6e6c79206167656e74732063616e20706572666f726d20746869732061637460448201526234b7b760e91b60648201526084016104c6565b6001600160a01b0382166108585760405162461bcd60e51b815260206004820152601860248201527f5265766f6b652066726f6d207a65726f2061646472657373000000000000000060448201526064016104c6565b80610878836001600160a01b031660009081526020819052604090205490565b10156108c65760405162461bcd60e51b815260206004820152601460248201527f496e73756666696369656e742062616c616e636500000000000000000000000060448201526064016104c6565b6108e2826108dc6005546001600160a01b031690565b83610f2b565b816001600160a01b03167fb73c49a3a37a7aca291ba0ceaa41657012def406106a7fc386888f0f66e941cf8260405161091d91815260200190565b60405180910390a25050565b3360009081526006602052604090205460ff166109945760405162461bcd60e51b815260206004820152602360248201527f4f6e6c79206167656e74732063616e20706572666f726d20746869732061637460448201526234b7b760e91b60648201526084016104c6565b6001600160a01b0381166109ea5760405162461bcd60e51b815260206004820152601c60248201527f43616e6e6f7420756e667265657a65207a65726f20616464726573730000000060448201526064016104c6565b6001600160a01b03811660009081526007602052604090205460ff16610a525760405162461bcd60e51b815260206004820152601560248201527f4163636f756e74206973206e6f742066726f7a656e000000000000000000000060448201526064016104c6565b6001600160a01b0381166000818152600760209081526040808320805460ff19169055519182527fa33e6b076d391e96626483b30e365719f79f1d6594aff6587649ffd6c82ed7fa91015b60405180910390a250565b610ab0610fc0565b6001600160a01b038116600081815260066020526040808220805460ff19166001179055517ff68e73cec97f2d70aa641fb26e87a4383686e2efacb648f2165aeb02ac562ec59190a250565b6060600480546103b390611424565b610b13610fc0565b6001600160a01b038116600081815260066020526040808220805460ff19169055517fed9c8ad8d5a0a66898ea49d2956929c93ae2e8bd50281b2ed897c5d1a6737e0b9190a250565b3360009081526006602052604090205460ff16610bc75760405162461bcd60e51b815260206004820152602360248201527f4f6e6c79206167656e74732063616e20706572666f726d20746869732061637460448201526234b7b760e91b60648201526084016104c6565b6106ce8282611057565b610bd9610fc0565b6001600160a01b038116610c2f5760405162461bcd60e51b815260206004820152601760248201527f43616e6e6f7420736574207a65726f206164647265737300000000000000000060448201526064016104c6565b600880546001600160a01b03909216610100027fffffffffffffffffffffff0000000000000000000000000000000000000000ff909216919091179055565b6008546000906001600160a01b038481166101009092041614610ce85760405162461bcd60e51b815260206004820152602c60248201527f5472616e736665727320617265206f6e6c7920616c6c6f77656420746f20726560448201526b6465656d206164647265737360a01b60648201526084016104c6565b610cf2838361108d565b9392505050565b3360009081526006602052604090205460ff16610d645760405162461bcd60e51b815260206004820152602360248201527f4f6e6c79206167656e74732063616e20706572666f726d20746869732061637460448201526234b7b760e91b60648201526084016104c6565b6008805460ff19169055604051600081527fee2c272f4a21f65428f2e80154e4e11f33a295b066693d03ac5f8a0f723723c590602001610779565b3360009081526006602052604090205460ff16610e0a5760405162461bcd60e51b815260206004820152602360248201527f4f6e6c79206167656e74732063616e20706572666f726d20746869732061637460448201526234b7b760e91b60648201526084016104c6565b6001600160a01b038116610e605760405162461bcd60e51b815260206004820152601a60248201527f43616e6e6f7420667265657a65207a65726f206164647265737300000000000060448201526064016104c6565b6001600160a01b038116600081815260076020908152604091829020805460ff1916600190811790915591519182527fa33e6b076d391e96626483b30e365719f79f1d6594aff6587649ffd6c82ed7fa9101610a9d565b610ebf610fc0565b6001600160a01b038116610ee957604051631e4fbdf760e01b8152600060048201526024016104c6565b610ef281610fed565b50565b610f02838383600161109b565b505050565b600033610f15858285611171565b610f20858585610f2b565b506001949350505050565b6001600160a01b038316610f5557604051634b637e8f60e11b8152600060048201526024016104c6565b6001600160a01b038216610f7f5760405163ec442f0560e01b8152600060048201526024016104c6565b610f028383836111e9565b6001600160a01b038216610fb45760405163ec442f0560e01b8152600060048201526024016104c6565b6106ce600083836111e9565b6005546001600160a01b031633146107955760405163118cdaa760e01b81523360048201526024016104c6565b600580546001600160a01b038381167fffffffffffffffffffffffff0000000000000000000000000000000000000000831681179093556040519116919082907f8be0079c531659141344cd1fd0a4f28419497f9722a3daafe3b4186f6b6457e090600090a35050565b6001600160a01b03821661108157604051634b637e8f60e11b8152600060048201526024016104c6565b6106ce826000836111e9565b600033610444818585610f2b565b6001600160a01b0384166110c55760405163e602df0560e01b8152600060048201526024016104c6565b6001600160a01b0383166110ef57604051634a1406b160e11b8152600060048201526024016104c6565b6001600160a01b038085166000908152600160209081526040808320938716835292905220829055801561116b57826001600160a01b0316846001600160a01b03167f8c5be1e5ebec7d5bd14f71427d1e84f3dd0314c0f7b2291e5b200ac8c7c3b9258460405161116291815260200190565b60405180910390a35b50505050565b6001600160a01b03838116600090815260016020908152604080832093861683529290522054600019811461116b57818110156111da57604051637dc7a0d960e11b81526001600160a01b038416600482015260248101829052604481018390526064016104c6565b61116b8484848403600061109b565b6001600160a01b038316611214578060026000828254611209919061145e565b909155506112869050565b6001600160a01b038316600090815260208190526040902054818110156112675760405163391434e360e21b81526001600160a01b038516600482015260248101829052604481018390526064016104c6565b6001600160a01b03841660009081526020819052604090209082900390555b6001600160a01b0382166112a2576002805482900390556112c1565b6001600160a01b03821660009081526020819052604090208054820190555b816001600160a01b0316836001600160a01b03167fddf252ad1be2c89b69c2b068fc378daa952ba7f163c4a11628f55a4df523b3ef836040516106b791815260200190565b600060208083528351808285015260005b8181101561133357858101830151858201604001528201611317565b506000604082860101526040601f19601f8301168501019250505092915050565b80356001600160a01b038116811461136b57600080fd5b919050565b6000806040838503121561138357600080fd5b61138c83611354565b946020939093013593505050565b6000806000606084860312156113af57600080fd5b6113b884611354565b92506113c660208501611354565b9150604084013590509250925092565b6000602082840312156113e857600080fd5b610cf282611354565b6000806040838503121561140457600080fd5b61140d83611354565b915061141b60208401611354565b90509250929050565b600181811c9082168061143857607f821691505b60208210810361145857634e487b7160e01b600052602260045260246000fd5b50919050565b8082018082111561044a57634e487b7160e01b600052601160045260246000fdfea264697066735822122049229f6cfda8570de093276d308fb49aeaee1518c300a6c1d758a3d63dcbda4c64736f6c63430008140033",
  "devdoc": {
    "errors": {
      "ERC20InsufficientAllowance(address,uint256,uint256)": [
        {
          "details": "Indicates a failure with the `spender`s `allowance`. Used in transfers.",
          "params": {
            "allowance": "Amount of tokens a `spender` is allowed to operate with.",
            "needed": "Minimum amount required to perform a transfer.",
            "spender": "Address that may be allowed to operate on tokens without being their owner."
          }
        }
      ],
      "ERC20InsufficientBalance(address,uint256,uint256)": [
        {
          "details": "Indicates an error related to the current `balance` of a `sender`. Used in transfers.",
          "params": {
            "balance": "Current balance for the interacting account.",
            "needed": "Minimum amount required to perform a transfer.",
            "sender": "Address whose tokens are being transferred."
          }
        }
      ],
      "ERC20InvalidApprover(address)": [
        {
          "details": "Indicates a failure with the `approver` of a token to be approved. Used in approvals.",
          "params": {
            "approver": "Address initiating an approval operation."
          }
        }
      ],
      "ERC20InvalidReceiver(address)": [
        {
          "details": "Indicates a failure with the token `receiver`. Used in transfers.",
          "params": {
            "receiver": "Address to which tokens are being transferred."
          }
        }
      ],
      "ERC20InvalidSender(address)": [
        {
          "details": "Indicates a failure with the token `sender`. Used in transfers.",
          "params": {
            "sender": "Address whose tokens are being transferred."
          }
        }
      ],
      "ERC20InvalidSpender(address)": [
        {
          "details": "Indicates a failure with the `spender` to be approved. Used in approvals.",
          "params": {
            "spender": "Address that may be allowed to operate on tokens without being their owner."
          }
        }
      ],
      "OwnableInvalidOwner(address)": [
        {
          "details": "The owner is not a valid owner account. (eg. `address(0)`)"
        }
      ],
      "OwnableUnauthorizedAccount(address)": [
        {
          "details": "The caller account is not authorized to perform an operation."
        }
      ]
    },
    "events": {
      "Approval(address,address,uint256)": {
        "details": "Emitted when the allowance of a `spender` for an `owner` is set by a call to {approve}. `value` is the new allowance."
      },
      "Transfer(address,address,uint256)": {
        "details": "Emitted when `value` tokens are moved from one account (`from`) to another (`to`). Note that `value` may be zero."
      }
    },
    "kind": "dev",
    "methods": {
      "allowance(address,address)": {
        "details": "See {IERC20-allowance}."
      },
      "approve(address,uint256)": {
        "details": "See {IERC20-approve}. NOTE: If `value` is the maximum `uint256`, the allowance is not updated on `transferFrom`. This is semantically equivalent to an infinite approval. Requirements: - `spender` cannot be the zero address."
      },
      "balanceOf(address)": {
        "details": "See {IERC20-balanceOf}."
      },
      "burn(address,uint256)": {
        "details": "Burns tokens from a specified address",
        "params": {
          "amount": "Amount of tokens to burn",
          "from": "Address to burn tokens from"
        }
      },
      "decimals()": {
        "details": "Returns the number of decimals used to get its user representation. For example, if `decimals` equals `2`, a balance of `505` tokens should be displayed to a user as `5.05` (`505 / 10 ** 2`). Tokens usually opt for a value of 18, imitating the relationship between Ether and Wei. This is the default value returned by this function, unless it's overridden. NOTE: This information is only used for _display_ purposes: it in no way affects any of the arithmetic of the contract, including {IERC20-balanceOf} and {IERC20-transfer}."
      },
      "forceTransfer(address,address,uint256)": {
        "details": "Forces a transfer between two addresses",
        "params": {
          "amount": "Amount of tokens to transfer",
          "from": "Source address",
          "to": "Destination address"
        }
      },
      "freezeAccount(address)": {
        "details": "Freezes a specific account",
        "params": {
          "account": "Address of the account to freeze"
        }
      },
      "freezeGlobal()": {
        "details": "Enables global freeze on all transfers"
      },
      "mint(address,uint256)": {
        "details": "Mints new tokens to a specified address",
        "params": {
          "amount": "Amount of tokens to mint",
          "to": "Address to receive the minted tokens"
        }
      },
      "name()": {
        "details": "Returns the name of the token."
      },
      "owner()": {
        "details": "Returns the address of the current owner."
      },
      "renounceOwnership()": {
        "details": "Leaves the contract without owner. It will not be possible to call `onlyOwner` functions. Can only be called by the current owner. NOTE: Renouncing ownership will leave the contract without an owner, thereby disabling any functionality that is only available to the owner."
      },
      "revokeTokens(address,uint256)": {
        "details": "Revokes tokens from an address and sends them to the owner",
        "params": {
          "amount": "Amount of tokens to revoke",
          "from": "Address to revoke tokens from"
        }
      },
      "symbol()": {
        "details": "Returns the symbol of the token, usually a shorter version of the name."
      },
      "totalSupply()": {
        "details": "See {IERC20-totalSupply}."
      },
      "transfer(address,uint256)": {
        "details": "Override of ERC20 transfer function to restrict transfers to redeem address only",
        "params": {
          "amount": "Amount of tokens to transfer",
          "to": "Destination address"
        }
      },
      "transferFrom(address,address,uint256)": {
        "details": "Override of ERC20 transferFrom function to restrict transfers to redeem address only",
        "params": {
          "amount": "Amount of tokens to transfer",
          "from": "Source address",
          "to": "Destination address"
        }
      },
      "transferOwnership(address)": {
        "details": "Transfers ownership of the contract to a new account (`newOwner`). Can only be called by the current owner."
      },
      "unfreezeAccount(address)": {
        "details": "Unfreezes a specific account",
        "params": {
          "account": "Address of the account to unfreeze"
        }
      },
      "unfreezeGlobal()": {
        "details": "Disables global freeze on all transfers"
      }
    },
    "version": 1
  },
  "userdoc": {
    "kind": "user",
    "methods": {},
    "version": 1
  },
  "storageLayout": {
    "storage": [
      {
        "astId": 307,
        "contract": "contracts/PawsForHopeToken.sol:PawsForHopeToken",
        "label": "_balances",
        "offset": 0,
        "slot": "0",
        "type": "t_mapping(t_address,t_uint256)"
      },
      {
        "astId": 313,
        "contract": "contracts/PawsForHopeToken.sol:PawsForHopeToken",
        "label": "_allowances",
        "offset": 0,
        "slot": "1",
        "type": "t_mapping(t_address,t_mapping(t_address,t_uint256))"
      },
      {
        "astId": 315,
        "contract": "contracts/PawsForHopeToken.sol:PawsForHopeToken",
        "label": "_totalSupply",
        "offset": 0,
        "slot": "2",
        "type": "t_uint256"
      },
      {
        "astId": 317,
        "contract": "contracts/PawsForHopeToken.sol:PawsForHopeToken",
        "label": "_name",
        "offset": 0,
        "slot": "3",
        "type": "t_string_storage"
      },
      {
        "astId": 319,
        "contract": "contracts/PawsForHopeToken.sol:PawsForHopeToken",
        "label": "_symbol",
        "offset": 0,
        "slot": "4",
        "type": "t_string_storage"
      },
      {
        "astId": 8,
        "contract": "contracts/PawsForHopeToken.sol:PawsForHopeToken",
        "label": "_owner",
        "offset": 0,
        "slot": "5",
        "type": "t_address"
      },
      {
        "astId": 2055,
        "contract": "contracts/PawsForHopeToken.sol:PawsForHopeToken",
        "label": "agents",
        "offset": 0,
        "slot": "6",
        "type": "t_mapping(t_address,t_bool)"
      },
      {
        "astId": 2059,
        "contract": "contracts/PawsForHopeToken.sol:PawsForHopeToken",
        "label": "frozenAccounts",
        "offset": 0,
        "slot": "7",
        "type": "t_mapping(t_address,t_bool)"
      },
      {
        "astId": 2061,
        "contract": "contracts/PawsForHopeToken.sol:PawsForHopeToken",
        "label": "globalFreeze",
        "offset": 0,
        "slot": "8",
        "type": "t_bool"
      },
      {
        "astId": 2063,
        "contract": "contracts/PawsForHopeToken.sol:PawsForHopeToken",
        "label": "redeemAddressContract",
        "offset": 1,
        "slot": "8",
        "type": "t_address"
      }
    ],
    "types": {
      "t_address": {
        "encoding": "inplace",
        "label": "address",
        "numberOfBytes": "20"
      },
      "t_bool": {
        "encoding": "inplace",
        "label": "bool",
        "numberOfBytes": "1"
      },
      "t_mapping(t_address,t_bool)": {
        "encoding": "mapping",
        "key": "t_address",
        "label": "mapping(address => bool)",
        "numberOfBytes": "32",
        "value": "t_bool"
      },
      "t_mapping(t_address,t_mapping(t_address,t_uint256))": {
        "encoding": "mapping",
        "key": "t_address",
        "label": "mapping(address => mapping(address => uint256))",
        "numberOfBytes": "32",
        "value": "t_mapping(t_address,t_uint256)"
      },
      "t_mapping(t_address,t_uint256)": {
        "encoding": "mapping",
        "key": "t_address",
        "label": "mapping(address => uint256)",
        "numberOfBytes": "32",
        "value": "t_uint256"
      },
      "t_string_storage": {
        "encoding": "bytes",
        "label": "string",
        "numberOfBytes": "32"
      },
      "t_uint256": {
        "encoding": "inplace",
        "label": "uint256",
        "numberOfBytes": "32"
      }
    }
  }
}