{
  "address": "0x76e0a9DA47fe2D86bDfe72980B927547C52064Ba",
  "abi": [
    {
      "inputs": [
        {
          "internalType": "address",
          "name": "_tokenPawsForHopeToken",
          "type": "address"
        }
      ],
      "stateMutability": "nonpayable",
      "type": "constructor"
    },
    {
      "inputs": [
        {
          "internalType": "address",
          "name": "owner",
          "type": "address"
        }
      ],
      "name": "OwnableInvalidOwner",
      "type": "error"
    },
    {
      "inputs": [
        {
          "internalType": "address",
          "name": "account",
          "type": "address"
        }
      ],
      "name": "OwnableUnauthorizedAccount",
      "type": "error"
    },
    {
      "anonymous": false,
      "inputs": [
        {
          "indexed": true,
          "internalType": "address",
          "name": "agent",
          "type": "address"
        }
      ],
      "name": "AgentAdded",
      "type": "event"
    },
    {
      "anonymous": false,
      "inputs": [
        {
          "indexed": true,
          "internalType": "address",
          "name": "agent",
          "type": "address"
        }
      ],
      "name": "AgentRemoved",
      "type": "event"
    },
    {
      "anonymous": false,
      "inputs": [
        {
          "indexed": true,
          "internalType": "uint256",
          "name": "postId",
          "type": "uint256"
        },
        {
          "indexed": true,
          "internalType": "address",
          "name": "redeemer",
          "type": "address"
        }
      ],
      "name": "ItemRedeemed",
      "type": "event"
    },
    {
      "anonymous": false,
      "inputs": [
        {
          "indexed": true,
          "internalType": "address",
          "name": "previousOwner",
          "type": "address"
        },
        {
          "indexed": true,
          "internalType": "address",
          "name": "newOwner",
          "type": "address"
        }
      ],
      "name": "OwnershipTransferred",
      "type": "event"
    },
    {
      "anonymous": false,
      "inputs": [
        {
          "indexed": true,
          "internalType": "uint256",
          "name": "postId",
          "type": "uint256"
        }
      ],
      "name": "PostClosed",
      "type": "event"
    },
    {
      "anonymous": false,
      "inputs": [
        {
          "indexed": true,
          "internalType": "uint256",
          "name": "postId",
          "type": "uint256"
        },
        {
          "indexed": true,
          "internalType": "address",
          "name": "creator",
          "type": "address"
        },
        {
          "indexed": false,
          "internalType": "uint256",
          "name": "stock",
          "type": "uint256"
        },
        {
          "indexed": false,
          "internalType": "uint256",
          "name": "price",
          "type": "uint256"
        }
      ],
      "name": "PostCreated",
      "type": "event"
    },
    {
      "inputs": [
        {
          "internalType": "address",
          "name": "_agent",
          "type": "address"
        }
      ],
      "name": "addAgent",
      "outputs": [],
      "stateMutability": "nonpayable",
      "type": "function"
    },
    {
      "inputs": [
        {
          "internalType": "uint256",
          "name": "_postId",
          "type": "uint256"
        }
      ],
      "name": "closePost",
      "outputs": [],
      "stateMutability": "nonpayable",
      "type": "function"
    },
    {
      "inputs": [
        {
          "internalType": "uint256",
          "name": "_stock",
          "type": "uint256"
        },
        {
          "internalType": "uint256",
          "name": "_price",
          "type": "uint256"
        },
        {
          "internalType": "string",
          "name": "_category",
          "type": "string"
        },
        {
          "internalType": "string",
          "name": "_description",
          "type": "string"
        },
        {
          "internalType": "string",
          "name": "_location",
          "type": "string"
        },
        {
          "internalType": "string",
          "name": "_contactInfo",
          "type": "string"
        }
      ],
      "name": "createPost",
      "outputs": [],
      "stateMutability": "nonpayable",
      "type": "function"
    },
    {
      "inputs": [
        {
          "internalType": "address",
          "name": "_address",
          "type": "address"
        }
      ],
      "name": "isAgent",
      "outputs": [
        {
          "internalType": "bool",
          "name": "",
          "type": "bool"
        }
      ],
      "stateMutability": "view",
      "type": "function"
    },
    {
      "inputs": [],
      "name": "owner",
      "outputs": [
        {
          "internalType": "address",
          "name": "",
          "type": "address"
        }
      ],
      "stateMutability": "view",
      "type": "function"
    },
    {
      "inputs": [
        {
          "internalType": "uint256",
          "name": "",
          "type": "uint256"
        }
      ],
      "name": "posts",
      "outputs": [
        {
          "internalType": "address",
          "name": "creator",
          "type": "address"
        },
        {
          "internalType": "uint256",
          "name": "stock",
          "type": "uint256"
        },
        {
          "internalType": "uint256",
          "name": "price",
          "type": "uint256"
        },
        {
          "internalType": "string",
          "name": "category",
          "type": "string"
        },
        {
          "internalType": "string",
          "name": "description",
          "type": "string"
        },
        {
          "internalType": "string",
          "name": "location",
          "type": "string"
        },
        {
          "internalType": "string",
          "name": "contactInfo",
          "type": "string"
        },
        {
          "internalType": "uint256",
          "name": "createdAt",
          "type": "uint256"
        },
        {
          "internalType": "bool",
          "name": "isOpen",
          "type": "bool"
        }
      ],
      "stateMutability": "view",
      "type": "function"
    },
    {
      "inputs": [
        {
          "internalType": "uint256",
          "name": "_postId",
          "type": "uint256"
        }
      ],
      "name": "redeemItem",
      "outputs": [],
      "stateMutability": "nonpayable",
      "type": "function"
    },
    {
      "inputs": [],
      "name": "registerUsers",
      "outputs": [
        {
          "internalType": "contract RegisterUsers",
          "name": "",
          "type": "address"
        }
      ],
      "stateMutability": "view",
      "type": "function"
    },
    {
      "inputs": [
        {
          "internalType": "address",
          "name": "_agent",
          "type": "address"
        }
      ],
      "name": "removeAgent",
      "outputs": [],
      "stateMutability": "nonpayable",
      "type": "function"
    },
    {
      "inputs": [],
      "name": "renounceOwnership",
      "outputs": [],
      "stateMutability": "nonpayable",
      "type": "function"
    },
    {
      "inputs": [],
      "name": "tokenPawsForHopeToken",
      "outputs": [
        {
          "internalType": "contract PawsForHopeToken",
          "name": "",
          "type": "address"
        }
      ],
      "stateMutability": "view",
      "type": "function"
    },
    {
      "inputs": [
        {
          "internalType": "address",
          "name": "newOwner",
          "type": "address"
        }
      ],
      "name": "transferOwnership",
      "outputs": [],
      "stateMutability": "nonpayable",
      "type": "function"
    }
  ],
  "transactionHash": "0xc00d3eb0997f3a9ec516fa14a9aaa7e2f850c67239b1952ee60128a9007d335f",
  "args": [
    "0x5091F028b9a4151EE9acDF255B3a55263508dEa3"
  ],
  "numDeployments": 2,
  "solcInputHash": "6f4fcf22caf99c7c57c3a6335cd04135",
  "bytecode": "0x6080604052600060015534801561001557600080fd5b5060405161134a38038061134a8339810160408190526100349161013e565b338061005b57604051631e4fbdf760e01b8152600060048201526024015b60405180910390fd5b610064816100ee565b506001600160a01b0381166100c95760405162461bcd60e51b815260206004820152602560248201527f496e76616c696420746f6b656e50617773466f72486f7065546f6b656e206164604482015264647265737360d81b6064820152608401610052565b600380546001600160a01b0319166001600160a01b039290921691909117905561016e565b600080546001600160a01b038381166001600160a01b0319831681178455604051919092169283917f8be0079c531659141344cd1fd0a4f28419497f9722a3daafe3b4186f6b6457e09190a35050565b60006020828403121561015057600080fd5b81516001600160a01b038116811461016757600080fd5b9392505050565b6111cd8061017d6000396000f3fe608060405234801561001057600080fd5b50600436106100d45760003560e01c806384e798421161008157806397a6278e1161005b57806397a6278e146101d8578063e70bea1d146101eb578063f2fde38b146101fe57600080fd5b806384e79842146101a15780638da5cb5b146101b4578063972481fe146101c557600080fd5b80633ef02d13116100b25780633ef02d131461015b578063614e988a14610186578063715018a61461019957600080fd5b80630b1e7f83146100d95780631c26dc231461010a5780631ffbb0641461011f575b600080fd5b6100ec6100e7366004610d52565b610211565b60405161010199989796959493929190610db1565b60405180910390f35b61011d610118366004610d52565b610488565b005b61014b61012d366004610e3b565b6001600160a01b031660009081526004602052604090205460ff1690565b6040519015158152602001610101565b60035461016e906001600160a01b031681565b6040516001600160a01b039091168152602001610101565b61011d610194366004610f0e565b6106cf565b61011d610974565b61011d6101af366004610e3b565b610988565b6000546001600160a01b031661016e565b60025461016e906001600160a01b031681565b61011d6101e6366004610e3b565b610a9b565b61011d6101f9366004610d52565b610b54565b61011d61020c366004610e3b565b610c8a565b60056020526000908152604090208054600182015460028301546003840180546001600160a01b0390941694929391929161024b90610fcd565b80601f016020809104026020016040519081016040528092919081815260200182805461027790610fcd565b80156102c45780601f10610299576101008083540402835291602001916102c4565b820191906000526020600020905b8154815290600101906020018083116102a757829003601f168201915b5050505050908060040180546102d990610fcd565b80601f016020809104026020016040519081016040528092919081815260200182805461030590610fcd565b80156103525780601f1061032757610100808354040283529160200191610352565b820191906000526020600020905b81548152906001019060200180831161033557829003601f168201915b50505050509080600501805461036790610fcd565b80601f016020809104026020016040519081016040528092919081815260200182805461039390610fcd565b80156103e05780601f106103b5576101008083540402835291602001916103e0565b820191906000526020600020905b8154815290600101906020018083116103c357829003601f168201915b5050505050908060060180546103f590610fcd565b80601f016020809104026020016040519081016040528092919081815260200182805461042190610fcd565b801561046e5780601f106104435761010080835404028352916020019161046e565b820191906000526020600020905b81548152906001019060200180831161045157829003601f168201915b50505050600783015460089093015491929160ff16905089565b6000818152600560205260409020600881015460ff166104ef5760405162461bcd60e51b815260206004820152600e60248201527f506f737420697320636c6f73656400000000000000000000000000000000000060448201526064015b60405180910390fd5b60008160010154116105435760405162461bcd60e51b815260206004820152601660248201527f4e6f206974656d73206c65667420696e2073746f636b0000000000000000000060448201526064016104e6565b60028101546003546040516370a0823160e01b81523360048201526001600160a01b03909116906370a0823190602401602060405180830381865afa158015610590573d6000803e3d6000fd5b505050506040513d601f19601f820116820180604052508101906105b49190611007565b10156106025760405162461bcd60e51b815260206004820152601a60248201527f496e73756666696369656e7420746f6b656e2062616c616e636500000000000060448201526064016104e6565b60018101805490600061061483611036565b9091555050600354815460028301546040516323b872dd60e01b81523360048201526001600160a01b03928316602482015260448101919091529116906323b872dd906064016020604051808303816000875af1158015610679573d6000803e3d6000fd5b505050506040513d601f19601f8201168201806040525081019061069d919061104d565b50604051339083907fb1eb15dc4b5de6600193c9844a13fce51a803945e8af89faed0f58974b03e6c690600090a35050565b6000861161071f5760405162461bcd60e51b815260206004820152601c60248201527f53746f636b206d7573742062652067726561746572207468616e20300000000060448201526064016104e6565b6000851161076f5760405162461bcd60e51b815260206004820152601c60248201527f5072696365206d7573742062652067726561746572207468616e20300000000060448201526064016104e6565b60008451116107c05760405162461bcd60e51b815260206004820152601860248201527f43617465676f72792063616e6e6f7420626520656d707479000000000000000060448201526064016104e6565b60008351116108115760405162461bcd60e51b815260206004820152601b60248201527f4465736372697074696f6e2063616e6e6f7420626520656d707479000000000060448201526064016104e6565b60018054600091826108228361106f565b90915550604080516101208101825233815260208082018b81528284018b8152606084018b8152608085018b905260a085018a905260c085018990524260e08601526001610100860181905260008881526005909552959093208451815473ffffffffffffffffffffffffffffffffffffffff19166001600160a01b0390911617815591519482019490945592516002840155519293509160038201906108c990826110d7565b50608082015160048201906108de90826110d7565b5060a082015160058201906108f390826110d7565b5060c0820151600682019061090890826110d7565b5060e08201516007820155610100909101516008909101805460ff19169115159190911790556040805188815260208101889052339183917fa449010b893eaee00a1f98d63e14bb12546d5fe4738079a532ac6a1536153de6910160405180910390a350505050505050565b61097c610cc8565b6109866000610cf5565b565b610990610cc8565b6001600160a01b0381166109e65760405162461bcd60e51b815260206004820181905260248201527f43616e6e6f7420616464207a65726f2061646472657373206173206167656e7460448201526064016104e6565b6001600160a01b03811660009081526004602052604090205460ff1615610a4f5760405162461bcd60e51b815260206004820152601b60248201527f4164647265737320697320616c726561647920616e206167656e74000000000060448201526064016104e6565b6001600160a01b038116600081815260046020526040808220805460ff19166001179055517ff68e73cec97f2d70aa641fb26e87a4383686e2efacb648f2165aeb02ac562ec59190a250565b610aa3610cc8565b6001600160a01b03811660009081526004602052604090205460ff16610b0b5760405162461bcd60e51b815260206004820152601760248201527f41646472657373206973206e6f7420616e206167656e7400000000000000000060448201526064016104e6565b6001600160a01b038116600081815260046020526040808220805460ff19169055517fed9c8ad8d5a0a66898ea49d2956929c93ae2e8bd50281b2ed897c5d1a6737e0b9190a250565b6000818152600560205260409020600881015460ff16610bb65760405162461bcd60e51b815260206004820152601660248201527f506f737420697320616c726561647920636c6f7365640000000000000000000060448201526064016104e6565b80546001600160a01b0316331480610bdd57503360009081526004602052604090205460ff165b610c4f5760405162461bcd60e51b815260206004820152602660248201527f4f6e6c792063726561746f72206f72206167656e74732063616e20636c6f736560448201527f20706f737473000000000000000000000000000000000000000000000000000060648201526084016104e6565b60088101805460ff1916905560405182907fc8c5b84ad16852871e3c961bc15ae506c72fcd803553d30e26384d95705f6d0490600090a25050565b610c92610cc8565b6001600160a01b038116610cbc57604051631e4fbdf760e01b8152600060048201526024016104e6565b610cc581610cf5565b50565b6000546001600160a01b031633146109865760405163118cdaa760e01b81523360048201526024016104e6565b600080546001600160a01b0383811673ffffffffffffffffffffffffffffffffffffffff19831681178455604051919092169283917f8be0079c531659141344cd1fd0a4f28419497f9722a3daafe3b4186f6b6457e09190a35050565b600060208284031215610d6457600080fd5b5035919050565b6000815180845260005b81811015610d9157602081850181015186830182015201610d75565b506000602082860101526020601f19601f83011685010191505092915050565b60006101206001600160a01b038c1683528a6020840152896040840152806060840152610de08184018a610d6b565b90508281036080840152610df48189610d6b565b905082810360a0840152610e088188610d6b565b905082810360c0840152610e1c8187610d6b565b60e0840195909552505090151561010090910152979650505050505050565b600060208284031215610e4d57600080fd5b81356001600160a01b0381168114610e6457600080fd5b9392505050565b634e487b7160e01b600052604160045260246000fd5b600082601f830112610e9257600080fd5b813567ffffffffffffffff80821115610ead57610ead610e6b565b604051601f8301601f19908116603f01168101908282118183101715610ed557610ed5610e6b565b81604052838152866020858801011115610eee57600080fd5b836020870160208301376000602085830101528094505050505092915050565b60008060008060008060c08789031215610f2757600080fd5b8635955060208701359450604087013567ffffffffffffffff80821115610f4d57600080fd5b610f598a838b01610e81565b95506060890135915080821115610f6f57600080fd5b610f7b8a838b01610e81565b94506080890135915080821115610f9157600080fd5b610f9d8a838b01610e81565b935060a0890135915080821115610fb357600080fd5b50610fc089828a01610e81565b9150509295509295509295565b600181811c90821680610fe157607f821691505b60208210810361100157634e487b7160e01b600052602260045260246000fd5b50919050565b60006020828403121561101957600080fd5b5051919050565b634e487b7160e01b600052601160045260246000fd5b60008161104557611045611020565b506000190190565b60006020828403121561105f57600080fd5b81518015158114610e6457600080fd5b60006001820161108157611081611020565b5060010190565b601f8211156110d257600081815260208120601f850160051c810160208610156110af5750805b601f850160051c820191505b818110156110ce578281556001016110bb565b5050505b505050565b815167ffffffffffffffff8111156110f1576110f1610e6b565b611105816110ff8454610fcd565b84611088565b602080601f83116001811461113a57600084156111225750858301515b600019600386901b1c1916600185901b1785556110ce565b600085815260208120601f198616915b828110156111695788860151825594840194600190910190840161114a565b50858210156111875787850151600019600388901b60f8161c191681555b5050505050600190811b0190555056fea26469706673582212209c08fcf95926ae6f7a9b44d0fd18e2166330e746e6ed24f1ff3e13d168df7f3964736f6c63430008140033",
  "devdoc": {
    "errors": {
      "OwnableInvalidOwner(address)": [
        {
          "details": "The owner is not a valid owner account. (eg. `address(0)`)"
        }
      ],
      "OwnableUnauthorizedAccount(address)": [
        {
          "details": "The caller account is not authorized to perform an operation."
        }
      ]
    },
    "kind": "dev",
    "methods": {
      "addAgent(address)": {
        "details": "Adds a new agent",
        "params": {
          "_agent": "Address of the agent to add"
        }
      },
      "closePost(uint256)": {
        "details": "Closes an existing post",
        "params": {
          "_postId": "ID of the post to close"
        }
      },
      "constructor": {
        "details": "Constructor initializes the contract with references to other contracts",
        "params": {
          "_tokenPawsForHopeToken": "Address of the PawsForHopeToken contract"
        }
      },
      "createPost(uint256,uint256,string,string,string,string)": {
        "details": "Creates a new post for an item",
        "params": {
          "_price": "Price in PawsForHopeToken tokens",
          "_stock": "Number of items in stock"
        }
      },
      "isAgent(address)": {
        "details": "Checks if an address is an agent",
        "params": {
          "_address": "Address to check"
        }
      },
      "owner()": {
        "details": "Returns the address of the current owner."
      },
      "redeemItem(uint256)": {
        "details": "Redeems an item from a post using tokens",
        "params": {
          "_postId": "ID of the post to redeem from"
        }
      },
      "removeAgent(address)": {
        "details": "Removes an agent",
        "params": {
          "_agent": "Address of the agent to remove"
        }
      },
      "renounceOwnership()": {
        "details": "Leaves the contract without owner. It will not be possible to call `onlyOwner` functions. Can only be called by the current owner. NOTE: Renouncing ownership will leave the contract without an owner, thereby disabling any functionality that is only available to the owner."
      },
      "transferOwnership(address)": {
        "details": "Transfers ownership of the contract to a new account (`newOwner`). Can only be called by the current owner."
      }
    },
    "version": 1
  },
  "userdoc": {
    "kind": "user",
    "methods": {},
    "version": 1
  },
  "storageLayout": {
    "storage": [
      {
        "astId": 8,
        "contract": "contracts/Redeem.sol:Redeem",
        "label": "_owner",
        "offset": 0,
        "slot": "0",
        "type": "t_address"
      },
      {
        "astId": 2466,
        "contract": "contracts/Redeem.sol:Redeem",
        "label": "postIdCounter",
        "offset": 0,
        "slot": "1",
        "type": "t_uint256"
      },
      {
        "astId": 2488,
        "contract": "contracts/Redeem.sol:Redeem",
        "label": "registerUsers",
        "offset": 0,
        "slot": "2",
        "type": "t_contract(RegisterUsers)3447"
      },
      {
        "astId": 2491,
        "contract": "contracts/Redeem.sol:Redeem",
        "label": "tokenPawsForHopeToken",
        "offset": 0,
        "slot": "3",
        "type": "t_contract(PawsForHopeToken)2455"
      },
      {
        "astId": 2495,
        "contract": "contracts/Redeem.sol:Redeem",
        "label": "agents",
        "offset": 0,
        "slot": "4",
        "type": "t_mapping(t_address,t_bool)"
      },
      {
        "astId": 2500,
        "contract": "contracts/Redeem.sol:Redeem",
        "label": "posts",
        "offset": 0,
        "slot": "5",
        "type": "t_mapping(t_uint256,t_struct(Post)2485_storage)"
      }
    ],
    "types": {
      "t_address": {
        "encoding": "inplace",
        "label": "address",
        "numberOfBytes": "20"
      },
      "t_bool": {
        "encoding": "inplace",
        "label": "bool",
        "numberOfBytes": "1"
      },
      "t_contract(PawsForHopeToken)2455": {
        "encoding": "inplace",
        "label": "contract PawsForHopeToken",
        "numberOfBytes": "20"
      },
      "t_contract(RegisterUsers)3447": {
        "encoding": "inplace",
        "label": "contract RegisterUsers",
        "numberOfBytes": "20"
      },
      "t_mapping(t_address,t_bool)": {
        "encoding": "mapping",
        "key": "t_address",
        "label": "mapping(address => bool)",
        "numberOfBytes": "32",
        "value": "t_bool"
      },
      "t_mapping(t_uint256,t_struct(Post)2485_storage)": {
        "encoding": "mapping",
        "key": "t_uint256",
        "label": "mapping(uint256 => struct Redeem.Post)",
        "numberOfBytes": "32",
        "value": "t_struct(Post)2485_storage"
      },
      "t_string_storage": {
        "encoding": "bytes",
        "label": "string",
        "numberOfBytes": "32"
      },
      "t_struct(Post)2485_storage": {
        "encoding": "inplace",
        "label": "struct Redeem.Post",
        "members": [
          {
            "astId": 2468,
            "contract": "contracts/Redeem.sol:Redeem",
            "label": "creator",
            "offset": 0,
            "slot": "0",
            "type": "t_address"
          },
          {
            "astId": 2470,
            "contract": "contracts/Redeem.sol:Redeem",
            "label": "stock",
            "offset": 0,
            "slot": "1",
            "type": "t_uint256"
          },
          {
            "astId": 2472,
            "contract": "contracts/Redeem.sol:Redeem",
            "label": "price",
            "offset": 0,
            "slot": "2",
            "type": "t_uint256"
          },
          {
            "astId": 2474,
            "contract": "contracts/Redeem.sol:Redeem",
            "label": "category",
            "offset": 0,
            "slot": "3",
            "type": "t_string_storage"
          },
          {
            "astId": 2476,
            "contract": "contracts/Redeem.sol:Redeem",
            "label": "description",
            "offset": 0,
            "slot": "4",
            "type": "t_string_storage"
          },
          {
            "astId": 2478,
            "contract": "contracts/Redeem.sol:Redeem",
            "label": "location",
            "offset": 0,
            "slot": "5",
            "type": "t_string_storage"
          },
          {
            "astId": 2480,
            "contract": "contracts/Redeem.sol:Redeem",
            "label": "contactInfo",
            "offset": 0,
            "slot": "6",
            "type": "t_string_storage"
          },
          {
            "astId": 2482,
            "contract": "contracts/Redeem.sol:Redeem",
            "label": "createdAt",
            "offset": 0,
            "slot": "7",
            "type": "t_uint256"
          },
          {
            "astId": 2484,
            "contract": "contracts/Redeem.sol:Redeem",
            "label": "isOpen",
            "offset": 0,
            "slot": "8",
            "type": "t_bool"
          }
        ],
        "numberOfBytes": "288"
      },
      "t_uint256": {
        "encoding": "inplace",
        "label": "uint256",
        "numberOfBytes": "32"
      }
    }
  }
}